:020000040800F2
:100000006805002001010008AB2A00087D220008D5
:10001000A92A00082109000809340008000000008E
:10002000000000000000000000000000792E000821
:10003000D10B000800000000F72D00087B2E0008FF
:100040001B0100081B0100081B0100081B01000820
:100050001B0100081B0100081B0100081B01000810
:100060001B0100081B0100081B0100081B01000800
:100070001B0100081B0100081B0100081B010008F0
:100080001B0100081B0100081B0100081B010008E0
:100090001B0100081B0100081B0100081B010008D0
:1000A0001B010008E12E00081B0100081B010008CD
:1000B0001B0100081B0100081B0100081B010008B0
:1000C0001B0100081B0100081B0100081B010008A0
:1000D0001B0100081D3200081B0100081B0100085D
:1000E0001B0100081B0100081B010008DFF80CD0F1
:1000F00000F086FB00480047613B000868050020CF
:100100000648804706480047FEE7FEE7FEE7FEE7B1
:10011000FEE7FEE7FEE7FEE7FEE7FEE7DD2E00086E
:10012000ED000008202A04DB203A21FA02F0002129
:10013000704721FA02F3D040C2F1200291400843F7
:1001400019467047D2B201E000F8012B491EFBD2DC
:1001500070470022F6E710B513460A4604461946D2
:10016000FFF7F0FF204610BDF0B480EA0102D40F83
:100170004200B2EB410F02D20246084611464A0045
:1001800042D0C30DDDB2C1F3C752AD1A202D35DA0E
:10019000C1F3160141F4000204B15242C5F1200638
:1001A00002FA06F12A411044B3EBD05F23D0C4B168
:1001B000012DA0EBC35009DCF0BC4FF0004202EA75
:1001C000C352DBB200F5000000F0FCB8400000F1C3
:1001D000807000EBC350A0F1807040EAD1704900FC
:1001E00009E0490841EAC071A0EBC35000F50000E6
:1001F000400800EBC350F0BC00F0DBB861420122C4
:1002000002EB4101001BF6E7F0BC704781F00041B2
:10021000AAE780F00040A7E780EA010210B502F0EB
:100220000043400022D04A001FD0010E01EB1261B2
:10023000C0F35600C2F3560240F4000042F400023C
:10024000A0FB022000047F39140400D0401C50EAB7
:10025000124001D44000491EC2B20C0604EBD0107B
:10026000401C4008802A02D003E0002010BD20F08E
:100270000100002900DA0020184310BD30B480EAE4
:10028000010202F0004530F0004221F0004013D09E
:1002900090B1C30DD40DC2F31601C0F31600E41AD9
:1002A00041F4000140F400027D34914201D3641C0A
:1002B00000E04900002C02DA30BC002070474FF407
:1002C00000000023914201D3891A034340084FEAFA
:1002D0004101F7D151B1914202D14FF0004105E007
:1002E00002D24FF0010101E06FF0010103EBC450B5
:1002F000284430BC00F05DB8420005D0C0F3C752BE
:100300005242914201DC0020704700EBC15070471F
:10031000C10F80EAE0700844CA079623002100F06C
:1003200051B800F0004220F00040C10DC0F31600AB
:1003300040F400007F2901DA00207047962903DC91
:10034000C1F19601C84001E096398840002AF4D0F6
:100350004042704700F0004230F000400AD0C10D2A
:1003600001F56071C0F3160042EA0151C20840076E
:100370001143704700200146704701F0004330B43C
:1003800021F0004150EA010206D00A0DA2F5607288
:10039000C1F31301002A02DC30BC00207047440F77
:1003A00044EAC104C100E01830BC00EBC250AFF316
:1003B00000800029A8BF7047401C490008BF20F0FA
:1003C0000100704710B4B0FA80FC00FA0CF050EA5B
:1003D000010404BF10BC704749B1CCF1200421FADC
:1003E00004F411FA0CF118BF012121430843A3EBD7
:1003F0000C01CB1D4FEA00614FEA102042BF0020E4
:1004000010BC704700EBC35010440029A4BF10BCBF
:100410007047401C490008BF20F0010010BC704725
:100420002DE9FE4F804681EA0300C00F0C46009084
:1004300021F0004123F00045B8EB0200A94105D2AC
:100440004046214690461C460B46024623F000409B
:10045000104347D0270DC7F30A00C3F30A51029097
:10046000401A019040286BDAC3F3130040F4801B5C
:100470000098924620B10023D2EB030A63EB0B0BEA
:1004800001985946C0F14002504600F0CBF90646AB
:100490000D4650465946019A00F0D3F910EB08007A
:1004A0006141002487EA115284EAE7731A4340D07D
:1004B000009A62B3019A012A4FEA075215DC001B29
:1004C00061EB02014FF0004202EA0752CDE900421F
:1004D000001C41F5801132462B4600F0D3F903B0E1
:1004E000BDE8F08F40462146F9E7001B61EB0201B1
:1004F000001C41F5801300185B412018A2F500177D
:1005000047EB030140EAD570B6196D4111E06D0863
:100510004FEA360645EAC0754FEA0752001B61EB09
:100520000201001C41F5801149084FEA3000001912
:10053000514132462B4603B0BDE8F04F00F093B96D
:100540000098012240000023D0EB020263EBE0732D
:10055000009821464FEAE074B8EB000061EB04011B
:10056000E9E783F000435BE781F0004158E72DE9BC
:10057000FE4F81EA030404F0004421F0004100949E
:100580004FF0000B23F0004350EA01045ED052EA22
:1005900003045BD0C3F30A54C1F30A552C44A4F2FC
:1005A000F3340194A0FB0254C1F3130141F4801110
:1005B000C3F3130343F4801301FB024400FB034E17
:1005C000840A970A44EA815447EA8357A4FB0768E0
:1005D00002958D0A05FB07854FEA932C04FB0C540A
:1005E0002705029D4FEA065847EA1637B5EB08057E
:1005F0006EEB070C870E920E47EA811742EA8312D0
:10060000A7FB0201B6EB0B0164EB00042B0D43EAE0
:100610000C335E1844EB1C50DA465146E7FB0201EE
:10062000C5F313044FEA0B3343EA14534FEA043281
:10063000019C43EA0603A4F10C040294009CCDE95A
:1006400000B400F01FF903B0BDE8F08F00200146B0
:10065000F9E72DE9F04D81EA030404F0004B21F0A5
:10066000004514464FF0000A23F0004150EA05020D
:1006700020D054EA01021DD0C5F30A570246C5F343
:100680001303C1F31300C1F30A5640F4801543F479
:100690008013A7EB0608101BD64608F2FD3873EB53
:1006A000050002D308F1010801E092185B41B8F19E
:1006B000000F03DA00200146BDE8F08D00204FF462
:1006C0008011064684460EE0171B73EB050705D321
:1006D000121B63EB050306434CEA010C49084FEA81
:1006E000300092185B4150EA0107EDD152EA030055
:1006F00012D082EA040083EA0501084305D0101BEA
:10070000AB4106D20122002306E000224FF0004355
:1007100002E06FF0010253101AEB06004CEB085197
:1007200010EB0A0041EB0B01BDE8F04D00F09BB867
:1007300070B521F0004303430CD0C1F30A550024E7
:10074000D5EB040564EB0403D617AD1AB34102DB05
:100750000020014670BD201841EB025170BD2DE90B
:10076000F04D00231A461B1A8A4103DB0020014684
:10077000BDE8F08DC1F30A52C1F3130141F48015B5
:100780004FF0000BD10702D100186D41521E002717
:10079000044640F2FF11384601EB620A3E468046AD
:1007A000024600204FF48011FFF7BCFCC2197141D2
:1007B000BB1846EB0100B4EB030C75EB000C04D343
:1007C000E41A65EB000517460E46241908F10100EE
:1007D0006D4180463428E3DDF91946EB0600091B1C
:1007E000A84103D24FF0FF32134601E00022134626
:1007F0001BEB070046EB0A51BDE8F04D00F033B8A3
:10080000064C074D06E0E06840F0010394E807005D
:1008100098471034AC42F6D3FFF76CFC2043000835
:1008200040430008202A04DB203A00FA02F10020AD
:1008300070479140C2F1200320FA03F3194390401E
:100840007047202A06DBCB17203A41FA02F043EA30
:10085000E07306E041FA02F3D040C2F12002914079
:1008600008431946704710B5141E73F1000408DAE6
:10087000401C41F1000192185B411A4301D120F064
:10088000010010BD2DE9F04D92469B4611B1B1FA21
:1008900081F202E0B0FA80F220329046FFF7C2FF08
:1008A00004460F4640EA0A0041EA0B0153465A4605
:1008B000084313D0114653EA010019D0C8F1400291
:1008C0005046FFF72FFC05460E4650465946424615
:1008D000FFF7A8FF084305D0012004E02046394671
:1008E000BDE8F08D0020054346EAE0762C4337430F
:1008F0000A986305E40AA0EB08000022FD0A44EA16
:1009000047540A3002D500200146E9E701051019D5
:100910006941DDE9084500196941BDE8F04DA2E7EC
:10092000FEE770B50A460668044631461046FFF7F2
:1009300073FC054631464FF07E50FFF767FC616857
:10094000FFF76AFC2946FFF70FFC606070BD0000EE
:100950002DE9FF5F424CDDE90EABA568D4F80090AD
:10096000984629464846FFF757FCE76864680646FC
:1009700039462046FFF750FC3146FFF747FC01217E
:10098000FFF7BAFC064639462846FFF745FC0746FE
:1009900021464846FFF740FC3946FFF7E5FB0121B9
:1009A000FFF7AAFC074629460846FFF735FC05462F
:1009B00021460846FFF730FC2946FFF7D5FB012109
:1009C000FFF79AFC4FF07E51FFF723FC04463946AF
:1009D0000298FFF721FC054621460198FFF71CFC11
:1009E0002946FFF713FCC8F8000021460098FFF7DE
:1009F00013FC044631460298FFF70EFC2146FFF730
:100A000005FCCAF8000031460198FFF705FC0446D2
:100A100039460098FFF700FC2146FFF7F7FBCBF8BB
:100A200000001049D8F80000FFF7F6FB0E4C2168D3
:100A3000FFF79AFB20600B49DAF80000FFF7ECFBA8
:100A40006168FFF791FB60600649DBF80000FFF783
:100A5000E3FBA168FFF788FBA060BDE8FF9F0000F3
:100A60000000002017B7D138240000202DE9F04FF6
:100A7000554C074689B0E0680E461546014603907E
:100A8000FFF7CAFB0190A06804900146FFF7C4FB82
:100A9000D4F804B0814659465846FFF7BDFBD4F858
:100AA00000A0804651465046FFF7B6FB4146FFF78F
:100AB000ADFB4946FFF7AAFB0199FFF755FBFFF78E
:100AC00049FC8146884659465046FFF7A5FB8246B9
:100AD000DDE90310FFF7A0FB5146FFF745FB0121BD
:100AE000FFF70AFCFFF736FC4A46434602F078FF60
:100AF000FFF743FC3060A1682068FFF78DFB80465C
:100B0000E1686068FFF788FB4146FFF77FFB4FF025
:100B10004041FFF781FBFFF71DFC02F019FDFFF7D5
:100B20002CFC3860D4F80C8041464046FFF774FB3B
:100B30000790D4F808A051465046FFF76DFB069089
:100B4000606801900146FFF767FBD4F80090834688
:100B500049464846FFF760FB5946FFF705FB0699F3
:100B6000FFF754FB0799FFF751FBFFF7F3FB044630
:100B70008B4641464846FFF74FFB80465146019859
:100B8000FFF74AFB4146FFF7EFFA0121FFF7B4FBFD
:100B9000FFF7E0FB22465B4602F022FFFFF7EDFB8A
:100BA0000A4C286021463068FFF736FB306021464A
:100BB0003868FFF731FB386021462868FFF72CFBC7
:100BC000286009B0BDE8F08F00000020E12E6542EA
:100BD000704772B6FEE7F0B58DB00E46074608A91D
:100BE00007A8CDE900011C46154606AB05AA04A9D5
:100BF00003A801F0D5FD05AA04A903A801F056FF3A
:100C00000BA90AA80DF10C0CCDE900019CE8070026
:100C100009ABFFF79DFEDDE90A018DE813000DF138
:100C2000180C9CE80F0002F0FFFA2A4631463846BD
:100C3000FFF71CFF0DB0F0BD10B590F82110002299
:100C4000022905D00421816380F82020012010BDF5
:100C500001680B6823F00E030B6001680B6823F03A
:100C600001030B6090F84030C46B012101FA03F3DB
:100C7000636080F8211080F82020104610BD00002D
:100C800010B590F821100024022903D004218163BB
:100C900001243DE001680A6822F00E020A60016842
:100CA0000A6822F001020A601A4A0168914201D1E1
:100CB000012121E0174A1432914201D110211BE099
:100CC000144A2832914201D1891515E0114A3C326B
:100CD000914201D189140FE00E4A5032914202D163
:100CE0004FF4803108E00B4A6432914202D14FF454
:100CF000801101E04FF08071064A083A51600121ED
:100D000080F82110002180F82010416B01B1884744
:100D1000204610BD080002402DE9F84FDFF8B891D9
:100D20000024A9F1040B23460F2709F1040AABF1B3
:100D3000040EC9E00125A5402A40AA427DD1674E94
:100D4000D1F804C0ACEB0608B44532D014DCBCF1D9
:100D5000030F3AD009DCBCF1000F2AD0BCF1010F1F
:100D60001CD0BCF1020F31D11DE0BCF1110F17D026
:100D7000BCF1120F2AD119E0B8F5881F19D006DC92
:100D8000B8F5803F15D0B8F5801F1FD111E0B8F538
:100D9000001F0ED0B8F5041F18D10AE0CB6815E08B
:100DA000CB681B1D12E0CB6808330FE0CB680C3317
:100DB0000CE08B682BB1012B4FF0080303D0456189
:100DC00004E0042302E0056100E00023FF2A01D8CB
:100DD000064601E000F104064FEA840501D9A5F1B9
:100DE0002005D6F8008007FA05FC28EA0C0803FA6B
:100DF00005F548EA0508C6F800804D68ED0062D5A3
:100E0000374DAE6946F00106AE61AD6924F00306C8
:100E100005F001050095334D06EB050CDCF8085094
:100E2000A607360F07FA06F825EA0805DFF8B880A6
:100E3000404503D14FF0000817E044E0DFF8AC80F4
:100E4000404502D14FF001080FE0DFF8A480404593
:100E500002D14FF0020808E0DFF89880404502D147
:100E60004FF0030801E04FF0040808FA06F848EADA
:100E70000508CCF808804D68D9F80060ED024D46B1
:100E800001D5164300E096432E604D68DAF8006005
:100E9000AD02554601D5164300E096432E604D68DD
:100EA000DBF80060AD035D4601D5164300E09643D4
:100EB0002E604D68DEF80060ED03754601D51643DF
:100EC00000E096432E60641C0D682A46E5407FF4DE
:100ED00031AFBDE8F88F0000080401400000111098
:100EE000001002400000014000080140000C0140D9
:100EF00000100140001401400AB10161704709046B
:100F0000FBE70000014880687047000010000020E7
:100F100070B5040025D094F83D00002520B984F870
:100F20003C50204600F07EFA242084F83D002068E2
:100F3000016821F0010101602068016841F400416D
:100F400001602068016821F40041016000F0C8FBE5
:100F50004D4A6168914201D84C4900E04C498842B1
:100F600001D2012070BD4B492368B0FBF1F15E68EE
:100F700026F03F060E435E606368934206D94FF445
:100F8000967359434FF47A73B1FBF3F12368491C0C
:100F90001E6A26F03F06314319626168914210D8FB
:100FA0004900401EB0FBF1F2521CC2F30B02042AAE
:100FB00001D2042022E0B0FBF1F0401CC0F30B0092
:100FC0001CE0A268F2B301EBC10303EB0116431E60
:100FD000B3FBF6F35B1C43F480431B0549D092B38B
:100FE00001EBC10202EB0111401EB0FBF1F0401C0D
:100FF000C0F30B0040F4804040F400402168CA690F
:101000004CF6FF739A431043C861D4E907100143BB
:101010002068026822F0C00211430160D4E9030194
:1010200001432068826848F2FF339A43114381608C
:10103000D4E9050108432168CA6822F0FF02104381
:10104000C86001E00EE016E02068016841F001018F
:1010500001602564202084F83D00256384F83E501B
:10106000002070BD01EB4106431EB3FBF6F35B1C91
:10107000B3E70120C2E701EB4101401EB0FBF1F0F4
:10108000401CC0F30B00B7E7A086010080841E005F
:1010900000093D0040420F002DE9FF4F83B00025BD
:1010A000DDE910799A4693460446DDF848800095BC
:1010B000FFF728FF064694F83D0020287CD119232D
:1010C000012288492046009601F0EEF90028F5D16A
:1010D00094F83C0001286FD0012084F83C0020687F
:1010E0000168C90703D1016841F00101016020686E
:1010F000016821F400610160222084F83D00402055
:1011000084F83E0025646762A4F82A90608D2085EB
:101110007548E062CDE9008653465A462046049958
:1011200001F0C4F800287CD1208DDFF8C091202781
:1011300068B1012814D00228206801681ED041F44B
:10114000806101602068416980690090BCE020688E
:10115000416981690091016841F400710160B3E067
:101160002068016821F48061016072B620684169DD
:1011700081690091016841F400710AE041F4006165
:10118000016072B62068416981690091016821F4AB
:101190008061016062B697E0032865D801280CD011
:1011A000022843464FF000024946204600960BD0E5
:1011B00001F07AF9A8BB0CE091E0324641462046A6
:1011C00001F018FA68BB72E001F06EF948BB72B624
:1011D00033E02068016821F48061016072B6206804
:1011E0000069616A0870606A401C6062208D401E60
:1011F0002085608D401E60853D4846F2A81100683C
:10120000B0FBF1F0C0EBC00000EB80000090401E8E
:10121000009007D020684069C04340070DD5009872
:10122000F5E727E044F8305F6773A573206940F065
:101230002000206162B625731CE02068016841F43B
:101240000071016020680069616A0870606A401C72
:101250006062218D491E2185618D491E618562B6BE
:1012600021680969017026E032464146204601F0B6
:10127000C1F918B1012007B0BDE8F08F20680069FE
:10128000616A0870606A401C6062208D401E81B2F5
:101290002185608D401E608520684269D2435207D7
:1012A00012D4032903D1016821F480610160206810
:1012B0000069616A0870606A401C6062208D401E8F
:1012C0002085608D401E6085208D00287FF464AFEE
:1012D00084F83D7084F83E5084F83C50CBE70220FF
:1012E000C9E70000020010000000FFFF0400010039
:1012F0001C0000202DE9FF4F83B09A46DDE91197CD
:1013000093460446DDF84080FFF7FCFD054694F85F
:101310003D0020287FD11923012240492046009515
:1013200001F0C2F8002876D194F83C00012872D070
:10133000012084F83C0020680168C90703D10168D6
:1013400041F0010101602068016821F40061016041
:10135000212084F83D00402084F83E0000262664C9
:10136000C4F82480A4F82A90608D20852C48E0627F
:10137000CDE9007553465A462046049901F014F809
:1013800070B930E02A463946204601F06BF958B171
:10139000206C042804D12068016841F400710160C8
:1013A000012007B0BDE8F08F606A2168007808610D
:1013B000606A401C6062218D491E89B22185628D60
:1013C000521E628522685369DB435B070BD469B107
:1013D00000781061606A401C6062208D401E20858C
:1013E000608D401E6085208D0028CBD12A4639466D
:1013F000204601F02DF80028CAD154F83D0B0168B1
:1014000041F400710160202004F81E09E677667738
:101410000020C6E7FFE70220C3E70000020010003B
:101420000000FFFF10B586B00021009101910291EC
:1014300003910068104988421BD1104CA06940F00C
:101440000800A061A069694600F0080004904FF40C
:101450004060009012200190032003900848FFF79D
:101460005BFCE06940F48000E061E06900F480002A
:10147000049006B010BD000000580040001002406B
:10148000000C014002488168027811448160704775
:1014900010000020074810B5016841F010010160FC
:1014A000032000F075F80F2000F006F800F024F893
:1014B000002010BD0020024070B50D4D04464FF4D1
:1014C0007A712878B1FBF0F00A490968B1FBF0F0B5
:1014D00000F0DCFA48B9102C07D200222146501E39
:1014E00000F036F800206C6070BD012070BD000077
:1014F000100000201C0000200C4808B5816941F054
:1015000001018161816901F001010091C16941F02E
:101510008051C161C06900F080500090044841686A
:1015200021F0E06141F00071416008BD001002400F
:1015300000000140002809DB00F01F02012191405A
:101540004009800000F1E020C0F800117047000061
:10155000F0B40E4B1B680C46C3F30223C3F107051E
:10156000042D00D90425191D072901D2002300E00C
:10157000DB1E012606FA05F1491E214099409E40D6
:10158000761E16403143F0BC01F053BF0CED00E075
:10159000064900F0070208684FF6FF03184040EACA
:1015A0000220034A10430860704700000CED00E081
:1015B0000000FA052DE9F0470F46050061D0434EC3
:1015C000306800F00700B84209D2306820F0070008
:1015D00038433060306800F00700B84251D12868C5
:1015E0003B4C810712D5400703D5606840F4E060AA
:1015F00060602878000703D5606840F46050606040
:101600006068A96820F0F000084360602878C0078F
:1016100028D06868012810D02168022810D08907D6
:1016200000292EDA616821F0030101436160FFF7B0
:1016300069FC804641F288390DE021688903EFE7B3
:101640008901EDE7FFF75EFCA0EB0801494502D9EF
:101650000320BDE8F0876068696800F00C00B0EB1B
:10166000810FEFD1306800F00700B8420BD9306825
:1016700020F0070038433060306800F00700B842BF
:1016800001D00120E5E72878400705D56068E968C2
:1016900020F4E060084360602878000706D56068A1
:1016A000296920F4605040EAC100606000F038F819
:1016B0006168084AC1F30311515CC84006490860DB
:1016C00006480068FFF7F8FE0020C2E7002002404D
:1016D00000100240124200081C00002014000020EC
:1016E0000448054900684968044AC1F30221515C75
:1016F000C84070471C000020001002402242000831
:101700000448054900684968044AC1F3C221515C94
:10171000C84070471C000020001002402242000810
:101720000E4A51680E4801F00C03042B11D0082B0F
:101730000FD10C48C1F38343C903C05C0AD551687B
:10174000084AC1F34041921E515C054A5043B0FB28
:10175000F1F0704704494843704700000010024010
:1017600000127A000242000800093D002DE9F84FFE
:10177000040070D02078C04DC00749D06868C0F31D
:101780008100012807D06868C0F38100022809D1D0
:101790006868C00306D52868800339D560680028CA
:1017A000E7D035E06068B0F5803F0BD010B1B0F500
:1017B000A02F11D0286820F480302860286820F4F9
:1017C000802002E0286840F480302860606890B192
:1017D000FFF798FB06460AE0286840F4802028605E
:1017E000F0E700BFFFF78EFB801B642873D82868E2
:1017F0008003F7D50CE0FFF785FB064605E000BF48
:10180000FFF780FB801B6428F0D828688003F7D49A
:1018100020789A4E80074FF001094FF0000839D523
:10182000686810F00C0F07D06868C0F381000228C8
:1018300009D16868C00306D42868800714D52069D8
:10184000012808D110E02069B0B1C6F80090FFF778
:1018500059FB074605E00AE1FFF754FBC01B0228CD
:10186000C4D828688007F7D52868616920F0F80097
:1018700040EAC10028600DE0C6F80080FFF742FB97
:10188000074604E0FFF73EFBC01B022823D8286868
:101890008007F7D4207800072CD57948A169D9B101
:1018A000C0F80090FFF72EFB074604E0FFF72AFB85
:1018B000C01B02280FD8686A8007F7D571484FF41B
:1018C000FA510068B0FBF1F0009000BF0098411E93
:1018D0000091FAD20EE080E0C0F80080FFF712FB22
:1018E000074604E0FFF70EFBC01B022875D8686AA4
:1018F0008007F7D42078400760D5E8690027C0004A
:1019000008D4E86940F08050E861E869012700F0F8
:10191000805000905C480168C90513D40168834673
:1019200041F480710160FFF7EDFA824606E000BFE6
:10193000FFF7E8FAA0EB0A0064284ED8DBF80000B5
:10194000C005F5D5E06801280AD008B1052813D0F4
:10195000286A20F001002862286A20F0040002E0D2
:10196000286A40F001002862E06841F2883B98B1A3
:10197000FFF7C8FA82460BE0286A40F004002862AC
:10198000EEE700BFFFF7BEFAA0EB0A0159455AD8AF
:10199000286A8007F6D50CE0FFF7B4FA824605E026
:1019A000FFF7B0FAA0EB0A0159454CD8286A800726
:1019B000F6D41FB1E86920F08050E861E06988B38F
:1019C0006968C1F38101022944D00228C6F8608009
:1019D00004D0FFF797FA044638E034E0FFF792FAB4
:1019E000074604E0FFF78EFAC01B02282BD82868B0
:1019F0008001F7D4206AB0F5803F05D16868A168FE
:101A000020F4003008436860D4E90801084369689D
:101A100021F4741108436860C6F86090FFF772FA09
:101A2000044606E025E000BFFFF76CFA001B022821
:101A300009D828688001F7D51BE000BFFFF762FADC
:101A4000001B022802D90320BDE8F88F2868800116
:101A5000F4D40EE00128F7D06868226A00F48031DF
:101A6000914204D1616A00F47010884201D00120D3
:101A7000EAE70020E8E700000010024000004242D0
:101A8000800442421C0000200070004010B5401E3F
:101A9000B0F1807F01D3012010BD4FF0E0246061E0
:101AA0000F21601701F0C5FC0020A0610720206114
:101AB000002010BD7047704770B590F83C20012A97
:101AC00026D0012480F83C40022280F83D200368A3
:101AD0005A689D6822F070060A6832435A600D4BBE
:101AE00002689A4208D0B2F1804F05D00A4B9A4260
:101AF00002D00A4B9A4204D1496825F08003194369
:101B0000916080F83D40002180F83C10084670BD8F
:101B1000022070BD002C014000040040000800407D
:101B200010B5040003D094F83D0010B107E0012087
:101B300010BD002084F83C00204600F01FF8022071
:101B400084F83D00211D206801F0D0F9012084F8BF
:101B5000460084F83E0084F83F0084F8400084F892
:101B6000410084F8420084F8430084F8440084F87B
:101B7000450084F83D00002010BD000008B5006855
:101B80000B49884212D10B48816941F4006181619F
:101B90008069002200F40060009011461920FFF7D0
:101BA000D7FCBDE808401920FFF7C4BC08BD000001
:101BB000002C01400010024090F83D10012901D096
:101BC00001207047022180F83D100168CA6842F088
:101BD0000102CA6000680B49884208D0B0F1804F0A
:101BE00005D00949884202D00849884204D1816859
:101BF00001F00701062903D0016841F001010160ED
:101C000000207047002C0140000400400008004004
:101C100070B5044690F83C000025012817D0012635
:101C200084F83C60022084F83D002068826822F03D
:101C3000770222F47F4282600868502838D00DDC99
:101C400020284FD005DC90B3102811D14AE00220A3
:101C500070BD302846D040280AD13BE060282FD004
:101C600070280DD0B0F5805F03D0B0F5005F12D0C2
:101C7000012584F83D60002084F83C00284670BDB2
:101C8000CB68D1E90121206801F06CF920688168F6
:101C900041F0770109E0CB68D1E90121206801F02A
:101CA00061F92068816841F480418160E1E719E0D1
:101CB000CA684968206801F067F95021206806E089
:101CC000CA684968206801F070F96021206801F055
:101CD00053F9CEE7CA684968206801F055F94021F8
:101CE0002068F4E7226801461046F0E770472DE9C6
:101CF000F04104460068C66805694FF00007A9076F
:101D000013D5B10711D5F91E016101202077206894
:101D100080698007204602D0FFF7E8FF04E000F06A
:101D20007EF8204600F07CF82777680716D5700704
:101D300014D521686FF00400086102202077206824
:101D4000806910F4407F204602D0FFF7CFFF04E007
:101D500000F065F8204600F063F82777280715D5CE
:101D6000300713D521686FF0080008610420207740
:101D70002068C0698007204602D0FFF7B7FF04E063
:101D800000F04DF8204600F04BF82777E80616D50E
:101D9000F00614D521686FF0100008610820207744
:101DA0002068C06910F4407F204602D0FFF79EFFF4
:101DB00004E000F034F8204600F032F82777E80716
:101DC00008D0F00706D021686FF0010008612046B6
:101DD00000F028F8280608D5300606D521686FF0EF
:101DE000800008612046FFF765FE680608D570068A
:101DF00006D521686FF040000861204600F040F8E9
:101E0000A8060AD5B00608D521686FF02000086141
:101E10002046BDE8F041FFF74EBEBDE8F0817047B7
:101E200070470000FEB5124988421FD1114B02AA2B
:101E300001A96846FEF7CFFE0F4E02983146FEF725
:101E4000EBF9FEF76EFA05B20C490098FEF7E4F9DB
:101E5000FEF767FA04B231460198FEF7DDF9FEF7A6
:101E600060FA00B22A46214600F0C6FFFEBD00001F
:101E7000D8000020A69B443B0000C8C20000C84216
:101E80007047704770470000F8B50168044608685D
:101E9000CA684B6910F00F0F4FF0000559D003F0DE
:101EA000010602F49077374365D0C10705D0D1050C
:101EB00003D5616C41F001016164410705D5D90783
:101EC00003D0616C41F002016164810705D5D90737
:101ED00003D0616C41F004016164010707D502F091
:101EE0002001314303D0616C41F008016164616CF1
:101EF00000293AD0800604D5900602D5204601F08C
:101F000095F820684069616CC0F38010090700D41F
:101F100060B3204601F063F820684069400621D58F
:101F20002068143050E8001F21F0400140E8001202
:101F3000002AF5D1E06BA8B16D494163E06BFEF773
:101F40009FFE002811D0E06B416B01B0BDE8F0406E
:101F5000084783060FD593060DD52046BDE8F84007
:101F600001F064B82046FFF78DFFF8BD2046FFF76B
:101F700089FF6564F8BD266B2023012E7CD1C6063F
:101F80007AD5D60678D508684868009048694FF039
:101F90000206400640D5E16B086840680004000C6A
:101FA000E8D0A28D8242E5D9E085886920282DD02D
:101FB00020680C3050E8001F21F4807140E80012C6
:101FC000002AF5D12068143050E8001F21F00101EB
:101FD00040E80012002AF5D12068143050E8001FB4
:101FE00021F0400140E80012002AF5D184F8423087
:101FF000256320680C3050E8001F21F0100140E8F4
:102000000012002AF5D1E06BFEF716FE6663A08D84
:10201000E18D401A81B22AE0A08DE18D401A81B293
:10202000E08D0028A6D00029A4D022680C3252E806
:10203000000F20F4907042E80007002FF5D12068CF
:10204000143050E8002F22F0010240E80027002F52
:10205000F5D184F84230256320680C3050E8002F19
:1020600022F0100240E80023002BF5D166632046E1
:10207000FFF707FFF8BDFFE705062BD5150629D5A5
:1020800094F841002128F5D1A068B0F5805F01D116
:102090002069B0B1206A411C216221680078486043
:1020A000E08C401E0004000CE084E3D12068C1688D
:1020B00021F08001C1602068C16841F04001C16029
:1020C000D8E7206A0088C0F308004860206A801CB6
:1020D0002062E5E74006CDD55006CBD5CA6820463C
:1020E00022F04002CA6084F8413000F0C6F8C1E72F
:1020F000CF2F000870B5040004D094F841000025EB
:1021000010B106E0012070BD84F84050204600F078
:1021100023F8242084F841002068C16821F400518C
:10212000C160204600F0E4FF2068016921F490417D
:1021300001612068416921F02A0141612068C1687C
:1021400041F40051C1606564202084F8410084F8A6
:1021500042006563002070BD30B585B00024009456
:102160000194029403940068184988422CD11848BD
:10217000816941F480418161816901F48041049168
:10218000816941F0040181618069124D00F0040011
:1021900004904FF4007000900220019003200390FF
:1021A00069462846FEF7B8FD2815CDE900046946C2
:1021B00028460294FEF7B0FD002211462520FFF7C5
:1021C000C7F92520FFF7B6F905B030BD003801404A
:1021D000001002400008014070472DE9F843044612
:1021E00090F84100984616460D46202802D002205D
:1021F000BDE8F88385B17EB100206064212084F8B9
:102200004100FEF77FFEA6848146E684A068202771
:10221000B0F5805F02D003E00120E9E7206910B14A
:102220002E4600250EE000260CE08021204600F01E
:10223000BBFFA8B9C6B116F8010B21684860E08C55
:10224000401EE084E08C4B464FF00002CDF8008049
:102250000028EAD14FF04001204600F0A5FF40B130
:1022600084F841700320C3E735F8020BC0F308007F
:10227000E3E784F841700020BAE77047FEE70168A1
:102280004A69D24352050FD46FF480624A6100213B
:1022900040F8301F202242738173026942F0040229
:1022A0000261017301207047002070472DE9F84F4B
:1022B0000446006889460B9D01689846174641F41C
:1022C000806101602068016841F4807101600095BF
:1022D0004FF0011B0022594620460A9B00F0E4F80B
:1022E0004FF4007A40B120680068C00501D5C4F8F9
:1022F00040A00320BDE8F88F216809F0FE000861C6
:102300002B46284920460A9A00F016F9F0BB2068AF
:102310004169806900902A4620460A9900F0A2F996
:1023200040B1206C04283AD12068016841F4007162
:10233000016034E0FEB2B8F1010F09D02168380A1B
:1023400008612A4620460A9900F08CF90028E8D155
:10235000206806612A4620460A9900F083F9002881
:10236000DFD12068016841F480710160009500228E
:10237000594620460A9B00F097F80028B3D12168FF
:1023800009F0FF0040F00100086100E007E02B4683
:10239000044920460A9A00F0CFF80028AAD001206C
:1023A000A8E70000020001002DE9F8430446006898
:1023B0000D46DDE9089701689846164641F480719C
:1023C00001604B4600224FF001112046009700F0BB
:1023D0006BF848B120680068C00502D54FF4007062
:1023E00020640320BDE8F883216805F0FE00086141
:1023F0003B464A461549204600F09EF888B92068B9
:102400004169806900903A464946204600F02AF921
:1024100048B1206C042804D12068016841F400719F
:1024200001600120DEE7F5B2B8F1010F09D02168A3
:10243000300A08613A464946204600F013F9002860
:10244000E7D1206805610020CCE700000200010010
:1024500070B516460D4604461EE02046FFF70FFFF6
:1024600008B1012070BD681C16D0FEF74BFD801B23
:10247000A84200D885B920684069C04340070BD501
:10248000002044F8300F20216173A073216941F0CE
:10249000200121612073E4E720684069C0434007C0
:1024A000DBD4002070BD00002DE9F04798461746A8
:1024B0000D460446C1F30746DDF820902AE000BF30
:1024C000B8F1FF3F26D0FEF71DFDA0EB0901414505
:1024D00002D8B8F1000F1DD12068012E16D08069F6
:1024E00025EA00000004000C12D00020B84211D1EF
:1024F000002044F8300F20216173A073216941F05E
:102500002001216120730120BDE8F0874069E7E7E1
:102510000120EBE72068012E0AD0806925EA00003F
:102520000004000C06D00020B842C9D00020EBE720
:102530004069F3E70120F7E72DE9F0479846164692
:102540000D4604464FF000094FF0200AC1F307473B
:1025500023E020684069C043400515D42068016825
:1025600041F40071016021686FF480604861C4F833
:10257000309084F83DA084F83E90216C41F0040135
:10258000216484F83C9021E0701C06D0FEF7BAFC70
:10259000A0EB0800B04203D816B1012F1FD021E0F4
:1025A0002068012F15D0806925EA00000004000C86
:1025B00018D000BF44F8309F84F80DA084F80E9026
:1025C000216941F02001216184F80C900120BDE8CF
:1025D000F087406925EA00000004000CEAD1206879
:1025E000406901E02068806925EA00000004000CD1
:1025F000AFD1ECE72DE9F041002590460E460446A8
:10260000202728E04069C043C0060CD454F8301B92
:102610006FF01000486144F810596777A577206A79
:102620002062257714E0FEF76DFCA0EB0800B042B5
:1026300000D886B920684069C04340060BD544F8ED
:10264000305F6773A573206940F020002061257317
:102650000120BDE8F08120684169C9434906D1D411
:102660000020F6E770B516460D4604461EE02046EB
:10267000FFF705FE08B1012070BD681C16D0FEF7FB
:1026800041FC801BA84200D885B920684069C0433E
:1026900000060BD5002044F8300F20216173A07391
:1026A000216941F0200121612073E4E7206840693D
:1026B000C0430006DBD4002070BD2DE9F041884600
:1026C000044601688068FDF74FFD05466168FDF727
:1026D0004BFD01462846FDF7D1FDE060276906461F
:1026E00039464046FDF792FD3146FDF795FD3946E6
:1026F000FDF73AFD206131464FF07E50FDF786FD33
:102700002946FDF789FDA060BDE8F0812DE9F04183
:1027100086B08046012504A8CDE9000564242B4637
:102720007522D02102944046FEF7B6FC9DF81000B9
:10273000682803D0012006B0BDE8F081002703AE71
:102740008DF80C700096CDE9015401236B22D02145
:102750004046FEF7CFFD8DF80C700096CDE9015490
:1027600001231B22D0214046FEF7C4FD8DF80C70DA
:102770000096CDE9015401231C22D0214046FEF7EA
:10278000B9FD03208DF80C000096CDE9015401231A
:102790001A22D0214046FEF7ADFD0020CBE7000015
:1027A0002DE9F0478AB00E46DDE9129A80461C46B4
:1027B00015466946194800F037F86FF00D0739469D
:1027C0000398FDF799FDC8F8000039460498FDF715
:1027D00093FD306039460598FDF78EFD2860104D59
:1027E00006982946FDF74AFD0E4E3146FDF714FDC9
:1027F000206029460798FDF741FD3146FDF70CFDA5
:10280000C9F8000029460898FDF738FD3146FDF764
:1028100003FDCAF800000AB0BDE8F087840000207C
:102820000000034335FA8E3CF0B50C460646002105
:10283000404B414D414F87B04FEA010001EB81020F
:10284000491C45F8223005EB82020329C2E90170D8
:10285000D0601061F2DB384A0021394B12F13C02A2
:1028600002EBC10742F83130491C78600329F7DBDD
:1028700064220E2103A88DE8070001233B22D0210A
:102880003046FEF709FCBDF80C0040BA00B22080CB
:10289000BDF80E1049BA6180BDF8101049BAA18088
:1028A000BDF8141049BAE180BDF8161049BA21816B
:1028B000BDF8181049BA6181FDF72AFD01461E488E
:1028C000FFF7FBFEB4F90200FDF722FD01461A48AE
:1028D0001430FFF7F2FEB4F90400FDF719FD0146CC
:1028E00015482830FFF7E9FEB4F90600FDF710FDA2
:1028F000014611483C30FEF714F8A061B4F9080015
:10290000FDF706FD01460C484430FEF70AF8E06189
:10291000B4F90A00FDF7FCFC014607484C30FEF70D
:1029200000F820622869E060686A2061A86B606135
:1029300007B0F0BD0AD7A33C300000206F12833AE5
:102940009A99193E70B586B000241C4800940194F1
:1029500002940394816941F010018161816901F061
:1029600010010491816941F020018161816901F0C8
:1029700020010491816941F008018161816901F0C0
:1029800008010491816941F004018161806901229B
:1029900000F004000A4E5503049029463046FEF725
:1029A000ABFA01200095CDE90104022003906946AD
:1029B0003046FEF7B1F906B070BD000000100240CD
:1029C000001001400D4810B50B4901600C494160F1
:1029D00000214FF480428160C0E9031241618161AE
:1029E000C1610162FEF794FA002803D0BDE81040EF
:1029F000FEF7EFB810BD0000005800408400002032
:102A0000A086010010B586B00024184800940194F7
:102A100002940394049414490594016040F2CF2178
:102A2000C0E9011440F22B11C0E903148021C0E970
:102A30000541FFF775F808B1FEF7CBF84FF4805069
:102A4000009069460948FFF7E3F808B1FEF7C1F8BE
:102A5000049404A905480594FFF72EF8002801D036
:102A6000FEF7B7F806B010BD002C0140D8000020DA
:102A70000C4810B50A4901604FF4E1314160002172
:102A800081600C22C160C0E904128161C161FFF75D
:102A900031FB002803D0BDE81040FEF79AB810BD06
:102AA0000038014020010020FEE7FEE72DE9F0415B
:102AB000064610680D4614460146FDF7ADFB8046FC
:102AC00028680146FDF7A8FB074630680146FDF778
:102AD000A3FB3946FDF748FB4146FDF745FBFDF7F3
:102AE00039FC01F06FF8FDF748FC074639463068BD
:102AF000FDF7C4FB306039462868FDF7BFFB28604E
:102B000039462068FDF7BAFB2060BDE8F08170B55A
:102B100000240021204600F0F3F80025002000F0FA
:102B200059F96D1CEDB2802DF8D3641CE4B2082C69
:102B3000EFD370BD124810B5816986B041F008012D
:102B4000816180690F4C00F0080004900020029021
:102B50004FF44070009011200190032003906946CB
:102B60002046FEF7D9F8012211022046FEF7C4F9EB
:102B7000012251022046FEF7BFF906B010BD000049
:102B800000100240000C01402DE9F047164E0024D1
:102B900007464FF080084FF40079B51528FA04F085
:102BA000384201D0012200E0002249463046FEF7BB
:102BB000A3F9012229463046FEF79EF90022294654
:102BC0003046FEF799F9641CE4B2082CE6D30122E2
:102BD00029463046FEF790F929463046BDE8F047D1
:102BE0000022FEF789B90000000C014070B50122F7
:102BF0000B4D540221462846FEF77EF901221602AB
:102C000031462846FEF778F9002221462846FEF78D
:102C100073F931462846BDE870400022FEF76CB9D2
:102C2000000C014070B50A4D4FF40074002221469B
:102C30002846FEF761F9012211022846FEF75CF9E9
:102C400021462846BDE870400122FEF755B9000034
:102C5000000C014010B500204FF47A720021491C8D
:102C60009142FCD3401C9042F8D3FFF763FFAE20A3
:102C700000F09FF8D52000F09CF8802000F099F833
:102C8000A82000F096F83F2000F093F8D32000F041
:102C900090F8002000F08DF8402000F08AF8A12084
:102CA00000F087F8C82000F084F8DA2000F081F8FE
:102CB000122000F07EF8812000F07BF8CF2000F099
:102CC00078F8D92000F075F8F12000F072F8DB20D8
:102CD00000F06FF8302000F06CF8A42000F069F8E4
:102CE000A62000F066F88D2000F063F8142000F0B4
:102CF00060F8AF2000F05DF8BDE81040FFF707BFB7
:102D000010B50C4640F0B00000F053F8102040EA37
:102D1000141000F04EF804F00F00BDE8104000F071
:102D200048B800002DE9F0410746CE004000083EBB
:102D3000801E15464FF0FF38F1B2C0B2FFF7E0FF3A
:102D40001148002400EB05152819A0F5805090F8D3
:102D5000000E00F03FF8641CE4B2082CF4D308EB3A
:102D60004700F1B2C0B2FFF7CBFF00242819A0F54D
:102D7000805090F8080E00F02DF8641CE4B2082C86
:102D8000F4D3BDE8F0810000103C00082DE9F041CB
:102D900015460E460746002406E03019C1B23846F3
:102DA000FFF7C0FF641CE4B22A5D002AF5D1BDE83C
:102DB000F08110B50446FFF719FF7820FFF7E4FE15
:102DC0000020FFF7E1FE2046FFF7DEFEBDE81040E1
:102DD000FFF728BF10B50446FFF708FF7820FFF77C
:102DE000D3FE4020FFF7D0FE2046FFF7CDFEBDE822
:102DF0001040FFF717BF70477FB5002301938DF890
:102E00000400000A8DF805000093AA248DF8004004
:102E10008DF80610080AFF2402938DF801408DF802
:102E2000070003248DF80820100A8DF802408DF861
:102E3000090007241E468DF8034000201D46039319
:102E40008DF80A606946241D06E00A5C1A44D3B274
:102E5000EA18401CD5B2C0B28442F6D88DF80B30C7
:102E60008DF80C504FF0FF330D220248FFF7B5F9F3
:102E70007FBD0000200100207047FEF703BB30B586
:102E80008FB028216846FDF764F914210AA8FDF7E0
:102E900060F901210804CDE9001000240294022504
:102EA0000491CDE907504FF4E01009906846FEF711
:102EB0005DFC08B172B6FEE70F20CDE90A054FF4BC
:102EC0008060CDE90C4002210AA80E94FEF772FB47
:102ED000002801D072B6FEE70FB030BD7047000089
:102EE0000148FEF704BF0000D8000020F0B50268DA
:102EF000194B1A4C1A4D4FF08047984205D0B842F2
:102F000003D0A04201D0A84203D122F070064A6843
:102F10003243984205D0B84203D0A04201D0A84223
:102F200003D122F44074CA6822434C6922F0800223
:102F3000224302608A68C2620A688262984201D1B2
:102F400009690163012141610169C90703D0016970
:102F500021F001010161F0BD002C0140000400409E
:102F60000008004010B5846842EA032224F47F443C
:102F70000A432243826010BD826822F070020A4335
:102F800042F007018160704710B5036A046A24F0BB
:102F900001040462846924F0F00444EA021423F07A
:102FA0000A020A438461026210BD10B5036A046A12
:102FB00024F010040462846923F0A00324F4704414
:102FC00044EA023243EA01118261016210BD10B588
:102FD000406A0021C185C184FEF754FF10BD01681D
:102FE0000C3151E8002F22F4907241E80023002BAD
:102FF000F5D10168143151E8002F22F0010241E8B7
:103000000023002BF5D1016B012909D101680C3196
:1030100051E8002F22F0100241E80023002BF5D1E7
:10302000202180F8421000210163704708B590F814
:103030004210222901D0022008BD82684FF480533B
:103040009A4201D1016921B1816A9A421BD04AB1E9
:103050000AE00268816A5268C2F308020A80816A43
:10306000891C08E0026972B10268526802F07F02AE
:103070000A70816A491C8162C18D491E0904090CCC
:10308000C18503D01BE002685268F1E70168CA6895
:1030900022F02002CA600168CA6822F48072CA6005
:1030A00001684A6922F001024A61202180F8421039
:1030B00000214163026B012A03D0FFF78DF8002045
:1030C00008BD016301680C3151E8002F22F01002A5
:1030D00041E80023002BF5D101680A68D20602D529
:1030E0000A6849680091818DFEF7CBFEE7E7000092
:1030F00070B5044600680169E26821F4405111434B
:1031000001612169A0680843616908432168CA68B0
:1031100041F20C639A430243CA6020684169A26984
:1031200021F44071114341611E492068884202D157
:10313000FEF7E6FA01E0FEF7D3FA00EBC00101EB7F
:103140000012606864218000B2FBF0F3B3FBF1F37E
:103150006FF018067343B2FBF0F5B2FBF0F605EB27
:103160008305322303EB0515B5FBF1F5B6FBF1F64C
:1031700005F0F00505EB0615B2FBF0F6B2FBF0F03A
:10318000B0FBF1F06FF01802504306EB800003EB48
:103190000010B0FBF1F0216800F00F0028448860B7
:1031A00070BD0000003801402DE9F84398461746ED
:1031B0000D460446089E24E0701C22D0FDF7A2FEB6
:1031C000A0EB0800B0421AD8CEB12068C168490708
:1031D00017D5802D15D0402D13D00168C94309079C
:1031E0000FD401680025406800902046FFF7F7FEE5
:1031F0000820606484F840500120BDE8F883032073
:10320000FBE72068006835EA000004D00020B842DF
:10321000D2D00020F1E70120F9E700000148FEF7D5
:1032200033BE0000200100202DE9F04F8DB0044690
:10323000DDE917800F46994692464FF080454FF0E2
:10324000FF31169EFDF758F8039049462846FCF7D3
:10325000E3FF2146FCF788FF694C2168FCF784FFF7
:10326000059031462846FCF7D7FF3946FCF77CFF2E
:103270006168FCF779FF069041462846FCF7CCFFD1
:103280005146FCF771FFA168FCF76EFF07900799A4
:103290005C4CE0680290FCF7BFFF06990646D4F844
:1032A00008B05846FCF7B8FF0546606805998246A5
:1032B00080F00040FCF7B0FF2946FCF7A7FF31463D
:1032C000FCF7A4FF0399FCF7A7FF079907465846A8
:1032D000FCF7A2FF069906460298FCF79DFF0599A8
:1032E0000546D4F800904846FCF796FF2946FCF7BF
:1032F0008DFF3146FCF738FF0399FCF78DFF0799E6
:1033000006465046FCF788FF069980464846FCF77B
:1033100083FF059905460298FCF77EFF2946FCF7D6
:1033200023FF4146FCF772FF0399FCF775FF0799ED
:1033300005464846FCF770FF059907905846FCF78C
:103340006BFF069980465046FCF766FF4146FCF746
:103350005DFF0799FCF708FF0399FCF75DFF8046C6
:1033600039464846FCF700FF074620603146504684
:10337000FCF7FAFE0646606029465846FCF7F4FE64
:103380000546A06041460298FCF7EEFE0146E0606B
:10339000FCF742FF804629460846FCF73DFF0546FC
:1033A00031460846FCF738FF064639460846FCF722
:1033B00033FF3146FCF7D8FE2946FCF7D5FE4146DF
:1033C000FCF7D2FEFCF7C6FF00F0FCFBFCF7D5FFD4
:1033D000054629462068FCF751FF206029466068B1
:1033E000FCF74CFF60602946A068FCF747FFA0602F
:1033F0002946E068FCF742FFE0600DB0BDE8F08FC1
:103400002400002000000020FEE7490050EAC1200F
:1034100018BF04204A0D18BF40F0010040F2FF72AF
:10342000B2EB515F08BF40F00200012808BF052041
:1034300070470907090E002804DB00F1E02080F83E
:103440000014704700F00F0000F1E02080F8141D18
:1034500070472DE9F0414F1E00EBC7010446D1E94A
:10346000000115461E4637F006020DD02A463346A7
:10347000FDF77DF87F1E04EBC703D3E90023FCF7BB
:10348000CFFF37F00602F1D1022F25D0042F13D041
:10349000062F18BFBDE8F0812A463346FDF767F8CE
:1034A000D4E90A23FCF7BCFF2A463346FDF75FF850
:1034B000D4E90823FCF7B4FF2A463346FDF757F852
:1034C000D4E90623FCF7ACFF2A463346FDF74FF854
:1034D000D4E90423FCF7A4FF2A463346FDF747F856
:1034E000D4E90223FCF79CFF2A463346FDF73FF858
:1034F000D4E90023BDE8F041FCF792BF0122FDF7BB
:1035000017B9FCF78DBF0022134610461146FDF790
:10351000A0B80000024A00201107FDF709B9000019
:1035200001FDFFFF02E008C8121F08C1002AFAD1FE
:1035300070477047002001E001C1121F002AFBD133
:10354000704700000149086070470000200000201B
:103550002DE9F04D8D4F21F0004A86B005460C460E
:10356000BA452ADBAAEB070028430AD088488245DF
:1035700001DC1AD1CDB106B02846BDE8F04DFFF709
:10358000BDBF844A844B2846FCF7F1FF07460E4630
:10359000824A834B28462146FCF7E9FF06B03A46AB
:1035A0003346BDE8F04DFCF73BBF0120FFF7CAFFF3
:1035B00006B0BDE8F04DFFF7A6BF7A48824542DA73
:1035C000BAF1795F0BDA2846FFF71FFF042808BF1E
:1035D000FFF7A0FF284606B02146BDE8F08D2A4639
:1035E0000B461046FCF7C3FF834602466E480E4664
:1035F0000B4606217844FFF72CFF5A463346FCF76A
:10360000B6FF804669488A465A46334604217844C4
:10361000FFF71FFF5A463346FCF7A9FF00223B463F
:10362000FCF7FEFE02460B4640465146FDF711F8F8
:103630002A462346FCF79BFF06B02A462346BDE8F0
:10364000F04DFCF7EDBE284624F0004100223D4637
:103650003B46FCF789FF4FF0FF32FDF769F806465D
:10366000024653480F460B4606217844FFF7F1FE09
:1036700032463B46FCF77BFFCDE900014D48324620
:103680003B4604217844FFF7E4FE32463B46FCF714
:103690006EFF00222B46FCF7C3FE834602913046A4
:1036A000394600F08FFA804643480D46504517DCF6
:1036B000DDE900015A46029BFCF7CBFF42462B4650
:1036C000FCF755FF42462B46FCF7AAFE0122FDF708
:1036D0002FF8304A304BFCF744FF304A304B4CE077
:1036E0004FF0000A52460B464046FCF799FECDE9E2
:1036F000031052462B4610461946FCF738FF324657
:103700003B46FCF731FFDDE90332FCF7A2FF06463A
:103710000F46DDE900015A46029BFCF79AFF8346FB
:103720000091012230463946FDF702F8194A1A4B3A
:10373000FCF71AFF06460F46012240462946FCF7D1
:10374000F7FF5A46009BFCF712FF32463B46FCF758
:1037500008FF06460F46012250462946FCF7E8FFBF
:103760000E4DDFF858802A464346FCF7FDFE3246F0
:103770003B46FCF7F9FE2A464346FCF7F5FE002CD3
:10378000D8BF81F0004106B0BDE8F08D0000F03FE9
:103790000000F07F075C143326A6913C182D44549A
:1037A000FB21F93F0000E03F380C00004E0C000008
:1037B000C20B0000D80B00003333EF3FFB21E93F81
:1037C0002DE9F84F04460D4621F000400091734961
:1037D000814211DC7249884201DC06D12CB12046BD
:1037E0002946BDE8F84FFFF789BE6E48002DCCBFD3
:1037F0006D496E49BDE8F88F6D49814211DD6D4913
:103800008142D8BF4FF0FF366DDD20462946FFF7D5
:10381000FCFD042808BFFFF77DFE20462946BDE8D1
:10382000F88F6549654F25F00045814233DD6449D5
:10383000814219DD002632464FF08043204629465A
:10384000FCF7EEFD80468A46012220462946FCF719
:103850006FFF00223B46FCF784FE42465346FCF7CE
:10386000F8FE04460D463EE001260022BA463B46DD
:1038700020462946FCF7D4FD80460F4600225346D9
:1038800020462946FCF76DFE42463B46FCF7E1FE2A
:1038900004460D4627E04B4981421BDDDFF828A195
:1038A00002260022534620462946FCF760FE0022ED
:1038B0003B46FCF7B5FD80460F46002253462046A6
:1038C0002946FCF74EFE42463B46FCF7C2FE044644
:1038D0000D4608E0032622462B4600203B49FCF714
:1038E000B8FE04460D4622462B4610461946FCF704
:1038F0003EFE8B46824602460B46FCF738FE0746E4
:103900000246334888460B4606217844FFF7A1FD5E
:1039100052465B46FCF72BFE82462E488B463A46C3
:10392000434605217844FFF794FD3A464346FCF7A9
:103930001EFE02460B46002E504659460CDAFCF796
:103940006FFD22462B46FCF712FE01B022462B46A5
:10395000BDE8F04FFCF708BEFCF762FD22462B469F
:10396000FCF705FE1C4A7A4402EBC603D3E90023A8
:10397000FCF7F7FD22462B46FCF7F3FD174A7A4485
:1039800002EBC603D3E90023FCF7EEFD009A002A00
:10399000B8BF81F00041BDE8F88F0000000010447E
:1039A0000000F07F182D4454FB21F93FFB21F9BFA3
:1039B0000000DC3F0000203E0000F33F0000F03F2D
:1039C0000000E63F008003400000F83F0000F0BF29
:1039D000DA0900009809000036090000FE0800001E
:1039E0002DE9F04D9446CCF1000423F000464CEA5A
:1039F0000404524F46EAD4749A46884621F00042A5
:103A0000BC4206D8454240EA050442EAD474BC42AE
:103A100004D9BDE8F04D6246FFF773BDAAF14055E9
:103A2000A5F17F6555EA0C040BD0022404EAAA74C0
:103A3000434DDFF810E144EAD87452EA000B04D099
:103A40000CE0BDE8F04DFFF7BBBE002C14BF012C0D
:103A5000BDE8F08D022C30D0032C32D056EA0C0B8E
:103A60000AD0BE4220D1BA4209D126F0804622F0C7
:103A700080423346114617E000291ADB25E0DFF8C3
:103A8000C8B0FB44002C04BFDBE90001BDE8F08DA9
:103A9000012C02BFDBE9000181F00041BDE8F08D9F
:103AA000022C0AD0032C0CD0BA4212D1B8F1000F6C
:103AB0000BDA23482549BDE8F08D28462449BDE8A6
:103AC000F08D28467146BDE8F08D1D482149BDE8BE
:103AD000F08D921B12153C2AC4BF19481D490EDCFB
:103AE000BAF1000FBEBF12F13C0F0020014606DB09
:103AF0006246FCF7AEFD21F00041FFF761FE002CAD
:103B000008BFBDE8F08D012C04BF81F00041BDE885
:103B1000F08D114A114B022C07D0FCF722FD2A46EA
:103B2000BDE8F04D0A4BFCF71CBDFCF71AFD2A4618
:103B3000BDE8F04D064BFCF717BD00000000F07F1C
:103B4000182D4454FB2109C092080000FB21F9BF45
:103B5000FB210940FB21F93F075C143326A6A13C59
:103B6000FDF798FCFFF78BF9FEF7ECFEFEF74AFF36
:103B7000FEF728FFFEF77CFFFFF76CF8FEF7C7FFA4
:103B8000012109A20846FFF701F90848FEF7BEFD2A
:103B900028B107A201210320FFF7F8F8FEE7084843
:103BA000FEF70AF8FEE70000494D550084000020AA
:103BB0004D505536303530204572726F72210000FD
:103BC000D80000202DE9F04106460F46FCF7C7FD5E
:103BD000041E0D4618BF0120284320F00040C0F10C
:103BE0007F6000F1E040C00F0ED0301C18BF0120F4
:103BF000384320F00040C0F17F6000F1E040C00F8A
:103C000004BF0120FFF79EFC20462946BDE8F08155
:103C100000000000000000000000000000000000A4
:103C2000000000F800000000000000333000000039
:103C300000100C06100C0600000000000000000040
:103C400040C07840C0784000043F04043F040400B2
:103C5000007088FC08300000001820FF211E0000C2
:103C6000F008F000E018000000211C031E211E00D7
:103C700000F00888700000001E212324192721105D
:103C800010160E0000000000000000000000000000
:103C9000000000E0180402000000000718204000A7
:103CA00000020418E0000000004020180700000097
:103CB000404080F0804040000202010F01020200FB
:103CC000000000F0000000000101011F01010100DF
:103CD000000000000000000080B070000000000044
:103CE00000000000000000000001010101010101CD
:103CF0000000000000000000003030000000000064
:103D00000000000080601804006018060100000038
:103D100000E010080810E000000F102020100F0035
:103D2000001010F8000000000020203F20200000BC
:103D30000070080808887000003028242221300014
:103D400000300888884830000018202020110E001C
:103D50000000C02010F8000000070424243F2400C5
:103D600000F80888880808000019212020110E009A
:103D700000E0108888180000000F112020110E00AC
:103D800000380808C83808000000003F00000000A4
:103D90000070880808887000001C222121221C0065
:103DA00000E010080810E0000000312222110F008E
:103DB000000000C0C0000000000000303000000023
:103DC0000000008000000000000080600000000093
:103DD00000008040201008000001020408102000AC
:103DE00040404040404040000404040404040400F7
:103DF000000810204080000000201008040201008C
:103E0000007048080808F00000000030360100008B
:103E1000C030C828E810E0000718272423140B003E
:103E20000000C038E0000000203C230202273820B8
:103E300008F8888888700000203F202020110E009C
:103E4000C030080808083800071820202010080093
:103E500008F808080810E000203F202020100F007C
:103E600008F88888E8081000203F20202320180048
:103E700008F88888E8081000203F200003000000B0
:103E8000C03008080838000007182020221E020051
:103E900008F808000008F808203F210101213F2010
:103EA000000808F8080800000020203F202000003B
:103EB00000000808F8080800C08080807F0000002B
:103EC00008F888C028180800203F20012638200064
:103ED00008F8080000000000203F202020203000CB
:103EE00008F8F800F8F80800203F003F003F2000E5
:103EF00008F830C00008F808203F200007183F00ED
:103F0000E01008080810E0000F10202020100F001B
:103F100008F808080808F000203F2101010100000E
:103F2000E01008080810E0000F18242438504F0053
:103F300008F8888888887000203F2000030C302013
:103F400000708808080838000038202121221C0051
:103F5000180808F8080818000000203F200000009A
:103F600008F808000008F808001F202020201F0083
:103F70000878880000C83808000007380E010000E3
:103F8000F80800F80008F800033C0700073C0300AD
:103F9000081868808068180820302C03032C302013
:103FA0000838C800C83808000000203F2000000082
:103FB00010080808C83808002038262120201800DA
:103FC000000000FE020202000000007F40404000AE
:103FD000000C30C000000000000000010638C000E6
:103FE00000020202FE000000004040407F0000008E
:103FF00000000402020204000000000000000000B3
:1040000000000000000000008080808080808080B0
:104010000002020400000000000000000000000098
:1040200000008080808000000019242222223F208E
:1040300008F8008080000000003F112020110E00D1
:104040000000008080800000000E11202020110060
:10405000000000808088F800000E112020103F2012
:104060000000808080800000001F22222222130096
:10407000008080F0888888180020203F20200000E1
:104080000000808080808000006B94949493600096
:1040900008F8008080800000203F210000203F20A1
:1040A00000809898000000000020203F20200000A1
:1040B000000000809898000000C08080807F000091
:1040C00008F8000080808000203F24022D3020006E
:1040D000000808F8000000000020203F2020000019
:1040E0008080808080808000203F20003F20003F33
:1040F0008080008080800000203F210000203F2041
:104100000000808080800000001F202020201F00F1
:10411000808000808000000080FFA12020110E0020
:104120000000008080808000000E112020A0FF8011
:10413000808080008080800020203F2120000100BE
:104140000000808080808000003324242424190013
:10415000008080E0808000000000001F2020000020
:104160008080000000808000001F202020103F2061
:10417000808080000080808000010E3008060100F1
:1041800080800080008080800F300C030C300F0096
:1041900000808000808080000020312E0E312000C1
:1041A000808080000080808080818E7018060100F1
:1041B00000808080808080000021302C222130000F
:1041C00000000000807C020200000000003F404030
:1041D00000000000FF00000000000000FF000000E1
:1041E0000002027C800000000040403F0000000010
:1041F00000060101020204040000000000000000AB
:10420000010202030405060708090A0B0C0D0E0F34
:104210001010000000000000000001020304060767
:104220000809000000000102030400000000000073
:10423000555555555555C53F7D6FEB0312D6D4BF27
:104240005544880E55C1C93F3B8F68B52882A4BF2D
:1042500088B20175E0EF493F09F7FD0DE13D023FEE
:104260004B2D8A1C273A03C0C88A599CE52A004076
:1042700059018D1B6C06E6BF82922EB1C5B8B33FC3
:104280004FBB610567ACDD3F182D4454FB21E93F6E
:104290009BF681D20B73EF3F182D4454FB21F93F5D
:1042A000E2652F227F2B7A3C075C143326A6813CE3
:1042B000BDCBF07A8807703C075C143326A6913C8E
:1042C000C4EB98999999C9BF711623FEC671BCBFFA
:1042D0006D9A74AFF2B0B3BF9AFDDE522DDEADBF62
:1042E0002F6C6A2C44B4A2BF0D5555555555D53F7A
:1042F000FF8300922449C23F6E204CC5CD45B73F95
:10430000513DD0A0660DB13FEB0D76244B7BA93F0C
:1043100011DA22E33AAD903F0000000000000000F7
:10432000404300080000002024000000243500085D
:1043300064430008240000204405000034350008D0
:104340000000803F000000000000000000000000AE
:1043500001000000100000000000000000127A00C0
:044360000000000059
:04000005080000ED02
:00000001FF
