:020000040800F2
:1000000058F100209D010008131F0008511C000832
:10001000111F00088F06000845230008000000009B
:10002000000000000000000000000000171F000892
:100030009106000800000000151F0008191F0008A5
:10004000B7010008B7010008B7010008B7010008B0
:10005000B7010008B7010008B7010008B7010008A0
:10006000B7010008B7010008B7010008B701000890
:10007000B7010008B7010008B7010008B701000880
:10008000B7010008B7010008B7010008B701000870
:10009000B7010008B7010008B7010008B701000860
:1000A000B7010008B7010008B7010008B701000850
:1000B000B7010008B7010008B7010008B701000840
:1000C000B7010008B7010008B7010008B701000830
:1000D000B7010008B701000839230008B70100087C
:1000E000B7010008B7010008B7010008B701000810
:1000F000B7010008B7010008B7010008B701000800
:10010000B7010008B7010008B7010008B7010008EF
:10011000B7010008B7010008C11F0008B7010008B7
:10012000B7010008B7010008B7010008B7010008CF
:10013000B7010008B7010008B7010008B7010008BF
:10014000B7010008B7010008B7010008B7010008AF
:10015000B7010008B7010008B7010008B70100089F
:10016000B7010008B7010008B7010008B70100088F
:10017000B7010008B7010008B7010008000000003F
:10018000B7010008B7010008DFF80CD000F042FA10
:1001900000480047294F020858F1002006488047D0
:1001A00006480047FEE7FEE7FEE7FEE7FEE7FEE75C
:1001B000FEE7FEE7FEE7FEE7B11F00088901000841
:1001C0002DE9F05F0546002092469B46884606468C
:1001D000814640241BE0284641464746224600F01F
:1001E0005AF953465A46C01A914110D3114618463F
:1001F000224600F041F92D1A67EB01084F462246CE
:100200000120002100F038F917EB00094E41201EB3
:10021000A4F10104DFDC484631462A464346BDE8E6
:10022000F09F10B5431A934209D28318881803E04F
:1002300010F8011D03F8011D521EF9D210BD40EA4D
:1002400001039B0703D009E008C9121F08C0042A54
:10025000FAD203E011F8013B00F8013B521EF9D23B
:1002600010BDD2B201E000F8012B491EFBD270474D
:100270000022F6E710B513460A4604461946FFF772
:10028000F0FF204610BD421C10F8011B0029FBD1D5
:10029000801A704710B5002200E0521C835C8C5C11
:1002A000A34201D1002BF8D1D8B2E1B2401A10BD5F
:1002B000034611F8012B00F8012B002AF9D118464A
:1002C00070472DE9FE4F81EA030404F0004421F059
:1002D000004100944FF0000B23F0004350EA01046A
:1002E0005ED052EA03045BD0C3F30A54C1F30A554B
:1002F0002C44A4F2F3340194A0FB0254C1F3130183
:1003000041F48011C3F3130343F4801301FB02444F
:1003100000FB034E840A970A44EA815447EA835754
:10032000A4FB076802958D0A05FB07854FEA932C0D
:1003300004FB0C542705029D4FEA065847EA16377E
:10034000B5EB08056EEB070C870E920E47EA811796
:1003500042EA8312A7FB0201B6EB0B0164EB000437
:100360002B0D43EA0C335E1844EB1C50DA46514621
:10037000E7FB0201C5F313044FEA0B3343EA1453BE
:100380004FEA0432019C43EA0603A4F10C040294F0
:10039000009CCDE900B400F09DF803B0BDE8F08FFB
:1003A00000200146F9E70EB540F2334102910021E9
:1003B000CDE900110A460B4600F08CF803B000BDF1
:1003C000C1F30A5210B5C1F3130140F2FF3341F4F7
:1003D00080119A4201DA002010BD40F233439A4264
:1003E000A2F2334203DC524200F055F810BD9040B7
:1003F00010BD00F0004230F000400AD0C10D01F500
:100400006071C0F3160042EA0151C208400711436F
:10041000704700200146704730B5041E71F100049A
:1004200004DB4FF00044404264EB0101141E73F101
:10043000000405DB1C464FF00043524263EB04030B
:100440008B4208BF824230BD30B5041E71F10004FA
:1004500004DB4FF00044404264EB0101141E73F1D1
:10046000000405DB1C464FF00043524263EB0403DB
:10047000994208BF904230BD202A04DB203A00FA9E
:1004800002F1002070479140C2F1200320FA03F3EB
:10049000194390407047202A04DB203A21FA02F0E9
:1004A0000021704721FA02F3D040C2F120029140AE
:1004B00008431946704710B5141E73F1000408DA9A
:1004C000401C41F1000192185B411A4301D120F018
:1004D000010010BD2DE9F04D92469B4611B1B1FAD5
:1004E00081F202E0B0FA80F220329046FFF7C4FFBA
:1004F00004460F4640EA0A0041EA0B0153465A46B9
:10050000084313D0114653EA010019D0C8F1400244
:100510005046FFF7C0FF05460E4650465946424634
:10052000FFF7AAFF084305D0012004E02046394622
:10053000BDE8F08D0020054346EAE0762C433743C2
:100540000A986305E40AA0EB08000022FD0A44EAC9
:1005500047540A3002D500200146E9E70105101989
:100560006941DDE9084500196941BDE8F04DA2E7A0
:100570002DE9F04D00231A461B1A8A4103DB0020A7
:100580000146BDE8F08DC1F30A52C1F3130141F4F5
:1005900080154FF0000BD10702D100186D41521E9B
:1005A0000027044640F2FF11384601EB620A3E463E
:1005B0008046024600204FF48011FFF76CFFC219FD
:1005C0007141BB1846EB0100B4EB030C75EB000C5A
:1005D00004D3E41A65EB000517460E46241908F10A
:1005E00001006D4180463428E3DDF91946EB060031
:1005F000091BA84103D24FF0FF32134601E000224D
:1006000013461BEB070046EB0A51BDE8F04DFFF720
:1006100052BF0000064C074D06E0E06840F00103C1
:1006200094E8070098471034AC42F6D3FFF7B0FDCA
:10063000901E0308B01E030870B58C1810F8015BFB
:1006400015F0070301D110F8013B2A1106D110F86B
:10065000012B03E010F8016B01F8016B5B1EF9D16F
:100660002B0705D40023521E0DD401F8013BFAE7F5
:1006700010F8013BCB1A921C03E013F8015B01F860
:10068000015B521EF9D5A142D8D3002070BDFEE710
:10069000704772B6FEE7000070B5B3F5804F05D025
:1006A0006FF0704140F82210002070BD50F82240D9
:1006B000084B8E891C40D1E9003543EA05138D684B
:1006C00089692D0245EA06452B430B43234340F835
:1006D0002230E9E70000F0CFF0B50C6850F8243084
:1006E000114A1340D1E90125D1E903672A433E436A
:1006F00032434E6932438E693243CE6932430E6AC9
:1007000032434E6A32438E6A3243CE6A3243CE6BF4
:10071000096B32430A431A43082D01D142F04002CB
:1007200040F824200020F0BD8000F0FF30B500EB41
:10073000820250688D8900F04043D1E9000440EA0C
:1007400004108C68240244EA054420430C8A074DB7
:1007500005EB045420430C7D6D0105EB04648969AD
:100760002043084318435060002030BD0000F0FFD4
:100770002DE9F0410446876D00F0ACF9064694F887
:1007800035000025022806D08020606584F83450AA
:100790000120BDE8F0812068016821F016010160A8
:1007A0002068416921F080014161206C08B9A06C8A
:1007B00020B12068016821F008010160206801680B
:1007C00021F0010101600CE000F084F9801B052894
:1007D00007D920206065032084F8350084F8345060
:1007E000D7E720680068C007EED194F85C103F207E
:1007F0008840B860012084F8350084F83450002027
:10080000C7E790F83510022903D080214165012007
:100810007047052180F835100068016821F001015A
:10082000016000207047000070B5044600F052F9E6
:100830000546601C02D004480078044400F04AF9E0
:10084000401BA042FAD370BD5C000020F0B587B019
:1008500014216846FFF70CFD15480168002924D1D2
:100860000121016013480024016841F00101016089
:100870000068022500F0010005904FF68070CDE978
:10088000000502AA03260C2782E8D00069460A4820
:1008900000F016F84EF2B370CDE9000502AA6946E1
:1008A00082E8D000054800F00BF807B0F0BD00006A
:1008B000140000203838024000100240000C0240B2
:1008C0002DE9F84FDFF8BCA1002201250AF1040B45
:1008D00003264FF00F090BF1040E00BF0B6805FA59
:1008E00002F42340A34270D10F7907F00307012FD0
:1008F00001D0022F16D187684FEA420806FA08FC99
:1009000027EA0C07D1F80CC00CFA08FC4CEA070CDB
:10091000C0F808C04768A7430C79C4F3001494409A
:100920003C4344600C79E443A4070AD0C4684FEA0E
:10093000420C06FA0CF7BC438F6807FA0CF7274302
:10094000C7600C7904F00304022C12D1D40800EB28
:10095000840CDCF820405707FF0E09FA07F824EA58
:100960000804D1F8108008FA07F848EA0408CCF81F
:10097000208004684FEA420C06FA0CF7BC430F795A
:1009800007F0030707FA0CF7274307604C6814F4D5
:10099000403F70D03C4C276847F48047276024686C
:1009A00022F0030704F480440094384C07EB040C55
:1009B000DCF8084897074FEA177809FA08F7BC43AC
:1009C000334FB84202D1002724E054E0314FB842FF
:1009D00001D101271EE0304FB84201D1022719E0B2
:1009E0002E4FB84201D1032714E02D4FB84201D158
:1009F00004270FE02B4FB84201D105270AE02A4F08
:100A0000B84201D1062705E0284FB84201D1072797
:100A100000E0082707FA08F72743CCF80878DAF847
:100A200000405746D1F804C09C435FEACC3C00D557
:100A30001C433C60DBF800405F46D1F804C09C4397
:100A40005FEA8C3C00D51C433C60DEF800407746F2
:100A5000D1F804C09C435FEACC2C00D51C433C6019
:100A6000084F0C373C68D1F804C09C435FEA8C2CDB
:100A700000D51C433C60521C102AFFF42FAFBDE888
:100A8000F88F0000003C0140443802400030014033
:100A9000000002400004024000080240000C024036
:100AA000001002400014024000180240001C0240E6
:100AB0000069084000D001207047426921EA020322
:100AC0000A4043EA0241816170470AB1816170477F
:100AD0000904FBE701488068704700005C000020C3
:100AE00070B5040025D094F83D00002520B984F8A5
:100AF0003C50204600F0B8F8242084F83D002068DF
:100B0000016821F0010101602068016841F40041A1
:100B100001602068016821F40041016000F00EFAD4
:100B20004D4A6168914201D84C4900E04C498842E5
:100B300001D2012070BD4B492368B0FBF1F15E6822
:100B400026F03F060E435E606368934206D94FF479
:100B5000967359434FF47A73B1FBF3F12368491C40
:100B60001E6A26F03F06314319626168914210D82F
:100B70004900401EB0FBF1F2521CC2F30B02042AE2
:100B800001D2042022E0B0FBF1F0401CC0F30B00C6
:100B90001CE0A268F2B301EBC10303EB0116431E94
:100BA000B3FBF6F35B1C43F480431B0549D092B3BF
:100BB00001EBC10202EB0111401EB0FBF1F0401C41
:100BC000C0F30B0040F4804040F400402168CA6943
:100BD0004CF6FF739A431043C861D4E907100143F0
:100BE0002068026822F0C00211430160D4E90301C9
:100BF00001432068826848F2FF339A4311438160C1
:100C0000D4E9050108432168CA6822F0FF021043B5
:100C1000C86001E00EE016E02068016841F00101C3
:100C200001602564202084F83D00256384F83E504F
:100C3000002070BD01EB4106431EB3FBF6F35B1CC5
:100C4000B3E70120C2E701EB4101401EB0FBF1F028
:100C5000401CC0F30B00B7E7A086010080841E0093
:100C600000093D0040420F0010B586B00446142133
:100C70006846FFF7FDFA14492068884221D11348DD
:100C8000016841F0020101600068694600F002005D
:100C900005904FF4407000901220019001200290C6
:100CA00003200390042004900948FFF709FE074839
:100CB0001030016841F400110160006800F4001078
:100CC000059006B010BD00000054004030380240CE
:100CD0000004024002488168027811448160704734
:100CE0005C0000200B4810B5016841F40071016000
:100CF000016841F480610160016841F48071016024
:100D0000032000F06FF80F2000F006F800F024F840
:100D1000002010BD003C024070B50D4D04464FF45C
:100D20007A712878B1FBF0F00A490968B1FBF0F05C
:100D300000F0CDFB48B9102C07D200222146501EEE
:100D400000F030F800206C6070BD012070BD000024
:100D50005C000020680000200A4808B5016841F4E2
:100D600080410160006800F4804000900548001F49
:100D7000016841F080510160006800F080500090EF
:100D800008BD000044380240002809DB00F01F02C3
:100D9000012191404009800000F1E020C0F80011DD
:100DA00070470000F0B40E4B1B680C46C3F30223DF
:100DB000C3F10705042D00D90425191D072901D207
:100DC000002300E0DB1E012606FA05F1491E214042
:100DD00099409E40761E16403143F0BC01F0C4BAE3
:100DE0000CED00E0064900F0070208684FF6FF032B
:100DF000184040EA0220034A104308607047000090
:100E00000CED00E00000FA052DE9F0470E46050064
:100E100065D0DFF81481D8F80000F7B200F00700C1
:100E2000B04207D288F80070D8F8000000F0070040
:100E3000B04254D128683D4C810712D5400703D5F4
:100E4000206840F4E05020602878000703D520682F
:100E500040F4604020602068A96820F0F00008435A
:100E600020602878C0072DD03049686808390128EB
:100E700012D0022813D0032811D00968890700294D
:100E80002DDA216821F0030101432160FFF722FEE2
:100E9000814641F2883A0EE009688903EFE7096864
:100EA0008901ECE7FFF716FEA0EB0901514502D9D5
:100EB0000320BDE8F0872068696800F00C00B0EB03
:100EC000810FEFD1D8F80010404601F00701B14280
:100ED00007D90770006800F00700B04201D0012078
:100EE000E7E72878400705D52068E96820F4E05056
:100EF000084320602878000706D52068296920F477
:100F0000604040EAC100206000F038F82168084ADB
:100F1000C1F30311515CC8400649086006480068E7
:100F2000FFF7FAFE0020C4E7003C02400838024008
:100F30005CD70208680000206000002004480549D2
:100F400000680968044AC1F38221515CC8407047B7
:100F500068000020083802406CD7020804480549A0
:100F600000680968044AC1F34231515CC8407047C7
:100F700068000020083802406CD70208154810B5F8
:100F8000006810F00C02144813D01449042A0FD042
:100F9000082A0ED10F4C241F2268236802F03F025A
:100FA0005B0207D52068C0F38810A0FB010106E0B2
:100FB000084610BD2168C1F38811A1FB0001002380
:100FC000FFF7FEF82168C1F30141491C4900B0FB5D
:100FD000F1F010BD083802400024F40040787D0193
:100FE0002DE9F84F04006ED02078DFF84C93C0074D
:100FF000A9F104054AD009F104000168C1F3810197
:10100000012908D00068C0F3810002280AD1D9F86C
:101010000000400206D52868800337D560680028A4
:10102000E1D033E06068B0F5803F10D0B0F5A02F7C
:10103000286810D020F480302860286820F48020B0
:1010400028606068A8B1FFF745FD06460DE02868F6
:1010500040F48030F4E740F480202860F7E700BFD8
:10106000FFF738FD801B642873D828688003F7D504
:101070000CE0FFF72FFD064605E000BFFFF72AFD55
:10108000801B6428F0D828688003F7D42078DFF824
:10109000AC8280074FF0000A3ED5A748001D0168CA
:1010A00011F00C0F08D00068C0F3810002280BD1AA
:1010B000D9F80000400207D42868800716D5E068F8
:1010C000012800D112E033E1E068B8B10120C8F88E
:1010D0000000FFF7FFFC064605E000BFFFF7FAFC43
:1010E000801B0228C0D828688007F7D528682169A6
:1010F00020F0F80040EAC10028600DE0C8F800A028
:10110000FFF7E8FC064604E0FFF7E4FC801B02283A
:101110001FD828688007F7D42078000722D5864F8B
:1011200087486169703771B101210160FFF7D2FC16
:10113000064604E0FFF7CEFC801B022809D8386879
:101140008007F7D50EE0C0F800A0FFF7C3FC064605
:1011500005E082E0FFF7BEFC801B02287DD83868DE
:101160008007F7D42078400768D5DFF8CCB1002796
:101170000BF13C0BDBF80000C0000BD4DBF80010D7
:1011800041F08051CBF80010DBF80000012700F09F
:10119000805000906B4E3068C00510D4306840F429
:1011A00080703060FFF796FC009005E0FFF792FC3E
:1011B0000099401A022850D83068C005F6D55E4E16
:1011C000A0686C3601280FD00528306810D020F0B8
:1011D00001003060306820F004003060A068B8B1D1
:1011E000FFF778FC00900FE0306840F00100F4E772
:1011F00040F004003060F7E7FFF76CFC0099411AFB
:1012000041F28830814266D830688007F4D50EE01C
:10121000FFF760FC009007E0FFF75CFC0099411AC3
:1012200041F28830814256D830688007F4D42FB11B
:10123000DBF8001021F08051CBF80010A069C8B392
:101240003D49091D0968C1F3810102294AD00228DC
:10125000504607D0C8F8600000E03CE0FFF73AFCD9
:1012600004463BE04746C8F86000FFF733FC0646FB
:1012700005E000BFFFF72EFC801B02282BD8286852
:101280008001F7D4D4E907010843A16A2E4A49082E
:1012900002EB0141626A41EA8211084394F82C1082
:1012A00040EA0161C9F8001001203866FFF712FC1E
:1012B000044606E03EE000BFFFF70CFC001B0228DE
:1012C00009D828688001F7D534E000BFFFF702FC99
:1012D000001B022802D90320BDE8F88F286880018E
:1012E000F4D427E00128F7D0D9F80000E26900F42F
:1012F000800191421CD1226A00F03F01914217D136
:1013000047F6C071626A0140B1EB821F10D1A26A38
:101310004FF0FF3300F4403103EB5202B1EB024FC8
:1013200006D194F82C1000F07060B0EB016F01D082
:101330000120D1E70020CFE70438024000004742F7
:10134000800E4742007000400000FFFF70B50400AF
:1013500009D0606A002540B125616561A56294F8F5
:10136000510040B10CE0012070BD6068B0F5827F93
:10137000F4D0E561F2E784F85050204600F044F8DC
:10138000022084F851002068016821F040010160CA
:10139000A088218900F4827001F404410843A189E6
:1013A00001F400610843217C01F002010843217D22
:1013B00001F001010843218B01F400710843217FF2
:1013C00001F03801084394F8201001F0800108432F
:1013D000218D01F40051084321680860A0690421AF
:1013E00001EA104094F8241001F01001084321682C
:1013F00048602068C16921F40061C1616565012010
:1014000084F85100002070BD10B586B00446142148
:101410006846FEF72DFF14492068884221D1134801
:10142000016841F480410160006800F4804005904B
:101430000E481038016841F00201016000686946F9
:1014400000F0020005904FF46040009002200190EF
:101450000120029003200390052004900448FFF728
:101460002FFA06B010BD000000380040403802409E
:101470000004024070B515460E46040003D094F8EF
:10148000490010B107E0012070BD002084F8480039
:10149000204600F01AF804F108012068FFF71CF953
:1014A0003146A2682068FFF741F9D4E901022946D4
:1014B000236BFFF7F1F8A168206850F8212042F073
:1014C000010240F82120002070BDFFF7BFB910B520
:1014D000401EB0F1807F01D3012010BD4FF0E02409
:1014E00060610F21601700F03FFF0020A06107201E
:1014F0002061002010BD70477047000070B590F863
:101500003C20012A32D0012480F83C40022280F89D
:101510003D2003685A689D6822F070060A683243CD
:101520005A60134B02689A4214D0B2F1804F11D026
:10153000104B9A420ED0104B9A420BD00F4B9A424E
:1015400008D00F4B9A4205D00E4B9A4202D00E4B58
:101550009A4204D1496825F080031943916080F8CC
:101560003D40002180F83C10084670BD022070BD4F
:10157000000001400004004000080040000C004052
:1015800000040140004001400018004010B5040074
:1015900003D094F83D0010B107E0012010BD0020F9
:1015A00084F83C00204600F01FF8022084F83D003B
:1015B000211D206800F00AFD012084F8460084F80F
:1015C0003E0084F83F0084F8400084F8410084F82D
:1015D000420084F8430084F8440084F8450084F80D
:1015E0003D00002010BD000008B500680B4988428E
:1015F00012D10B48016841F010010160006800221F
:1016000000F01000009011463620FFF7CBFBBDE83C
:1016100008403620FFF7B8BB08BD000000100040AE
:101620004038024090F83D10012901D00120704758
:10163000022180F83D100168CA6842F00102CA60C8
:1016400000681149884214D0B0F1804F11D00F4981
:1016500088420ED00E4988420BD00E49884208D0ED
:101660000D49884205D00D49884202D00C49884274
:1016700004D1816801F00701062903D0016841F017
:10168000010101600020704700000140000400409B
:1016900000080040000C00400004014000400140F0
:1016A00000180040704770B50446006801694FF0AB
:1016B0000005C943890715D4C168C943890711D4F6
:1016C000E91E01610120207720688069800720469B
:1016D00002D0FFF7E7FF04E000F098F8204600F0A2
:1016E00096F8257720680169C943490717D4C1686E
:1016F000C943490713D46FF0040101610220207728
:101700002068806910F4407F204602D0FFF7CAFFAE
:1017100004E000F07BF8204600F079F82577206897
:101720000169C943090716D4C168C943090712D41E
:101730006FF008010161042020772068C0698007EC
:10174000204602D0FFF7AEFF04E000F05FF820462D
:1017500000F05DF8257720680169C943C90617D4F0
:10176000C168C943C90613D46FF010010161082094
:1017700020772068C06910F4407F204602D0FFF730
:1017800091FF04E000F042F8204600F040F8257791
:1017900020680169C943C90708D1C168C943C9079D
:1017A00004D1891E0161204600F032F820680169E9
:1017B000C943090609D4C168C943090605D46FF0B5
:1017C000800101612046FFF796FE20680169C94348
:1017D000490609D4C168C943490605D46FF04001E0
:1017E0000161204600F032F820680169C94389068A
:1017F0000BD4C168C943890607D46FF02001016189
:101800002046BDE87040FFF777BE70BD7047704757
:1018100010B500680A49884210D1012022F082FEEA
:10182000084C6088411C6180B0F5FA7F06D34FF404
:1018300000510548FFF741F90020608010BD00000D
:101840000010004000000020000802407047704770
:1018500070470000F8B5016804460868CA684B691B
:1018600010F00F0F4FF0000559D003F0010602F4FD
:101870009077374365D0C10705D0D10503D5216CDA
:1018800041F001012164410705D5D90703D0216C3E
:1018900041F002012164810705D5D90703D0216CED
:1018A00041F004012164010707D502F02001314312
:1018B00003D0216C41F008012164216C00293AD049
:1018C000800604D5900602D5204600F012FC206860
:1018D0004069216CC0F38010090700D460B3204632
:1018E00000F0E0FB20684069400621D520681430F4
:1018F00050E8001F21F0400140E80012002AF5D115
:10190000A06BA8B16C490165A06BFEF77AFF0028B7
:1019100011D0A06B016D01B0BDE8F040084783060F
:101920000FD593060DD52046BDE8F84000F0E1BB89
:101930002046FFF78DFFF8BD2046FFF789FF25649D
:10194000F8BD266B2023012E79D1C60677D5D606A1
:1019500075D50868486800904869400640D5A16B75
:10196000086840680004000CEAD0A28D8242E7D9E2
:10197000E085C869B0F5807F2DD020680C3050E834
:10198000001F21F4807140E80012002AF5D1206880
:10199000143050E8001F21F0010140E80012002A35
:1019A000F5D12068143050E8001F21F0400140E8D4
:1019B0000012002AF5D184F83E30256320680C30EF
:1019C00050E8001F21F0100140E80012002AF5D174
:1019D000A06BFEF7CDFEA08DE18D401A81B229E00B
:1019E000A08DE18D401A81B2E08D0028A8D0002999
:1019F000A6D020680C3050E8002F22F4907240E806
:101A00000026002EF5D12068143050E8002F22F077
:101A1000010240E80026002EF5D184F83E3025630F
:101A200020680C3050E8002F22F0100240E800231C
:101A3000002BF5D12046FFF70AFFF8BDFFE70506AA
:101A40002BD5150629D594F83D002128F5D1A0689D
:101A5000B0F5805F01D12069B0B1206A411C2162DC
:101A6000216800784860E08C401E0004000CE0848F
:101A7000E3D12068C16821F08001C1602068C1689D
:101A800041F04001C160D8E7206A0088C0F3080037
:101A90004860206A801C2062E5E74006CDD55006EC
:101AA000CBD5CA68204622F04002CA6084F83D3097
:101AB00000F0CDF8C1E700009520000870B50400E3
:101AC00004D094F83D00002510B106E0012070BD5F
:101AD00084F83C50204600F023F8242084F83D0090
:101AE0002068C16821F40051C160204600F062FB0B
:101AF0002068016921F4904101612068416921F069
:101B00002A0141612068C16841F40051C160256427
:101B1000202084F83D0084F83E00002070BD0000C5
:101B200010B586B0044614216846FEF7A1FB17499C
:101B30002068884228D116480021026842F4003209
:101B40000260006800F40030059011481038026807
:101B500042F001020260006800F0010005900C20D4
:101B600000900220CDE9010103200390072004909A
:101B700069460848FEF7A4FE002201212620FFF74F
:101B800011F92620FFF700F906B010BD004400400F
:101B90004038024000000240704700002DE9F84341
:101BA000044690F83D001F4616460D4620284CD1AD
:101BB000C5B1BEB194F83C00012846D0012084F89C
:101BC0003C004FF00008C4F84080212084F83D001C
:101BD000FEF780FFA6848146E684A068B0F5805FAA
:101BE00003D004E00120BDE8F883206928B12E4627
:101BF0005FF0000584F83C800EE00026FAE78021C3
:101C0000204600F05DFBA0B9AEB116F8010B2168CB
:101C10004860E08C401EE084E08C4B464FF00002B0
:101C200000970028EBD14FF04001204600F048FB20
:101C300030B10320D7E735F8020BC0F30800E6E720
:101C4000202084F83D000020CDE70220CBE770473C
:101C5000FEE7000010B58EB01C216846FEF708FBB9
:101C60001C2107A8FEF704FB1A484FF02041102260
:101C700001601949416000218160C160C0E904121E
:101C80008161C16113020162C0E909139302C0E9D5
:101C90000B134163816341640F203C230090CDE925
:101CA000010303AC112384E80E0009240691CDE959
:101CB000074009AC082084E80F000D9107AA694687
:101CC0000448FFF7D7FB002801D0FEF7E2FC0EB076
:101CD00010BD000084020020040100A02DE9F0479F
:101CE00086B014216846FEF7C3FA41480025016812
:101CF00041F010010160016801F0100105910168D7
:101D000041F004010160016801F0040105910168DE
:101D100041F080010160016801F0800105910168D6
:101D200041F001010160016801F0010105910168C4
:101D300041F002010160016801F0020105910168B2
:101D400041F0080101600068DFF8A88000F0080099
:101D50004FF400560590002231464046FEF7B5FE8E
:101D6000DFF89490002202214846FEF7AEFE0122E1
:101D7000170339464846FEF7A8FEDFF880A0002288
:101D800039465046FEF7A1FE1C20CDE9000501248E
:101D9000694602941A48FEF793FDCDE9006469464E
:101DA0004046CDE90245FEF78BFD02268DE8700026
:101DB00069461448FEF784FD2020CDE900056946F8
:101DC00002944046FEF77CFDB81CCDE90004CDE945
:101DD000024669464846FEF773FD0097CDE9014586
:101DE000694650460395FEF76BFD06B0BDE8F087E7
:101DF000303802400008024000040240000C02405B
:101E000000100240000002400D4810B50B4901606F
:101E10000C49416000214FF480428160C0E9031207
:101E200041618161C1610162FEF75AFE002803D061
:101E3000BDE81040FEF72DBC10BD0000005400406E
:101E4000D4020020A0860100104810B50E490160A0
:101E50004FF48271416000218160C1604FF40072D3
:101E60000161C0E905121822C0E9072141628162BF
:101E70000A21C162FFF76AFA002803D0BDE81040CA
:101E8000FEF707BC10BD000000380040280300200A
:101E90001CB500240F4800940D49019401605421A1
:101EA000C0E9011440F2E731C16080218161FFF790
:101EB0006DFB08B1FEF7EDFB0094694605480194FF
:101EC000FFF71CFB002801D0FEF7E3FB1CBD000060
:101ED00000100040800300200C4810B50A49016042
:101EE0004FF4E1314160002181600C22C160C0E902
:101EF00004128161C161FFF7E1FD002803D0BDE854
:101F00001040FEF7C6BB10BD00440040C8030020CF
:101F1000FEE7FEE770477047FEF7DCBE30B593B0D2
:101F200030216846FEF7A4F914210CA8FEF7A0F9A9
:101F30001D480025016841F080510160006800F0F3
:101F4000805011901948016841F480410160006897
:101F5000022400F48040119001200390102004908E
:101F6000009406940820CDE90750A820CDE9090483
:101F700004200B906846FFF733F808B172B6FEE70D
:101F80000CA90F2081E831004FF4A0500F904FF4BE
:101F90008050109005210CA8FEF736FF002801D0D4
:101FA00072B6FEE713B030BD40380240007000400A
:101FB0000248016841F470010160704788ED00E05B
:101FC0000148FFF770BB000080030020F0B50268F5
:101FD000254C264D264E274F274B4FF0804CA042D4
:101FE00009D0604507D0A84205D0B04203D0B8421E
:101FF00001D0984204D122F0700E4A6842EA0E02E3
:10200000A0421BD0604519D0A84217D0B04215D0CD
:10201000B84213D0984211D0184DA8420ED0184D96
:10202000A8420BD0174DA84208D0174DA84205D0A2
:10203000164DA84202D0164DA84203D122F4407595
:10204000CA682A434D6922F080022A4302608A68E6
:10205000C2620A688262A04201D0984201D1096935
:10206000016301214161F0BD000001400004004016
:1020700000080040000C0040000401400040014006
:10208000004401400048014000180040001C00408E
:102090000020004010B5806B0021C185C184FFF78E
:1020A000D7FB10BD01680C3151E8002F22F490726B
:1020B00041E80023002BF5D10168143151E8002FCD
:1020C00022F0010241E80023002BF5D1016B012928
:1020D00009D101680C3151E8002F22F0100241E8CB
:1020E0000023002BF5D1202180F83E100021016350
:1020F000704708B590F83E10222901D0022008BD93
:1021000082684FF480539A4201D1016921B1816AFA
:102110009A421BD04AB10AE00268816A5268C2F34F
:1021200008020A80816A891C08E0026972B10268AB
:10213000526802F07F020A70816A491C8162C18D77
:10214000491E0904090CC18503D019E002685268D0
:10215000F1E70168CA6822F02002CA600168CA6813
:1021600022F48072CA6001684A6922F001024A6161
:10217000202180F83E10016B012903D0FFF70CFDF0
:10218000002008BD0021016301680C3151E8002FD7
:1021900022F0100241E80023002BF5D101680A6803
:1021A000D20602D50A6849680091818DFFF74FFB7E
:1021B000E6E7000070B5044600680169E26821F4B2
:1021C0004051114301612169A068E26908436169D6
:1021D000114308432168CA6849F20C639A430243D9
:1021E000CA6020684169A26921F4407111434161CC
:1021F00031492068884202D03049884202D1FEF736
:10220000ADFE01E0FEF79AFEE26900231921642584
:102210003226B2F5004F626828D0A0FB0101930F6F
:102220009200FDF7CDFF0146B0FBF5F06FF018020C
:10223000504301EB800006EB0010B0FBF5F000F01E
:10224000F002B1FBF5F002EB0012B1FBF5F06FF01C
:102250001803584301EB800006EB0010B0FBF5F0CB
:1022600000F00F0021681044886070BDA0FB0101E0
:1022700092185B41FDF7A4FF0146B0FBF5F00201A7
:10228000B1FBF5F06FF01803584301EB800006EB4B
:10229000C000B0FBF5F000F0F80002EB4002B1FB2B
:1022A000F5F0584301EB800006EBC000B0FBF5F001
:1022B00000F00700D6E700000010014000140140C4
:1022C0002DE9F041984617460E460446069D27E044
:1022D000681C25D02DB1FEF7FDFBA0EB0800A8423D
:1022E0001ED920680C3050E8001F21F4D07140E85E
:1022F0000012002AF5D12068143050E8001F21F0A8
:10230000010140E80012002AF5D1202084F83D00A8
:1023100084F83E00002084F83C000320BDE8F081F2
:102320002068006836EA000004D00020B842CFD010
:102330000020F3E70120F9E70148FFF78BBA00001E
:10234000C8030020FEE700000FB4054B10B503A939
:10235000044A029801F0FCFC10BC5DF814FB00007C
:10236000C9E000087C0200200907090E002804DBF0
:1023700000F1E02080F80014704700F00F0000F139
:10238000E02080F8141D704700B52DED048BB0EEF1
:10239000409AF0EE609A83B051EC190BFEF7E8F822
:1023A00041EC180B18EE100A18EE901A8DED008B08
:1023B000002818BF0120084320F00040C0F17F60D2
:1023C00000F1E040C00F14D019EE101A19EE900A77
:1023D0008DED009B002918BF0121084320F000402B
:1023E000C0F17F6000F1E040C00F04BF012000F0A9
:1023F00017F8B0EE480A03B0F0EE680ABDEC048BA3
:1024000000BD02E008C8121F08C1002AFAD17047B7
:102410007047002001E001C1121F002AFBD1704764
:1024200001490860704700008002002070B5044632
:1024300000256FF02F0608E02068411C216000781D
:1024400005EB850106EB410145182068007800F096
:1024500004F80028F0D1284670BD3038092801D88A
:10246000012070470020704710B54421074800F054
:1024700027FF00221E21064822F0AEF8054CA0607E
:1024800002F058F90020207010BD00008C1F0020C1
:10249000E9470008E40100202DE9F0470E46814697
:1024A00017461146304600F01CF94FF0FF3A00285D
:1024B0007DD000223946304600F0BFF800284FF0AA
:1024C000000075D1B6F90480B6F900305246A8EB89
:1024D0000301491C0AFA81F10FFA81FAB6F906C024
:1024E000B6F90210ACEB010C0CF1010C02FA8CF203
:1024F000B7F802C012B2ACEB010C0FFA8CFCBCF1C5
:10250000000F0EDD63F30F0468F30F0501EB0C0001
:1025100061F31F4460F31F45C9F800400120C9F86A
:102520000450B7F906107388CB1AD21A12B2002AD7
:1025300013DDB6F9063099420FDA338863F30F04DE
:10254000B38861F31F4463F30F05114461F31F4522
:1025500009EBC001401C0C604D60B7F90220B6F9D0
:1025600002108A4200DD1146B7F90630B6F906209E
:10257000934200DA1A463B88B6F900C0521AA3EB20
:102580000C031BB212B2002B10DD002A0EDD6344D7
:1025900063F30F058B1863F31F456CF30F0409EB0E
:1025A000C00361F31F441C605D60401C01E01AE041
:1025B00017E0B7F9043036889F1BAAEB070636B23E
:1025C000002E0EDD63F30F0461F31F44334463F305
:1025D0000F05114461F31F4509EBC001401C0C605D
:1025E0004D60BDE8F0875046FBE770B5B1F90030AB
:1025F000B2F90040A34200DC23460380B1F9025047
:10260000B2F90240A54200DD2C464480B1F90460D5
:10261000B2F90450AE4200DA35468580B1F90610B1
:10262000B2F90620914200DB1146C1800120AB4285
:1026300001DC8C4200DD002070BDF8B50D4604467B
:10264000B0F90000B1F900101646884247DBB4F932
:102650000210B5F90220914241DBB4F90410B5F93A
:10266000042091423BDCB4F90610B5F906209142F2
:1026700035DC96B3ADF800006088ADF80200324654
:102680006946284600F099F8002827D0A088ADF8C0
:1026900000006088ADF8020032466946284600F026
:1026A0008CF800281AD02088ADF80000E088ADF83A
:1026B000020032466946284600F07FF800280DD017
:1026C000A088ADF80000E088ADF802003246694607
:1026D000284600F072F8002800D00120F8BD002044
:1026E000F8BDB0F90020B1F904309A4213DCB0F91A
:1026F0000420B1F900309A420DDBB0F90220B1F9A3
:1027000006309A4207DCB0F90600B1F9021088429F
:1027100001DB0120704700207047F8B50D460446E4
:10272000B0F90400B1F900101646884243DBB4F951
:102730000600B5F9021088423DDBB4F90000B5F996
:102740000410884237DCB4F90210B5F90620914232
:1027500031DC76B3ADF800006088ADF80200324697
:102760006946284600F029F818BBA088ADF800009B
:102770006088ADF8020032466946284600F01DF830
:10278000B8B92088ADF80000E088ADF80200324604
:102790006946284600F011F858B9A088ADF8000045
:1027A000E088ADF8020032466946284600F005F898
:1027B00008B10020F8BD0120F8BD2DE9FC41144608
:1027C0000E46B1F90020B0F9001005468A423ADB06
:1027D000B5F90400824236DCB6F90270B5F9022080
:1027E000974230DBB5F906309F422CDC002C75DDBA
:1027F000401A9A1A401C521C00B212B200EBD07060
:1028000002EBD27240105210904200DB104684421C
:1028100000DD0446ADF80010288800222044ADF801
:1028200004006888ADF80200688831462044ADF89D
:1028300006006846FFF7C1FF40B1BDF80400204420
:10284000ADF804003FE00020BDE8FC81E8880022EC
:10285000001BADF80200E888ADF806003146684676
:10286000FFF7ABFF28B1BDF804002044ADF8040029
:1028700011E0A8880022001BADF80000A888ADF880
:10288000040031466846FFF798FF50B1BDF80000DC
:10289000001BADF80000BDF80200001BADF80200FF
:1028A00016E06888ADF80200688800222044ADF880
:1028B000060031466846FFF780FF70B1BDF80000A2
:1028C000001BADF80000BDF806002044ADF806007E
:1028D000314668461FF03EFBB6E7FFE70120B3E74D
:1028E00010B5B1F90040B2F900309C4200DA23463D
:1028F0000380B1F90240B2F902309C4200DA23466B
:102900004380B1F90440B2F904309C4200DD234613
:102910008380B1F90610B2F90620914200DC11461D
:10292000C18010BD2DE9FC41054621F0F1FD0026D6
:102930007D4C074600960DB1E86801E014F026FCD6
:10294000606000691FF002FA6068406908B11FF01A
:10295000FDF96068C0691FF0F9F96068006A1FF04E
:10296000F5F96068016991B11FF09CFB23F078FED6
:1029700023F09EFB6068B0F85011E1B30068017C61
:10298000C9071ED0C0684068D8B1002514E0A0F87F
:102990005061BDE8FC81411991F8301151B900F541
:1029A000AC7000F0E4FC616801EBC5010A6B0260E9
:1029B000496B41606D1CADB26068B0F85011A9421E
:1029C000E9D860684FF4807130301AF057FE6068C3
:1029D000202100F598701AF051FE6068A0F850614F
:1029E000384621F08FFD009060680068436A13B19B
:1029F0002268009998471AF0BFFC00F0CFF800F069
:102A0000A1F84A4D6F69EFBB14F0C0FB14F0ECFB6A
:102A100019F064FB074600227F211FF0B0F8002266
:102A20001146104613F0D6FE0190BDF804100022A6
:102A300038461FF093F8FF221146104613F0CAFEE5
:102A40000190BDF80410002238461FF0EDF8002276
:102A5000032138461FF0DEF80022032138461FF01C
:102A6000CAF80022032138461FF0CAF800220321C9
:102A700038461FF0CAF80022032138461FF0CFF86D
:102A80002BA100E009E038461AF0AEF900231A46FF
:102A9000062138461BF0DEF96F61286821F032FD0F
:102AA000B0F5967F0DD2206841F2883188427FF6DA
:102AB00070AF6868009908446860A868401CA86006
:102AC00067E721F025FD28606068406828B100684C
:102AD0004FF47A71B1FBF0F000E02120696809B988
:102AE00001216960A968E1B14FF47A7251436A68C3
:102AF000B1FBF2F46E60AE60844200D904462869EE
:102B000020442861E868401CE86021F097FDC0F18E
:102B1000640302B022463846BDE8F04105A11AF030
:102B20009AB90446E6E70000A4000020F81D002042
:102B30003F0000002575204650530A2575252520A5
:102B40004350550070B50A4D002400BFC4EBC406C5
:102B500055F8260008B11AF083FC05EB86001C210D
:102B60001AF08CFD641CE4B2042CEFD370BD00009D
:102B700068200020084949680AE04A68824202D079
:102B80000A68824203D10A7E42F001020A7649694C
:102B90000029F2D170470000780000207047000043
:102BA0000421014800F08CBB801F00202021014837
:102BB00000F086BB981F00202DE9FF410446DDE9A7
:102BC0000A671D004FF0000002D1B6F5807F2BD0C0
:102BD000039001900290ADF80C100090ADF8041035
:102BE000ADF80A20ADF80E203B463246294668462D
:102BF0001FF010F93B463246294601A81FF00AF99A
:102C00003B463246294602A81FF004F93B463246AD
:102C1000294603A81FF0FEF8BDF90000BDF90430F5
:102C2000984209DA054608E02080491E6080A180AC
:102C3000521EE280BDE8FF811D46BDF90820BDF9A6
:102C40000C108A4201DA164600E00E46B54203DA5D
:102C5000984206DB184604E08A4201DA104600E09A
:102C60000846801E2080BDF90030BDF90420934243
:102C700001DD1D4600E01546BDF90800BDF90C1048
:102C8000884201DD064600E00E46B54205DD93426E
:102C900001DD194604E0114602E0884200DD0146EC
:102CA000891CA180BDF90230BDF90620934201DAEA
:102CB0001D4600E01546BDF90A00BDF90E10884218
:102CC00001DA064600E00E46B54205DA934201DA23
:102CD000194604E0114602E0884200DA0146891EE6
:102CE0006180BDF90230BDF90620934201DD1D4629
:102CF00000E01546BDF90A00BDF90E10884201DD5D
:102D0000064600E00E46B54205DD934201DD194658
:102D100004E0114602E0884200DD0146891CE180A2
:102D200088E700002DE9F04115460E460746114C94
:102D300021F0EEFB80462B4632463946204618F0FD
:102D40000DFC20B10020A062E06950B110E02C2100
:102D500020461AF093FC4FF00040A0620020BDE82E
:102D6000F081404621F0CEFBE06108B90120E0612E
:102D70002046F4E7BC1F002010B51421074800F0DE
:102D80009FFA18F0B1FB40B1054901600549416067
:102D9000054981600549C16010BDFEE7A41F002000
:102DA000BDAE010839B2010809B4010889AE0108B5
:102DB00070B50D460446102128461AF05FFC2068C5
:102DC0000078012804D0022807D0042807D008E0A2
:102DD000A08A2880E08A688003E0E06800E00A209A
:102DE000686020684268002A03D02946BDE8704028
:102DF000104770BD2DE9FE430446808A10B9E08A71
:102E0000002874D0D4F82C805FEA080010D1204646
:102E10000AF035FC5FEA000869D020460DF028F979
:102E200000220921404617F093FA607880075ED4AB
:102E30004FF4807900274E464546002128461DF074
:102E40007DF8384407B2002128461DF095F8C117D7
:102E500000EB1160001210FB06F006B228461CF0D1
:102E600069F80500E9D10FB94E450CD0784201B29E
:102E70004FF4803090FBF6F002B26B4604F1140080
:102E800000951EF0C7FFADF80450ADF8085094F857
:102E9000400000F00F000328404616D01CF09CF9BB
:102EA000064640461CF052F803460C200090B4F948
:102EB00016103246404609F09BFFADF80800404628
:102EC0001CF096F8C10713D018E01CF019F906465B
:102ED00040461CF0B5F8024603200090B4F91410E7
:102EE0003346404609F084FFADF80400E7E736E0DA
:102EF000BDF90410002901DDADF80450810705D4A7
:102F0000BDF90410002901DAADF80450410705D4D9
:102F1000BDF90810002901DDADF80850000705D4FF
:102F2000BDF90800002801DAADF8085002AA01A98D
:102F3000204623F0CBFEBDF90820BDF90410404621
:102F400000F08AFA6078800709D4208BBDF804105D
:102F500008442083608BBDF8081008446083BDE8F6
:102F6000FE832DE9FC5F0446C06A5FEA000B71D066
:102F700094F8400000076DD018F082FD01900068C1
:102F80004021457E58461DF023F94FF0000818B93E
:102F9000A4F81E80A4F81C8058461CF00FF9824645
:102FA00058461CF012F9064694F840004FF06409A8
:102FB00000F00F000C2802D003284CD09AE0A4F8AF
:102FC0001C8056B1B4F91E50002718F059FD006856
:102FD0004946407EC0F1640022E0E08BC5F1640107
:102FE00010FB01F191FBF9F0E08358461BF0AEFFB6
:102FF000054658461CF0F0F802460C200090B4F943
:103000001E102B46584609F0F3FEE08302460023CB
:103010001EE07A1917B210FB05F292FBF1F215B21D
:10302000002DF6D1ADF80070A4F81E806A4600218C
:10303000204623F04BFE41F6FF72BDF900305142AD
:1030400058460AF0B3FCBDF800100123084402B250
:1030500000214CE09AE0A4F81E80BAF1000F0AD0DB
:10306000B4F91C50002718F00BFD00684946407E5B
:10307000C0F1640022E0A08BC5F1640110FB01F1F6
:1030800091FBF9F0A08358461BF0DAFF054658463D
:103090001CF036F8034603200090B4F91C102A46B1
:1030A000584609F0A5FEA083014600231EE07A19C8
:1030B00017B210FB05F292FBF1F215B2002DF6D11A
:1030C000ADF80070A4F81C8000226946204623F069
:1030D000FDFD41F6FF72BDF90030514258460AF03D
:1030E000DDFBBDF800100123084401B20022584660
:1030F0001EF0AAF9A08B002848D1E08B002845D10A
:10310000C6B958461CF068F8054658461BF01EFF25
:10311000002D06DC00280DDD002D02DA01232A46F1
:1031200004E0002806DA0123404202B2002158469A
:103130001EF08AF9BAF1000F19D158461BF080FF32
:10314000054658461BF0DCFF002D07DC00280EDD8D
:10315000002D03DA01230022294605E0002806DAC3
:1031600001230022404201B258461EF06DF90A21A7
:103170005846019A17F0ECF86078800706D414F8E6
:10318000400F20F00F00207044F8148CBDE8FC9F25
:103190007FB50E46040003D113F0F8FF04002CD0D5
:1031A00014F068F8002828D094F82800400724D4A8
:1031B000002506B3ADF80050ADF80250204613F0DC
:1031C000FDFF401EADF80400204614F03DF8401EFF
:1031D000ADF806006A46314602A8FFF706FA002855
:1031E0000BD02068017C890708D5DDE90001C4E91E
:1031F0000C01012029E0A4F850517FBD82690AB179
:1032000002A9904700260AE004EBC601002202A8AA
:103210003031FFF712FA0028EFD1761CB6B2B4F8BD
:103220005001B042F0D880B2202804D204EBC00094
:1032300002A9303004E0A4F8505104F1300069468E
:1032400011F059FDB4F85001401CA4F85001606819
:103250000028D2D021F0A0FA7FBD70B5054600F05D
:1032600012F804460CE02146284600F01EF80646F7
:103270002146284600F0A2F820461AF0F1F834461C
:10328000002CF0D170BD002800D04068704700B518
:1032900003460022FFF7F7FF03E01846521C00F038
:1032A00004F80100F9D1104600BD0068091D40581E
:1032B0007047006840587047002800D08068704709
:1032C00000224260C91C21F0030182600160704746
:1032D00070B50446006808301AF036F8050013D0BF
:1032E00001460022204622F0E7FA2946204662687D
:1032F00022F0DCFA616819B12A46204622F0DCFA95
:103300006560A06800B9A560284670BD2DE9F04150
:103310000C4606000AD04CB1FFF7B5FFA04208D119
:103320003046FFF7D5FF051E01D01EE00020BDE8A6
:10333000F081306808301AF007F8051EF7D03068C1
:103340002A4607593046394622F0B0FA3A4629460D
:10335000304622F0B1FA2A462146304622F0ACFA35
:1033600022462946304622F0A1FA2846DFE770B50A
:1033700004460068083019F0E7FF050013D0014645
:103380000022204622F092FA29462046A26822F026
:1033900093FAA16819B12A46204622F087FAA5605F
:1033A000606800B96560284670BD28B1416809B9F8
:1033B000806808B1002070470120704770B5040094
:1033C0000DD0FFF760FF00228842204608D1FFF7AA
:1033D0006CFF6060011E01D000221EE0A26070BD83
:1033E000FFF76AFF8842206808440AD10168A1609B
:1033F00029B12046BDE87040002222F057BA626031
:1034000070BD05682046FFF750FF06460246294674
:10341000204622F04BFA2A4631462046BDE870404D
:1034200022F04ABA10B50446006882680AB1214603
:10343000904720680068002801D02060F5E710BDA3
:103440008068002801D0B0F9160070478068002815
:1034500001D0807E8009704770B5164605460C463F
:1034600051EA06001AD028461AF06EFEA868012319
:103470003246018A21440182A868418A314441824E
:10348000214628461DF038FA00220B21284616F066
:103490005FFF012803D128461DF088F9012070BD87
:1034A00077B581B00E46050017D062221CF074FC7F
:1034B000040012D0206880B12846314663221CF0F7
:1034C0006BFC10F0FF0208D0236820460399984750
:1034D0000090BDF80000ADF80C00039804B070BD7A
:1034E0002DE9F047074692B0408C1A9E40F0080044
:1034F000788490463A8499468A46328938461CF048
:103500004BFC0546A7F820903289514638461CF0FE
:1035100043FC0446788CA54220F00800788403D14F
:103520002904B1EB044F68D0A7F8208032895146B6
:1035300038461CF031FC05468046A7F820905146DD
:1035400038460BF099FC318900682A461FF02CFFA1
:1035500030890B2823D147F6FF794D4501D04C45E2
:103560001DD138461CF0EBFD00EBD07045103846FD
:103570001BF09FFC00EBD0704010C84506D1691CC1
:10358000431C994200DA00E0194688464C4506D1B2
:10359000691C421C914201DA6C1C00E01446194877
:1035A000FFF796FE05002BD02F60C5E90384308914
:1035B000A8806846C5F808A010F010FE1248FF2148
:1035C000CDE9005011480290114803900020089066
:1035D000CDE9090130880B9070889DF84210404277
:1035E0000C90F0680790002060F300018DF8421005
:1035F00030690690684610F065FE12B0BDE8F087AD
:10360000FEE70000B01F002015A0020801A202087A
:103610005DA1020814210148FFF752BEB01F00202F
:103620002DE9F84F00259046894606462C4604278A
:10363000E5E000BFF16807EBC400085882017AD4C6
:1036400080B230EA090211D05FF0000230EA0800CF
:103650000ED0002082426ED051F834A06A4610216C
:1036600050461FF003FC002871D103E00122EDE772
:103670000120EFE76A46112150461FF0F7FB0028B2
:1036800065D16A46122150461FF0F0FB00285ED13A
:103690006A46132150461FF0E9FB002857D16A46BD
:1036A000152150461FF0E2FB002850D16A46142134
:1036B00050461FF0DBFBE8BB6A460A2150461FF06C
:1036C000D5FBB8BB6A466B2150461FF0CFFB88BBC9
:1036D0006A466C2150461FF0C9FB58BB6A4601215F
:1036E00050461FF0C3FB28BB6A46042150461FF01A
:1036F000BDFBF8B96A46022150461FF0B7FBC8B9B6
:103700006A46032150461FF0B1FB98B96A4605216D
:1037100050461FF0ABFB68B96A46062150461FF0C1
:10372000A5FB38B96A46322150461FF09FFB08B905
:103730006A4601E00BE061E06E2150461FF096FB07
:1037400028B96A466D2150461FF090FB10B1032046
:10375000BDE8F88F6A46692150461FF087FBE8BB39
:103760006A466A2150461FF081FBB8BB6A466E214B
:1037700050461FF07BFB88BB6A466D2150461FF008
:1037800075FB58BB6A46372150461FF06FFB28BBBC
:103790006A46382150461FF069FBF8B96A46352160
:1037A00050461FF063FBC8B96A46402150461FF0DF
:1037B0005DFB98B96A46452150461FF057FB68B932
:1037C0006A46412150461FF051FB38B96A464221F2
:1037D00050461FF04BFB08B96A4600E00AE043215F
:1037E00050461FF043FB28B96A46492150461FF056
:1037F0003DFB08B1022501E005B90125641C708C70
:10380000C0F30510A0423FF615AF2846A0E7000020
:103810000148406870470000A400002004480021CF
:1038200041600161C16081600160416170470000D9
:10383000F81D0020C0F30410072800D907207047A6
:10384000A0F57F41FF3905D0002804D0712803D2AC
:1038500008490AE01F2070470749713880B209689B
:1038600029B1064A5268904201D2085C7047002094
:1038700070470000101703081002002024020020E7
:1038800010B518210348FFF71BFD034901200870FC
:1038900010BD00005C1F00202C0200202DE9F0412B
:1038A00090460C46050015D0FCF7EDFC0A4F064685
:1038B0002146BA68284690470446BA682819414606
:1038C00090470146701A03E06218AA5C2A55641CEE
:1038D000A042F9D2BDE8F081400200202DE9F0417C
:1038E000094D90460E466A681C46074619469047A1
:1038F000306020B120686A68384400219047C8F8D9
:103900000000BDE8F0810000400200202DE9F04FEA
:1039100087B08A46DDE910581F46934604460021C9
:1039200005B129805CB12078002809D0BAF1000FD8
:1039300005D0002618F0060F15D0002004E0002066
:1039400007B0BDE8F08F401C215C0A2904D00D2986
:1039500002D00029F7D100E0401C002DF0D04FF03C
:10396000FF312980ECE75FEA887001D541F6FF77E7
:10397000894608468DF81410049127E00498CDF884
:10398000189068B34FF0000C05AA06ABCDF80CC038
:10399000CDF80080CDE9013220443B465A465146DD
:1039A00021F03CF806997A1A314417B20EB288B168
:1039B00004990144049120780A280BD00D2809D0DD
:1039C000605C0A280FD00D280DD00846205C08B195
:1039D000002FD3DC049848B105B12E800498AFE7DE
:1039E0004FF0010CD0E7481C0490F3E7064A04A905
:1039F000204652689047002DF0D0014600225046E4
:103A000016F0BAFD06B2E8E7400200202DE9F041C9
:103A10001746884606001ED0002F1CD0FCF733FC4A
:103A200004463846FCF72FFC050014D00B4A2C4402
:103A30004146926830469047411903E0621BB25CF0
:103A40003255641EA142F9D930442A463946BDE8B0
:103A5000F04119F0D5BDBDE8F08100004002002022
:103A600000230278232902D0012A0DD00FE02AB1C9
:103A70000021012A04D0022A04D008E0012101E03B
:103A8000017004E0017001E0202902D001231846F2
:103A900070470221F6E72DE9F0410E4680460246C6
:103AA00000213346084621F0F7F904460027401C60
:103AB00019F04AFC050008D02F5533464246611CD8
:103AC00021F0EAF92846BDE8F081FEE72DE9F0474C
:103AD0001E4614460D468246DDF8209015E000BFD4
:103AE0004FEA540808FB0657394650464A46904765
:103AF000002808DD44F30000C0EB540407EB060582
:103B0000A4F1010401E005DA4446002CE8D1204686
:103B1000BDE8F0873846FBE72DE9FC5F9B460CAB20
:103B20008A468146DDE9116093E81210DDE90F57FE
:103B30005FEA80784FF030031AD45EB15FEAC07854
:103B400008D000F00C0858EA0C0803D0761E01E0FB
:103B50000B55641CBC4204D2202CF9D301E00B5558
:103B6000641C5FEAC07803D0B44201D2202CF6D3A3
:103B70005FEAC06825D55FEA40580AD44CB1BC4220
:103B800001D0B44205D1641E03D0102D03D1641EB0
:103B900004E0102D02D0022D0AD00EE0850603D4D9
:103BA000202C1ED2782506E0202C1AD2582502E0BF
:103BB000202C16D262250D55641C202C11D20B55D9
:103BC000641C202C0DD2BCF1000F01D02D2306E087
:103BD000430701D52B2302E0030702D520230B5511
:103BE000641CCDE900BAC846154681468B46AA46F4
:103BF000800714D1274607E02A46DDE900316D1C15
:103C00002020C446E0477F1CB742F5D307E02A4690
:103C10006D1C641EDDE900311BF80400C047002C58
:103C2000F5D15FEA897006D409E02A46DDE9003162
:103C30006D1C2020C047A5EB0A00B042F5D32846F2
:103C4000BDE8FC9F2DE9F04F8FB099468B46DDE92A
:103C50001818DDE91C63DDE91A4792468646002202
:103C600009B923F01003580507AD00D5C9B1B1FB60
:103C7000F4F004FB1010C0B20A2801D2303009E081
:103C80005FEA836C02D54FF0410C01E04FF0610C0C
:103C900060440A38B1FBF4F1A854521C09B1202A3F
:103CA000E5D3CDF80880CDE90563CDE90052CDE933
:103CB00003474B46524659467046FFF72DFF0FB05B
:103CC000BDE8F08F2DE9FF4F8FB01CACDDE92395E7
:103CD00094E8030820AC94E8C004002450EA0102F0
:103CE00001D125F010056A050DF11C0802D550EA36
:103CF000010217D032463B46FCF762FAD2B20A2ADA
:103D000001D2303206E0AB0601D5412300E0612349
:103D10001A440A3A08F80420641C50EA010201D04F
:103D2000202CE7D3CDE90084CDF808B0CDE9059586
:103D3000CDE9036A0FAF97E80F00FFF7EDFE13B070
:103D4000BDE8F08F9A4200D2885470477047000057
:103D50002DE9FF4F8DB09B460F460446002606E036
:103D600025280BD05A460F999047641C761C207862
:103D70000028F5D111B03046BDE8F08F0025A846E7
:103D80000122984900E0054314F8013F203B02FA64
:103D900003F00842F7D120782E2817D114F8010F2C
:103DA00045F004052A280ED06FF02F022078A0F1EC
:103DB000300109290AD808EB880102EB410100EB28
:103DC0000108641CF2E757F8048B641C20786C2807
:103DD0000DD004DC4C2812D06A2811D104E07428DC
:103DE0000DD07A280CD10AE045F4001507E061787F
:103DF00045F48015814202D1641C05F58015641CD0
:103E00002278692A45D008DC002AB3D0582A69D024
:103E1000632A10D0642A08D13BE0702A67D0732A45
:103E200013D0752A5CD0782A5CD010465A460F9978
:103E30009047761CD3E017F8040B8DF800000020A3
:103E40008DF80100E946012003E057F8049B4FF08C
:103E5000FF3069074FF0000501D40AE06D1C4545AD
:103E60000DDA8542FADB19F805100029F6D106E0D3
:103E70006D1C8542FCDB19F805100029F8D12E4491
:103E800004E019F8010B5A460F9990476D1EF8D2BD
:103E9000A5E00A200021CDE90801C5F3025002285F
:103EA0000DD001CFC117031E71F100030DDA4FF0E1
:103EB000000CD0EB0C006CEB01012D2308E0FF1D82
:103EC00027F00707F7E80201EDE72B0504D52B23C0
:103ED0008DF8283001233BE0EB0739D02023F7E7AA
:103EE0000A2000E010200021CDE9080107E01020A1
:103EF000002145F00405CDE908014FF00808C5F39D
:103F0000025002280FD001CF00214FF0000A2B07EA
:103F10001FD5702A0DD0DDE908C38CF0100C5CEAC7
:103F2000030C0CD015E0FF1D27F00707F7E802018E
:103F3000EBE740228DF828204FF0010A0BE050EA11
:103F4000010306D030238DF828308DF82920022374
:103F50009A46582A04D024A20DF120090B9209E0B8
:103F600026A2F9E7DDE90823FCF72AF90B9B9B5C05
:103F700009F8013D50EA0102F4D1ADEB090020300F
:103F80000890680701D44FF001080899884502DDC0
:103F9000A8EB010000E000208046002506E00AA80A
:103FA0005A46405D0F9990476D1C761C5545F6DBCF
:103FB00004E030205A460F999047761CB8F1000172
:103FC000A8F10108F5DC05E019F8010B5A460F9934
:103FD0009047761C0899481E08900029F4DC641C60
:103FE000C5E6000009280100303132333435363758
:103FF0003839616263646566000000003031323335
:1040000034353637383941424344454600000000D4
:104010002DE9FF4F89B005460A98002492460028F2
:1040200000D1FE4D8FE1252804D02246641C534662
:104030000A990BE2491C4FF0000808460C910178E0
:104040002B2919D004DC202919D0232904D119E007
:104050002D290ED0302909D00026C8B2FEF7FDF96F
:10406000B0B10CA8FEF7E2F906461FE048F00101E6
:104070000AE048F0020107E048F0040104E048F0DB
:10408000080101E048F01001401C88460C90D6E77A
:104090000C9908782A2809D1169840C81690002E45
:1040A00002DA48F002087642491C0C910C984FF055
:1040B000000B01782E2919D1401C0C9048F480681F
:1040C0000078FEF7CAF920B10CA8FEF7AFF98346D5
:1040D0000CE00C9A10782A2808D1169802C816907D
:1040E000002900DC0021521C8B460C920C980178B0
:1040F0006C290AD004DC68290FD06A2919D128E07C
:10410000742929D07A2914D126E0401C0C9001781A
:1041100048F480786C291CD00BE0401C0C9001788E
:1041200048F08008682904D148F04001401C8846C6
:104130000C9002460078692822D015DC62281FD036
:104140000DDC252871D050281AD058287FF46DAF87
:1041500016E048F40071E9E748F48071E6E7632867
:1041600078D06428F2D10BE0732874D004DC6F2877
:1041700006D07028EAD103E0752801D07828E5D16F
:1041800078280DD058280BD070280BD0502809D093
:104190006F2816D0622816D00A2128F0100016E0E9
:1041A000102107E05078102148F48878562804D16F
:1041B000521C0C921078582807D01078502804D040
:1041C00006E0082109E0022107E048F020008046CF
:1041D0001078692803D0642801D028F00C085FEA21
:1041E000485001D528F00108107869281ED06428AD
:1041F0001CD0562864D05FEA885072D5169804AB5C
:10420000C01D002283E806080292CDE9076820F06D
:1042100007005346F0E80212CDE90012169022463C
:1042200028460A99FFF74EFD89E00AE15FEA8850C7
:1042300024D5169804AFC01D20F00703F3E802024E
:104240001693002387E80A08CDE90768002A03DAF5
:10425000012102E080E0A6E000210023029119463E
:104260001B1A914101DA114603E00021404261EB43
:10427000020153462246CDE90001D1E75FEAC8506A
:1042800004D5169804C80FE0524215E05FEA486072
:1042900003D5169810F8042B06E05FEA0860F0D505
:1042A000169830F8042B12B21690CDE9021BCDE916
:1042B0000468D00F002AE7DDCDE9002053461EE058
:1042C0001698AAEB040202C816904868006800908D
:1042D0000A980B6801192846FFF79AFE04442FE05C
:1042E000FFE75FEAC8500CD5CDE9021BCDE90468B1
:1042F00016980021534604C8CDE9002116902246A5
:1043000019E05FEA486003D5169810F8042B08E01E
:104310005FEA0860169803D530F8042B92B200E0EB
:1043200004C816900020CDE90020CDE9021BCDE99C
:1043300004685346224628460A99FFF783FC044640
:104340000C98401C0C900C99087800287FF46BAEF8
:1043500054457DD222467DE001275FEA887006D56C
:1043600009E02246641C534620200A99A847384693
:104370007F1CB042F5D316992246641C11F8040B39
:10438000169153460A99A8475FEA887006D4D7E782
:104390002246641C534620200A99A84738467F1CB1
:1043A000B042F5D3CCE7169850F8049B16904B46D4
:1043B000BBF1000001D0014601E04FF0FF3148465B
:1043C00000E0401C02780AB1491EFAD2C71A5FEA1F
:1043D000485003D558465F4500D307465FEA8870CA
:1043E00006D512E02246641C534620200A99A847AD
:1043F00038467F1CB042F5D307E000BF224609F1E2
:104400000109641C53460A99A84799F8000040B175
:104410005FEA4851F2D5BBF1010B01E04D3D0008C8
:10442000ECD25FEA887006D48AE72246641C5346C1
:1044300020200A99A84738467F1CB042F5D37FE771
:1044400006E02246641C534625200A99A84777E7D0
:10445000AAF10102534600200A99A8470DB0204650
:10446000BDE8F08F10B502004FF000000CD04B1EDD
:10447000194200D0FEE70A44521E9A43B2F5803F2B
:1044800002D20C2A01D9104610BD0C2010BD0844E0
:104490004A1E401E9043114200D0FEE770470000C4
:1044A0002DE9F0410F4601210025044641862E46A4
:1044B0000BE01B49FBF7EEFE10B16D1CADB202E044
:1044C000608E401C6086761CB6B257F8260010B18C
:1044D00001780029EDD1208EA8421ED0A06A0026C6
:1044E00010B118F0BDFFA662E06A10B118F0B8FF75
:1044F000E662E80018F028FFA06238B1680018F002
:1045000023FFE06218B1A16A11B102E0FEE7FEE705
:104510000025690019F0B2F82586BDE8F081000099
:10452000F85601082DE9F84F8146407A0F4600F011
:104530000700022819D010468046974200DD3A460F
:10454000164603202A4C2B4A00EB460020F00305B8
:10455000A06811681035411A636805EB010C9C4591
:1045600005D2416821F0004124E00846E4E79D427D
:1045700019D892464FF0FF3B48196168884210D91C
:10458000002269461C48CDF800B00CF04BF900221F
:1045900069461A480CF046F9A168DAF80000091AD1
:1045A000EAE7A068DDE7284618F0CEFEC0B1416812
:1045B00041F0004188EA6702416089EA0201016036
:1045C000416801F04041491C31F0804141608681E1
:1045D000A0F80E8005D500F110018160BDE8F88FCC
:1045E000FEE7A16801F1100229448260A160F5E7AD
:1045F000AC0000200C0200206DD6000885080108E0
:1046000070B586B000224A4C8DF808208DF80C2039
:104610008DF81020E2888A4201D0FF22A270E1804A
:1046200090F83C20142302F003024FF4B475012AE1
:1046300024D0022A5ED0A578AA4211D010F8265FB5
:1046400005EB051505EB4505B5FBF3F52570407841
:1046500000EB001000EB4000B0FBF3F06070A270C4
:1046600004AA03A8CDE9000201EB41004FF6FF7157
:1046700001EA400002AB627821781BE0A678B242E2
:1046800010D0868C06EB46067602B6FBF5F5A580C3
:1046900090F8270000EB001000EB4000B0FBF3F0B7
:1046A0006070A27004AA03A8CDE90002C9B202ABEF
:1046B00062783AE008F0EDFC9DF810109DF80C00CF
:1046C000CB08BDF800109DF8082063F30401ADF895
:1046D00000108108BDF8000061F34A10D10880B2D3
:1046E00061F3CF20ADF8000080B20090BDF800006B
:1046F00006B070BDA678B24210D0868C06EB460696
:104700007602B6FBF5F5A58090F8260000EB0010C8
:1047100000EB4000B0FBF3F02070A27004AA03A8E5
:10472000CDE90002CAB2217802ABA088C2E700003E
:104730005801002010B5084C012020700748FEF7F2
:10474000A2FD0028A06803D0BDE8104020F024B8E6
:10475000BDE8104020F014B8E40100208C1F0020B8
:1047600010B5044690F84200A16B820709D4B4F852
:1047700040204AB1A2F57F43FF3B1BD0521EA4F854
:104780004020B4F84020AAB909B1820712D52146C9
:104790001448FEF713FEFFF7CDFFE16809B120468C
:1047A0008847216909B1204688472046BDE8104066
:1047B00018F056BEE26B52422263002911D08207E4
:1047C00002D4626B524222634210521C62F34100D7
:1047D00084F84200A26A206A2262A062E06AE16272
:1047E000A06310BD8C1F002070B5304D68681FF0AD
:1047F00089FE0646687880F00100687047E0002076
:10480000287094F842006978C0F380028A4242D04E
:1048100061F3820084F84200216B8A19030719D4DE
:10482000002917DC002A15DBC00709D1616939B1FD
:1048300020468847216A01442162A16A0844A06297
:10484000A16809B12046884794F8420040F008006A
:1048500084F84200206B8019206316D4E16A8842F4
:1048600000DD2163E169204688470146606A88428D
:1048700004D0616262680AB120689047D4E90B01F4
:10488000814202DB2046FFF76BFF287818B1084809
:10489000FEF7F9FC03E021460548FEF706FD04009B
:1048A000ADD11FF035FE686070BD0000E40100204E
:1048B0008C1F002070B5044640680D4608B1FFF714
:1048C000F9FF2268002A04D029462046BDE870403E
:1048D000104770BD89B210F073B989B210F0ACB94D
:1048E0002DE9FF4F99B09846DDE926B12D9816467F
:1048F0008A464FF00009042811D0052811D0062857
:1049000012D0142870D101270225002418FB06F0CC
:104910000E901A98401E0D90701E069051E10027CF
:10492000F2E701270325F0E701270225FEF770FFD4
:104930000068D0F83890E8E7289860430BEB202215
:10494000299860430AEB202110124FEA212E7DD4D2
:104950001A9B98427ADABEF1000F77DBB64575DA1A
:10496000D2B2CBB2802A05DAC2F17F024FF0FF311A
:10497000520003E001215200A2F580720992802BBF
:1049800005DAC3F17F034FF0FF325B0003E0012241
:104990005B00A3F580730A930EFB080C199B0CFBBC
:1049A000053307934318119372D4DDF834C063457F
:1049B0006EDC1EEB02036BD4DDF818C0634567DCC8
:1049C000DDF81CC011FB05C1CDE915C112FB08F1D2
:1049D00001FB05C10C91D7B32D99052905D01429E8
:1049E0000BD0062955D066E0EFE015988078079047
:1049F0000C9881781698807810E0199A0E990EFB21
:104A000008FC02EB41010A180EFB08111CF8020019
:104A10000790119803FB08F3085C995C079A914290
:104A20000AD00A9A11FB02F20A99C1F5807307991C
:104A300011FB0321C1F30721079A90420DD0099A77
:104A400010FB02F20998C0F5807301E02FE035E019
:104A5000079810FB0320C0F3072008442C99400856
:104A6000085527D015980178407801EB0020ADF863
:104A70000C000C980178407801EB0020ADF8100094
:104A800016980178407801EB0020ADF8080023E08B
:104A90004CE0159801881FFA89F0814207D00C99E3
:104AA0000988814203D016990988814203D12C9943
:104AB0000020085583E0FF210846CEE715980088BE
:104AC000ADF80C0016980088ADF808000888ADF81D
:104AD00010002C98FF210155BDF80C00BDF81010F6
:104AE000884209D1BDF80810884205D12B98BDF83D
:104AF0000C1000EB440017E00A98C2B2DDE9031085
:104B000011F02AFF04900998C2B2DDE9020111F008
:104B100023FF7F220290049911F01EFF00902B9832
:104B2000BDF8001000EB4400018048E0079B93F8BB
:104B300000C05B780CEB0323DDF8ACC09BB22CF813
:104B40001430DDF8B4C0BCF1050F06D0BCF1060F7F
:104B500006D0BCF1140F09D10AE0079B9B780FE047
:104B60001FFA89FC634501D1002309E0FF2307E018
:104B7000199B0EFB083C0E9B00EB43031CF8033013
:104B800008B9002905DBDDF834C0604503D10029F0
:104B900001DD09980AE0BEF1000F01D1002A04DB13
:104BA00006998E4508D1002A06DD0A98C0F1FF005B
:104BB00010FB03F0010A00E000212C980155641C51
:104BC00024B22A988442FFF6B7AE1DB0BDE8F08F3C
:104BD0000AF048BB70B514460D46064606E030465E
:104BE000711C8EB200F006F805F8010B641EA4B229
:104BF000F5D270BD10B504460AF0E8FB200AA021EA
:104C000001EB4000C0B20AF0B1FB0AF025FCE0B2B3
:104C10000AF0ACFB0AF020FC0AF0D8FBA1200AF055
:104C2000A5FB0AF019FC00200AF06CFB04460AF010
:104C3000F3FB204610BD70B516460C46054606E04F
:104C40002178284600F007F86D1CADB2641C761E72
:104C5000B6B2F5D270BD70B50D4604460AF0B6FB8B
:104C6000200AA02101EB4000C0B20AF07FFB0AF04D
:104C7000F3FBE0B20AF07AFB0AF0EEFB28460AF0FA
:104C800075FB0AF0E9FB0AF0C7FBBDE870400A209B
:104C9000FBF7CABD10B5818F92B00446A9B1684632
:104CA0000FF09CFA0B480121CDE90040A08F0B903A
:104CB00000200890CDE909010748079007480390B4
:104CC00068460FF0FFFA12B010BD12B0BDE81040F8
:104CD00020F03EBFC95B02089B420108CB5B020883
:104CE00010B50446406882080AD0496821F00301E3
:104CF000091D08446060204600F042F8204610BDBF
:104D0000FEE74068103120F00300884201D3012003
:104D10007047002070472DE9FC47054648680C465F
:104D200020F0030001AA694620F068FCDDE900706C
:104D300005EBC71101EB80098046D9F83C0060B152
:104D400064B1C4E9020504F10806C46030460421D8
:104D5000FFF79DFB864202D0FEE7FEE7FEE7C9F8BB
:104D60003C400120296900FA07F21143296105EB53
:104D7000870100FA08F04A6902434A61BDE8FC87EE
:104D800010B5044600F087F8046010BD2DE9FC471B
:104D900006464FF000000D0000900746019042D0FB
:104DA0000C46E9460DF10408802907D3084624F093
:104DB00041FC411F01208840401E044442464946B0
:104DC000204620F01BFC009C0A2C2CDA06EB840009
:104DD000019A40694FF0FF3101FA02F210400CD104
:104DE000641C3069A14008401DD024F01BFC04461F
:104DF000009006EB8000406978B124F013FC034674
:104E000006EBC411019001EB8000C76B5FB17868BD
:104E100020F00300A84201D2FEE7FEE73946304603
:104E2000009A21F06BFD3846BDE8FC8710B50446BA
:104E3000FFF7A6FF416841F002014160606840F061
:104E40000100606010BD10B5044600F024F8416810
:104E500021F002014160606820F00100606010BD37
:104E600070B506460D46084600F015F8040010D04F
:104E70002079C0070BD0686880080BD021463046E7
:104E800000F03CF821462846FFF72AFF0546284651
:104E900070BDFEE7FEE7426800F1080122F0030062
:104EA000001F0844910800D1FEE7704770B5064620
:104EB0000C004FF000001ED0F2B120791546C0075B
:104EC0001BD011462046FFF71CFF78B1294620462B
:104ED00000F025F805462046FFF752FF686829468E
:104EE00040F0020068603046FFF715FF2046FFF7EC
:104EF000AAFF04F1080070BDFEE7FEE77CB5054699
:104F000048680C4620F0030001AA694620F076FBB1
:104F1000DDE900232146284621F0F0FC7CBD2DE987
:104F2000F0410D46044600F10801281F0E18606884
:104F300006F1080720F00300401BA0F104083846E2
:104F40000421FFF7A4FA874200D0FEE7606820F052
:104F5000030108EB0500001D814200D0FEE7307917
:104F600000F0030040EA0800706020F003000C2805
:104F700000D2FEE7207900F003002843606030464D
:104F8000FFF754FF3046BDE8F08138B5044616F00F
:104F900077FD054616F0A9FD0028204605D0218F93
:104FA000E1861BF003FC012038BD14F08FFF0028C0
:104FB00020461ED014F056FE218FE08E81420CD088
:104FC0002087E08E00906A461C21204615F0C0F92B
:104FD0000128E9D120461BF0E9FB284616F091FD97
:104FE0000428E0D1204619F05FFF002115F0BDFE36
:104FF000D9E714F0C7FFD6E770B515F0A5F9054657
:1050000019F098FF0446284610F03EFC0146204661
:10501000BDE8704000221EF0A3BD00002DE9F04F56
:105020000D4687B00446002119F072FE60B3294690
:10503000204600F061FA2946204600F06FF8002172
:1050400020461AF095FD0590002120461AF044FEF6
:105050000490002120461AF056FC012800D00020C0
:105060008046002120461AF099FF0746002120467D
:105070001AF0C4FC42F2D17906464F450BD1608C40
:10508000000508D4012707E007B02846BDE8F04F27
:105090001C2118F0F3BA0027204619F0B7FEDFF8FC
:1050A00078A0834620460021BAF804201AF074FE46
:1050B000D5F810C0AB682968CDF800C0CDF80C80D9
:1050C000CDE90131C2B239465846059B09F046FF89
:1050D00028834E4504D1608C400501D4012600E0B0
:1050E0000026204619F078FE074620460021BAF82F
:1050F00008201AF051FEC2B2686900246B68E968A2
:105100008DE81B0031463846049B09F027FF688371
:1051100007B0BDE8F08F0000CC0000202DE9F34F70
:1051200081B00C46019809F09BF90646019819F0E8
:105130006DFE8246304600F0E3FF2061400018F02B
:1051400031F920602069400018F02CF9002541F663
:105150009A79A0603AE036F91510DFF820814945C8
:1051600033D10027DFF818B11FE03946019819F054
:10517000CFFD594600901BF032F8A8B9009809F00D
:1051800081F9012810D1009809F072F9A8420BD1D9
:1051900000981AF0D4FF4146404501DA084602E083
:1051A00000981AF0CCFF80467F1C019819F0C2FDD0
:1051B000B842DAD8B8F1000F03DBA16821F81580F6
:1051C00003E0A168002021F815006D1C2069A842A9
:1051D000C1D800252F46284641F69B784B4615E05E
:1051E00036F91010414504DB0D44A5F5F8559B3DFB
:1051F0000BE0994204D1A16831F81010394403E062
:10520000A26822F8101039440FB2401C2169814273
:10521000E6D8002101981AF0ABFC2169C1F1010226
:1052200000FB02A0C01B00B2002800DA0020002210
:105230004FF0FF331146C44611E000BF36F911703C
:1052400067450BDBA7F5F8579B3F3AB210FB02F31B
:10525000B3FBF5F3A76827F811300B46491C276903
:105260008F42EBD8002B07DBA91A4143B1FBF5F1C4
:10527000401AA16821F81300BDE8FE8F01E0FFFF8E
:10528000010006002DE9F14F0022114600981CF0A4
:105290001DFA002100981AF06FFB044600210098C7
:1052A0001AF02CFD20440FFA80F9002100981AF022
:1052B00017FC20440FFA80F800981AF0D1FA00EB9E
:1052C000090101EB0800DFF898A006B254460098E7
:1052D00019F030FD074600252AE000982149806832
:1052E000006850F8250083461AF079FFF8B958464F
:1052F0001BF0B4FA40BB002158461AF0D5FA18B397
:10530000012821D002281FD003281DD00021584693
:105310001AF05CFE58B9BBF81A10BBF81600081A50
:10532000401C00B24844A04200DB044624B26D1C7D
:10533000BD42D2D3544504D004EB080000B2B042C1
:1053400000DC3046BDE8F88F0098BBF91A10B0F9C0
:105350001600081A411CA142E8DB0C46E6E70000F3
:1053600001E0FFFF010004002DE9F84F0022804614
:1053700011461CF095F9002140461AF0FDFA04464A
:10538000002140461AF060FC20440FFA80FA002108
:1053900040461AF00BFC20440FFA80F940461AF000
:1053A0006DFA00EB090101EB0A00DFF844B105B228
:1053B0005C46404619F0BEFC0746002140461AF004
:1053C00090FA01284FF0000644D078E0D8F80800A1
:1053D0004849006850F8260000901AF000FFC0BB52
:1053E00000981BF03BFA50B10098B8F91810B0F9CA
:1053F0001400091A481CA0422ADB4C1C28E000219A
:1054000000981AF051FA58B1032809D0062807D09D
:10541000082805D0002100981AF0D2FD58B118E0F4
:105420000098B8F91810B0F91400081A411CA142EC
:105430000EDB0C460CE00098143000900FF0D5FC09
:105440005044A04204DB00980FF0CFFC00EB0A04AC
:1054500024B2761CBE42B9D35C453BD004EB0900B4
:1054600033E000BFD8F808002249006850F8260051
:1054700000901AF0B4FE08BB00981BF0EFF960BB77
:10548000002100981AF010FA38B3012825D004281A
:1054900023D0072821D0002100981AF097FD68B981
:1054A0000098143000900FF0A0FC4844A04204DBA8
:1054B00000980FF09AFC00EB090424B2761CBE425F
:1054C000D0D35C4506D004EB0A0000B2584501D0A9
:1054D000A84200DC2846BDE8F88F0098B0F9181003
:1054E000B8F91400091A481CA042E6DB4C1CE4E79A
:1054F00001E0FFFF010004002DE9F84F0C46834650
:1055000009F0B2FB064600F0FBFD6061400017F0B9
:1055100049FF60606069400017F044FF002541F6D4
:105520009A79E0603AE036F91500DFF828814845BD
:1055300033D10027DFF820A11FE03946584619F083
:10554000E7FB514600901AF04AFEA8B9009809F00E
:1055500017FC012810D1009809F008FCA8420BD1D3
:10556000009819F0A6FC4146404501DA084602E0E1
:10557000009819F09EFC80467F1C584619F0DAFB13
:10558000B842DAD8B8F1000F03DBE16821F81580E2
:1055900003E0E168002021F815006D1C6069A84255
:1055A000C1D800252F46284641F69B784B4615E08A
:1055B00036F91010414504DB0D44A5F5F8559B3D27
:1055C0000BE0994204D1E16831F81010394403E04E
:1055D000E26822F8101039440FB2401C6169814220
:1055E000E6D8002158461AF077FB8146584619F054
:1055F000F3FB01466069C0F1010209FB0210C01B08
:1056000000B2002800DA002000224FF0FF331146DC
:10561000C44610E036F9117067450BDBA7F5F85763
:105620009B3F3AB210FB02F3B3FBF5F3E76827F8B0
:1056300011300B46491C67698F42EBD8002B07DB02
:10564000A91A4143B1FBF5F1401AE16821F81300B2
:10565000BDE8F88F01E0FFFF010006001CB50B88D4
:1056600004892344ADF800304B8844892344ADF8C5
:1056700002308B8804892344ADF80430C9884389FB
:105680001944ADF806104369694698471CBD0000EF
:105690002DE9FF4F89B0C8781A9CC0070D46002835
:1056A00001D0F84800E0F848069001D0F74800E043
:1056B000F748049001D1F54800E0F5484FF0100399
:1056C0004FF00C0E4FF0080BCDF814006188A28843
:1056D0004FF0000AA1EB0201504609B25246D4F83D
:1056E00010C00FE002EB8207E66803EB870816F8AC
:1056F00008805FEAC87809D00BEB8707F65B891B47
:1057000009B2521C9445EDD8002254E00EEB8707F5
:10571000F65B304400B2F4E7E66802EB820703EB85
:10572000870CB146CDF820C016F80C60F60741D1C1
:10573000002872D091FBF0F80EEB8706079639F837
:10574000066006FB08F60FFA86FCCDF800C04FF0A5
:10575000060C0CEB870C042639F90C8006EB870647
:10576000DDF800C039F90660E04500DCC446664556
:1057700004DC009EC446B04500DC6646DDF800C08F
:105780000196664506D0DDF820C04FF00108C246FC
:1057900049F80C80D4F80C80019E0BEB870728F8A1
:1057A0000760D4F80CC0079F3CF80770C01B891B2A
:1057B00000B209B2521C26699642ADD8BAF1000F68
:1057C00084D1002109981AF098F8012826D00027E2
:1057D0000020ADF80800ADF80C0003A902A8CDE93F
:1057E00000012089B4F9022003B22878189920F02A
:1057F000FCF8E878384207D0099819F007FBBDF8A3
:1058000008100844ADF808000B99099819F080FABF
:1058100006464FF4FA682AE1FFE7FEE70127D7E7DB
:105820009C4930461AF0DBFC00286FD1002130463D
:105830001AF0CEF8F0B34FF00009484621690FE0A6
:10584000E26800EB800352F82320B24207D1E168FE
:1058500000EB80020BEB820031F9009002E0401C6B
:105860008142EDD8E878C007708C04D020F48060C5
:1058700040F4006003E020F4006040F48060708435
:1058800006F11400049982468847484528D03046DE
:105890001AF08CFFB08AADF80000F08AADF8020073
:1058A000308BADF80400708BADF8060049465046C9
:1058B000069A00E010E090476A462921304614F02D
:1058C00047FD304619F036FB3246222114F040FDE8
:1058D00030461AF06BFF03E0708C20F44060708457
:1058E000002000906878012811D0022817D105996E
:1058F00006F114008847B4F90010491C21F0010199
:10590000081A00EBD07040F34F0007E0A7E00599BC
:1059100006F1140088472188081A00B20090E87840
:10592000384208D0049906F114008847BDF80810E1
:10593000081AADF80800304600216B221AF02CFA44
:105940000FFA80F9304600216C221AF025FA0FFA7E
:1059500080FA30461AF0F3FB0190304619F0A9FAAC
:105960000146C9F3413001280FD129F4C040404518
:105970000BDCB0F57A7F01DDC0F57A70019A5043F7
:10598000642290FBF2F00FFA80F9CAF3413001284B
:105990000ED12AF4C04040450ADCB0F57A7F01DD23
:1059A000C0F57A704843642190FBF1F00FFA80FA59
:1059B000B18A1698F28A411A01EB0900179900B2D0
:1059C0008A1A02EB0A01EA7809B2D207002A02D049
:1059D000BDF9082000E0009A10440FFA80FA01D0C7
:1059E000009801E0BDF9080008440FFA80F95AEA6E
:1059F00009011BD030461AF0D9FEB18A01EB0A002A
:105A0000B082318B01EB0A003083F18A01EB09008F
:105A1000F082718B01EB0900708330461AF0C6FEEC
:105A200000234A46514630461AF066FFE87838426D
:105A30000CD1049906F11400884719990844BDF85F
:105A40000C100844BDF80810084406E0BDF80C101E
:105A500019980844BDF80810081AADF80800E8784D
:105A60000BAAC0F38001099808F0C4FF0646002E77
:105A700004D0DDE90B0188427FF4D2AE0DB0BDE861
:105A8000F08F0000734E0108694E01080F4E0108A7
:105A9000B74D0108010006002DE9F04F91B00E004E
:105AA00005463FD02E83286808B117F0D9FC06EBD5
:105AB0004600062101EB400017F046FC286040B389
:105AC000022101EB46010144E960042101EB86015A
:105AD0000144C5E9010101210024012E1AD0F00082
