:020000040800F2
:10000000A04400205D020008F71500083114000824
:10001000F51500088D030008611A000800000000B3
:100020000000000000000000000000009D0100082A
:100030008F03000800000000F90100080116000805
:1000400077020008770200087702000877020008AC
:10005000770200087702000877020008770200089C
:10006000770200087702000877020008770200088C
:10007000770200087702000877020008770200087C
:10008000770200087702000877020008770200086C
:10009000770200087702000877020008770200085C
:1000A00077020008D11600087702000877020008DE
:1000B000770200087702000877020008770200083C
:1000C000770200087702000877020008770200082C
:1000D00077020008491A0008551A0008770200083C
:1000E000770200087702000877020008770200080C
:1000F00077020008770200087702000877020008FC
:1001000077020008770200087702000877020008EB
:1001100077020008770200087702000877020008DB
:1001200077020008770200087702000877020008CB
:1001300077020008770200087702000877020008BB
:1001400077020008770200087702000877020008AB
:10015000770200087702000877020008770200089B
:10016000770200087702000877020008770200088B
:1001700077020008770200087702000800000000FC
:100180007702000877020008DFF80CD000F0ECF8E6
:1001900000480047ED1A0008A04400202C4B1968C5
:1001A0000868B0E8F04F80F30988BFF36F8F4FF015
:1001B000000080F3118870470000000008480068C4
:1001C000006880F308884FF0000080F3148862B65E
:1001D00061B6BFF34F8FBFF36F8F00DF00BF00BF6B
:1001E00008ED00E0DFF80C00016841F470010160E7
:1001F000704700BF88ED00E0EFF30980BFF36F8F19
:10020000134B1A681EF0100F08BF20ED108A20E96A
:10021000F04F106009B44FF0500080F31188BFF325
:100220004F8FBFF36F8F02F015F84FF0000080F38F
:10023000118809BC19680868B0E8F04F1EF0100F6B
:1002400008BFB0EC108A80F30988BFF36F8F704746
:100250001C000020EFF3058070470000064880472F
:1002600006480047FEE7FEE7FEE7FEE7FEE7FEE79B
:10027000FEE7FEE7FEE7FEE7C11600088901000879
:100280002DE9F05F0546002092469B4688460646CB
:10029000814640241BE0284641464746224600F05E
:1002A00053F853465A46C01A914110D31146184686
:1002B000224600F03AF82D1A67EB01084F46224615
:1002C0000120002100F031F817EB00094E41201EFB
:1002D000A4F10104DFDC484631462A464346BDE826
:1002E000F09F40EA01039B0703D009E008C9121FF1
:1002F00008C0042AFAD203E011F8013B00F8013BE0
:10030000521EF9D27047D2B201E000F8012B491E0B
:10031000FBD270470022F6E710B513460A460446A2
:100320001946FFF7F0FF204610BD202A04DB203AD3
:1003300000FA02F1002070479140C2F1200320FA38
:1003400003F3194390407047202A04DB203A21FA36
:1003500002F00021704721FA02F3D040C2F12002DE
:100360009140084319467047064C074D06E0E06887
:1003700040F0010394E8070098471034AC42F6D3EC
:10038000FFF706FF6C2600088C260008FEE7704782
:1003900072B6FEE72DE9F0410446876D00F06EF974
:1003A000064694F835000025022806D080206065B6
:1003B00084F834500120BDE8F0812068016821F004
:1003C000160101602068416921F080014161206CC3
:1003D00008B9A06C20B12068016821F00801016013
:1003E0002068016821F0010101600CE000F046F98D
:1003F000801B052807D920206065032084F835007C
:1004000084F83450D7E720680068C007EED194F82C
:100410005C103F208840B860012084F8350084F8E3
:1004200034500020C7E790F83510022903D080210E
:10043000416501207047052180F83510006801688A
:1004400021F00101016000207047000070B50446F2
:1004500000F014F90546601C02D0044800780444FA
:1004600000F00CF9401BA042FAD370BD0C00002034
:100470002DE9F84FDFF8BCA1002201250AF1040B99
:1004800003264FF00F090BF1040E00BF0B6805FAAD
:1004900002F42340A34270D10F7907F00307012F24
:1004A00001D0022F16D187684FEA420806FA08FCED
:1004B00027EA0C07D1F80CC00CFA08FC4CEA070C30
:1004C000C0F808C04768A7430C79C4F300149440EF
:1004D0003C4344600C79E443A4070AD0C4684FEA63
:1004E000420C06FA0CF7BC438F6807FA0CF7274357
:1004F000C7600C7904F00304022C12D1D40800EB7D
:10050000840CDCF820405707FF0E09FA07F824EAAC
:100510000804D1F8108008FA07F848EA0408CCF873
:10052000208004684FEA420C06FA0CF7BC430F79AE
:1005300007F0030707FA0CF7274307604C6814F429
:10054000403F70D03C4C276847F4804727602468C0
:1005500022F0030704F480440094384C07EB040CA9
:10056000DCF8084897074FEA177809FA08F7BC4300
:10057000334FB84202D1002724E054E0314FB84253
:1005800001D101271EE0304FB84201D1022719E006
:100590002E4FB84201D1032714E02D4FB84201D1AC
:1005A00004270FE02B4FB84201D105270AE02A4F5C
:1005B000B84201D1062705E0284FB84201D10727EC
:1005C00000E0082707FA08F72743CCF80878DAF89C
:1005D00000405746D1F804C09C435FEACC3C00D5AC
:1005E0001C433C60DBF800405F46D1F804C09C43EC
:1005F0005FEA8C3C00D51C433C60DEF80040774647
:10060000D1F804C09C435FEACC2C00D51C433C606D
:10061000084F0C373C68D1F804C09C435FEA8C2C2F
:1006200000D51C433C60521C102AFFF42FAFBDE8DC
:10063000F88F0000003C0140443802400030014087
:10064000000002400004024000080240000C02408A
:10065000001002400014024000180240001C02403A
:10066000426921EA02030A4043EA0241816170477C
:100670000AB1816170470904FBE700000148806806
:10068000704700000C000020024881680278114485
:10069000816070470C0000200B4810B5016841F4E0
:1006A00000710160016841F480610160016841F4FA
:1006B00080710160032000F08DF80F2000F006F833
:1006C00000F03EF8002010BD003C024010B501468D
:1006D00088B00022192000F05DF8192000F04CF8D5
:1006E00013480024016841F001010160006805A978
:1006F00000F001000690684600F018F900F046F995
:100700000C494000B0FBF1F10C480B4A491E026055
:1007100040F2E732C0E90324C0E9011400F030FBE5
:1007200010B1012008B010BD044800F057FBF9E7F4
:100730004438024040420F000000014064030020A2
:100740000C4882B0016841F480410160006800F407
:10075000804000900748001F016841F0805101600F
:100760000068002200F0805000900F21901E02B01F
:1007700000F010B844380240002809DB00F01F02E6
:10078000012191404009800000F1E020C0F80011F3
:1007900070470000F0B40E4B1B680C46C3F30223F5
:1007A000C3F10705042D00D90425191D072901D21D
:1007B000002300E0DB1E012606FA05F1491E214058
:1007C00099409E40761E16403143F0BC01F052B96C
:1007D0000CED00E0064900F0070208684FF6FF0341
:1007E000184040EA0220034A1043086070470000A6
:1007F0000CED00E00000FA052DE9F0470E4605007B
:1008000065D0DFF81481D8F80000F7B200F00700D7
:10081000B04207D288F80070D8F8000000F0070056
:10082000B04254D128683D4C810712D5400703D50A
:10083000206840F4E05020602878000703D5206845
:1008400040F4604020602068A96820F0F000084370
:1008500020602878C0072DD0304968680839012801
:1008600012D0022813D0032811D009688907002963
:100870002DDA216821F0030101432160FFF7FEFE1C
:10088000814641F2883A0EE009688903EFE709687A
:100890008901ECE7FFF7F2FEA0EB0901514502D90F
:1008A0000320BDE8F0872068696800F00C00B0EB19
:1008B000810FEFD1D8F80010404601F00701B14296
:1008C00007D90770006800F00700B04201D001208E
:1008D000E7E72878400705D52068E96820F4E0506C
:1008E000084320602878000706D52068296920F48D
:1008F000604040EAC100206000F058F82168084AD2
:10090000C1F30311515CC8400649086006480068FD
:10091000FFF7DCFE0020C4E7003C0240083802403C
:100920003826000818000020100000200F22026066
:100930000C4A136803F003034360136803F0F003E9
:100940008360136803F4E053C36012684FF4E0530C
:1009500003EAD20202610448006800F00700086060
:100960007047000008380240003C02400448054936
:1009700000680968044AC1F38221515CC84070478D
:10098000180000200838024048260008044805499D
:1009900000680968044AC1F34231515CC84070479D
:1009A000180000200838024048260008154810B5F5
:1009B000006810F00C02144813D01449042A0FD018
:1009C000082A0ED10F4C241F2268236802F03F0230
:1009D0005B0207D52068C0F38810A0FB010106E088
:1009E000084610BD2168C1F38811A1FB0001002356
:1009F000FFF746FC2168C1F30141491C4900B0FBE7
:100A0000F1F010BD083802400024F40040787D0168
:100A10002DE9F84F04006ED02078DFF84C93C00722
:100A2000A9F104054AD009F104000168C1F381016C
:100A3000012908D00068C0F3810002280AD1D9F842
:100A40000000400206D52868800337D5606800287A
:100A5000E1D033E06068B0F5803F10D0B0F5A02F52
:100A6000286810D020F480302860286820F4802086
:100A700028606068A8B1FFF701FE06460DE028680F
:100A800040F48030F4E740F480202860F7E700BFAE
:100A9000FFF7F4FD801B642873D828688003F7D51E
:100AA0000CE0FFF7EBFD064605E000BFFFF7E6FDB3
:100AB000801B6428F0D828688003F7D42078DFF8FA
:100AC000AC8280074FF0000A3ED5A748001D0168A0
:100AD00011F00C0F08D00068C0F3810002280BD180
:100AE000D9F80000400207D42868800716D5E068CE
:100AF000012800D112E033E1E068B8B10120C8F864
:100B00000000FFF7BBFD064605E000BFFFF7B6FD9E
:100B1000801B0228C0D828688007F7D5286821697B
:100B200020F0F80040EAC10028600DE0C8F800A0FD
:100B3000FFF7A4FD064604E0FFF7A0FD801B022896
:100B40001FD828688007F7D42078000722D5864F61
:100B500087486169703771B101210160FFF78EFD2F
:100B6000064604E0FFF78AFD801B022809D8386892
:100B70008007F7D50EE0C0F800A0FFF77FFD06461E
:100B800005E082E0FFF77AFD801B02287DD83868F7
:100B90008007F7D42078400768D5DFF8CCB100276C
:100BA0000BF13C0BDBF80000C0000BD4DBF80010AD
:100BB00041F08051CBF80010DBF80000012700F075
:100BC000805000906B4E3068C00510D4306840F4FF
:100BD00080703060FFF752FD009005E0FFF74EFD9A
:100BE0000099401A022850D83068C005F6D55E4EEC
:100BF000A0686C3601280FD00528306810D020F08E
:100C000001003060306820F004003060A068B8B1A6
:100C1000FFF734FD00900FE0306840F00100F4E78A
:100C200040F004003060F7E7FFF728FD0099411A13
:100C300041F28830814266D830688007F4D50EE0F2
:100C4000FFF71CFD009007E0FFF718FD0099411A1F
:100C500041F28830814256D830688007F4D42FB1F1
:100C6000DBF8001021F08051CBF80010A069C8B368
:100C70003D49091D0968C1F3810102294AD00228B2
:100C8000504607D0C8F8600000E03CE0FFF7F6FCF3
:100C900004463BE04746C8F86000FFF7EFFC064615
:100CA00005E000BFFFF7EAFC801B02282BD828686C
:100CB0008001F7D4D4E907010843A16A2E4A490804
:100CC00002EB0141626A41EA8211084394F82C1058
:100CD00040EA0161C9F8001001203866FFF7CEFC38
:100CE000044606E03EE000BFFFF7C8FC001B0228F8
:100CF00009D828688001F7D534E000BFFFF7BEFCB3
:100D0000001B022802D90320BDE8F88F2868800163
:100D1000F4D427E00128F7D0D9F80000E26900F404
:100D2000800191421CD1226A00F03F01914217D10B
:100D300047F6C071626A0140B1EB821F10D1A26A0E
:100D40004FF0FF3300F4403103EB5202B1EB024F9E
:100D500006D194F82C1000F07060B0EB016F01D058
:100D60000120D1E70020CFE70438024000004742CD
:100D7000800E4742007000400000FFFF7047704740
:100D800010B5040003D094F83D0010B107E0012035
:100D900010BD002084F83C00204600F01EF8022020
:100DA00084F83D00211D206800F098FC012084F8A3
:100DB000460084F83E0084F83F0084F8400084F840
:100DC000410084F8420084F8430084F8440084F829
:100DD000450084F83D00002010BD704790F83D109C
:100DE000012901D001207047022180F83D100168DF
:100DF000CA6842F00102CA6000681149884214D0F2
:100E0000B0F1804F11D00F4988420ED00E49884270
:100E10000BD00E49884208D00D49884205D00D49B3
:100E2000884202D00C49884204D1816801F0070150
:100E3000062903D0016841F00101016000207047DC
:100E4000000001400004004000080040000C004089
:100E5000000401400040014000180040704770B598
:100E60000446006801694FF00005C943890715D49D
:100E7000C168C943890711D4E91E016101202077A7
:100E8000206880698007204602D0FFF7E7FF04E072
:100E900000F098F8204600F096F825772068016960
:100EA000C943490717D4C168C943490713D46FF030
:100EB00004010161022020772068806910F4407FDE
:100EC000204602D0FFF7CAFF04E000F07BF820467E
:100ED00000F079F8257720680169C943090716D41D
:100EE000C168C943090712D46FF0080101610420E9
:100EF00020772068C0698007204602D0FFF7AEFF48
:100F000004E000F05FF8204600F05DF825772068E7
:100F10000169C943C90617D4C168C943C90613D4B6
:100F20006FF010010161082020772068C06910F47B
:100F3000407F204602D0FFF791FF04E000F042F826
:100F4000204600F040F8257720680169C943C907A9
:100F500008D1C168C943C90704D1891E016120466F
:100F600000F032F820680169C943090609D4C16854
:100F7000C943090605D46FF0800101612046FFF7DF
:100F8000FDFE20680169C943490609D4C168C94307
:100F9000490605D46FF040010161204600F01EF8BB
:100FA00020680169C94389060BD4C168C943890611
:100FB00007D46FF0200101612046BDE87040FFF7C3
:100FC000DEBE70BD7047704700680349884201D19A
:100FD000FFF75ABB704700000000014070477047A0
:100FE00070470000F8B5016804460868CA684B6994
:100FF00010F00F0F4FF0000559D003F0010602F476
:101000009077374365D0C10705D0D10503D5216C52
:1010100041F001012164410705D5D90703D0216CB6
:1010200041F002012164810705D5D90703D0216C65
:1010300041F004012164010707D502F0200131438A
:1010400003D0216C41F008012164216C00293AD0C1
:10105000800604D5900602D5204600F0D2FB206819
:101060004069216CC0F38010090700D460B32046AA
:1010700000F0A0FB20684069400621D520681430AC
:1010800050E8001F21F0400140E80012002AF5D18D
:10109000A06BA8B16C490165A06BFFF7C4F90028EB
:1010A00011D0A06B016D01B0BDE8F0400847830688
:1010B0000FD593060DD52046BDE8F84000F0A1BB42
:1010C0002046FFF78DFFF8BD2046FFF789FF256416
:1010D000F8BD266B2023012E79D1C60677D5D6061A
:1010E00075D50868486800904869400640D5A16BEE
:1010F000086840680004000CEAD0A28D8242E7D95B
:10110000E085C869B0F5807F2DD020680C3050E8AC
:10111000001F21F4807140E80012002AF5D12068F8
:10112000143050E8001F21F0010140E80012002AAD
:10113000F5D12068143050E8001F21F0400140E84C
:101140000012002AF5D184F83E30256320680C3067
:1011500050E8001F21F0100140E80012002AF5D1EC
:10116000A06BFFF717F9A08DE18D401A81B229E03D
:10117000A08DE18D401A81B2E08D0028A8D0002911
:10118000A6D020680C3050E8002F22F4907240E87E
:101190000026002EF5D12068143050E8002F22F0F0
:1011A000010240E80026002EF5D184F83E30256388
:1011B00020680C3050E8002F22F0100240E8002395
:1011C000002BF5D12046FFF70AFFF8BDFFE7050623
:1011D0002BD5150629D594F83D002128F5D1A06816
:1011E000B0F5805F01D12069B0B1206A411C216255
:1011F000216800784860E08C401E0004000CE08408
:10120000E3D12068C16821F08001C1602068C16815
:1012100041F04001C160D8E7206A0088C0F30800AF
:101220004860206A801C2062E5E74006CDD5500664
:10123000CBD5CA68204622F04002CA6084F83D300F
:1012400000F0F5F8C1E70000A517000870B504002C
:1012500004D094F83D00002510B106E0012070BDD7
:1012600084F83C50204600F023F8242084F83D0008
:101270002068C16821F40051C160204600F022FBC3
:101280002068016921F4904101612068416921F0E1
:101290002A0141612068C16841F40051C1602564A0
:1012A000202084F83D0084F83E00002070BD00003E
:1012B000F0B587B0044614216846FFF72BF82A4F93
:1012C0002368002229490224032507262848BB4217
:1012D00021D1264B14331F6847F010071F601B688D
:1012E00003F0100305930B6843F001030B600968DA
:1012F00002AB01F0010105916902CDE9001483E818
:1013000064006946FFF7B4F8002205212520FFF7A5
:1013100041FA252023E0174FBB4222D1134B103353
:101320001F6847F400371F601B6803F40033059300
:101330000B6843F001030B60096802AB01F0010187
:1013400005910C21CDE9001483E864006946FFF79C
:101350008FF8002205212620FFF71CFA2620FFF730
:101360000BFA07B0F0BD0000001001403038024019
:101370000000024000440040704700002DE9F8439F
:10138000044690F83D001F4616460D4620284CD1D5
:10139000C5B1BEB194F83C00012846D0012084F8C4
:1013A0003C004FF00008C4F84080212084F83D0044
:1013B000FFF764F9A6848146E684A068B0F5805FF3
:1013C00003D004E00120BDE8F883206928B12E464F
:1013D0005FF0000584F83C800EE00026FAE78021EB
:1013E000204600F0F5FAA0B9AEB116F8010B21685D
:1013F0004860E08C401EE084E08C4B464FF00002D9
:1014000000970028EBD14FF04001204600F0E0FAB1
:1014100030B10320D7E735F8020BC0F30800E6E748
:10142000202084F83D000020CDE70220CBE7704764
:10143000FEE70000064C4FF47A7502212046FFF7C4
:101440000FF904A000F00EFB284600F077FBF4E74C
:10145000000402404C4544315F5461736B0A000044
:10146000074D4FF400544FF4FA7621462846FFF713
:10147000F7F804A000F0F6FA304600F05FFBF4E75E
:10148000000802404C4544325F5461736B0A00000F
:1014900010B596B01C2211496846FEF722FF0021C4
:1014A000684600F057FB0E4C0C491C2220601C3192
:1014B00007A8FEF716FF002107A800F04BFB07491D
:1014C00060601C2238310EA8FEF70BFF00210EA829
:1014D00000F040FBA06016B010BD0000E42500083D
:1014E00000000020F0B587B014216846FEF712FF17
:1014F00021480024016841F004010160016801F005
:1015000004010591016841F080010160016801F06A
:1015100080010591016841F001010160016801F05D
:1015200001010591016841F0020101600068134E5C
:1015300000F002004FF40055059000222946304685
:10154000FFF796F80E4F002202213846FFF790F879
:1015500000950125CDE90154694630460394FEF714
:1015600087FF02200090CDE9015469463846039474
:10157000FEF77EFF07B0F0BD3038024000080240A1
:10158000000402400C4810B50A4901604FF4E131F3
:101590004160002181600C22C160C0E904128161B8
:1015A000C161FFF753FE002803D0BDE81040FEF7ED
:1015B000EFBE10BD00100140DC0200200C4810B549
:1015C0000A4901604FF4E1314160002181600C2241
:1015D000C160C0E904128161C161FFF737FE0028D4
:1015E00003D0BDE81040FEF7D3BE10BD004400405C
:1015F00020030020FEE7FEE7012000F09FFAFBE752
:1016000010B5502080F31188BFF34F8FBFF36F8F59
:1016100000F020FF18B104494FF08050086000200E
:1016200080F3118810BD000004ED00E030B593B0E8
:1016300030216846FEF76EFE14210CA8FEF76AFE04
:101640001D480025016841F080510160006800F0EC
:10165000805011901948016841F480410160006890
:10166000022400F480401190012003901020049087
:10167000009406940820CDE90750A820CDE909047C
:1016800004200B906846FFF7C3F908B172B6FEE775
:101690000CA90F2081E831004FF4A0500F904FF4B7
:1016A0008050109005210CA8FFF7A6F8002801D063
:1016B00072B6FEE713B030BD403802400070004003
:1016C0000248016841F470010160704788ED00E054
:1016D0000148FFF7C4BB000064030020F0B50268B6
:1016E000254C264D264E274F274B4FF0804CA042CD
:1016F00009D0604507D0A84205D0B04203D0B84217
:1017000001D0984204D122F0700E4A6842EA0E02DB
:10171000A0421BD0604519D0A84217D0B04215D0C6
:10172000B84213D0984211D0184DA8420ED0184D8F
:10173000A8420BD0174DA84208D0174DA84205D09B
:10174000164DA84202D0164DA84203D122F440758E
:10175000CA682A434D6922F080022A4302608A68DF
:10176000C2620A688262A04201D0984201D109692E
:10177000016301214161F0BD00000140000400400F
:1017800000080040000C00400004014000400140FF
:10179000004401400048014000180040001C004087
:1017A0000020004010B5806B0021C185C184FFF787
:1017B00017FC10BD01680C3151E8002F22F4907223
:1017C00041E80023002BF5D10168143151E8002FC6
:1017D00022F0010241E80023002BF5D1016B012921
:1017E00009D101680C3151E8002F22F0100241E8C4
:1017F0000023002BF5D1202180F83E100021016349
:10180000704708B590F83E10222901D0022008BD8B
:1018100082684FF480539A4201D1016921B1816AF3
:101820009A421BD04AB10AE00268816A5268C2F348
:1018300008020A80816A891C08E0026972B10268A4
:10184000526802F07F020A70816A491C8162C18D70
:10185000491E0904090CC18503D019E002685268C9
:10186000F1E70168CA6822F02002CA600168CA680C
:1018700022F48072CA6001684A6922F001024A615A
:10188000202180F83E10016B012903D0FFF774FD81
:10189000002008BD0021016301680C3151E8002FD0
:1018A00022F0100241E80023002BF5D101680A68FC
:1018B000D20602D50A6849680091818DFFF78FFB37
:1018C000E6E7000070B5044600680169E26821F4AB
:1018D0004051114301612169A068E26908436169CF
:1018E000114308432168CA6849F20C639A430243D2
:1018F000CA6020684169A26921F4407111434161C5
:1019000031492068884202D03049884202D1FFF72D
:101910003DF801E0FFF72AF8E26900231921642568
:101920003226B2F5004F626828D0A0FB0101930F68
:101930009200FEF7A5FC0146B0FBF5F06FF018022F
:10194000504301EB800006EB0010B0FBF5F000F017
:10195000F002B1FBF5F002EB0012B1FBF5F06FF015
:101960001803584301EB800006EB0010B0FBF5F0C4
:1019700000F00F0021681044886070BDA0FB0101D9
:1019800092185B41FEF77CFC0146B0FBF5F00201CA
:10199000B1FBF5F06FF01803584301EB800006EB44
:1019A000C000B0FBF5F000F0F80002EB4002B1FB24
:1019B000F5F0584301EB800006EBC000B0FBF5F0FA
:1019C00000F00700D6E700000010014000140140BD
:1019D0002DE9F041984617460E460446069D27E03D
:1019E000681C25D02DB1FEF749FEA0EB0800A842E7
:1019F0001ED920680C3050E8001F21F4D07140E857
:101A00000012002AF5D12068143050E8001F21F0A0
:101A1000010140E80012002AF5D1202084F83D00A1
:101A200084F83E00002084F83C000320BDE8F081EB
:101A30002068006836EA000004D00020B842CFD009
:101A40000020F3E70120F9E70148FFF7CBBA0000D7
:101A5000DC0200200148FFF7C5BA00002003002087
:101A6000FEE70000014A024900F023B8D51A000839
:101A7000840000200907090E002804DB00F1E020A3
:101A800080F80014704700F00F0000F1E02080F8AB
:101A9000141D704702E008C8121F08C1002AFAD1BD
:101AA00070477047002001E001C1121F002AFBD1DE
:101AB00070472DE9F04116460F460446002503E025
:101AC0003946B047641C6D1C20780028F8D12846A0
:101AD000BDE8F08113B54FF6FF7301226946024855
:101AE000FFF74CFC00981CBDDC020020FEF7D4FD83
:101AF000FFF79CFDFFF7F6FCFFF744FDFFF75EFDE7
:101B0000FFF7C6FC00F021F8064C4FF47A7502216D
:101B10002046FEF7A5FD04A0FFF7A4FF2846FEF728
:101B200095FCF4E70004024068656C6C6F0A0000E5
:101B300001460020842900D0C81C704710B500B9A8
:101B4000012000F023FB002010BD10B500F044FB85
:101B5000002010BD7FB50D4604464169B0F908006C
:101B600081B1A16971B1FFF7E3FFD4E905128DE8F6
:101B70000700D4E900102B46226900F040FC0390D6
:101B800004B070BDFFF7D4FF03A9CDE90001208A9E
:101B90002B4682B2D4E9001000F004FC012801D0E9
:101BA0000020EDE70398EBE72DE9F041184C0F46D4
:101BB0000546E6682068001D00F020FA38B9206864
:101BC00090F82C1001208840216981432161681C14
:101BD00007D137B12168BDE8F0410E48091D00F07A
:101BE00051BA20683544B5424560216805D2A06BE2
:101BF000BDE8F041091D00F02DBA606B091D00F031
:101C000029FAA06A854200D2A562BDE8F0810000F1
:101C10001C000020880400202DE9F041054600F05A
:101C20003DFA2E4CA068401CA06020682C4F10B1DB
:101C3000606940B32DE02560A068012829D1002605
:101C400006EB860007EB800000F0F6F9761C072E05
:101C5000F6D323488C3000F0EFF92148A03000F093
:101C6000EBF91F48B43000F0E7F91D48C83000F028
:101C7000E3F91B48DC3000F0DFF919488C30606371
:101C80001430A06305E02068E96AC06A884200D881
:101C90002560606A401C6062E96A01202269884010
:101CA0001043206101EB810007EB8000291D00F04B
:101CB000E9F900F013FA606900280CD02068E96A9D
:101CC000C06A884207D207494FF080500860BFF3CE
:101CD0004F8FBFF36F8FBDE8F08100001C00002024
:101CE000AC03002004ED00E010B5044690F851006C
:101CF00058B101280CD002280FD0502080F3118851
:101D0000BFF34F8FBFF36F8FFEE7206B00F0FAF940
:101D10002046BDE8104000F0F5B910BD10484FF462
:101D20007051420706D0C01D0D4920F00700411A2E
:101D3000C1F570510B4A00230144C2E90003083980
:101D4000183A21F0070111604B600B600B1AC0E9D3
:101D5000001393604FF000405360506170470000E3
:101D60009C04002070000020144E154CA6F1C807FA
:101D70004FF08058DFF84C9012E000BF00F08EF971
:101D8000F068C568281D00F039F9A068401EA06001
:101D90006068401E606000F0A1F92846FFF7A4FFCC
:101DA00060680028EAD138680128F9D9C9F80080AC
:101DB000BFF34F8FBFF36F8FF2E700007404002072
:101DC0001C00002004ED00E02DE9F0479A46DDE913
:101DD000098481466FF00303206B03EB82021044F9
:101DE000089E20F00707780707D0502080F311885D
:101DF000BFF34F8FBFF36F8FFEE7002561B1002067
:101E000023180A5C83F834200A5C12B1401C1028A5
:101E1000F6D384F8435001E084F83450072E00D301
:101E20000626E662C4E91165201D00F010F904F1F0
:101E3000180000F00CF92461C6F107006462A0618B
:101E4000E56484F8505052464946384600F0C0F8E0
:101E50002060B8F1000F01D0C8F80040BDE8F0875D
:101E600030B5114900E011460A688242FBD34B6845
:101E70005C18844203D140681844486008464368AF
:101E80001C18944209D1084C183C2468A24209D07D
:101E900052681A4442600A6812680260814200D0A7
:101EA000086030BD0460F9E7700000200648416B0F
:101EB000096829B1416BC968C9684968816270477E
:101EC0004FF0FF31FAE700001C000020084840688E
:101ED000401C4FF0500080F3118804D0BFF34F8FA7
:101EE000BFF36F8FFEE7BFF34F8FBFF36F8FFEE738
:101EF000780000202DE9F0410546002700F0A2F906
:101F0000324E306808B9FFF709FF706905424ED1BB
:101F1000C5B3083568070ED005F00700C0F108000A
:101F20000544680707D0502080F31188BFF34F8F16
:101F3000BFF36F8FFEE72DB37068854237D8234813
:101F4000183001460C6801E020460C466168A94241
:101F500002D221680029F7D131688C4227D0076866
:101F60002168016060680837411B10290FD960198A
:101F7000420708D0502080F31188BFF34F8FBFF382
:101F80006F8FFEE713E041606560FFF769FF6168EE
:101F90007068401A7060B268904200D2B060706998
:101FA00001430020C4E90001F068401CF06000F02B
:101FB000B7FA780707D0502080F31188BFF34F8F0E
:101FC000BFF36F8FFEE73846BDE8F0815800002070
:101FD00010B5031F4FF080741C601B1F21F001011E
:101FE0001960191F044B0B6014390A60091F6FF048
:101FF000020244380A6010BDCD1E0008D0E901324B
:1020000001699A60D0E901235A604A68824201D18D
:1020100082684A60002202610868401E0860086801
:1020200070470000034B036003F1540008608020F8
:10203000106070478800002000F108014FF0FF3267
:10204000C0E90112C16001610021016070470021F7
:102050000161704730B50B685A1C02D000F10802CC
:1020600002E0026904E02246546825689D42FAD9DC
:1020700053684B6099608A60516008610168491C2F
:10208000016030BD42684A6093688B609368596014
:10209000916008610168491C01607047502080F31D
:1020A0001188BFF34F8FBFF36F8F0A494868401CF8
:1020B000486001280CD10848006810F0FF0F07D0D5
:1020C000502080F31188BFF34F8FBFF36F8FFEE76F
:1020D000704700007800002004ED00E008494868DF
:1020E00028B1401E486001D180F31188704750200C
:1020F00080F31188BFF34F8FBFF36F8FFEE70000AF
:102100007800002070B500282AD0164DA0F10804F0
:1021100060686969084207D1502080F31188BFF3D5
:102120004F8FBFF36F8FFEE722683AB1502080F3E4
:102130001188BFF34F8FBFF36F8FFEE78843606056
:1021400000F080F860686968084468602046FFF71E
:1021500087FE2869401C2861BDE8704000F0E0B9A6
:1021600070BD0000580000204FF0E0200021016108
:10217000816105494FF47A720968B1FBF2F1491E99
:1021800041610721016170471800002010B502006D
:1021900014D00F48006B38B1502080F31188BFF382
:1021A0004F8FBFF36F8FFEE700F04CF80021104611
:1021B000FFF7FAFC00F0B4F9002807D105494FF009
:1021C00080500860BFF34F8FBFF36F8F10BD0000CA
:1021D0001C00002004ED00E010B586B0002403943C
:1021E00005AA04A903A80494FFF71CFFDDE9030175
:1021F0000094CDE9011000230EA11048059A00F0CB
:10220000FEF80F490028C86211D0502080F31188D1
:10221000BFF34F8FBFF36F8F4FF0FF308862012005
:102220004861CC6006B0BDE8104000F041B806B08F
:1022300010BD000049444C4500000000691D000825
:102240001C0000200248016B491C0163704700001C
:102250001C0000201448016B11B10121C1617047BD
:102260000021C1610169B1FA81F1C1F11F0101EBE6
:1022700081020E4951F822306BB101EB820101F16C
:1022800008034A6852684A609A4201D152684A601B
:10229000D16801607047502080F31188BFF34F8FE1
:1022A000BFF36F8FFEE700001C000020AC0300208E
:1022B0001CB537480168374A914207D1502080F356
:1022C0001188BFF34F8FBFF36F8FFEE7006831496E
:1022D000491E884207D1502080F31188BFF34F8FE9
:1022E000BFF36F8FFEE72C4908780190FF2008703C
:1022F00008788DF800009DF800009DF8002000F09F
:10230000F000904207D0502080F31188BFF34F8F28
:10231000BFF36F8FFEE79DF80000204C00F05000E7
:1023200020700720A06005E09DF8002052008DF885
:102330000020401E9DF800201206F5D4A06003285E
:1023400007D0502080F31188BFF34F8FBFF36F8FFA
:10235000FEE74FF44070A060019808700C482030F0
:10236000016841F470010160016841F07041016051
:10237000FFF7FAFE00206060FDF734FF08480168AF
:1023800041F040410160FDF719FF00201CBD000035
:1023900000ED00E071C20F4100E400E07800002091
:1023A00034EF00E02DE9FF5F8346DDE90E879946B3
:1023B00016468A469000FFF79DFD05001CD054206C
:1023C000FFF798FD040014D00020256384F8510025
:1023D000CDE90240CDE900874B463246514658468A
:1023E000FFF7F2FC2046FFF717FC012004B0BDE820
:1023F000F09F2846FFF786FE4FF0FF30F6E7F0B576
:1024000085B0DDE90B640A9DA6B1DCB154270097C5
:102410002663022684F85160002604AFCDE9024607
:10242000CDE90057FFF7D0FC2046FFF7F5FB0498F5
:1024300005B0F0BD502080F31188BFF34F8FBFF37C
:102440006F8FFEE7502080F31188BFF34F8FBFF3EB
:102450006F8FFEE72DE9F0412F4C0026206B28B14D
:10246000A069401CA0613046BDE8F081E5686D1CA4
:10247000E56013D1606B006838B1502080F311889B
:10248000BFF34F8FBFF36F8FFEE7606BA16B61638C
:10249000A063206A401C2062FFF708FDA06ADFF8F5
:1024A0007C80854209D3606B0068A0B1606BC06816
:1024B000C7687868854211D2A0622068C06A00EBC4
:1024C000800158F82100012800D90126E069002880
:1024D000C9D00126C7E74FF0FF30EDE7381DFFF701
:1024E0008DFDB86A18B107F11800FFF787FDF96A8A
:1024F0000120226988401043206101EB810108EB33
:102500008100391DFFF7BEFDF86A2168C96A88425B
:10251000C9D30126C7E700001C000020AC0300203F
:102520002DE9F0472C4D00242746286B38B1FFF7E2
:10253000B5FD286B401E2863286B40B146E0502053
:1025400080F31188BFF34F8FBFF36F8FFEE7A96849
:10255000224E0120D1B3A6F1B40980463068E8B11B
:10256000F068C46804F11800FFF748FD201DFFF76C
:1025700045FDE06A2A6908FA00F11143296100EB80
:10258000800109EB8100211DFFF77CFDE06A2968CD
:10259000C96A8842E2D3C5F81C80DFE70CB1FFF7B7
:1025A00085FCAC6944B14646FFF754FF00B1EE61CB
:1025B000641EF9D10020A861E86938B108490127F3
:1025C00038070860BFF34F8FBFF36F8FFFF786FDAB
:1025D0003846BDE8F08700001C00002060040020A1
:1025E00004ED00E060260008F91500080000000076
:1025F000000000008000000000000000000000005B
:102600005026000835140008FDFF000000000000FF
:1026100080000000000000000000000058260008B4
:1026200061140008FDFF00000000000080000000B1
:10263000000000000000000000000000000000009A
:102640000102030406070809000000000102030458
:102650004C454430310000004C454430320000000D
:1026600064656661756C745461736B008C26000838
:102670000000002088000000941A000814270008B9
:102680008800002018440000A41A00080000000080
:102690000000000000000000010000001000000029
:1026A000000000000024F400000000000000000012
:1026B000000000000000000000000000000000001A
:1026C000000000000000000000000000000000000A
:1026D00000000000000000000000000000000000FA
:1026E00000000000000000000000000000000000EA
:1026F00000000000000000000000000000000000DA
:102700000000000000000000AAAAAAAA0000000021
:0427100000000000C5
:040000050800018965
:00000001FF
