:020000040800F2
:10000000181000209D010008750D00086D0D0008F6
:10001000710D0008A90200084D0E00080000000044
:100020000000000000000000000000007B0D000840
:10003000AD02000800000000790D00087D0D0008E9
:10004000B7010008B7010008B7010008B7010008B0
:10005000B7010008B7010008B7010008B7010008A0
:10006000B7010008B7010008B7010008B701000890
:10007000B7010008B7010008B7010008B701000880
:10008000B7010008B7010008B7010008B701000870
:10009000B7010008B7010008B7010008B701000860
:1000A000B7010008B7010008B7010008B701000850
:1000B000B7010008B7010008B7010008B701000840
:1000C000B7010008B7010008B7010008B701000830
:1000D000B7010008B7010008B7010008B701000820
:1000E000B7010008B7010008B7010008B701000810
:1000F000B7010008B7010008B7010008B701000800
:10010000B7010008B7010008B7010008B7010008EF
:10011000B7010008B7010008B7010008B7010008DF
:10012000B7010008B7010008B7010008B7010008CF
:10013000B7010008B7010008B7010008B7010008BF
:10014000B7010008B7010008B7010008B7010008AF
:10015000B7010008B7010008B7010008B70100089F
:10016000B7010008B7010008B7010008B70100088F
:10017000B7010008B7010008B7010008000000003F
:10018000B7010008B7010008DFF80CD000F07AF8DA
:1001900000480047010F000818100020064880475B
:1001A00006480047FEE7FEE7FEE7FEE7FEE7FEE75C
:1001B000FEE7FEE7FEE7FEE7390E000889010008CA
:1001C0002DE9F05F0546002092469B46884606468C
:1001D000814640241BE0284641464746224600F01F
:1001E00041F853465A46C01A914110D31146184659
:1001F000224600F028F82D1A67EB01084F462246E8
:100200000120002100F01FF817EB00094E41201ECD
:10021000A4F10104DFDC484631462A464346BDE8E6
:10022000F09FD2B201E000F8012B491EFBD27047CB
:100230000022F6E710B513460A4604461946FFF7B2
:10024000F0FF204610BD202A04DB203A00FA02F11C
:10025000002070479140C2F1200320FA03F31943B4
:1002600090407047202A04DB203A21FA02F0002156
:10027000704721FA02F3D040C2F1200291400843B6
:1002800019467047064C074D06E0E06840F0010350
:1002900094E8070098471034AC42F6D3FFF778FF94
:1002A000DC0F0008FC0F000800BFFEE7704772B6C5
:1002B00000BFFEE710B50446A0B200F0F4FD10BD8B
:1002C000F8B502460B460025002400200021D5E0A9
:1002D000012606FA01F51E6806EA0504AC4274D14F
:1002E0001E7906F00306012E04D01E7906F00306DF
:1002F000022E13D190684F000326BE40B0434F003A
:10030000DE68BE4030439060506801268E40B043A6
:100310001E79C6F300168E40304350601E7906F0F9
:100320000306032E09D0D0684F000326BE40B04319
:100330004F009E68BE403043D0601E7906F0030631
:10034000022E13D1CF0802F1200656F827004E07DF
:10035000F70E0F26BE40B0434F07FF0E1E69BE408A
:100360003043CF0802F1200646F8270010684F00FE
:100370000326BE40B0431E7906F003064F00BE4080
:10038000304310605E6806F44036002E75D000BF22
:10039000002600963B4E366846F48046394F3E6054
:1003A0003E46366806F48046009600BF00BF364ED3
:1003B0008F0856F827008E07370F0F26BE40B04330
:1003C000324EB24202D1002624E056E0304EB24214
:1003D00001D101261EE02F4EB24201D1022619E0C2
:1003E0002D4EB24201D1032614E02C4EB24201D16F
:1003F00004260FE02A4EB24201D105260AE0294E1A
:10040000B24201D1062605E0274EB24201D10726AD
:1004100000E008268F073F0FBE4030431A4E8F087A
:1004200046F82700214E3068A0435E6806F4803607
:1004300006B120431D4E3060361D3068A0435E6813
:1004400006F4003606B12043184E361D3060361DC6
:100450003068A0435E6806F4801606B12043134E50
:1004600008363060361D3068A0435E6806F400161A
:1004700006B120430D4E0C363060491C1029FFF4A4
:1004800027AFF8BD44380240083801400000024060
:100490000004024000080240000C0240001002402C
:1004A0000014024000180240001C0240003C0140C1
:1004B00010B5426921EA020302EA010443EA044357
:1004C000836110BD0AB1816101E00B048361704753
:1004D00001480068704700000000002003480068E1
:1004E000034909780844014908607047000000206A
:1004F0000800002010B50D48006840F400700B495A
:1005000008600846006840F480600860084600689B
:1005100040F480700860032000F092F80F2000F093
:1005200007F800F02BF8002010BD0000003C02404E
:1005300070B504460E4800784FF47A71B1FBF0F0C4
:100540000C490968B1FBF0F5284600F0F5FB08B14D
:10055000012070BD102C07D200222146501E00F051
:1005600031F80548046001E00120F2E70020F0E7DF
:10057000080000200C0000200400002008B500BF87
:10058000002000900E48006840F480400C4908604C
:100590000846006800F48040009000BF00BF00BF24
:1005A00000200090081F006840F08050091F08607C
:1005B0000846006800F08050009000BF00BF08BDF2
:1005C000443802402DE9F05F80460D46164600276C
:1005D00000F03EFC074639462A46334601F0070044
:1005E000C0F1070ABAF1040F02D94FF0040A01E082
:1005F000C0F1070AD14600F1040ABAF1070F02D28E
:100600004FF0000A01E0A0F1030AD4464FF0010ABE
:100610000AFA09FAAAF1010A0AEA020A0AFA0CFA23
:100620004FF0010B0BFA0CFBABF1010B0BEA030BC8
:100630004AEA0B042146404600F012FCBDE8F09F58
:1006400000BF00F00702064B19684FF6FF03194080
:10065000044B0B4343EA0221014B196000BF704772
:100660000CED00E00000FA0570B504460D460CB92B
:10067000012070BD5848006800F00700A84209D268
:1006800055490D700846006800F00700A84201D0E7
:100690000120EEE7207800F0020002281DD120782A
:1006A00000F00400042805D14C48006840F4E050F4
:1006B0004A490860207800F00800082805D147481A
:1006C000006840F46040454908604448006820F0F4
:1006D000F000A168084341490860207800F001005B
:1006E000A8B36068012807D13C4808380068C0F307
:1006F0004040B8B90120BCE76068022802D06068B9
:10070000032807D1354808380068C0F3406048B96D
:100710000120AEE7314808380068C0F3400008B94E
:100720000120A6E72D48006820F003006168084317
:100730002A490860FFF7CCFE064609E0FFF7C8FE2D
:10074000801B41F28831884202D9032091E707E0FB
:100750002248006800F00C006168B0EB810FEDD119
:100760001D48006800F00700A84209D91A490D7019
:100770000846006800F00700A84201D0012078E791
:10078000207800F00400042807D11448006820F401
:10079000E050E168084311490860207800F0080043
:1007A000082808D10D48006820F46040216940EA1B
:1007B000C1000A49086000F019F808490968C1F346
:1007C0000311074A515CC8400649086006480068A2
:1007D000FFF7AEFE00204CE7003C02400838024024
:1007E000C40F00080C000020040000202DE9F04791
:1007F000002400250026A1462548006800F00C00D2
:1008000020B1042805D008283AD105E0DFF884900B
:1008100039E0DFF8849036E01D48001F006800F0E2
:100820003F041B48001F006800F4800078B11A489C
:100830001749091F0968C1F38811A0FB017001461F
:10084000224600233846FFF7BBFC05460EE0114860
:100850000F49091F0968C1F38811A0FB0170014607
:10086000224600233846FFF7ABFC05460848001F28
:100870000068C0F30140401C4600B5FBF6F902E0F9
:10088000DFF8109000BF00BF4846BDE8F0870000C9
:10089000083802400024F40040787D01F8B5044691
:1008A0000CB90120F8BD207800F00100002874D0B8
:1008B000F948006800F00C0004280DD0F6480068E4
:1008C00000F00C00082813D1F348001F006800F462
:1008D0008000B0F5800F0BD1EF4808380068C0F3F6
:1008E0004040002859D06068002856D10120D9E73F
:1008F00000BF6068B0F5803F08D1E748083800685D
:1009000040F48030E449083908601EE06068B0F5C2
:10091000A02F0DD1E0480838006840F48020DE495F
:10092000083908600846006840F4803008600CE030
:10093000D9480838006820F48030D7490839086061
:100940000846006820F48020086000BF606890B10D
:10095000FFF7BEFD054606E0FFF7BAFD401B642821
:1009600001D903209EE7CC4808380068C0F3404016
:100970000028F1D011E0FFF7ABFD054606E0FFF7D8
:10098000A7FD401B642801D903208BE7C248083823
:100990000068C0F340400028F1D1207800F0020048
:1009A00002285FD1BC48006800F00C0058B1BA487A
:1009B000006800F00C0008281CD1B748001F006830
:1009C00000F48000B0B9B44808380068C0F34000B3
:1009D00020B1E068012801D0012063E7AE48083863
:1009E000006820F0F800216940EAC100AA490839EE
:1009F000086037E0E06800B30120A8490860FFF70D
:100A000067FD054606E0FFF763FD401B022801D99C
:100A1000032047E7A04808380068C0F340000028DA
:100A2000F1D09D480838006820F0F800216940EABC
:100A3000C10099490839086014E00020974908600E
:100A4000FFF746FD054606E0FFF742FD401B022882
:100A500001D9032026E7904808380068C0F3400019
:100A60000028F1D1207800F0080008282CD1606916
:100A7000A8B101208A490860FFF72AFD054606E073
:100A8000FFF726FD401B022801D903200AE7824810
:100A90006C300068C0F340000028F1D014E0002062
:100AA0007F490860FFF714FD054606E0FFF710FDDB
:100AB000401B022801D90320F4E677486C30006817
:100AC000C0F340000028F1D1207800F00400042891
:100AD00070D1002770483830006800F0805090B91D
:100AE00000BF002000906C483830006840F0805013
:100AF0006949383108600846006800F0805000906D
:100B000000BF00BF01276748006800F48070B0B9DB
:100B10006448006840F4807062490860FFF7D8FCC0
:100B2000054606E0FFF7D4FC401B022801D903204C
:100B3000B8E65C48006800F480700028F2D000BF7E
:100B4000A068012808D154486830006840F00100CE
:100B50005149683108601DE0A06805280DD14E4854
:100B60006830006840F004004B496831086008466E
:100B7000006840F0010008600CE0474868300068F9
:100B800020F001004449683108600846006820F000
:100B90000400086000BFA068A8B1FFF799FC0546F3
:100BA00009E0FFF795FC401B41F28831884202D9E9
:100BB000032077E626E0384868300068C0F340003C
:100BC0000028EED013E0FFF783FC054608E0FFF7AE
:100BD0007FFC401B41F28831884201D9032061E645
:100BE0002D4868300068C0F340000028EFD1012F85
:100BF00007D129483830006820F080502649383124
:100C0000086000BFA069002845D02348006800F0B4
:100C10000C0008285DD0A069022845D100201F499A
:100C20000866FFF755FC054606E0FFF751FC401B40
:100C3000022801D9032035E6174808380068C0F3B8
:100C400040600028F1D1D4E907010843616A40EA15
:100C500081110122A06AC2EB500041EA00412C2020
:100C6000005D41EA00600C49091F086001200B4942
:100C70000866FFF72DFC054606E0FFF729FC401B40
:100C8000022801D903200DE6034808380068C0F3A4
:100C900040600028F1D049E0083802400000474297
:100CA000800E474200700040002021490866FFF78F
:100CB0000FFC054606E0FFF70BFC401B022801D99C
:100CC0000320EFE51B480068C0F340600028F2D124
:100CD0002CE0A069012800D1E4E51648001D066853
:100CE000A069012820D006F48001E06981421BD16F
:100CF00006F03F01206A814216D147F6C0703040AD
:100D0000616AB0EB811F0FD106F440310122A06A65
:100D1000C2EB5000B1EB004F06D106F070612C2001
:100D2000005DB1EB006F01D00120BBE50020B9E50B
:100D3000000047420038024070B504462546681E50
:100D4000B0F1807F01D301200FE0681E4FF0E02159
:100D500048610F214FF0FF3000F082F800204FF083
:100D6000E021886107200861002070BD00BFFEE718
:100D700000BFFEE700BFFEE77047704710B5FFF702
:100D8000ADFB10BD00B593B0302107A8FFF750FAB6
:100D9000142102A8FFF74CFA00BF0020019024485C
:100DA000006840F08050224908600846006800F062
:100DB0008050019000BF00BF00BF002001901D487F
:100DC000006840F480401B4908600846006800F451
:100DD0008040019000BF00BF0220079001200A90D0
:100DE00010200B9002200D9000210E9108210F91F0
:100DF00048211091022111910421129107A8FFF7B7
:100E00004DFD08B1FFF753FA0F2002900220039026
:100E1000002004904FF4805005900020069002219D
:100E200002A8FFF721FC08B1FFF741FA13B000BD9B
:100E300040380240007000400348006840F47000F1
:100E4000014908607047000088ED00E000BFFEE740
:100E500002480068C0F30220704700000CED00E07B
:100E600010B5002804DB0A07130E054A135406E0E8
:100E70000A07140E034A00F00F031B1FD45410BDC1
:100E800000E400E018ED00E002E008C8121F08C10D
:100E9000002AFAD170477047002001E001C1121FFB
:100EA000002AFBD1704710B504464FF47A7104FB59
:100EB00001F000F001F810BD70B5034600224FF0BC
:100EC000E02675690D4E366803FB06F44FF0E02608
:100ED000B16910E04FF0E026B06988420BD088423B
:100EE00002D20E1A324402E02E1A0E443244014657
:100EF000A24200D300E0EDE700BF70BD100000206B
:100F000086B000BFFFF7F6FAFFF73CFF00BF00BF57
:100F1000002000902848006840F002002649086040
:100F20000846006800F00200009000BF00BF00BF4C
:100F300000BF00BF002000900846006840F0040099
:100F400008600846006800F00400009000BF00BF81
:100F500000BF022001900120029003900220049023
:100F600001A91648FFF7ACF94FF40050019001A910
:100F70001348FFF7A5F900BF012202210F48FFF730
:100F8000A1FA00BF00BF012251030D48FFF79AFAF2
:100F900000BF10E000BF02210848FFF789FA00BF38
:100FA00000BF4FF400510648FFF782FA00BF4FF42C
:100FB0007A70FFF77FF9EDE7303802400004024015
:100FC00000080240000000000000000001020304CD
:100FD000060708090000000001020304FC0F0008D6
:100FE0000000002014000000880E00081010000807
:100FF0001400002004100000980E000800000000FB
:1010000010000000010000000024F40000000000B7
:040000050800018965
:00000001FF
