:020000040800F2
:10000000701000209D0100082D110008430F00080A
:1000100029110008A90200080512000800000000CC
:100020000000000000000000000000003311000884
:10003000AD02000800000000311100083511000871
:10004000B7010008B7010008B7010008B7010008B0
:10005000B7010008B7010008B7010008B7010008A0
:10006000B7010008B7010008B7010008B701000890
:10007000B7010008B7010008B7010008B701000880
:10008000B7010008B7010008B7010008B701000870
:10009000B7010008B7010008B7010008B701000860
:1000A000B7010008B7010008B7010008B701000850
:1000B000B7010008B7010008B7010008B701000840
:1000C000B7010008B7010008B7010008B701000830
:1000D000B7010008B7010008B7010008B701000820
:1000E000B7010008B7010008B7010008B701000810
:1000F000B7010008B7010008B7010008B701000800
:10010000B7010008B7010008B7010008B7010008EF
:10011000B7010008B7010008B7010008B7010008DF
:10012000B7010008B7010008B7010008B7010008CF
:10013000B7010008B7010008B7010008B7010008BF
:10014000B7010008B7010008B7010008B7010008AF
:10015000B7010008B7010008B7010008B70100089F
:10016000B7010008B7010008B7010008B70100088F
:10017000B7010008B7010008B7010008000000003F
:10018000B7010008B7010008DFF80CD000F07AF8DA
:1001900000480047B9120008701000200648804748
:1001A00006480047FEE7FEE7FEE7FEE7FEE7FEE75C
:1001B000FEE7FEE7FEE7FEE7F1110008890100080F
:1001C0002DE9F05F0546002092469B46884606468C
:1001D000814640241BE0284641464746224600F01F
:1001E00041F853465A46C01A914110D31146184659
:1001F000224600F028F82D1A67EB01084F462246E8
:100200000120002100F01FF817EB00094E41201ECD
:10021000A4F10104DFDC484631462A464346BDE8E6
:10022000F09FD2B201E000F8012B491EFBD27047CB
:100230000022F6E710B513460A4604461946FFF7B2
:10024000F0FF204610BD202A04DB203A00FA02F11C
:10025000002070479140C2F1200320FA03F31943B4
:1002600090407047202A04DB203A21FA02F0002156
:10027000704721FA02F3D040C2F1200291400843B6
:1002800019467047064C074D06E0E06840F0010350
:1002900094E8070098471034AC42F6D3FFF778FF94
:1002A000FC1200081C13000800BFFEE7704772B67E
:1002B00000BFFEE770B504461D460023B5F5804F2C
:1002C00013D154F822300C480340D1E9000640EA2B
:1002D00006108E6840EA06208E8940EA06408E6944
:1002E0003043034344F8223003E06FF0704044F899
:1002F0002200002070BD00000000F0CF10B50346C2
:100300000022086853F8202012480240D1E9010475
:100310002043CC6820430C6920434C6920438C69FE
:100320002043CC6920430C6A20434C6A20438C6AEA
:100330002043CC6A2043CC6B20430C6B2043024308
:100340008868082801D142F04002086843F820205C
:10035000002010BD8000F0FF30B503460024501C83
:1003600053F8204004F04044D1E9000540EA05106C
:100370008D6840EA05208D8940EA0545088A401EBF
:1003800045EA0055087D801E45EA00608D692843D6
:100390000443501C43F82040002030BD10B50446F3
:1003A000A0B200F05CFF10BD00B587B0142102A818
:1003B000FFF73EFF1B48006808B107B000BD0120F1
:1003C0001849086000BF002001901748006840F0FD
:1003D0000100154908600846006800F0010001901E
:1003E00000BF00BF4FF680700290022003900020F3
:1003F0000490032005900C20069002A90B4800F001
:1004000019F84CF6B370029002200390002004907B
:10041000032005900C20069002A9054800F00AF878
:1004200000BFCAE700000020383802400010024038
:10043000000C0240F8B502460B46002500240020BF
:100440000021D5E0012606FA01F51E6806EA05043A
:10045000AC4274D11E7906F00306012E04D01E7939
:1004600006F00306022E13D190684F000326BE400B
:10047000B0434F00DE68BE403043906050680126B4
:100480008E40B0431E79C6F300168E403043506054
:100490001E7906F00306032E09D0D0684F0003260C
:1004A000BE40B0434F009E68BE403043D0601E79CE
:1004B00006F00306022E13D1CF0802F1200656F8EB
:1004C00027004E07F70E0F26BE40B0434F07FF0E22
:1004D0001E69BE403043CF0802F1200646F82700CF
:1004E00010684F000326BE40B0431E7906F0030695
:1004F0004F00BE40304310605E6806F44036002E68
:1005000075D000BF002600963B4E366846F4804604
:10051000394F3E603E46366806F48046009600BF7E
:1005200000BF364E8F0856F827008E07370F0F266C
:10053000BE40B043324EB24202D1002624E056E023
:10054000304EB24201D101261EE02F4EB24201D1FF
:10055000022619E02D4EB24201D1032614E02C4EA2
:10056000B24201D104260FE02A4EB24201D1052643
:100570000AE0294EB24201D1062605E0274EB242DA
:1005800001D1072600E008268F073F0FBE40304309
:100590001A4E8F0846F82700214E3068A0435E6847
:1005A00006F4803606B120431D4E3060361D30689B
:1005B000A0435E6806F4003606B12043184E361D8F
:1005C0003060361D3068A0435E6806F4801606B1C0
:1005D0002043134E08363060361D3068A0435E68F5
:1005E00006F4001606B120430D4E0C363060491C4F
:1005F0001029FFF427AFF8BD443802400838014005
:10060000000002400004024000080240000C0240CA
:10061000001002400014024000180240001C02407A
:10062000003C014010B5426921EA020302EA0104DC
:1006300043EA0443836110BD0AB1816101E00B0408
:10064000836170470148006870470000080000207F
:100650000348006803490978084401490860704765
:10066000080000201000002010B50D48006840F47C
:1006700000700B4908600846006840F4806008601C
:100680000846006840F480700860032000F092F88B
:100690000F2000F007F800F02BF8002010BD00003C
:1006A000003C024070B504460E4800784FF47A7161
:1006B000B1FBF0F00C490968B1FBF0F5284600F0F9
:1006C00026FC08B1012070BD102C07D20022214663
:1006D000501E00F031F80548046001E00120F2E707
:1006E0000020F0E710000020140000200C00002083
:1006F00008B500BF002000900E48006840F480401C
:100700000C4908600846006800F48040009000BF73
:1007100000BF00BF00200090081F006840F080501C
:10072000091F08600846006800F08050009000BF74
:1007300000BF08BD443802402DE9F05F80460D46F9
:100740001646002700F060FD074639462A46334624
:1007500001F00700C0F1070ABAF1040F02D94FF007
:10076000040A01E0C0F1070AD14600F1040ABAF117
:10077000070F02D24FF0000A01E0A0F1030AD446AD
:100780004FF0010A0AFA09FAAAF1010A0AEA020A72
:100790000AFA0CFA4FF0010B0BFA0CFBABF1010B50
:1007A0000BEA030B4AEA0B042146404600F034FDF5
:1007B000BDE8F09F00BF00F00702064B19684FF636
:1007C000FF031940044B0B4343EA0221014B19601C
:1007D00000BF70470CED00E00000FA0570B504465C
:1007E0000D460CB9012070BD5848006800F00700A4
:1007F000A84209D255490D700846006800F007006C
:10080000A84201D00120EEE7207800F00200022883
:100810001DD1207800F00400042805D14C48006860
:1008200040F4E0504A490860207800F008000828A9
:1008300005D14748006840F4604045490860444895
:10084000006820F0F000A168084341490860207862
:1008500000F00100A8B36068012807D13C480838BF
:100860000068C0F34040B8B90120BCE760680228C6
:1008700002D06068032807D1354808380068C0F303
:10088000406048B90120AEE7314808380068C0F33D
:10089000400008B90120A6E72D48006820F00300B9
:1008A000616808432A490860FFF7CCFE064609E064
:1008B000FFF7C8FE801B41F28831884202D903202D
:1008C00091E707E02248006800F00C006168B0EB97
:1008D000810FEDD11D48006800F00700A84209D93A
:1008E0001A490D700846006800F00700A84201D0C0
:1008F000012078E7207800F00400042807D114488C
:10090000006820F4E050E16808431149086020784D
:1009100000F00800082808D10D48006820F4604065
:10092000216940EAC1000A49086000F019F8084945
:100930000968C1F30311074A515CC84006490860C1
:1009400006480068FFF7AEFE00204CE7003C02407E
:1009500008380240E4120008140000200C000020B7
:100960002DE9F047002400250026A146254800680F
:1009700000F00C0020B1042805D008283AD105E089
:10098000DFF8849039E0DFF8849036E01D48001FDE
:10099000006800F03F041B48001F006800F480005E
:1009A00078B11A481749091F0968C1F38811A0FBDB
:1009B00001700146224600233846FFF701FC054638
:1009C0000EE011480F49091F0968C1F38811A0FB07
:1009D00001700146224600233846FFF7F1FB054629
:1009E0000848001F0068C0F30140401C4600B5FBEA
:1009F000F6F902E0DFF8109000BF00BF4846BDE8FE
:100A0000F0870000083802400024F40040787D019F
:100A1000F8B504460CB90120F8BD207800F00100BB
:100A2000002874D0F948006800F00C0004280DD0AC
:100A3000F648006800F00C00082813D1F348001FA6
:100A4000006800F48000B0F5800F0BD1EF48083843
:100A50000068C0F34040002859D06068002856D193
:100A60000120D9E700BF6068B0F5803F08D1E748B2
:100A70000838006840F48030E449083908601EE016
:100A80006068B0F5A02F0DD1E0480838006840F448
:100A90008020DE49083908600846006840F480304C
:100AA00008600CE0D9480838006820F48030D74945
:100AB000083908600846006820F48020086000BFFC
:100AC000606890B1FFF7BEFD054606E0FFF7BAFD8E
:100AD000401B642801D903209EE7CC4808380068F1
:100AE000C0F340400028F1D011E0FFF7ABFD054610
:100AF00006E0FFF7A7FD401B642801D903208BE720
:100B0000C24808380068C0F340400028F1D120787E
:100B100000F0020002285FD1BC48006800F00C0021
:100B200058B1BA48006800F00C0008281CD1B7483A
:100B3000001F006800F48000B0B9B44808380068AD
:100B4000C0F3400020B1E068012801D0012063E734
:100B5000AE480838006820F0F800216940EAC1007A
:100B6000AA490839086037E0E06800B30120A849C5
:100B70000860FFF767FD054606E0FFF763FD401BD1
:100B8000022801D9032047E7A04808380068C0F3CD
:100B900040000028F1D09D480838006820F0F80097
:100BA000216940EAC10099490839086014E0002031
:100BB00097490860FFF746FD054606E0FFF742FD4E
:100BC000401B022801D9032026E790480838006816
:100BD000C0F340000028F1D1207800F00800082878
:100BE0002CD16069A8B101208A490860FFF72AFD6D
:100BF000054606E0FFF726FD401B022801D9032029
:100C00000AE782486C300068C0F340000028F1D049
:100C100014E000207F490860FFF714FD054606E058
:100C2000FFF710FD401B022801D90320F4E67748A6
:100C30006C300068C0F340000028F1D1207800F04B
:100C40000400042870D1002770483830006800F094
:100C5000805090B900BF002000906C483830006888
:100C600040F080506949383108600846006800F05B
:100C70008050009000BF00BF01276748006800F463
:100C80008070B0B96448006840F4807062490860C0
:100C9000FFF7D8FC054606E0FFF7D4FC401B02280E
:100CA00001D90320B8E65C48006800F48070002891
:100CB000F2D000BFA068012808D15448683000680D
:100CC00040F001005149683108601DE0A068052826
:100CD0000DD14E486830006840F004004B4968313F
:100CE00008600846006840F0010008600CE04748D2
:100CF0006830006820F00100444968310860084607
:100D0000006820F00400086000BFA068A8B1FFF7E9
:100D100099FC054609E0FFF795FC401B41F288313C
:100D2000884202D9032077E626E038486830006818
:100D3000C0F340000028EED013E0FFF783FC054627
:100D400008E0FFF77FFC401B41F28831884201D95F
:100D5000032061E62D4868300068C0F34000002899
:100D6000EFD1012F07D129483830006820F080509A
:100D700026493831086000BFA069002845D02348C3
:100D8000006800F00C0008285DD0A069022845D159
:100D900000201F490866FFF755FC054606E0FFF7EF
:100DA00051FC401B022801D9032035E617480838BA
:100DB0000068C0F340600028F1D1D4E9070108437E
:100DC000616A40EA81110122A06AC2EB500041EA47
:100DD00000412C20005D41EA00600C49091F0860B9
:100DE00001200B490866FFF72DFC054606E0FFF7DA
:100DF00029FC401B022801D903200DE603480838CE
:100E00000068C0F340600028F1D049E00838024093
:100E100000004742800E47420070004000202149F8
:100E20000866FFF70FFC054606E0FFF70BFC401BCA
:100E3000022801D90320EFE51B480068C0F3406099
:100E40000028F2D12CE0A069012800D1E4E5164881
:100E5000001D0668A069012820D006F48001E06921
:100E600081421BD106F03F01206A814216D147F62C
:100E7000C0703040616AB0EB811F0FD106F4403181
:100E80000122A06AC2EB5000B1EB004F06D106F080
:100E900070612C20005DB1EB006F01D00120BBE53B
:100EA0000020B9E5000047420038024070B5044612
:100EB0000E4615460CB9012070BD94F8490028B9BA
:100EC000002084F84800204600F01CF804F10801D6
:100ED0002068FFF713FA3146A2682068FFF73CFA52
:100EE0002946236BD4E90102FFF7E4F9A1682068E1
:100EF00050F8210040F00100A268216841F822006A
:100F00000020D9E710B50446FFF74EFA10BD70B5C2
:100F100004462546681EB0F1807F01D301200FE012
:100F2000681E4FF0E02148610F214FF0FF3000F0C4
:100F300073F900204FF0E02188610720086100204C
:100F400070BD00BFFEE7000000B58FB01C2108A8EF
:100F5000FFF76EF91C2101A8FFF76AF94FF0204056
:100F600020490860204848600020886000211D4812
:100F7000C16001611021416100218161C161016293
:100F800041624FF4805181620021C1624FF480417F
:100F9000016300214163816341640F20089009903F
:100FA000FF200A900F200B9010200C9011200D9024
:100FB00000200E90092001900F200290FF20039046
:100FC0000820049010200590112006900020079022
:100FD00001AA08A90348FFF769FF08B1FFF767F9FD
:100FE0000FB000BD1C000020040100A000B587B0B8
:100FF000142102A8FFF71CF900BF00200190464809
:10100000006840F08000444908600846006800F02D
:101010008000019000BF00BF00BF00200190084683
:10102000006840F0020008600846006800F0020016
:10103000019000BF00BF00BF00200190084600687B
:1010400040F0100008600846006800F010000190B1
:1010500000BF00BF00BF002001900846006840F0BC
:10106000080008600846006800F00800019000BF12
:1010700000BF00BF002001900846006840F001005A
:1010800008600846006800F00100019000BF00BF42
:1010900000BF002001900846006840F0040008608E
:1010A0000846006800F00400019000BF00BF012264
:1010B00002211A48FFF7C0FA00224FF48051184865
:1010C000FFF7BAFA012251031648FFF7B5FA0220DA
:1010D00002900120039004900020059002A90F487F
:1010E000FFF7A8F94FF480500290012003900020F0
:1010F0000490059002A90A48FFF79CF94FF40050AC
:1011000002900120039004900020059002A9054858
:10111000FFF790F907B000BD3038024000040240EC
:10112000000C02400008024000BFFEE700BFFEE7DF
:101130007047704710B5FFF78BFA10BD00B593B03C
:10114000302107A8FFF774F8142102A8FFF770F800
:1011500000BF002001902448006840F080502249E0
:1011600008600846006800F08050019000BF00BF92
:1011700000BF002001901D48006840F480401B49DA
:1011800008600846006800F48040019000BF00BF7E
:101190000220079001200A9010200B9002200D9051
:1011A00000210E9108210F914821109102211191E7
:1011B0000421129107A8FFF72BFC08B1FFF777F87D
:1011C0000F20029002200390002004904FF48050E2
:1011D000059000200690022102A8FFF7FFFA08B14F
:1011E000FFF765F813B000BD4038024000700040C2
:1011F0000348006840F4700001490860704700002F
:1012000088ED00E000BFFEE702480068C0F302205E
:10121000704700000CED00E010B5002804DB0A0761
:10122000130E054A135406E00A07140E034A00F091
:101230000F031B1FD45410BD00E400E018ED00E0C4
:1012400002E008C8121F08C1002AFAD1704770478F
:10125000002001E001C1121F002AFBD1704710B528
:1012600004464FF47A7104FB01F000F001F810BD60
:1012700070B5034600224FF0E02675690D4E3668C2
:1012800003FB06F44FF0E026B16910E04FF0E026D2
:10129000B06988420BD0884202D20E1A324402E072
:1012A0002E1A0E4432440146A24200D300E0EDE77C
:1012B00000BF70BD1800002000BFFFF7D5F9FFF791
:1012C0003DFFFFF793FEFFF73FFE07E04FF47A7014
:1012D000FFF764F802210248FFF7A4F9F6E70000DF
:1012E00000040240000000000000000001020304AE
:1012F0000607080900000000010203041C1300088F
:10130000000000201C0000004012000838130008F4
:101310001C000020541000005012000800000000C3
:1013200000000000000000001000000001000000AC
:081330000024F400000000009D
:040000050800018965
:00000001FF
