:020000040800F2
:10000000181000209D0100080504000809040008DC
:100010000D04000811040008150400080000000089
:1000200000000000000000000000000019040008AB
:100030001B040008000000001D0400081F04000845
:10004000B7010008B7010008B7010008B7010008B0
:10005000B7010008B7010008B7010008B7010008A0
:10006000B7010008B7010008B7010008B701000890
:10007000B7010008B7010008B7010008B701000880
:10008000B7010008B7010008B7010008B701000870
:10009000B7010008B7010008B7010008B701000860
:1000A000B7010008B7010008B7010008B701000850
:1000B000B7010008B7010008B7010008B701000840
:1000C000B7010008B7010008B7010008B701000830
:1000D000B7010008B7010008B7010008B701000820
:1000E000B7010008B7010008B7010008B701000810
:1000F000B7010008B7010008B7010008B701000800
:10010000B7010008B7010008B7010008B7010008EF
:10011000B7010008B7010008B7010008B7010008DF
:10012000B7010008B7010008B7010008B7010008CF
:10013000B7010008B7010008B7010008B7010008BF
:10014000B7010008B7010008B7010008B7010008AF
:10015000B7010008B7010008B7010008B70100089F
:10016000B7010008B7010008B7010008B70100088F
:10017000B7010008B7010008B7010008000000003F
:10018000B7010008B7010008DFF80CD001F0D2FB7E
:1001900000480047730200081810002006488047F6
:1001A00006480047FEE7FEE7FEE7FEE7FEE7FEE75C
:1001B000FEE7FEE7FEE7FEE73517000889010008C5
:1001C00072B600BFFEE700B593B0302107A801F07A
:1001D00087FB142102A801F083FB00BF00200190DF
:1001E0003548006840F08050334908600846006890
:1001F00000F08050019000BF00BF00BF00200190C0
:100200002E48006840F480402C4908600846006889
:1002100000F48040019000BF00BF02200790012041
:100220000A9010200B9002200D9000210E910821C1
:100230000F9148211091022111910421129107A8D8
:1002400000F018F908B1FFF7BBFF0F200290022061
:100250000390002004904FF48050059000200690F9
:10026000022102A800F0A2FB08B1FFF7A9FF13B01A
:1002700000BD00BF01F07DF9FFF7A5FF00F024F8F5
:1002800018E04FF400510E4800F024FF4FF4FA70CC
:1002900001F0E6FA02210B4800F01CFF0221094898
:1002A00000F018FF0221074800F014FF0221054862
:1002B00000F010FFE5E70000403802400070004009
:1002C000000802400004024000B587B0142102A8D3
:1002D00001F006FB00BF002001904648006840F096
:1002E0000400444908600846006800F004000190DA
:1002F00000BF00BF00BF002001900846006840F02A
:10030000800008600846006800F08000019000BF8F
:1003100000BF00BF002001900846006840F00200C6
:1003200008600846006800F00200019000BF00BFAE
:1003300000BF002001900846006840F010000860EF
:100340000846006800F01000019000BF00BF00BF29
:10035000002001900846006840F008000860084648
:10036000006800F00800019000BF00BF00BF00203F
:1003700001900846006840F00100086008460068E7
:1003800000F00100019000BF00BF012251031A4894
:1003900000F09AFE01220221184800F095FE00228A
:1003A0004FF48051164800F08FFE4FF40050029039
:1003B0000120039004900020059002A90E4800F04F
:1003C000FBFC022002900120039004900020059085
:1003D00002A90A4800F0F0FC4FF48050029001207E
:1003E000039000200490059002A9054800F0E4FC69
:1003F00007B000BD3038024000080240000402404F
:10040000000C024000BFFEE700BFFEE700BFFEE7B2
:1004100000BFFEE700BFFEE770477047704710B5AA
:1004200001F0E3F810BD000008B500BF0020009007
:100430000E48006840F480400C4908600846006897
:1004400000F48040009000BF00BF00BF002000907B
:10045000081F006840F08050091F086008460068C7
:1004600000F08050009000BF00BF08BD443802403B
:1004700000207047F8B504460CB90120F8BD20787B
:1004800000F00100002874D0F948006800F00C006A
:1004900004280DD0F648006800F00C00082813D19D
:1004A000F348001F006800F48000B0F5800F0BD106
:1004B000EF4808380068C0F34040002859D0606811
:1004C000002856D10120D9E700BF6068B0F5803F11
:1004D00008D1E7480838006840F48030E44908391A
:1004E00008601EE06068B0F5A02F0DD1E048083824
:1004F000006840F48020DE4908390860084600683A
:1005000040F4803008600CE0D9480838006820F4D6
:100510008030D749083908600846006820F48020F8
:10052000086000BF606890B101F067F8054606E01A
:1005300001F063F8401B642801D903209EE7CC48F2
:1005400008380068C0F340400028F1D011E001F005
:1005500054F8054606E001F050F8401B642801D924
:1005600003208BE7C24808380068C0F340400028E9
:10057000F1D1207800F0020002285FD1BC48006869
:1005800000F00C0058B1BA48006800F00C000828D0
:100590001CD1B748001F006800F48000B0B9B4480F
:1005A00008380068C0F3400020B1E068012801D09D
:1005B000012063E7AE480838006820F0F8002169A0
:1005C00040EAC100AA490839086037E0E06800B392
:1005D0000120A849086001F010F8054606E001F086
:1005E0000CF8401B022801D9032047E7A04808382F
:1005F0000068C0F340000028F1D09D48083800682A
:1006000020F0F800216940EAC100994908390860E2
:1006100014E000209749086000F0EFFF054606E06F
:1006200000F0EBFF401B022801D9032026E7904889
:1006300008380068C0F340000028F1D1207800F0AD
:10064000080008282CD16069A8B101208A490860F7
:1006500000F0D3FF054606E000F0CFFF401B022864
:1006600001D903200AE782486C300068C0F34000DB
:100670000028F1D014E000207F49086000F0BDFFA1
:10068000054606E000F0B9FF401B022801D903200F
:10069000F4E677486C300068C0F340000028F1D1E0
:1006A000207800F00400042870D10027704838300A
:1006B000006800F0805090B900BF002000906C48A6
:1006C0003830006840F08050694938310860084689
:1006D000006800F08050009000BF00BF012767480D
:1006E000006800F48070B0B96448006840F480701D
:1006F0006249086000F081FF054606E000F07DFFDA
:10070000401B022801D90320B8E65C48006800F4C9
:1007100080700028F2D000BFA068012808D154489A
:100720006830006840F001005149683108601DE000
:10073000A06805280DD14E486830006840F00400DC
:100740004B49683108600846006840F001000860C5
:100750000CE047486830006820F0010044496831E7
:1007600008600846006820F00400086000BFA06828
:10077000A8B100F042FF054609E000F03EFF401B33
:1007800041F28831884202D9032077E626E03848D2
:1007900068300068C0F340000028EED013E000F09D
:1007A0002CFF054608E000F028FF401B41F288318D
:1007B000884201D9032061E62D4868300068C0F303
:1007C00040000028EFD1012F07D1294838300068B8
:1007D00020F0805026493831086000BFA069002809
:1007E00045D02348006800F00C0008285DD0A069BF
:1007F000022845D100201F49086600F0FEFE05468C
:1008000006E000F0FAFE401B022801D9032035E67D
:10081000174808380068C0F340600028F1D1D4E9D7
:1008200007010843616A40EA81110122A06AC2EB14
:10083000500041EA00412C20005D41EA00600C4973
:10084000091F086001200B49086600F0D6FE054626
:1008500006E000F0D2FE401B022801D903200DE67D
:10086000034808380068C0F340600028F1D049E030
:100870000838024000004742800E474200700040A6
:100880000020F849086600F0B8FE054606E000F0D2
:10089000B4FE401B022801D90320EFE5F2480068AE
:1008A000C0F340600028F2D12CE0A069012800D1FB
:1008B000E4E5ED48001D0668A069012820D006F493
:1008C0008001E06981421BD106F03F01206A81422C
:1008D00016D147F6C0703040616AB0EB811F0FD16E
:1008E00006F440310122A06AC2EB5000B1EB004F88
:1008F00006D106F070612C20005DB1EB006F01D0D5
:100900000120BBE50020B9E52DE9F04700240025D2
:100910000026A146D4480830006800F00C0020B141
:10092000042805D008283AD105E0DFF8409339E0E3
:10093000DFF83C9336E0CC48001D006800F03F042F
:10094000C948001D006800F4800078B1C848C64955
:10095000091D0968C1F38811A0FB017001462246F8
:100960000023384600F084FF05460EE0BF48BE492C
:10097000091D0968C1F38811A0FB017001462246D8
:100980000023384600F074FF0546B748001D006894
:10099000C0F30140401C4600B5FBF6F902E0DFF869
:1009A000CC9200BF00BF4846BDE8F08770B5044652
:1009B0000D460CB9012070BDAE48006800F007007C
:1009C000A84209D2AB490D700846006800F0070044
:1009D000A84201D00120EEE7207800F002000228B2
:1009E00023D1207800F00400042807D19E48083065
:1009F000006840F4E0509C4908310860207800F01D
:100A00000800082807D198480830006840F4604082
:100A100095490831086094480830006820F0F000DB
:100A2000A1680843904908310860207800F001006F
:100A3000A0B36068012806D18B480068C0F340402D
:100A4000A8B90120B7E76068022802D060680328CF
:100A500006D185480068C0F3406040B90120AAE78C
:100A600081480068C0F3400008B90120A3E77E4830
:100A70000830006820F00300616808437A490831B3
:100A8000086000F0BAFD064609E000F0B6FD801BE4
:100A900041F28831884202D903208CE708E072488D
:100AA0000830006800F00C006168B0EB810FECD1F9
:100AB0007048006800F00700A84209D96D490D7020
:100AC0000846006800F00700A84201D0012072E744
:100AD000207800F00400042809D163480830006839
:100AE00020F4E050E16808435F490831086020784D
:100AF00000F0080008280AD15B480830006820F49C
:100B00006040216940EAC100574908310860FFF799
:100B1000FBFE554908310968C1F30311564A515C7F
:100B2000C840564908605648006800F002FD0020A1
:100B300041E770B586B006460C46154656BB00BF69
:100B40000020009048483030006840F001004649DD
:100B5000303108600846006800F00100009000BFD6
:100B600000BF88150190022002900320049000200D
:100B70000390059001A9434800F01EF93A48083057
:100B8000006820F0EC6044EA05010843364908316A
:100B9000086029E000BF0020009033483030006832
:100BA00040F004003049303108600846006800F029
:100BB0000400009000BF00BF481501900220029081
:100BC0000320049000200390059001A92E4800F016
:100BD000F3F825480830006820F0784044EAC50161
:100BE000084321490831086006B070BD01201D4945
:100BF000C864704700201B49C86470471F480068DC
:100C0000704700B5FFF7FAFF174908310968C1F3CB
:100C100082211E4A515CC84000BD00B5FFF7EEFFBF
:100C2000114908310968C1F34231184A515CC84082
:100C300000BD0F2101600C49096801F48021B1F564
:100C4000802F03D14FF4A021416023E006490968B9
:100C500001F48031B1F5803F1AD14FF48031416009
:100C600018E0000000004742003802400024F40071
:100C700040787D01003C0240761900080C000020FD
:100C8000040000200000024000080240861900080D
:100C9000002141604649096801F0010111B10121BB
:100CA000C16001E00021C16041490968C1F3C4018C
:100CB00001613F497031096801F00401042902D142
:100CC000052181600AE03A497031096801F00101AB
:100CD00011B10121816001E000218160344974314A
:100CE000096801F0010111B10121416101E0002118
:100CF00041612F49096801F08071B1F1807F02D113
:100D00000221816101E0012181612949091D0968F0
:100D100001F48002C2612649091D096801F03F0201
:100D200002622349091D0968C1F388124262204901
:100D3000091D096801F4403101F58031CA0B826256
:100D40001B49091D0968C1F30362C26270470F2283
:100D50000260174A0832126802F003024260144A25
:100D60000832126802F0F0028260114A08321268FA
:100D700002F4E052C2600E4A0832126802F4604285
:100D8000D20802610B4A126802F007020A6070473B
:100D9000704710B506480C30006800F080008028CD
:100DA00005D1FFF7F5FF802001490E31087010BD15
:100DB00000380240003C0240F8B502460B460025D0
:100DC000002400200021D5E0012606FA01F51E6866
:100DD00006EA0504AC4274D11E7906F00306012E22
:100DE00004D01E7906F00306022E13D190684F003E
:100DF0000326BE40B0434F00DE68BE4030439060E3
:100E0000506801268E40B0431E79C6F300168E400E
:100E1000304350601E7906F00306032E09D0D068D7
:100E20004F000326BE40B0434F009E68BE40304393
:100E3000D0601E7906F00306022E13D1CF0802F10E
:100E4000200656F827004E07F70E0F26BE40B04387
:100E50004F07FF0E1E69BE403043CF0802F1200647
:100E600046F8270010684F000326BE40B0431E79A5
:100E700006F003064F00BE40304310605E6806F483
:100E80004036002E75D000BF00260096A94E366869
:100E900046F48046A74F3E603E46366806F48046DC
:100EA000009600BF00BFA44E8F0856F827008E079B
:100EB000370F0F26BE40B043A04EB24202D10026EB
:100EC00024E056E09E4EB24201D101261EE09D4E26
:100ED000B24201D1022619E09B4EB24201D1032653
:100EE00014E09A4EB24201D104260FE0984EB2426D
:100EF00001D105260AE0974EB24201D1062605E04F
:100F0000954EB24201D1072600E008268F073F0F19
:100F1000BE403043884E8F0846F827008F4E306819
:100F2000A0435E6806F4803606B120438B4E3060E5
:100F3000361D3068A0435E6806F4003606B12043D3
:100F4000864E361D3060361D3068A0435E6806F45C
:100F5000801606B12043814E08363060361D306859
:100F6000A0435E6806F4001606B120437B4E0C36A3
:100F70003060491C1029FFF427AFF8BDF0B50C46CE
:100F8000002500220023002192E0012606FA01F547
:100F900004EA0502AA427DD1674E8F0856F8273031
:100FA0008E07370F0F26BE403340644EB04201D14A
:100FB000002623E0624EB04201D101261EE0614EC0
:100FC000B04201D1022619E05F4EB04201D10326A2
:100FD00014E05E4EB04201D104260FE05C4EB042F8
:100FE00001D105260AE05B4EB04201D1062605E09C
:100FF000594EB04201D1072600E008268F073F0F67
:10100000BE409E4222D1554E36689643534F3E60B5
:101010003E1D366896433F1D3E603E1D3668964332
:101020003F1D3E603E1D366896433F1D3E608E0765
:10103000370F0F2606FA07F33F4E8F0856F8276042
:101040009E433D4F4FEA910C47F82C6006684FEAEB
:10105000410C032707FA0CF7BE430660CF0800F1E6
:10106000200656F827604F074FEAD76C0F2707FA7C
:101070000CF7BE434FEAD10C00F1200747F82C6073
:10108000C6684FEA410C032707FA0CF7BE43C66057
:10109000466800E00BE001278F40BE43466086684B
:1010A0004FEA410C032707FA0CF7BE438660491C40
:1010B0001029FFF46AAFF0BD024613690B400BB173
:1010C000012000E0002070470AB1816101E00B04BB
:1010D0008361704710B5426921EA020302EA010404
:1010E00043EA0443836110BD08B502464FF48030E3
:1010F00000900098084300900098D061D16100985A
:10110000D061D0690090D06900F4803008B100202F
:1011100008BD0120FCE7704710B504460F481430A5
:101120000068204028B10D48143004602046FFF7C5
:10113000F2FF10BD44380240083801400000024070
:101140000004024000080240000C0240001002406F
:101150000014024000180240001C0240003C014004
:1011600010B5002804DB0A07130EEC4A135406E0FE
:101170000A07140EEA4A00F00F031B1FD45410BDD7
:1011800000BF00F00702E64B0C3B19684FF6FF0367
:101190001940E44B0B4343EA0221E14B0C3B19603D
:1011A00000BF70472DE9F05F80460D4616460027C8
:1011B00000F0AEF9074639462A46334601F00700EB
:1011C000C0F1070ABAF1040F02D94FF0040A01E096
:1011D000C0F1070AD14600F1040ABAF1070F02D2A2
:1011E0004FF0000A01E0A0F1030AD4464FF0010AD3
:1011F0000AFA09FAAAF1010A0AEA020A0AFA0CFA38
:101200004FF0010B0BFA0CFBABF1010B0BEA030BDC
:101210004AEA0B0421464046FFF7A2FFBDE8F09FD3
:1012200001460846002809DB00F01F0301229A400E
:1012300043099B0003F1E023C3F8002100BF70477E
:1012400010B501460846002817DB00F01F030122F5
:101250009A40B54B440943F8242000BF00BF00BFAB
:10126000BFF34F8F00BF00BF00BF00BF00BF00BF74
:10127000BFF36F8F00BF00BF00BF00BF10BD00BF36
:1012800000BF00BF00BF00BFBFF34F8F00BF00BF54
:1012900000BFA3480C38006800F4E060A14908438F
:1012A000001D9F490C39086000BF00BF00BFBFF39D
:1012B0004F8F00BF00BF00BF00BF00BFFDE770B58C
:1012C00004462546681EB0F1807F01D301200FE05F
:1012D000681E4FF0E02148610F214FF0FF30FFF70B
:1012E0003FFF00204FF0E0218861072008610020C7
:1012F00070BD00BF00BF00BFBFF35F8F00BF00BF66
:1013000000BF87480C30006820F4803084490C31DD
:101310000860002082497C310860704740F001017C
:101320007F4A7C3211607E490C31096841F480317A
:101330007B4A0C32116000BF00BF00BFBFF34F8F6C
:1013400000BF00BF00BF00BF00BF00BFBFF36F8F73
:1013500000BF00BF00BF70474178714A8032116002
:101360000178F9B1121D41681160017B0907C27A49
:1013700041EA0261827A41EAC241427B41EA82410A
:10138000827B41EA4241C27B41EA0241427A41EA20
:101390000221027A41EA420102781143604A88320E
:1013A000116005E000215E4A84321160121D116057
:1013B000704710B500F0ACF810BD2DE9F0430446BD
:1013C0002046002803DB554F3F5C3F0907E0544FA0
:1013D00000F00F0CACF1040C17F80C703F093D46FF
:1013E0000E4606F00700C0F10708B8F1040F02D955
:1013F0004FF0040801E0C0F10708C44600F10408FA
:10140000B8F1070F02D24FF0000801E0A0F1030885
:10141000474625FA07F84FF0010909FA0CF9A9F136
:10142000010908EA0908C2F800804FF0010808FA2B
:1014300007F8A8F1010808EA0508C3F8008000BF12
:10144000BDE8F08310B501460846002808DB00F02F
:101450001F0301229A40344B8033440943F824206F
:1014600000BF10BD10B50146084600280EDB2E4A0D
:101470008032430952F8232000F01F040123A340C7
:101480001A400AB1012202E0002200E000221046C8
:1014900010BD10B501460846002807DB00F01F0309
:1014A00001229A40214B440943F8242000BF10BD7B
:1014B00010B50146084600280EDB1C4A803243095D
:1014C00052F8232000F01F040123A3401A400AB160
:1014D000012202E0002200E00022104610BD042894
:1014E00008D14FF0E021096941F004014FF0E022FA
:1014F000116107E04FF0E021096921F004014FF08C
:10150000E02211617047704710B5FFF7FCFF10BD76
:1015100003480C380068C0F30220704700E400E084
:1015200018ED00E00000FA0580E100E080E200E054
:10153000704770B50446754800784FF47A71B1FB76
:10154000F0F073490968B1FBF0F52846FFF7B7FEE4
:1015500008B1012070BD102C07D200222146501E78
:10156000FFF720FE6B48046001E00120F2E7002055
:10157000F0E710B56848006840F4007066490860FC
:101580000846006840F4806008600846006840F43F
:10159000807008600320FFF7F3FD0F20FFF7C9FFFD
:1015A000FEF742FF002010BD704710B54FF0FF302E
:1015B0005A49086000200860401E091D086000208C
:1015C0000860401E55491039086000200860401E20
:1015D000091D086000200860401E091D08600020E9
:1015E0000860FFF7E1FF002010BD4D480068474943
:1015F000097808444A4908607047494800687047BC
:1016000044480068704770B5044600253F4800789C
:10161000A0420AD03D48067804703E480068FFF7B3
:1016200088FF05460DB139480670284670BD374819
:101630000078704770B50446FFF7DFFF0646254681
:10164000681C10B131480078054400BFFFF7D5FF92
:10165000801BA842FAD370BD4FF0E020006920F053
:1016600002004FF0E021086170474FF0E020006970
:1016700040F002004FF0E0210861704729487047B0
:1016800029480068000C704727480068C0F30B0029
:1016900070472548406840F0010023494860704782
:1016A0002148406820F001001F49486070471E48EB
:1016B000406840F002001C49486070471A48406882
:1016C00020F002001849486070471748406840F011
:1016D00004001549486070471348406820F0040032
:1016E0001149486070470120104908607047002088
:1016F0000E49086070470E48006870470C48001D8E
:10170000006870470A4808300068704708000020E9
:101710000C00002004000020003C02402038024061
:1017200000000020000D0701002004E00004274213
:10173000107AFF1F2D48006840F470002B490860A4
:10174000704770B500200022022300240221284D9A
:101750002D6805F00C0020B1042806D0082834D1EB
:1017600007E0244D244E356033E0244D224E356091
:101770002FE01F4D2D1F2D68C5F380541C4D2D1FCC
:101780002D6805F03F0154B11C4DB5FBF1F5184E25
:10179000361F3668C6F3881605FB06F209E0154DBC
:1017A000B5FBF1F5124E361F3668C6F3881605FBF9
:1017B00006F20F4D2D1F2D68C5F301456D1C6B0002
:1017C000B2FBF3F50C4E356003E00A4D0A4E35606E
:1017D00000BF00BF064D2D68C5F30315084E705DB0
:1017E000054D2D68C540044E356070BD88ED00E0A4
:1017F000083802400024F4000C00002040787D01ED
:101800007619000819490860704770B50346002230
:101810004FF0E0267569154E366803FB06F44FF06D
:10182000E026B16910E04FF0E026B06988420BD0A5
:10183000884202D20E1A324402E02E1A0E4432447A
:101840000146A24200D300E0EDE700BF70BD10B535
:1018500004464FF47A7104FB01F0FFF7D6FF10BD88
:1018600010B50446A0B2FFF7F2FF10BD1000002033
:101870002DE9F05F0546002092469B4688460646C5
:10188000814640241BE0284641464746224600F058
:1018900041F853465A46C01A914110D31146184692
:1018A000224600F028F82D1A67EB01084F46224621
:1018B0000120002100F01FF817EB00094E41201E07
:1018C000A4F10104DFDC484631462A464346BDE820
:1018D000F09FD2B201E000F8012B491EFBD2704705
:1018E0000022F6E710B513460A4604461946FFF7EC
:1018F000F0FF204610BD202A04DB203A00FA02F156
:10190000002070479140C2F1200320FA03F31943ED
:1019100090407047202A04DB203A21FA02F000218F
:10192000704721FA02F3D040C2F1200291400843EF
:1019300019467047064C074D06E0E06840F0010389
:1019400094E8070098471034AC42F6D3FEF720FC29
:1019500090190008B019000802E008C8121F08C159
:10196000002AFAD170477047002001E001C1121F20
:10197000002AFBD1704700000000000000000102B7
:101980000304060708090000000001020304000028
:10199000B0190008000000201400000058190008C9
:1019A000C419000814000020041000006819000881
:1019B0000000000010000000010000000024F400FE
:0419C0000000000023
:040000050800018965
:00000001FF
