:020000040800F2
:10000000700101209D0100087B260008F5220008F0
:100010007926000821070008692C0008000000006C
:100020000000000000000000000000007F27000822
:1000300023070008000000007D26000801280008B2
:10004000B7010008B7010008B7010008B7010008B0
:10005000B7010008B7010008B7010008B7010008A0
:10006000B7010008B7010008B7010008B701000890
:10007000B7010008B7010008B7010008B701000880
:10008000B7010008B7010008B7010008B701000870
:10009000B7010008B7010008B7010008B701000860
:1000A000B7010008B7010008B7010008B701000850
:1000B000B7010008B7010008B7010008B701000840
:1000C000B7010008B7010008B7010008B701000830
:1000D000B7010008B70100085D2C0008B70100084F
:1000E000B7010008B7010008B7010008B701000810
:1000F000B7010008B7010008B7010008B701000800
:10010000B7010008B7010008B7010008B7010008EF
:10011000B7010008B7010008AD280008B7010008C2
:10012000B7010008B7010008B7010008B7010008CF
:10013000B7010008B7010008B7010008B7010008BF
:10014000B7010008B7010008B7010008B7010008AF
:10015000B7010008B7010008B7010008B70100089F
:10016000B7010008B7010008B7010008B70100088F
:10017000B7010008B7010008B7010008000000003F
:10018000B7010008B7010008DFF80CD000F02AFA28
:10019000004800477D3C0208700101200648804766
:1001A00006480047FEE7FEE7FEE7FEE7FEE7FEE75C
:1001B000FEE7FEE7FEE7FEE79D280008890100084C
:1001C0002DE9F05F0546002092469B46884606468C
:1001D000814640241BE0284641464746224600F01F
:1001E0005CF953465A46C01A914110D3114618463D
:1001F000224600F043F92D1A67EB01084F462246CC
:100200000120002100F03AF917EB00094E41201EB1
:10021000A4F10104DFDC484631462A464346BDE8E6
:10022000F09F10B5431A934209D28318881803E04F
:1002300010F8011D03F8011D521EF9D210BD40EA4D
:1002400001039B0703D009E008C9121F08C0042A54
:10025000FAD203E011F8013B00F8013B521EF9D23B
:1002600010BDD2B201E000F8012B491EFBD270474D
:100270000022F6E710B513460A4604461946FFF772
:10028000F0FF204610BD30B505462A460B4612F851
:10029000010B13F8014B08B1A042F8D01CB10028A3
:1002A00002D06D1CF1E7284630BD10B5044604E0CD
:1002B0000B7800F8013B03B1491C521EF8D22046CE
:1002C00010BDCAB2401E10F8011F8A4202D0002998
:1002D000F9D100207047421C10F8011B0029FBD106
:1002E000801A704710B5002200E0521C835C8C5CC1
:1002F000A34201D1002BF8D1D8B2E1B2401A10BD0F
:10030000034611F8012B00F8012B002AF9D11846F9
:1003100070470246C9B200E0401C0378002BFBD1B5
:1003200002E003788B4203D0401E9042F9D20020B5
:10033000704770B5064602F0E5FC046805460A22DF
:100340000021304600F0B9F82C6070BD2DE9FE4F59
:1003500081EA030404F0004421F0004100944FF0CE
:10036000000B23F0004350EA01045ED052EA03047C
:100370005BD0C3F30A54C1F30A552C44A4F2F334FE
:100380000194A0FB0254C1F3130141F48011C3F3A3
:10039000130343F4801301FB024400FB034E840A61
:1003A000970A44EA815447EA8357A4FB07680295F9
:1003B0008D0A05FB07854FEA932C04FB0C54270597
:1003C000029D4FEA065847EA1637B5EB08056EEB73
:1003D000070C870E920E47EA811742EA8312A7FBA9
:1003E0000201B6EB0B0164EB00042B0D43EA0C3366
:1003F0005E1844EB1C50DA465146E7FB0201C5F398
:1004000013044FEA0B3343EA14534FEA0432019CBE
:1004100043EA0603A4F10C040294009CCDE900B465
:1004200000F092F803B0BDE8F08F00200146F9E734
:100430000EB540F2334102910021CDE900110A4688
:100440000B4600F081F803B000BDC1F30A5210B5AD
:10045000C1F3130140F2FF3341F480119A4201DAF3
:10046000002010BD40F233439A42A2F2334203DC33
:10047000524200F012F810BD904010BD202A04DB5B
:10048000203A00FA02F1002070479140C2F12003A7
:1004900020FA03F3194390407047202A04DB203AE6
:1004A00021FA02F00021704721FA02F3D040C2F194
:1004B000200291400843194670472DE9F0479146C4
:1004C0000F4680460446002614F8015B2DB100F06B
:1004D0009BF80068405DC007F6D12B2D02D02D2D72
:1004E00018D0641E4A463946204600F091F827B1DC
:1004F0003968A14201D1C7F8008071054FF00204AC
:100500000BD54042002803DD02F0FCFB0460A0078D
:10051000BDE8F08746F48066E4E70028F8DA02F0E8
:10052000F1FB04606FF00040F2E710B5141E73F1A8
:10053000000408DA401C41F1000192185B411A43A3
:1005400001D120F0010010BD2DE9F04D92469B46EF
:1005500011B1B1FA81F202E0B0FA80F22032904695
:10056000FFF78CFF04460F4640EA0A0041EA0B0100
:1005700053465A46084313D0114653EA010019D096
:10058000C8F140025046FFF788FF05460E46504628
:1005900059464246FFF772FF084305D0012004E0A8
:1005A00020463946BDE8F08D0020054346EAE07656
:1005B0002C4337430A986305E40AA0EB08000022A5
:1005C000FD0A44EA47540A3002D500200146E9E713
:1005D000010510196941DDE9084500196941BDE8C7
:1005E000F04DA2E7064C074D06E0E06840F001033D
:1005F00094E8070098471034AC42F6D3FFF7C8FDE3
:1006000008D6020828D60208004870475CD00208C5
:100610002DE9F05F82460078002715468B460AF1E7
:100620000104B946302801D09DB113E014F8010B44
:100630000127782803D0582801D045B10AE00DB130
:10064000102D07D10027102514F8010B02E0082512
:1006500000E00A250026B0460EE005FB080005FB79
:1006600006F1012701EB10461FFA80F8B6F5803F2E
:1006700000D3B94614F8010B294600F018F80028F9
:10068000EBDABBF1000F05D00FB1641E00E0544659
:10069000CBF80040B9F1000F06D002F033FB022185
:1006A0000160C81EBDE8F09F48EA0640FAE73A2814
:1006B00000D2303820F02002412A01D3A2F13700C5
:1006C000884201D34FF0FF30704770B58C1810F896
:1006D000015B15F0070301D110F8013B2A1106D187
:1006E00010F8012B03E010F8016B01F8016B5B1EA1
:1006F000F9D12B0705D40023521E0DD401F8013B7C
:10070000FAE710F8013BCB1A921C03E013F8015BE7
:1007100001F8015B521EF9D5A142D8D3002070BD6B
:10072000FEE7704772B6FEE770B5B3F5804F05D0AF
:100730006FF0704140F82210002070BD50F8224048
:10074000084B8E891C40D1E9003543EA05138D68BA
:1007500089692D0245EA06452B430B43234340F8A4
:100760002230E9E70000F0CFF0B50C6850F82430F3
:10077000114A1340D1E90125D1E903672A433E43D9
:1007800032434E6932438E693243CE6932430E6A38
:1007900032434E6A32438E6A3243CE6A3243CE6B64
:1007A000096B32430A431A43082D01D142F040023B
:1007B00040F824200020F0BD8000F0FF30B500EBB1
:1007C000820250688D8900F04043D1E9000440EA7C
:1007D00004108C68240244EA054420430C8A074D27
:1007E00005EB045420430C7D6D0105EB046489691D
:1007F0002043084318435060002030BD0000F0FF44
:100800002DE9F0410446876D00F0A8F9064694F8FA
:1008100035000025022806D08020606584F8345019
:100820000120BDE8F0812068016821F01601016017
:100830002068416921F080014161206C08B9A06CF9
:1008400020B12068016821F008010160206801687A
:1008500021F0010101600CE000F080F9801B052807
:1008600007D920206065032084F8350084F83450CF
:10087000D7E720680068C007EED194F85C103F20ED
:100880008840B860012084F8350084F83450002096
:10089000C7E790F83510022903D080214165012077
:1008A0007047052180F835100068016821F00101CA
:1008B000016000207047000070B5044600F04EF95A
:1008C0000546601C02D004480078044400F046F954
:1008D000401BA042FAD370BD38000020F0B587B0AD
:1008E00014216846FFF7C4FC15480168002924D18B
:1008F0000121016013480024016841F001010160F9
:100900000068022500F0010005904FF68070CDE9E7
:10091000000502AA03260C2782E8D00069460A488F
:1009200000F016F84EF2B370CDE9000502AA694650
:1009300082E8D000054800F00BF807B0F0BD0000D9
:10094000140000203838024000100240000C024021
:100950002DE9F84FDFF8BCA1002201250AF1040BB4
:1009600003264FF00F090BF1040E00BF0B6805FAC8
:1009700002F42340A34270D10F7907F00307012F3F
:1009800001D0022F16D187684FEA420806FA08FC08
:1009900027EA0C07D1F80CC00CFA08FC4CEA070C4B
:1009A000C0F808C04768A7430C79C4F3001494400A
:1009B0003C4344600C79E443A4070AD0C4684FEA7E
:1009C000420C06FA0CF7BC438F6807FA0CF7274372
:1009D000C7600C7904F00304022C12D1D40800EB98
:1009E000840CDCF820405707FF0E09FA07F824EAC8
:1009F0000804D1F8108008FA07F848EA0408CCF88F
:100A0000208004684FEA420C06FA0CF7BC430F79C9
:100A100007F0030707FA0CF7274307604C6814F444
:100A2000403F70D03C4C276847F4804727602468DB
:100A300022F0030704F480440094384C07EB040CC4
:100A4000DCF8084897074FEA177809FA08F7BC431B
:100A5000334FB84202D1002724E054E0314FB8426E
:100A600001D101271EE0304FB84201D1022719E021
:100A70002E4FB84201D1032714E02D4FB84201D1C7
:100A800004270FE02B4FB84201D105270AE02A4F77
:100A9000B84201D1062705E0284FB84201D1072707
:100AA00000E0082707FA08F72743CCF80878DAF8B7
:100AB00000405746D1F804C09C435FEACC3C00D5C7
:100AC0001C433C60DBF800405F46D1F804C09C4307
:100AD0005FEA8C3C00D51C433C60DEF80040774662
:100AE000D1F804C09C435FEACC2C00D51C433C6089
:100AF000084F0C373C68D1F804C09C435FEA8C2C4B
:100B000000D51C433C60521C102AFFF42FAFBDE8F7
:100B1000F88F0000003C01404438024000300140A2
:100B2000000002400004024000080240000C0240A5
:100B3000001002400014024000180240001C024055
:100B4000426921EA02030A4043EA02418161704797
:100B50000AB1816170470904FBE700000148806821
:100B6000704700003800002070B5040025D094F8CC
:100B70003D00002520B984F83C50204600F0B8F82C
:100B8000242084F83D002068016821F00101016003
:100B90002068016841F4004101602068016821F487
:100BA0000041016000F0C4FA4D4A6168914201D8E9
:100BB0004C4900E04C49884201D2012070BD4B49AC
:100BC0002368B0FBF1F15E6826F03F060E435E60DD
:100BD0006368934206D94FF4967359434FF47A737E
:100BE000B1FBF3F12368491C1E6A26F03F0631432E
:100BF00019626168914210D84900401EB0FBF1F2C1
:100C0000521CC2F30B02042A01D2042022E0B0FBE2
:100C1000F1F0401CC0F30B001CE0A268F2B301EB42
:100C2000C10303EB0116431EB3FBF6F35B1C43F455
:100C300080431B0549D092B301EBC10202EB0111C5
:100C4000401EB0FBF1F0401CC0F30B0040F48040AC
:100C500040F400402168CA694CF6FF739A43104380
:100C6000C861D4E9071001432068026822F0C0027D
:100C700011430160D4E9030101432068826848F20E
:100C8000FF339A4311438160D4E905010843216889
:100C9000CA6822F0FF021043C86001E00EE016E0CF
:100CA0002068016841F0010101602564202084F87A
:100CB0003D00256384F83E50002070BD01EB4106E5
:100CC000431EB3FBF6F35B1CB3E70120C2E701EB65
:100CD0004101401EB0FBF1F0401CC0F30B00B7E730
:100CE000A086010080841E0000093D0040420F00E4
:100CF00010B586B0044614216846FFF7B9FA1449C6
:100D00002068884221D11348016841F00201016046
:100D10000068694600F0020005904FF440700090B2
:100D200012200190012002900320039004200490DF
:100D30000948FFF70DFE07481030016841F4001123
:100D40000160006800F40010059006B010BD0000BE
:100D500000540040303802400004024002488168DC
:100D60000278114481607047380000200B4810B5AC
:100D7000016841F400710160016841F48061016023
:100D8000016841F480710160032000F06FF80F20CA
:100D900000F006F800F024F8002010BD003C0240EE
:100DA00070B50D4D04464FF47A712878B1FBF0F020
:100DB0000A490968B1FBF0F000F039FE48B9102C7F
:100DC00007D200222146501E00F030F800206C604F
:100DD00070BD012070BD00003800002044000020DC
:100DE0000A4808B5016841F480410160006800F4D8
:100DF000804000900548001F016841F0805101606B
:100E0000006800F08050009008BD000044380240A7
:100E1000002809DB00F01F020121914040098000F9
:100E200000F1E020C0F8001170470000F0B40E4B54
:100E30001B680C46C3F30223C3F10705042D00D938
:100E40000425191D072901D2002300E0DB1E01261D
:100E500006FA05F1491E214099409E40761E164033
:100E60003143F0BC01F03EBF0CED00E0064900F05C
:100E7000070208684FF6FF03184040EA0220034AC1
:100E800010430860704700000CED00E00000FA0518
:100E9000034908B50020086202480068009008BDB8
:100EA00000000E4200700040034908B501200862AE
:100EB00002480068009008BD00000E42007000402B
:100EC0002DE9F843054600684FF00109C1074FF0CE
:100ED000000601D1400727D5DFF80C81C8F868600B
:100EE000FFF73CFE0746414C05E000BFFFF736FE2A
:100EF000C01B022857D820680001F7D46868810118
:100F0000287A41EA0070394984310860C8F868904D
:100F1000FFF724FE074604E0FFF720FEC01B02286F
:100F200041D820680001F7D52878800752D52F488E
:100F30004030016841F08051016000682C4C00F0A5
:100F400080500090206840F480702060FFF706FE1B
:100F5000074604E0FFF702FEC01B022823D82068E2
:100F6000C005F7D5214C7034206810F4407020D0B3
:100F7000A98901F4407181421BD020681D4920F4E9
:100F80004070C1F800900E6020602068C00710D04B
:100F9000FFF7E4FD064641F2883707E0FFF7DEFD84
:100FA000801BB84202D90320BDE8F883206880077F
:100FB000F4D5E9680D48C1F301220830032A0BD0AB
:100FC000016821F4F81101602068A989C1F30B01BF
:100FD000084320600020E7E70268074B22F4F8127C
:100FE00019400A430260EFE7000047420038024020
:100FF00000700040400E4742FFFCFF0F2DE9F04714
:101000000E46050065D0DFF81481D8F80000F7B26D
:1010100000F00700B04207D288F80070D8F800004E
:1010200000F00700B04254D128683D4C810712D52A
:10103000400703D5206840F4E0502060287800077E
:1010400003D5206840F4604020602068A96820F043
:10105000F000084320602878C0072DD03049686828
:101060000839012812D0022813D0032811D00968AA
:10107000890700292DDA216821F00301014321604D
:10108000FFF76CFD814641F2883A0EE0096889035A
:10109000EFE709688901ECE7FFF760FDA0EB0901C4
:1010A000514502D90320BDE8F0872068696800F047
:1010B0000C00B0EB810FEFD1D8F80010404601F0E2
:1010C0000701B14207D90770006800F00700B0427D
:1010D00001D00120E7E72878400705D52068E968B6
:1010E00020F4E050084320602878000706D52068E7
:1010F000296920F4604040EAC100206000F038F81F
:101100002168084AC1F30311515CC84006490860D0
:1011100006480068FFF744FE0020C4E7003C024098
:1011200008380240F08D0208440000203C000020F6
:101130000448054900680968044AC1F38221515CEA
:10114000C84070474400002008380240008E020862
:101150000448054900680968044AC1F34231515CFA
:10116000C84070474400002008380240008E020842
:10117000154810B5006810F00C02144813D014493B
:10118000042A0FD0082A0ED10F4C241F226823688E
:1011900002F03F025B0207D52068C0F38810A0FB75
:1011A000010106E0084610BD2168C1F38811A1FBCA
:1011B00000010023FFF704F82168C1F30141491C35
:1011C0004900B0FBF1F010BD083802400024F400E3
:1011D00040787D012DE9F84F04006ED02078DFF8CB
:1011E0004C93C007A9F104054AD009F10400016835
:1011F000C1F38101012908D00068C0F381000228F1
:101200000AD1D9F80000400206D52868800337D5F6
:1012100060680028E1D033E06068B0F5803F10D00E
:10122000B0F5A02F286810D020F4803028602868FE
:1012300020F4802028606068A8B1FFF78FFC064684
:101240000DE0286840F48030F4E740F48020286006
:10125000F7E700BFFFF782FC801B642873D828687B
:101260008003F7D50CE0FFF779FC064605E000BFE8
:10127000FFF774FC801B6428F0D828688003F7D43B
:101280002078DFF8AC8280074FF0000A3ED5A748EF
:10129000001D016811F00C0F08D00068C0F3810038
:1012A00002280BD1D9F80000400207D42868800733
:1012B00016D5E068012800D112E033E1E068B8B14A
:1012C0000120C8F80000FFF749FC064605E000BF12
:1012D000FFF744FC801B0228C0D828688007F7D598
:1012E0002868216920F0F80040EAC10028600DE07C
:1012F000C8F800A0FFF732FC064604E0FFF72EFC1A
:10130000801B02281FD828688007F7D420780007A0
:1013100022D5864F87486169703771B1012101601C
:10132000FFF71CFC064604E0FFF718FC801B0228B0
:1013300009D838688007F7D50EE0C0F800A0FFF79D
:101340000DFC064605E082E0FFF708FC801B022842
:101350007DD838688007F7D42078400768D5DFF853
:10136000CCB100270BF13C0BDBF80000C0000BD424
:10137000DBF8001041F08051CBF80010DBF80000E2
:10138000012700F0805000906B4E3068C00510D4EB
:10139000306840F480703060FFF7E0FB009005E0BB
:1013A000FFF7DCFB0099401A022850D83068C005CE
:1013B000F6D55E4EA0686C3601280FD0052830683F
:1013C00010D020F001003060306820F00400306060
:1013D000A068B8B1FFF7C2FB00900FE0306840F0A2
:1013E0000100F4E740F004003060F7E7FFF7B6FBD8
:1013F0000099411A41F28830814266D830688007EE
:10140000F4D50EE0FFF7AAFB009007E0FFF7A6FB7C
:101410000099411A41F28830814256D830688007DD
:10142000F4D42FB1DBF8001021F08051CBF800107C
:10143000A069C8B33D49091D0968C1F381010229AA
:101440004AD00228504607D0C8F8600000E03CE0CF
:10145000FFF784FB04463BE04746C8F86000FFF70F
:101460007DFB064605E000BFFFF778FB801B0228E6
:101470002BD828688001F7D4D4E907010843A16A72
:101480002E4A490802EB0141626A41EA821108438F
:1014900094F82C1040EA0161C9F800100120386668
:1014A000FFF75CFB044606E03EE000BFFFF756FB9B
:1014B000001B022809D828688001F7D534E000BF56
:1014C000FFF74CFB001B022802D90320BDE8F88F70
:1014D00028688001F4D427E00128F7D0D9F800006B
:1014E000E26900F4800191421CD1226A00F03F01C0
:1014F000914217D147F6C071626A0140B1EB821F79
:1015000010D1A26A4FF0FF3300F4403103EB5202D6
:10151000B1EB024F06D194F82C1000F07060B0EBE4
:10152000016F01D00120D1E70020CFE7043802404D
:1015300000004742800E4742007000400000FFFF5D
:1015400010B500680B4641680D480140080CD87082
:10155000C1F304245C7001F03F049C70C1F342317C
:10156000197052B901F0DAF8D870587801F0D6F84D
:101570005870987801F0D2F89870002010BD0000E3
:101580003FFFFF0010B50B460168896A596001688A
:101590000969C1F30E019960006801680E480140B5
:1015A000C1F305401870C1F306245C7001F07F049C
:1015B0009C70402404EA1141D97052B901F0AEF890
:1015C0001870587801F0AAF85870987801F0A6F8C9
:1015D0009870002010BD00007F7F7F0070B5040070
:1015E00002D0607F10B106E0012070BD002020779E
:1015F000204600F049F8022060772168CA2048623E
:10160000216853204862204601F09CF8FF250426FB
:1016100018BB206881681B4A114081602168886876
:1016200062681043D4E904231A4310438860216898
:10163000E068086120680169228941EA024101618C
:101640002068C16821F08001C16020688068800640
:1016500007D4204600F00EF918B12068456266777D
:10166000C2E72068016C21F4802101642068016CCC
:10167000A26911430164206845620120607700205F
:1016800070BD0000BFFF8FFF1FB5002100910191C9
:10169000029103910068084988420CD10220009011
:1016A000C00103906846FFF70BFC08B1FFF73AF85A
:1016B0000249012008601FBD002800403C0E47423F
:1016C0002DE9F0470446007F0B4601281FD04FF05C
:1016D000010984F81C9002206077DAB19878D978F3
:1016E00040EA014558781978000240EA4130054344
:1016F0002168CA204862216853204862204601F0D0
:1017000021F80026FF274FF0040860BB1AE00220F2
:10171000BDE8F0875878C10603D500F0EF000A3025
:101720005870D87801F003F80204587800F0FFFFF1
:1017300042EA0022987800F0FAFF0243187842EA61
:101740004035D5E70F480540206845602068C168EE
:1017500021F08001C1602068806880060AD420469C
:1017600000F088F830B12068476284F81D80267741
:101770000120CDE72068476284F81D90267700207D
:10178000C6E700003FFFFF002DE9F0470446007F59
:101790000D46012827D04FF0010A84F81CA0022032
:1017A00060772068002680684FEA4060F2B1002828
:1017B00000DBEE70A878297840EA01476878E9787C
:1017C000000240EA014007432168CA2048622168BC
:1017D00053204862204600F0B5FF4FF0FF084FF05D
:1017E0000409A0BB16E00220BDE8F087002800DB5A
:1017F000EE70287800F09BFF0204687800F097FFF5
:1018000042EA0022A87800F092FF0243E87842EA18
:101810000047D9E7164807402068076020688168BC
:1018200021F480218160D5E90301084321688A6899
:10183000104388602068C16821F08001C160206881
:10184000806880060BD4204600F014F838B1216877
:10185000C1F8248084F81D9026770120C4E7216810
:10186000C1F8248084F81DA026770020BCE7000082
:101870007F7F7F0070B504460068C16821F0A00139
:10188000C160FFF76BF905464FF47A7607E000BFB9
:10189000FFF764F9401BB04201D9032070BD2068F6
:1018A000C0688006F4D5002070BD70B5040009D072
:1018B000606A002540B125616561A56294F8510018
:1018C00040B10CE0012070BD6068B0F5827FF4D0BB
:1018D000E561F2E784F85050204600F045F8022018
:1018E00084F851002068016821F040010160A0885F
:1018F000218900F4827001F404410843A18901F4B4
:1019000000610843217C01F002010843217D01F0C0
:1019100001010843218B01F400710843217F01F08C
:101920003801084394F8201001F080010843218D0C
:1019300001F40051084321680860A069042101EA0C
:10194000104094F8241001F0100108432168486009
:101950002068C16921F40061C1616565012084F8D6
:101960005100002070BD000010B586B0044614215F
:101970006846FEF77DFC14492068884221D113484F
:10198000016841F480410160006800F480400590E6
:101990000E481038016841F0020101600068694694
:1019A00000F0020005904FF460400090022001908A
:1019B0000120029003200390052004900448FEF7C4
:1019C000C7FF06B010BD000000380040403802409C
:1019D0000004024070B515460E46040003D094F88A
:1019E000490010B107E0012070BD002084F84800D4
:1019F000204600F01AF804F108012068FEF7B4FE52
:101A00003146A2682068FEF7D9FED4E901022946D2
:101A1000236BFEF789FEA168206850F8212042F070
:101A2000010240F82120002070BDFEF757BF10B51D
:101A3000401EB0F1807F01D3012010BD4FF0E024A3
:101A400060610F21601701F04DF90020A0610720AF
:101A50002061002010BD70477047000070B590F8FD
:101A60003C20012A32D0012480F83C40022280F838
:101A70003D2003685A689D6822F070060A68324368
:101A80005A60134B02689A4214D0B2F1804F11D0C1
:101A9000104B9A420ED0104B9A420BD00F4B9A42E9
:101AA00008D00F4B9A4205D00E4B9A4202D00E4BF3
:101AB0009A4204D1496825F080031943916080F867
:101AC0003D40002180F83C10084670BD022070BDEA
:101AD000000001400004004000080040000C0040ED
:101AE00000040140004001400018004010B504000F
:101AF00003D094F83D0010B107E0012010BD002094
:101B000084F83C00204600F01FF8022084F83D00D5
:101B1000211D206800F0D0FE012084F8460084F8E2
:101B20003E0084F83F0084F8400084F8410084F8C7
:101B3000420084F8430084F8440084F8450084F8A7
:101B40003D00002010BD000008B500680B49884228
:101B500012D10B48016841F01001016000680022B9
:101B600000F01000009011463620FFF75FF9BDE845
:101B700008403620FFF74CB908BD000000100040B7
:101B80004038024090F83D10012901D001207047F3
:101B9000022180F83D100168CA6842F00102CA6063
:101BA00000681149884214D0B0F1804F11D00F491C
:101BB00088420ED00E4988420BD00E49884208D088
:101BC0000D49884205D00D49884202D00C4988420F
:101BD00004D1816801F00701062903D0016841F0B2
:101BE0000101016000207047000001400004004036
:101BF00000080040000C004000040140004001408B
:101C000000180040704770B50446006801694FF045
:101C10000005C943890715D4C168C943890711D490
:101C2000E91E016101202077206880698007204635
:101C300002D0FFF7E7FF04E000F098F8204600F03C
:101C400096F8257720680169C943490717D4C16808
:101C5000C943490713D46FF00401016102202077C2
:101C60002068806910F4407F204602D0FFF7CAFF49
:101C700004E000F07BF8204600F079F82577206832
:101C80000169C943090716D4C168C943090712D4B9
:101C90006FF008010161042020772068C069800787
:101CA000204602D0FFF7AEFF04E000F05FF82046C8
:101CB00000F05DF8257720680169C943C90617D48B
:101CC000C168C943C90613D46FF01001016108202F
:101CD00020772068C06910F4407F204602D0FFF7CB
:101CE00091FF04E000F042F8204600F040F825772C
:101CF00020680169C943C90708D1C168C943C90738
:101D000004D1891E0161204600F032F82068016983
:101D1000C943090609D4C168C943090605D46FF04F
:101D2000800101612046FFF796FE20680169C943E2
:101D3000490609D4C168C943490605D46FF040017A
:101D40000161204600F032F820680169C943890624
:101D50000BD4C168C943890607D46FF02001016123
:101D60002046BDE87040FFF777BE70BD70477047F2
:101D700010B500680A49884210D1012021F07CFA90
:101D8000084C2088411C2180B0F5FA7F06D34FF41F
:101D900000510548FEF7D4FE0020208010BD000051
:101DA000001000400000002000080240704770470B
:101DB00070470000F8B5016804460868CA684B69B6
:101DC00010F00F0F4FF0000559D003F0010602F498
:101DD0009077374365D0C10705D0D10503D5216C75
:101DE00041F001012164410705D5D90703D0216CD9
:101DF00041F002012164810705D5D90703D0216C88
:101E000041F004012164010707D502F020013143AC
:101E100003D0216C41F008012164216C00293AD0E3
:101E2000800604D5900602D5204600F0D8FD206833
:101E30004069216CC0F38010090700D460B32046CC
:101E400000F0A6FD20684069400621D520681430C6
:101E500050E8001F21F0400140E80012002AF5D1AF
:101E6000A06BA8B16C490165A06BFEF712FD0028BC
:101E700011D0A06B016D01B0BDE8F04008478306AA
:101E80000FD593060DD52046BDE8F84000F0A7BD5C
:101E90002046FFF78DFFF8BD2046FFF789FF256438
:101EA000F8BD266B2023012E79D1C60677D5D6063C
:101EB00075D50868486800904869400640D5A16B10
:101EC000086840680004000CEAD0A28D8242E7D97D
:101ED000E085C869B0F5807F2DD020680C3050E8CF
:101EE000001F21F4807140E80012002AF5D120681B
:101EF000143050E8001F21F0010140E80012002AD0
:101F0000F5D12068143050E8001F21F0400140E86E
:101F10000012002AF5D184F83E30256320680C3089
:101F200050E8001F21F0100140E80012002AF5D10E
:101F3000A06BFEF765FCA08DE18D401A81B229E00F
:101F4000A08DE18D401A81B2E08D0028A8D0002933
:101F5000A6D020680C3050E8002F22F4907240E8A0
:101F60000026002EF5D12068143050E8002F22F012
:101F7000010240E80026002EF5D184F83E302563AA
:101F800020680C3050E8002F22F0100240E80023B7
:101F9000002BF5D12046FFF70AFFF8BDFFE7050645
:101FA0002BD5150629D594F83D002128F5D1A06838
:101FB000B0F5805F01D12069B0B1206A411C216277
:101FC000216800784860E08C401E0004000CE0842A
:101FD000E3D12068C16821F08001C1602068C16838
:101FE00041F04001C160D8E7206A0088C0F30800D2
:101FF0004860206A801C2062E5E74006CDD5500687
:10200000CBD5CA68204622F04002CA6084F83D3031
:1020100000F06FF9C1E700008129000870B50400E5
:1020200004D094F83D00002510B106E0012070BDF9
:1020300084F83C50204600F023F8242084F83D002A
:102040002068C16821F40051C160204600F028FDDD
:102050002068016921F4904101612068416921F003
:102060002A0141612068C16841F40051C1602564C2
:10207000202084F83D0084F83E00002070BD000060
:10208000F0B587B0044614216846FEF7F1F82848F9
:10209000264F2668002226491038022303240725EC
:1020A000BE4223D10E6846F400360E60096801F482
:1020B00000310591016841F001010160006802AE44
:1020C00000F0010005900C20CDE9000386E8340003
:1020D00069461848FEF73CFC002201212620FEF745
:1020E000A5FE2620FEF794FE07B0F0BD124FBE42BB
:1020F000FAD10E6846F480260E60096801F480214A
:102100000591016841F002010160006802AE00F033
:10211000020005904FF44060CDE9000386E83400EA
:1021200069460648FEF714FCDEE700000044004064
:1021300040380240000002400048004000040240D5
:1021400090F83E30202B0ED159B152B190F83C306E
:10215000012B08D0012380F83C300023036300F0FA
:1021600025BD0120704702207047000070B5294C42
:10217000607800284CD060684FF480560025B0424B
:1021800002D30220656036E0234922780A54401CBD
:102190006060084410F8011C0A2932D110F8021CB2
:1021A0000D292ED110F8031C4B2902D052290CD036
:1021B00027E010F8040C4F2823D1174917A000F08E
:1021C00055FD6560A57065701BE010F8041C4F2973
:1021D00017D110F8051C522913D110F8061C5229EA
:1021E0000FD110F8070C45280BD10B490FA000F0B8
:1021F0003DFD01206560A070657031460648FEF720
:1022000037F8BDE87040012202490C48FFF798BF3B
:1022100070BD000020000020A2040020526563650C
:102220006976653A2025730A00000000BDD3CAD53F
:102230004552524F52A3BA25730D0A00BC03002029
:102240002DE9F843044690F83D001F4616460D461A
:1022500020284CD1C5B1BEB194F83C00012846D02D
:10226000012084F83C004FF00008C4F84080212091
:1022700084F83D00FEF772FCA6848146E684A068DF
:10228000B0F5805F03D004E00120BDE8F883206949
:1022900028B12E465FF0000584F83C800EE0002651
:1022A000FAE78021204600F09CFCA0B9AEB116F8F8
:1022B000010B21684860E08C401EE084E08C4B46B6
:1022C0004FF0000200970028EBD14FF0400120466C
:1022D00000F087FC30B10320D7E735F8020BC0F3DC
:1022E0000800E6E7202084F83D000020CDE702202A
:1022F000CBE77047FEE7000010B58EB01C216846A2
:10230000FDF7B6FF1C2107A8FDF7B2FF1A484FF0F2
:102310002041102201601949416000218160C160A3
:10232000C0E904128161C16113020162C0E90913AD
:102330009302C0E90B134163816341640F203C2386
:102340000090CDE9010303AC112384E80E000924B9
:102350000691CDE9074009AC082084E80F000D91F3
:1023600007AA69460448FFF735FB002801D0FEF7AD
:10237000D9F90EB010BD000058020020040100A0E1
:102380002DE9F04786B014216846FDF771FF4148FA
:102390000025016841F010010160016801F01001A1
:1023A0000591016841F004010160016801F0040138
:1023B0000591016841F080010160016801F0800130
:1023C0000591016841F001010160016801F001011E
:1023D0000591016841F002010160016801F002010C
:1023E0000591016841F0080101600068DFF8A880EC
:1023F00000F008004FF40056059000223146404698
:10240000FEF7A6FBDFF89490002202214846FEF773
:102410009FFB0122170339464846FEF799FBDFF878
:1024200080A0002239465046FEF792FB1C20CDE9E1
:1024300000050124694602941A48FEF789FACDE99D
:10244000006469464046CDE90245FEF781FA02265E
:102450008DE8700069461448FEF77AFA2020CDE92D
:102460000005694602944046FEF772FAB81CCDE9B1
:102470000004CDE9024669464846FEF769FA00972E
:10248000CDE90145694650460395FEF761FA06B06D
:10249000BDE8F087303802400008024000040240E6
:1024A000000C024000100240000002400D4810B530
:1024B0000B4901600C49416000214FF4804281606A
:1024C000C0E9031241618161C1610162FEF74CFB09
:1024D000002803D0BDE81040FEF724B910BD00006D
:1024E00000540040A8020020A086010010B586B06C
:1024F00014216846FDF7BCFE1E4800241C490594C3
:10250000C0E900147F218160FF21C0E90314446108
:102510008461FFF763F808B1FEF704F912208DF823
:10252000000014208DF801008DF802400394002271
:10253000694610480494FFF727F908B1FEF7F2F84E
:1025400002208DF8140007208DF815000F208DF85B
:10255000160019208DF81700002205A90548FFF77D
:10256000AFF8002801D0FEF7DDF806B010BD00007E
:1025700000280040FC020020104810B50E49016000
:102580004FF48271416000218160C1604FF400729C
:102590000161C0E905121822C0E907214162816288
:1025A0000A21C162FFF781F9002803D0BDE810407D
:1025B000FEF7B8B810BD0000003800401C03002032
:1025C0001CB500240F4800940D490194016054216A
:1025D000C0E9011440F2E731C16080218161FFF759
:1025E00085FA08B1FEF79EF8009469460548019403
:1025F000FFF734FA002801D0FEF794F81CBD000064
:1026000000100040740300200C4810B50A49016016
:102610004FF4E1314160002181600C22C160C0E9CA
:1026200004128161C161FFF7F9FC002803D0BDE805
:102630001040FEF777B810BD00440040BC030020F6
:102640000C4810B50A4901604FF4E13141600021A6
:1026500081600C22C160C0E904128161C161FFF791
:10266000DDFC002803D0BDE81040FEF75BB810BDCC
:102670000048004000040020FEE7FEE7704700002D
:1026800010B5B4B0142105A8FDF7F2FD00202A9082
:10269000202216492BA8FDF7C4FD002205A91448E5
:1026A000FEF770FF00222AA91148FEF749FF9DF8A6
:1026B000A8002BAC9DF8163054F8200001AC9DF812
:1026C00015209DF8141084E80F009DF8AA000090D2
:1026D0009DF8A9309DF8AB2006A10AA800F0EEFAFB
:1026E0000AA826F01BF934B010BD0000708D020856
:1026F000FC0200203230253032642D253032642D2A
:102700002530326420257320253032643A2530325A
:10271000643A253032640D0A00000000010901EB23
:10272000810100F00F0000EB4100C0B270470021B2
:1027300002E00A38C0B2491C0A28FAD2090740EA66
:102740001160704770B504460068C168490614D42A
:102750004FF0FF31C160FEF701FA05464FF47A767B
:1027600007E000BFFEF7FAF9401BB04201D9032091
:1027700070BD2068C0684006F4D5002070BD704769
:102780002DE9F04F87B08846DDE911B681461D4638
:10279000174614216846DDF840A0FDF769FD0024C6
:1027A0000594FEF781FB8DF800908DF801808DF87F
:1027B00002708DF803400394002269460F48049488
:1027C000FEF7E2FF08B172B6FEE7A5F5FA658DF8EF
:1027D00017508DF815A08DF816B006B907268DF89C
:1027E0001460002205A90548FEF76AFF08B172B619
:1027F000FEE7FEF74DFB07B0BDE8F08FFC020020BE
:10280000FEF7ACBA30B593B030216846FDF730FD25
:1028100014210CA8FDF72CFD1E480024016841F08E
:1028200080510160006800F0805011901A480168E2
:1028300041F4804101600068022500F4804011905D
:10284000062000900120029003901020049006952D
:102850000820CDE90740A820CDE9090504200B9008
:102860006846FEF7B7FC08B172B6FEE70F20CDE967
:102870000C054FF4A050CDE90E404FF4805010905D
:1028800005210CA8FEF7BAFB002801D072B6FEE7BE
:1028900013B030BD4038024000700040024801686B
:1028A00041F470010160704788ED00E00148FFF7D6
:1028B000AAB9000074030020F0B50268254C264D2B
:1028C000264E274F274B4FF0804CA04209D0604541
:1028D00007D0A84205D0B04203D0B84201D09842F8
:1028E00004D122F0700E4A6842EA0E02A0421BD0C8
:1028F000604519D0A84217D0B04215D0B84213D0C5
:10290000984211D0184DA8420ED0184DA8420BD0B5
:10291000174DA84208D0174DA84205D0164DA84221
:1029200002D0164DA84203D122F44075CA682A434A
:102930004D6922F080022A4302608A68C2620A68F6
:102940008262A04201D0984201D10969016301214C
:102950004161F0BD0000014000040040000800405B
:10296000000C0040000401400040014000440140D0
:102970000048014000180040001C004000200040BA
:1029800010B5806B0021C185C184FFF711FA10BD1D
:1029900001680C3151E8002F22F4907241E80023C5
:1029A000002BF5D10168143151E8002F22F001020B
:1029B00041E80023002BF5D1016B012909D1016801
:1029C0000C3151E8002F22F0100241E80023002BC7
:1029D000F5D1202180F83E1000210163704708B531
:1029E00090F83E10222901D0022008BD82684FF4E1
:1029F00080539A4201D1016921B1816A9A421BD068
:102A00004AB10AE00268816A5268C2F308020A8089
:102A1000816A891C08E0026972B10268526802F09A
:102A20007F020A70816A491C8162C18D491E0904B6
:102A3000090CC18503D019E002685268F1E701680A
:102A4000CA6822F02002CA600168CA6822F4807253
:102A5000CA6001684A6922F001024A61202180F8B7
:102A60003E10016B012903D0FFF780FB002008BD59
:102A70000021016301680C3151E8002F22F010029F
:102A800041E80023002BF5D101680A68D20602D57F
:102A90000A6849680091818DFFF789F9E6E700002F
:102AA00070B5044600680169E26821F440511143A1
:102AB00001612169A068E269084361691143084323
:102AC0002168CA6849F20C639A430243CA602068CD
:102AD0004169A26921F44071114341613149206883
:102AE000884202D03049884202D1FEF731FB01E032
:102AF000FEF71EFBE2690023192164253226B2F598
:102B0000004F626828D0A0FB0101930F9200FDF7EF
:102B100057FB0146B0FBF5F06FF01802504301EB94
:102B2000800006EB0010B0FBF5F000F0F002B1FB06
:102B3000F5F002EB0012B1FBF5F06FF0180358430B
:102B400001EB800006EB0010B0FBF5F000F00F0089
:102B500021681044886070BDA0FB010192185B41A0
:102B6000FDF72EFB0146B0FBF5F00201B1FBF5F0DD
:102B70006FF01803584301EB800006EBC000B0FB78
:102B8000F5F000F0F80002EB4002B1FBF5F058431D
:102B900001EB800006EBC000B0FBF5F000F0070091
:102BA000D6E70000001001400014014081628285D8
:102BB000C28500210164222280F83E2080F83C106A
:102BC0000168CA6842F48072CA6001684A6942F0CA
:102BD00001024A610068C16841F02001C160002023
:102BE00070472DE9F041984617460E460446069D6B
:102BF00027E0681C25D02DB1FDF7B0FFA0EB080041
:102C0000A8421ED920680C3050E8001F21F4D07172
:102C100040E80012002AF5D12068143050E8001F67
:102C200021F0010140E80012002AF5D1202084F8AB
:102C30003D0084F83E00002084F83C000320BDE8FD
:102C4000F0812068006836EA000004D00020B84215
:102C5000CFD00020F3E70120F9E700000148FFF79B
:102C6000A9B80000BC030020FEE700000FB4054B2C
:102C700010B503A9044A029801F0FAFA10BC5DF8F5
:102C800014FB0000C1E20008500200200FB41CB584
:102C90000246002007AC00290BD0491ECDE90021D7
:102CA000054B6A462146069801F0E2FA009A002197
:102CB00011701CBC5DF814FBD34600080FB4084B20
:102CC00010B504A902AA039801F0D2FA044602A999
:102CD000002001F009FD204610BC5DF814FB000047
:102CE000E94600080907090E002804DB00F1E0208E
:102CF00080F80014704700F00F0000F1E02080F829
:102D0000141D7047004870475402002002E008C8B4
:102D1000121F08C1002AFAD170477047002001E055
:102D200001C1121F002AFBD1704770B5044600256F
:102D30006FF02F0608E02068411C2160007805EB49
:102D4000850106EB410145182068007800F004F881
:102D50000028F0D1284670BD3038092801D801205C
:102D6000704700207047000010B54421074800F06C
:102D700037FD00221E21064820F0D8FA054CA0603D
:102D800002F04AF80020207010BD0000A42F00209F
:102D9000CD4E0008B80100202DE9F0470E468146CF
:102DA00017461146304600F01CF94FF0FF3A002854
:102DB0007DD000223946304600F0BFF800284FF0A1
:102DC000000075D1B6F90480B6F900305246A8EB80
:102DD0000301491C0AFA81F10FFA81FAB6F906C01B
:102DE000B6F90210ACEB010C0CF1010C02FA8CF2FA
:102DF000B7F802C012B2ACEB010C0FFA8CFCBCF1BC
:102E0000000F0EDD63F30F0468F30F0501EB0C00F8
:102E100061F31F4460F31F45C9F800400120C9F861
:102E20000450B7F906107388CB1AD21A12B2002ACE
:102E300013DDB6F9063099420FDA338863F30F04D5
:102E4000B38861F31F4463F30F05114461F31F4519
:102E500009EBC001401C0C604D60B7F90220B6F9C7
:102E600002108A4200DD1146B7F90630B6F9062095
:102E7000934200DA1A463B88B6F900C0521AA3EB17
:102E80000C031BB212B2002B10DD002A0EDD6344CE
:102E900063F30F058B1863F31F456CF30F0409EB05
:102EA000C00361F31F441C605D60401C01E01AE038
:102EB00017E0B7F9043036889F1BAAEB070636B235
:102EC000002E0EDD63F30F0461F31F44334463F3FC
:102ED0000F05114461F31F4509EBC001401C0C6054
:102EE0004D60BDE8F0875046FBE770B5B1F90030A2
:102EF000B2F90040A34200DC23460380B1F902503E
:102F0000B2F90240A54200DD2C464480B1F90460CC
:102F1000B2F90450AE4200DA35468580B1F90610A8
:102F2000B2F90620914200DB1146C1800120AB427C
:102F300001DC8C4200DD002070BDF8B50D46044672
:102F4000B0F90000B1F900101646884247DBB4F929
:102F50000210B5F90220914241DBB4F90410B5F931
:102F6000042091423BDCB4F90610B5F906209142E9
:102F700035DC96B3ADF800006088ADF8020032464B
:102F80006946284600F099F8002827D0A088ADF8B7
:102F900000006088ADF8020032466946284600F01D
:102FA0008CF800281AD02088ADF80000E088ADF831
:102FB000020032466946284600F07FF800280DD00E
:102FC000A088ADF80000E088ADF8020032466946FE
:102FD000284600F072F8002800D00120F8BD00203B
:102FE000F8BDB0F90020B1F904309A4213DCB0F911
:102FF0000420B1F900309A420DDBB0F90220B1F99A
:1030000006309A4207DCB0F90600B1F90210884296
:1030100001DB0120704700207047F8B50D460446DB
:10302000B0F90400B1F900101646884243DBB4F948
:103030000600B5F9021088423DDBB4F90000B5F98D
:103040000410884237DCB4F90210B5F90620914229
:1030500031DC76B3ADF800006088ADF8020032468E
:103060006946284600F029F818BBA088ADF8000092
:103070006088ADF8020032466946284600F01DF827
:10308000B8B92088ADF80000E088ADF802003246FB
:103090006946284600F011F858B9A088ADF800003C
:1030A000E088ADF8020032466946284600F005F88F
:1030B00008B10020F8BD0120F8BD2DE9FC411446FF
:1030C0000E46B1F90020B0F9001005468A423ADBFD
:1030D000B5F90400824236DCB6F90270B5F9022077
:1030E000974230DBB5F906309F422CDC002C75DDB1
:1030F000401A9A1A401C521C00B212B200EBD07057
:1031000002EBD27240105210904200DB1046844213
:1031100000DD0446ADF80010288800222044ADF8F8
:1031200004006888ADF80200688831462044ADF894
:1031300006006846FFF7C1FF40B1BDF80400204417
:10314000ADF804003FE00020BDE8FC81E8880022E3
:10315000001BADF80200E888ADF80600314668466D
:10316000FFF7ABFF28B1BDF804002044ADF8040020
:1031700011E0A8880022001BADF80000A888ADF877
:10318000040031466846FFF798FF50B1BDF80000D3
:10319000001BADF80000BDF80200001BADF80200F6
:1031A00016E06888ADF80200688800222044ADF877
:1031B000060031466846FFF780FF70B1BDF8000099
:1031C000001BADF80000BDF806002044ADF8060075
:1031D000314668461DF07CFDB6E7FFE70120B3E706
:1031E00010B5B1F90040B2F900309C4200DA234634
:1031F0000380B1F90240B2F902309C4200DA234662
:103200004380B1F90440B2F904309C4200DD23460A
:103210008380B1F90610B2F90620914200DC114614
:10322000C18010BD2DE9FC41054620F01BF80026A9
:103230007D4C074600960DB1E86801E012F0D8FF1A
:10324000606000691DF040FC6068406908B11DF0D5
:103250003BFC6068C0691DF037FC6068006A1DF0C7
:1032600033FC6068016991B11DF0C6FD22F0A6F83B
:1032700021F0CCFD6068B0F85011E1B30068017C2A
:10328000C9071ED0C0684068D8B1002514E0A0F876
:103290005061BDE8FC81411991F8301151B900F538
:1032A000AC7000F0F4FA616801EBC5010A6B0260D2
:1032B000496B41606D1CADB26068B0F85011A94215
:1032C000E9D860684FF48071303019F0E7F8606831
:1032D000202100F5987019F0E1F86068A0F85061BD
:1032E00038461FF0B9FF009060680068436A13B168
:1032F00022680099984718F04FFF00F0CFF800F0CF
:10330000A1F84A4D6F69EFBB12F072FF12F09EFFF9
:1033100017F0F4FD074600227F211DF0EEFA00228F
:103320001146104612F088FA0190BDF804100022F0
:1033300038461DF0D1FAFF221146104612F07CFAF1
:103340000190BDF80410002238461DF02BFB00222E
:10335000032138461DF01CFB0022032138461DF0D6
:1033600008FB0022032138461DF008FB0022032140
:1033700038461DF008FB0022032138461DF00DFBE6
:103380002BA100E009E0384618F03EFC00231A4665
:103390000621384619F06EFC6F6128681FF05CFF4B
:1033A000B0F5967F0DD2206841F2883188427FF6D1
:1033B00070AF6868009908446860A868401CA860FD
:1033C00067E71FF04FFF28606068406828B1006819
:1033D0004FF47A71B1FBF0F000E02120696809B97F
:1033E00001216960A968E1B14FF47A7251436A68BA
:1033F000B1FBF2F46E60AE60844200D904462869E5
:1034000020442861E868401CE8601FF0C1FFC0F15B
:10341000640302B022463846BDE8F04105A118F029
:103420002ABC0446E6E7000078000020102E0020A9
:103430003F0000002575204650530A25752525209C
:103440004350550070B50A4D002400BFC4EBC406BC
:1034500055F8260008B118F013FF05EB86001C2173
:1034600019F01CF8641CE4B2042CEFD370BD00000A
:1034700080300020084949680AE04A68824202D048
:103480000A68824203D10A7E42F001020A76496943
:103490000029F2D1704700004C0000207047000066
:1034A0000421014800F09CB9982F002020210148F8
:1034B00000F096B9B02F00202DE9FF410446DDE968
:1034C0000A671D004FF0000002D1B6F5807F2BD0B7
:1034D000039001900290ADF80C100090ADF804102C
:1034E000ADF80A20ADF80E203B4632462946684624
:1034F0001DF04EFB3B463246294601A81DF048FB15
:103500003B463246294602A81DF042FB3B46324666
:10351000294603A81DF03CFBBDF90000BDF90430AD
:10352000984209DA054608E02080491E6080A180A3
:10353000521EE280BDE8FF811D46BDF90820BDF99D
:103540000C108A4201DA164600E00E46B54203DA54
:10355000984206DB184604E08A4201DA104600E091
:103560000846801E2080BDF90030BDF9042093423A
:1035700001DD1D4600E01546BDF90800BDF90C103F
:10358000884201DD064600E00E46B54205DD934265
:1035900001DD194604E0114602E0884200DD0146E3
:1035A000891CA180BDF90230BDF90620934201DAE1
:1035B0001D4600E01546BDF90A00BDF90E1088420F
:1035C00001DA064600E00E46B54205DA934201DA1A
:1035D000194604E0114602E0884200DA0146891EDD
:1035E0006180BDF90230BDF90620934201DD1D4620
:1035F00000E01546BDF90A00BDF90E10884201DD54
:10360000064600E00E46B54205DD934201DD19464F
:1036100004E0114602E0884200DD0146891CE18099
:1036200088E700002DE9F04115460E460746114C8B
:103630001FF018FE80462B4632463946204616F0CB
:1036400065FF20B10020A062E06950B110E02C219C
:10365000204618F023FF4FF00040A0620020BDE894
:10366000F08140461FF0F8FDE06108B90120E061FB
:103670002046F4E7D42F002010B51421074800F0AD
:10368000AFF816F009FF40B10549016005494160F6
:10369000054981600549C16010BDFEE7BC2F0020CF
:1036A0006D9E0108E9A10108B9A30108399E01082E
:1036B0007FB50E46040003D112F09AFD04002CD011
:1036C00012F00AFE002828D094F82800400724D4DD
:1036D000002506B3ADF80050ADF80250204612F0B8
:1036E0009FFD401EADF80400204612F0DFFD401E95
:1036F000ADF806006A46314602A8FFF7F6FB00283F
:103700000BD02068017C890708D5DDE90001C4E9F8
:103710000C01012029E0A4F850517FBD82690AB153
:1037200002A9904700260AE004EBC601002202A885
:103730003031FFF702FC0028EFD1761CB6B2B4F8A6
:103740005001B042F0D880B2202804D204EBC0006F
:1037500002A9303004E0A4F8505104F13000694669
:1037600010F0FBFAB4F85001401CA4F85001606856
:103770000028D2D01FF0BAFE7FBD70B5054600F01C
:1037800012F804460CE02146284600F01EF80646D2
:103790002146284600F0A2F8204618F071FD344674
:1037A000002CF0D170BD002800D04068704700B5F3
:1037B00003460022FFF7F7FF03E01846521C00F013
:1037C00004F80100F9D1104600BD0068091D4058F9
:1037D0007047006840587047002800D080687047E4
:1037E00000224260C91C21F0030182600160704721
:1037F00070B504460068083018F0B6FC050013D018
:1038000001460022204620F005FF29462046626836
:1038100020F0FAFE616819B12A46204620F0FAFE2F
:103820006560A06800B9A560284670BD2DE9F0412B
:103830000C4606000AD04CB1FFF7B5FFA04208D1F4
:103840003046FFF7D5FF051E01D01EE00020BDE881
:10385000F0813068083018F087FC051EF7D030681A
:103860002A4607593046394620F0CEFE3A462946C8
:10387000304620F0CFFE2A462146304620F0CAFED0
:1038800022462946304620F0BFFE2846DFE770B5C5
:1038900004460068083018F067FC050013D00146A4
:1038A0000022204620F0B0FE29462046A26820F0E3
:1038B000B1FEA16819B12A46204620F0A5FEA560F8
:1038C000606800B96560284670BD28B1416809B9D3
:1038D000806808B1002070470120704770B504006F
:1038E0000DD0FFF760FF00228842204608D1FFF785
:1038F0006CFF6060011E01D000221EE0A26070BD5E
:10390000FFF76AFF8842206808440AD10168A16075
:1039100029B12046BDE87040002220F075BE6260EB
:1039200070BD05682046FFF750FF0646024629464F
:10393000204620F069FE2A4631462046BDE8704008
:1039400020F068BE10B50446006882680AB12146BE
:10395000904720680068002801D02060F5E710BD7E
:103960008068002801D0B0F91600704780680028F0
:1039700001D0807E8009704770B5164605460C461A
:1039800051EA06001AD0284619F0EEFAA868012379
:103990003246018A21440182A868418A3144418229
:1039A000214628461BF066FE00220B21284615F012
:1039B00001FD012803D128461BF0B5FD012070BD93
:1039C00077B581B00E46050017D062221BF0DCF8F7
:1039D000040012D0206880B12846314663221BF0D3
:1039E000D3F810F0FF0208D02368204603999847C7
:1039F0000090BDF80000ADF80C00039804B070BD55
:103A00002DE9F047074692B0408C1A9E40F008001E
:103A1000788490463A8499468A46328938461BF023
:103A2000B3F80546A7F820903289514638461BF076
:103A3000ABF80446788CA54220F00800788403D1C6
:103A40002904B1EB044F68D0A7F820803289514691
:103A500038461BF099F805468046A7F82090514655
:103A600038460BF005FB318900682A461EF046FBFC
:103A700030890B2823D147F6FF794D4501D04C45BD
:103A80001DD138461BF047FA00EBD0704510384680
:103A90001AF01FF900EBD0704010C84506D1691C20
:103AA000431C994200DA00E0194688464C4506D18D
:103AB000691C421C914201DA6C1C00E01446194852
:103AC000FFF796FE05002BD02F60C5E903843089EF
:103AD000A8806846C5F808A00FF0B2FB1248FF2185
:103AE000CDE9005011480290114803900020089041
:103AF000CDE9090130880B9070889DF84210404252
:103B00000C90F0680790002060F300018DF84210DF
:103B10003069069068460FF007FC12B0BDE8F087E8
:103B2000FEE70000C82F0020418302082D8502080F
:103B30008984020814210148FFF752BEC82F0020D3
:103B40002DE9F84F00259046894606462C46042765
:103B5000E5E000BFF16807EBC400085882017AD4A1
:103B600080B230EA090211D05FF0000230EA0800AA
:103B70000ED0002082426ED051F834A06A46102147
:103B800050461EF01DF8002871D103E00122EDE738
:103B90000120EFE76A46112150461EF011F8002877
:103BA00065D16A46122150461EF00AF800285ED1FF
:103BB0006A46132150461EF003F8002857D16A4682
:103BC000152150461DF0FCFF002850D16A461421F3
:103BD00050461DF0F5FFE8BB6A460A2150461DF02D
:103BE000EFFFB8BB6A466B2150461DF0E9FF88BB6A
:103BF0006A466C2150461DF0E3FF58BB6A4601211E
:103C000050461DF0DDFF28BB6A46042150461DF0DA
:103C1000D7FFF8B96A46022150461DF0D1FFC8B956
:103C20006A46032150461DF0CBFF98B96A4605212C
:103C300050461DF0C5FF68B96A46062150461DF082
:103C4000BFFF38B96A46322150461DF0B9FF08B9A6
:103C50006A4601E00BE061E06E2150461DF0B0FFC6
:103C600028B96A466D2150461DF0AAFF10B1032005
:103C7000BDE8F88F6A46692150461DF0A1FFE8BBF8
:103C80006A466A2150461DF09BFFB8BB6A466E210A
:103C900050461DF095FF88BB6A466D2150461DF0C9
:103CA0008FFF58BB6A46372150461DF089FF28BB5D
:103CB0006A46382150461DF083FFF8B96A4635211F
:103CC00050461DF07DFFC8B96A46402150461DF0A0
:103CD00077FF98B96A46452150461DF071FF68B9D3
:103CE0006A46412150461DF06BFF38B96A464221B1
:103CF00050461DF065FF08B96A4600E00AE043211E
:103D000050461DF05DFF28B96A46492150461DF016
:103D100057FF08B1022501E005B90125641C708C2C
:103D2000C0F30510A0423FF615AF2846A0E70000FB
:103D300001484068704700007800002004480021D6
:103D400041600161C16081600160416170470000B4
:103D5000102E0020C0F30410072800D90720704758
:103D6000A0F57F41FF3905D0002804D0712803D287
:103D700008490AE01F2070470749713880B2096876
:103D800029B1064A5268904201D2085C704700206F
:103D900070470000A4CD0208E4010020F8010020D3
:103DA00010B518210348FFF71BFD034901200870D7
:103DB00010BD0000742F0020000200202DE9F0410A
:103DC00090460C46050015D0FCF785FA0A4F0646CA
:103DD0002146BA68284690470446BA6828194146E1
:103DE00090470146701A03E06218AA5C2A55641CC9
:103DF000A042F9D2BDE8F081140200202DE9F04183
:103E0000094D90460E466A681C460746194690477B
:103E1000306020B120686A68384400219047C8F8B3
:103E20000000BDE8F0810000140200202DE9F04FF1
:103E300087B08A46DDE910581F46934604460021A4
:103E400005B129805CB12078002809D0BAF1000FB3
:103E500005D0002618F0060F15D0002004E0002041
:103E600007B0BDE8F08F401C215C0A2904D00D2961
:103E700002D00029F7D100E0401C002DF0D04FF017
:103E8000FF312980ECE75FEA887001D541F6FF77C2
:103E9000894608468DF81410049127E00498CDF85F
:103EA000189068B34FF0000C05AA06ABCDF80CC013
:103EB000CDF80080CDE9013220443B465A465146B8
:103EC0001FF056FC06997A1A314417B20EB288B127
:103ED00004990144049120780A280BD00D2809D0B8
:103EE000605C0A280FD00D280DD00846205C08B170
:103EF000002FD3DC049848B105B12E800498AFE7B9
:103F00004FF0010CD0E7481C0490F3E7064A04A9DF
:103F1000204652689047002DF0D0014600225046BE
:103F200015F05CFB06B2E8E7140200202DE9F04131
:103F30001746884606001ED0002F1CD0FCF7CBF990
:103F400004463846FCF7C7F9050014D00B4A2C4448
:103F50004146926830469047411903E0621BB25CCB
:103F60003255641EA142F9D930442A463946BDE88B
:103F7000F04118F055BABDE8F081000014020020AD
:103F800000230278232902D0012A0DD00FE02AB1A4
:103F90000021012A04D0022A04D008E0012101E016
:103FA000017004E0017001E0202902D001231846CD
:103FB00070470221F6E72DE9F0410E4680460246A1
:103FC0000021334608461FF011FE04460027401C1E
:103FD00018F0CAF8050008D02F5533464246611C38
:103FE0001FF004FE2846BDE8F081FEE72DE9F0470A
:103FF0001E4614460D468246DDF8209015E000BFAF
:104000004FEA540808FB0657394650464A4690473F
:10401000002808DD44F30000C0EB540407EB06055C
:10402000A4F1010401E005DA4446002CE8D1204661
:10403000BDE8F0873846FBE72DE9FC5F9B460CABFB
:104040008A468146DDE9116093E81210DDE90F57D9
:104050005FEA80784FF030031AD45EB15FEAC0782F
:1040600008D000F00C0858EA0C0803D0761E01E0D6
:104070000B55641CBC4204D2202CF9D301E00B5533
:10408000641C5FEAC07803D0B44201D2202CF6D37E
:104090005FEAC06825D55FEA40580AD44CB1BC42FB
:1040A00001D0B44205D1641E03D0102D03D1641E8B
:1040B00004E0102D02D0022D0AD00EE0850603D4B4
:1040C000202C1ED2782506E0202C1AD2582502E09A
:1040D000202C16D262250D55641C202C11D20B55B4
:1040E000641C202C0DD2BCF1000F01D02D2306E062
:1040F000430701D52B2302E0030702D520230B55EC
:10410000641CCDE900BAC846154681468B46AA46CE
:10411000800714D1274607E02A46DDE900316D1CEF
:104120002020C446E0477F1CB742F5D307E02A466B
:104130006D1C641EDDE900311BF80400C047002C33
:10414000F5D15FEA897006D409E02A46DDE900313D
:104150006D1C2020C047A5EB0A00B042F5D32846CD
:10416000BDE8FC9F2DE9F04F8FB099468B46DDE905
:104170001818DDE91C63DDE91A47924686460022DD
:1041800009B923F01003580507AD00D5C9B1B1FB3B
:10419000F4F004FB1010C0B20A2801D2303009E05C
:1041A0005FEA836C02D54FF0410C01E04FF0610CE7
:1041B00060440A38B1FBF4F1A854521C09B1202A1A
:1041C000E5D3CDF80880CDE90563CDE90052CDE90E
:1041D00003474B46524659467046FFF72DFF0FB036
:1041E000BDE8F08F2DE9FF4F8FB01CACDDE92395C2
:1041F00094E8030820AC94E8C004002450EA0102CB
:1042000001D125F010056A050DF11C0802D550EA10
:10421000010217D032463B46FBF7D2FFD2B20A2A40
:1042200001D2303206E0AB0601D5412300E0612324
:104230001A440A3A08F80420641C50EA010201D02A
:10424000202CE7D3CDE90084CDF808B0CDE9059561
:10425000CDE9036A0FAF97E80F00FFF7EDFE13B04B
:10426000BDE8F08F9A4200D2885470477047000032
:104270002DE9FF4F8DB00F460546002606E02528A4
:104280000BD0DDE90F1290476D1C761C28780028B2
:10429000F5D111B03046BDE8F08F0024A246A1460A
:1042A0000122EC4900E0044315F8013F203B02FAEB
:1042B00003F00842F7D128782A2810D06FF02F0297
:1042C0002878A0F13001092914D80AEB8A0102EB01
:1042D000410144F0020400EB010A6D1CF0E701CF3C
:1042E0005FEA000A03D544F40054CAF1000A44F01E
:1042F00002046D1C28782E2817D115F8010F44F000
:1043000004042A280ED06FF02F022878A0F1300183
:1043100009290AD809EB890102EB410100EB0109E7
:104320006D1CF2E757F8049B6D1C28786C280FD0A1
:1043300006DC4C2817D068280DD06A2814D104E078
:10434000742810D07A280FD10DE044F400140AE04C
:1043500044F4801401E044F440146978814202D1AD
:1043600004F580146D1C6D1C2A786E2A1FD00CDC9D
:10437000632A31D004DC002A8BD0582A11D1A3E063
:10438000642A68D0692A0CD165E0732A2ED004DC37
:104390006F2A73D0702A04D19BE0752A6FD0782AD7
:1043A0006ED01046DDE90F129047761C50E1C4F341
:1043B0000250022806D0032809D0042801CF09D0D2
:1043C000066045E101CFF117C0E9006140E101CF8E
:1043D00006803DE106703BE117F8040B8DF8000004
:1043E00000208DF80100EB46012003E057F804BBE4
:1043F0004FF0FF3061074FF0000102D40DE008F1EB
:104400000101884649450FDA8045F8DB1BF80810A2
:104410000029F4D108E008F1010188468142FADB65
:104420001BF808100029F6D1DDE90F23AAEB0800DC
:104430008146214600F036F9304400EB080604E0DE
:10444000DDE90F121BF8010B9047B8F10108F7D214
:1044500021464846F7E00A21C4F302534FF0000B0F
:104460000891022B04D001CFC117032B09D00AE019
:10447000FF1D27F00707F7E8020108E032E01FE020
:1044800020E000B2C117042B01D140B2C117031EB6
:1044900071F1000307DA4FF0000CD0EB0C006CEB6D
:1044A00001012D2302E0230504D52B238DF82430B0
:1044B000012303E0E30701D02023F7E7984658E003
:1044C0000A2110E010210EE010204FF0000B0890A0
:1044D0000CE010214FF0000B44F004044FF00809E9
:1044E000089103E008214FF0000B0891C4F3025338
:1044F000022B04D001CF0021032B06D006E0FF1DC4
:1045000027F00707F7E8020103E080B2042B00D18F
:10451000C0B24FF0000823072BD5702A07D0DDF872
:1045200020C08CF0100C5CEA0B0C05D00EE0402390
:104530008DF82430012308E050EA010306D030232F
:104540008DF824308DF8252002239846DDF820C010
:104550008CF0080C5CEA0B0C0BD150EA010301D182
:10456000630706D530238DF824304FF00108A9F1F8
:104570000109582A04D038A20B9208AA0A920BE02B
:104580003AA2F9E75B46089AFBF71AFE0B9B9B5C85
:104590000A9A521E0A92137050EA0102F2D10A9846
:1045A000ADEB000000F1200B600702D524F480344D
:1045B00001E04FF00109D94502DDA9EB0B0000E055
:1045C000002000EB0B0141440890AAEB010AE00334
:1045D00006D4DDE90F232146504600F063F8064477
:1045E0004FF0000908E009A911F80900DDE90F12F0
:1045F000904709F10109761CC145F4DBE0030CD5B5
:10460000DDE90F232146504600F04CF8064404E053
:10461000DDE90F1230209047761C0899481E08905B
:104620000029F5DC08E00A980A990078491C0A91EB
:10463000DDE90F129047761CBBF10001ABF1010BD5
:10464000F1DC21465046DDE90F2300F019F806445D
:104650006D1C1BE609280100303132333435363702
:1046600038396162636465660000000030313233BE
:10467000343536373839414243444546000000005E
:104680002DE9F041044600251E461746880404D44F
:1046900005E039462020B0476D1C641EF9D5284638
:1046A000BDE8F0812DE9F041044600251E46904604
:1046B000C80301D5302700E02027880404D505E091
:1046C00041463846B0476D1C641EF9D52846BDE802
:1046D000F0814A68002A06D00A68531C0B601070EB
:1046E0004868401E486070470A68531C0B60107091
:1046F000704700002DE9FF4F89B005460A98002455
:104700009246002800D1FE4D8FE1252804D0224694
:10471000641C53460A990BE2491C4FF000080846F6
:104720000C9101782B2919D004DC202919D02329D8
:1047300004D119E02D290ED0302909D00026C8B2A5
:10474000FEF70AFBB0B10CA8FEF7EFFA06461FE031
:1047500048F001010AE048F0020107E048F00401D6
:1047600004E048F0080101E048F01001401C8846D0
:104770000C90D6E70C9908782A2809D1169840C8D9
:104780001690002E02DA48F002087642491C0C917D
:104790000C984FF0000B01782E2919D1401C0C9079
:1047A00048F480680078FEF7D7FA20B10CA8FEF72D
:1047B000BCFA83460CE00C9A10782A2808D1169887
:1047C00002C81690002900DC0021521C8B460C9276
:1047D0000C9801786C290AD004DC68290FD06A296A
:1047E00019D128E0742929D07A2914D126E0401C57
:1047F0000C90017848F480786C291CD00BE0401CA8
:104800000C90017848F08008682904D148F04001F4
:10481000401C88460C9002460078692822D015DC9E
:1048200062281FD00DDC252871D050281AD05828B6
:104830007FF46DAF16E048F40071E9E748F4807149
:10484000E6E7632878D06428F2D10BE0732874D0AF
:1048500004DC6F2806D07028EAD103E0752801D067
:104860007828E5D178280DD058280BD070280BD0A7
:10487000502809D06F2816D0622816D00A2128F0B7
:10488000100016E0102107E05078102148F48878D5
:10489000562804D1521C0C921078582807D0107852
:1048A000502804D006E0082109E0022107E048F082
:1048B000200080461078692803D0642801D028F0B1
:1048C0000C085FEA485001D528F0010810786928E3
:1048D0001ED064281CD0562864D05FEA885072D558
:1048E000169804ABC01D002283E806080292CDE9A9
:1048F000076820F007005346F0E80212CDE90012E5
:104900001690224628460A99FFF76CFC89E00AE1D6
:104910005FEA885024D5169804AFC01D20F0070325
:10492000F3E802021693002387E80A08CDE9076836
:10493000002A03DA012102E080E0A6E00021002342
:10494000029119461B1A914101DA114603E0002138
:10495000404261EB020153462246CDE90001D1E716
:104960005FEAC85004D5169804C80FE0524215E01B
:104970005FEA486003D5169810F8042B06E05FEA5A
:104980000860F0D5169830F8042B12B21690CDE9D5
:10499000021BCDE90468D00F002AE7DDCDE9002035
:1049A00053461EE01698AAEB040202C81690486807
:1049B000006800900A980B6801192846FFF79AFED4
:1049C00004442FE0FFE75FEAC8500CD5CDE9021B95
:1049D000CDE9046816980021534604C8CDE90021AA
:1049E0001690224619E05FEA486003D5169810F841
:1049F000042B08E05FEA0860169803D530F8042B12
:104A000092B200E004C816900020CDE90020CDE964
:104A1000021BCDE904685346224628460A99FFF74F
:104A2000A1FB04460C98401C0C900C9908780028B7
:104A30007FF46BAE54457DD222467DE001275FEACC
:104A4000887006D509E02246641C534620200A9946
:104A5000A84738467F1CB042F5D316992246641CFD
:104A600011F8040B169153460A99A8475FEA88701B
:104A700006D4D7E72246641C534620200A99A8474B
:104A800038467F1CB042F5D3CCE7169850F8049B0B
:104A900016904B46BBF1000001D0014601E04FF0FB
:104AA000FF31484600E0401C02780AB1491EFAD2A4
:104AB000C71A5FEA485003D558465F4500D30746FA
:104AC0005FEA887006D512E02246641C5346202017
:104AD0000A99A84738467F1CB042F5D307E000BFCB
:104AE000224609F10109641C53460A99A84799F81E
:104AF000000040B15FEA4851F2D5BBF1010B01E083
:104B00006D420008ECD25FEA887006D48AE722463C
:104B1000641C534620200A99A84738467F1CB0429F
:104B2000F5D37FE706E02246641C534625200A9908
:104B3000A84777E7AAF10102534600200A99A8473F
:104B40000DB02046BDE8F08F10B502004FF0000018
:104B50000CD04B1E194200D0FEE70A44521E9A4365
:104B6000B2F5803F02D20C2A01D9104610BD0C20AC
:104B700010BD08444A1E401E9043114200D0FEE77B
:104B8000704700002DE9F0410F4601210025044641
:104B900041862E460BE01B49FBF7A4FB10B16D1CB0
:104BA000ADB202E0608E401C6086761CB6B257F84B
:104BB000260010B101780029EDD1208EA8421ED028
:104BC000A06A002610B117F05BFBA662E06A10B184
:104BD00017F056FBE662E80017F0C6FAA06238B19B
:104BE000680017F0C1FAE06218B1A16A11B102E0E1
:104BF000FEE7FEE70025690017F050FC2586BDE8BA
:104C0000F08100005C4701082DE9F84F8146407AA9
:104C10000F4600F00700022819D010468046974240
:104C200000DD3A46164603202A4C2B4A00EB46008C
:104C300020F00305A06811681035411A636805EB80
:104C4000010C9C4505D2416821F0004124E0084652
:104C5000E4E79D4219D892464FF0FF3B481961683E
:104C6000884210D9002269461C48CDF800B00AF0ED
:104C700061FF002269461A480AF05CFFA168DAF871
:104C80000000091AEAE7A068DDE7284617F06CFA89
:104C9000C0B1416841F0004188EA6702416089EA99
:104CA00002010160416801F04041491C31F080413E
:104CB00041608681A0F80E8005D500F11001816069
:104CC000BDE8F88FFEE7A16801F110022944826077
:104CD000A160F5E780000020E0010020ADDC0008C5
:104CE00095FB000870B586B000224A4C8DF808206C
:104CF0008DF80C208DF81020E2888A4201D0FF2226
:104D0000A270E18090F83C20142302F003024FF4DB
:104D1000B475012A24D0022A5ED0A578AA4211D007
:104D200010F8265F05EB051505EB4505B5FBF3F51A
:104D30002570407800EB001000EB4000B0FBF3F072
:104D40006070A27004AA03A8CDE9000201EB410043
:104D50004FF6FF7101EA400002AB627821781BE058
:104D6000A678B24210D0868C06EB46067602B6FBD9
:104D7000F5F5A58090F8270000EB001000EB40004F
:104D8000B0FBF3F06070A27004AA03A8CDE90002A2
:104D9000C9B202AB62783AE008F09BFC9DF81010B3
:104DA0009DF80C00CB08BDF800109DF8082063F3B7
:104DB0000401ADF800108108BDF8000061F34A104D
:104DC000D10880B261F3CF20ADF8000080B200902E
:104DD000BDF8000006B070BDA678B24210D0868C37
:104DE00006EB46067602B6FBF5F5A58090F82600A0
:104DF00000EB001000EB4000B0FBF3F02070A2705D
:104E000004AA03A8CDE90002CAB2217802ABA088A7
:104E1000C2E700002C01002010B5084C01202070D2
:104E20000748FEF7C0FC0028A06803D0BDE810408A
:104E30001EF05CBBBDE810401EF04CBBB80100206A
:104E4000A42F002010B5044690F84200A16B820701
:104E500009D4B4F840204AB1A2F57F43FF3B1BD0F0
:104E6000521EA4F84020B4F84020AAB909B1820724
:104E700012D521461448FEF731FDFFF7CDFFE1685A
:104E800009B120468847216909B120468847204654
:104E9000BDE8104017F0F4B9E26B524222630029DA
:104EA00011D0820702D4626B524222634210521C1C
:104EB00062F3410084F84200A26A206A2262A06282
:104EC000E06AE162A06310BDA42F002070B5304DF0
:104ED00068681EF0C1F90646687880F001006870C5
:104EE00047E00020287094F842006978C0F38002FF
:104EF0008A4242D061F3820084F84200216B8A1911
:104F0000030719D4002917DC002A15DBC00709D1D3
:104F1000616939B120468847216A01442162A16A4A
:104F20000844A062A16809B12046884794F842006D
:104F300040F0080084F84200206B8019206316D4EA
:104F4000E16A884200DD2163E16920468847014625
:104F5000606A884204D0616262680AB12068904742
:104F6000D4E90B01814202DB2046FFF76BFF287872
:104F700018B10848FEF717FC03E021460548FEF784
:104F800024FC0400ADD11EF06DF9686070BD000016
:104F9000B8010020A42F002070B5044640680D46DB
:104FA00008B1FFF7F9FF2268002A04D029462046FD
:104FB000BDE87040104770BD89B20EF033BE89B2B3
:104FC0000EF06CBE2DE9FF4F99B09846DDE926B191
:104FD0002D9816468A464FF00009042811D005285E
:104FE00011D0062812D0142870D1012702250024E0
:104FF00018FB06F00E901A98401E0D90701E069039
:1050000051E10027F2E701270325F0E701270225F8
:10501000FEF78EFE0068D0F83890E8E728986043E5
:105020000BEB2022299860430AEB202110124FEA53
:10503000212E7DD41A9B98427ADABEF1000F77DBDD
:10504000B64575DAD2B2CBB2802A05DAC2F17F0258
:105050004FF0FF31520003E001215200A2F58072AF
:105060000992802B05DAC3F17F034FF0FF325B001A
:1050700003E001225B00A3F580730A930EFB080C8A
:10508000199B0CFB053307934318119372D4DDF879
:1050900034C063456EDC1EEB02036BD4DDF818C030
:1050A000634567DCDDF81CC011FB05C1CDE915C106
:1050B00012FB08F101FB05C10C91D7B32D9905290D
:1050C00005D014290BD0062955D066E0EFE01598DD
:1050D000807807900C9881781698807810E0199A5B
:1050E0000E990EFB08FC02EB41010A180EFB081199
:1050F0001CF802000790119803FB08F3085C995C08
:10510000079A91420AD00A9A11FB02F20A99C1F554
:105110008073079911FB0321C1F30721079A90427D
:105120000DD0099A10FB02F20998C0F5807301E0D6
:105130002FE035E0079810FB0320C0F30720084458
:105140002C994008085527D015980178407801EB34
:105150000020ADF80C000C980178407801EB00209D
:10516000ADF8100016980178407801EB0020ADF8FA
:10517000080023E04CE0159801881FFA89F081426D
:1051800007D00C990988814203D016990988814279
:1051900003D12C990020085583E0FF210846CEE773
:1051A00015980088ADF80C0016980088ADF8080036
:1051B0000888ADF810002C98FF210155BDF80C00AF
:1051C000BDF81010884209D1BDF80810884205D1F9
:1051D0002B98BDF80C1000EB440017E00A98C2B2FF
:1051E000DDE9031010F0EAFB04900998C2B2DDE992
:1051F000020110F0E3FB7F220290049910F0DEFB25
:1052000000902B98BDF8001000EB4400018048E0AE
:10521000079B93F800C05B780CEB0323DDF8ACC070
:105220009BB22CF81430DDF8B4C0BCF1050F06D0E9
:10523000BCF1060F06D0BCF1140F09D10AE0079BA0
:105240009B780FE01FFA89FC634501D1002309E038
:10525000FF2307E0199B0EFB083C0E9B00EB43036A
:105260001CF8033008B9002905DBDDF834C06045BF
:1052700003D1002901DD09980AE0BEF1000F01D138
:10528000002A04DB06998E4508D1002A06DD0A981B
:10529000C0F1FF0010FB03F0010A00E000212C9890
:1052A0000155641C24B22A988442FFF6B7AE1DB0A3
:1052B000BDE8F08F10B5818F92B00446A9B1684661
:1052C0000DF0BEFF0B480121CDE90040A08F0B90EF
:1052D00000200890CDE9090107480790074803908E
:1052E00068460EF021F812B010BD12B0BDE81040B3
:1052F0001FF0DCBA25490208FF32010827490208DD
:1053000010B50446406882080AD0496821F00301BC
:10531000091D08446060204600F042F8204610BD98
:10532000FEE74068103120F00300884201D30120DD
:105330007047002070472DE9FC47054648680C4639
:1053400020F0030001AA69461FF006F8DDE90070AD
:1053500005EBC71101EB80098046D9F83C0060B12C
:1053600064B1C4E9020504F10806C46030460421B2
:10537000FFF7FFFB864202D0FEE7FEE7FEE7C9F833
:105380003C400120296900FA07F21143296105EB2D
:10539000870100FA08F04A6902434A61BDE8FC87C8
:1053A00010B5044600F087F8046010BD2DE9FC47F5
:1053B00006464FF000000D0000900746019042D0D5
:1053C0000C46E9460DF10408802907D3084622F06F
:1053D000AFFF411F01208840401E04444246494619
:1053E00020461EF0B9FF009C0A2C2CDA06EB840044
:1053F000019A40694FF0FF3101FA02F210400CD1DE
:10540000641C3069A14008401DD022F089FF044689
:10541000009006EB8000406978B122F081FF0346DE
:1054200006EBC411019001EB8000C76B5FB1786897
:1054300020F00300A84201D2FEE7FEE739463046DD
:10544000009A20F009F93846BDE8FC8710B50446FB
:10545000FFF7A6FF416841F002014160606840F03B
:105460000100606010BD10B5044600F024F84168EA
:1054700021F002014160606820F00100606010BD11
:1054800070B506460D46084600F015F8040010D029
:105490002079C0070BD0686880080BD021463046C1
:1054A00000F03CF821462846FFF72AFF054628462B
:1054B00070BDFEE7FEE7426800F1080122F003003C
:1054C000001F0844910800D1FEE7704770B50646FA
:1054D0000C004FF000001ED0F2B120791546C00735
:1054E0001BD011462046FFF71CFF78B12946204605
:1054F00000F025F805462046FFF752FF6868294668
:1055000040F0020068603046FFF715FF2046FFF7C5
:10551000AAFF04F1080070BDFEE7FEE77CB5054672
:1055200048680C4620F0030001AA69461EF014FFEB
:10553000DDE900232146284620F08EF87CBD2DE9C8
:10554000F0410D46044600F10801281F0E1860685E
:1055500006F1080720F00300401BA0F104083846BC
:105560000421FFF706FB874200D0FEE7606820F0C9
:10557000030108EB0500001D814200D0FEE73079F1
:1055800000F0030040EA0800706020F003000C28DF
:1055900000D2FEE7207900F0030028436060304627
:1055A000FFF754FF3046BDE8F08138B5044615F0EA
:1055B00007FA054615F039FA0028204605D0218F54
:1055C000E18619F0B0FF012038BD13F0B1FC0028CE
:1055D00020461ED013F078FB218FE08E81420CD044
:1055E0002087E08E00906A461C21204613F0E2FEE0
:1055F0000128E9D1204619F096FF284615F021FA36
:105600000428E0D1204618F05FFB002114F084FB51
:10561000D9E713F0E9FCD6E770B513F0C7FE0546ED
:1056200018F098FB044628460FF060F90146204622
:10563000BDE8704000221DF03DB900002DE9F04F9B
:105640000D4687B00446002118F072FA60B329466F
:10565000204600F061FA2946204600F06FF800214C
:10566000204619F08FF905900021204619F032FAF2
:1056700004900021204619F056F8012800D000209F
:1056800080460021204619F075FB07460021204680
:1056900019F0C4F842F2D17906464F450BD1608C1F
:1056A000000508D4012707E007B02846BDE8F04F01
:1056B0001C2116F0F3BE0027204618F0B7FADFF8D9
:1056C00078A0834620460021BAF8042019F05CFA3D
:1056D000D5F810C0AB682968CDF800C0CDF80C80B3
:1056E000CDE90131C2B239465846059B09F052FD59
:1056F00028834E4504D1608C400501D4012600E08A
:105700000026204618F078FA074620460021BAF80D
:10571000082019F039FAC2B2686900246B68E96898
:105720008DE81B0031463846049B09F033FD688341
:1057300007B0BDE8F08F0000A00000202DE9F34F76
:1057400081B00C46019808F087FF0646019818F0D2
:105750006DFA8246304600F0E3FF2061400016F00B
:1057600031FD20602069400016F02CFD002541F637
:105770009A79A0603AE036F91510DFF820814945A2
:1057800033D10027DFF818B11FE03946019818F02F
:10579000CFF95946009019F00EFCA8B9009808F00E
:1057A0006DFF012810D1009808F05EFFA8420BD1D0
:1057B000009819F0B0FB4146404501DA084602E086
:1057C000009819F0A8FB80467F1C019818F0C2F9D8
:1057D000B842DAD8B8F1000F03DBA16821F81580D0
:1057E00003E0A168002021F815006D1C2069A84283
:1057F000C1D800252F46284641F69B784B4615E038
:1058000036F91010414504DB0D44A5F5F8559B3DD4
:105810000BE0994204D1A16831F81010394403E03B
:10582000A26822F8101039440FB2401C216981424D
:10583000E6D80021019819F0A5F82169C1F101020B
:1058400000FB02A0C01B00B2002800DA00200022EA
:105850004FF0FF331146C44611E000BF36F9117016
:1058600067450BDBA7F5F8579B3F3AB210FB02F3F5
:10587000B3FBF5F3A76827F811300B46491C2769DD
:105880008F42EBD8002B07DBA91A4143B1FBF5F19E
:10589000401AA16821F81300BDE8FE8F01E0FFFF68
:1058A000010006002DE9F14F0022114600981AF080
:1058B000CBFD0021009818F06FFF044600210098EE
:1058C00019F014F920440FFA80F90021009819F01A
:1058D00011F820440FFA80F8009818F0D1FE00EB80
:1058E000090101EB0800DFF898A006B254460098C1
:1058F00018F030F9074600252AE000982149806811
:10590000006850F82500834619F055FBF8B9584651
:1059100019F062FE40BB0021584618F0D5FE18B3BE
:10592000012821D002281FD003281DD0002158466D
:1059300019F038FA58B9BBF81A10BBF81600081A53
:10594000401C00B24844A04200DB044624B26D1C57
:10595000BD42D2D3544504D004EB080000B2B0429B
:1059600000DC3046BDE8F88F0098BBF91A10B0F99A
:105970001600081A411CA142E8DB0C46E6E70000CD
:1059800001E0FFFF010004002DE9F84F00228046EE
:1059900011461AF043FD0021404618F0FDFE044672
:1059A0000021404619F04EF820440FFA80FA0021F9
:1059B000404618F0FFFF20440FFA80F9404618F0E7
:1059C0006DFE00EB090101EB0A00DFF844B105B2FE
:1059D0005C46404618F0BEF807460021404618F0E5
:1059E00090FE01284FF0000644D078E0D8F8080077
:1059F0004849006850F82600009019F0DCFAC0BB56
:105A0000009819F0E9FD50B10098B8F91810B0F9F4
:105A10001400091A481CA0422ADB4C1C28E0002173
:105A2000009818F051FE58B1032809D0062807D075
:105A3000082805D00021009819F0AEF958B118E0F7
:105A40000098B8F91810B0F91400081A411CA142C6
:105A50000EDB0C460CE00098143000900EF0F7F9C5
:105A60005044A04204DB00980EF0F1F900EB0A0468
:105A700024B2761CBE42B9D35C453BD004EB09008E
:105A800033E000BFD8F808002249006850F826002B
:105A9000009019F090FA08BB009819F09DFD60BBCA
:105AA0000021009818F010FE38B3012825D00428F2
:105AB00023D0072821D00021009819F073F968B984
:105AC0000098143000900EF0C2F94844A04204DB64
:105AD00000980EF0BCF900EB090424B2761CBE421B
