:020000040800F2
:10000000A806002089010008DB1200085D12000824
:10001000D9120008650300089716000800000000C8
:10002000000000000000000000000000171600089B
:1000300067030008000000001516000819160008E4
:10004000A3010008A3010008A3010008A301000800
:10005000A3010008A3010008A3010008A3010008F0
:10006000A3010008A3010008A3010008A3010008E0
:10007000A3010008A3010008A3010008A3010008D0
:10008000A3010008A3010008A3010008A3010008C0
:10009000A3010008A3010008A3010008A3010008B0
:1000A000A3010008A3010008A3010008A3010008A0
:1000B000A3010008A3010008A3010008A301000890
:1000C000A3010008A3010008A3010008A301000880
:1000D000A3010008A3010008A3010008A301000870
:1000E000A3010008A3010008A301000800F002F822
:1000F00000F03AF80AA090E8000C82448344AAF188
:100100000107DA4501D100F02FF8AFF2090EBAE885
:100110000F0013F0010F18BFFB1A43F0010318473B
:10012000A01F0000C01F0000103A24BF78C878C18B
:10013000FAD8520724BF30C830C144BF04680C60ED
:10014000704700000023002400250026103A28BF35
:1001500078C1FBD8520728BF30C148BF0B60704739
:100160001FB51FBD10B510BD00F058F81146FFF7C0
:10017000F7FF01F0A1FA00F076F803B4FFF7F2FF01
:1001800003BC00F07DF8000009488047094800479B
:10019000FEE7FEE7FEE7FEE7FEE7FEE7FEE7FEE737
:1001A000FEE7FEE704480549054A064B7047000094
:1001B00095160008ED000008A8000020A806002001
:1001C000A8020020A80200204FF0000200B513464C
:1001D00094469646203922BFA0E80C50A0E80C5067
:1001E000B1F12001BFF4F7AF090728BFA0E80C5018
:1001F00048BF0CC05DF804EB890028BF40F8042B11
:1002000008BF704748BF20F8022B11F0804F18BF7D
:1002100000F8012B7047704770477047754600F033
:100220002BF8AE4605006946534620F00700854688
:1002300018B020B5FFF7B6FFBDE820404FF000062C
:100240004FF000074FF000084FF0000B21F00701BE
:10025000AC46ACE8C009ACE8C009ACE8C009ACE801
:10026000C0098D46704710B50446AFF300802046A4
:10027000BDE81040FFF781BF0048704744000020F0
:1002800001491820ABBEFEE72600020070470000BF
:1002900070B5044600688168C943C90717D18168F1
:1002A00021F00101816000F011FC05460AE000BF69
:1002B00000F00CFC401B022804D920688068C04371
:1002C000C00706D020688068C043C007F0D0002077
:1002D00070BDA06A40F01000A062E06A40F001002A
:1002E000E062012070BD0000F8B5002604460096CB
:1002F00000688168C943C9072DD0816841F00101B8
:100300008160164816490068B0FBF1F000E0401E1D
:1003100000900028FBD100F0D9FB054616E000BF95
:1003200000F0D4FB401B022810D920688068C0432D
:10033000C0070BD0A06A40F01000A062E06A40F055
:100340000100E06284F824600120F8BD2068806824
:10035000C043C007E4D10020F8BD00001000002019
:1003600040420F00FEE7704772B6FEE7F8B5002581
:100370000446009590F8240001280BD0012084F851
:1003800024002046FFF784FF2046FFF7ADFF06005C
:1003900002D050E00220F8BDA06A20F4885040F05E
:1003A0000200A062022000F021FC25490968B1FB8F
:1003B000F0F0400000E0401E00900028FBD12068D3
:1003C000816841F00801816000F080FB074608E089
:1003D00000F07CFBC01B0A2803D920688068000756
:1003E00015D4206880680007F2D42068816841F045
:1003F0000401816000F06AFB074612E000F066FB32
:10040000C01B0A280DD920688068400709D5A06A5A
:1004100020F0020040F01000A06284F82450012077
:10042000F8BD206880684007E8D4A06A20F0020088
:1004300040F00100A06284F824503046F8BD00006E
:1004400010000020F8B50024009490F824202546E0
:10045000012A12D0012280F824204A681F23072A8B
:100460000DD20668776B521E02EB820293409F43C7
:100470000B6893401F43776319E00220F8BD0668BC
:100480000D2A0AD2376BD21F02EB820293409F43A0
:100490000B6893401F43376309E0F76A0D3A02EB9C
:1004A000820293409F430B6893401F43F7620A68A0
:1004B000072306680A2A0AD3F7680A3A02EB4202BF
:1004C00093409F438B6893401F43F76008E0376970
:1004D00002EB420293409F438B6893401F43376176
:1004E0000A68102A01D0112A20D1124B02689A42C0
:1004F00017D193681B0219D4936843F400039360E7
:100500000968102912D10C490C4A0968B1FBF2F1B3
:1005100001EB8101490000E0491E00910029FBD157
:1005200004E0816A41F020018162012480F82450B6
:100530002046F8BD002401401000002040420F007A
:10054000806A70470068C06C704700002DE9F04178
:100550004FF0000704003D467ED0A06A002628B96F
:10056000E66284F82460204600F07EF82046FFF71B
:100570008FFEA16A01F01001014304D0A06A40F08F
:100580001000A06268E0A16A21F4885141F00201E4
:10059000A1626268E169237B0A4347EA43010A4397
:1005A000A1684FF48077B94208D0012906D0002114
:1005B00094F814C0BCF1010F02D00AE03946F7E705
:1005C000F3B1A36A43F02003A362E36A43F001039B
:1005D000E3622368D3F804C02CF4694C4CEA010CA4
:1005E000C3F804C023689968DFF870C001EA0C0101
:1005F00011439960A168B9420BD0012909D00CE0E0
:10060000DFF85CC0A3690CEB43330B4343F4006198
:10061000DFE7218A0D05A5F580152168CB6A23F453
:1006200070032B43CB62216889680E4B19409142BD
:1006300008D1E662A16A21F0020141F00101A16244
:10064000BDE8F081A06A20F0020040F01000A06236
:10065000E06A40F00100E0620120F1E7FDF7E1FF10
:1006600000E0FFFFFE0E1FFF00B585B000210091E6
:1006700001910291039100680E49884218D10E48F9
:10068000816941F400718161816901F40071049113
:10069000816941F0040181618069694600F00400CC
:1006A00004900120009003200190044800F018F904
:1006B00005B000BD002401400010024000080140C8
:1006C0002DE9F84300270D460446009700F0FEF997
:1006D000804620688168C90508D5A06A40F02000DE
:1006E000A06284F824700120BDE8F8834168C90540
:1006F00003D4C06A10F4700F2AD0022000F076FAFA
:100700003B490968B1FBF0F62068036939490B429F
:100710004FEA61014FEAA1121FD1C3684FEA611C81
:1007200013EA0C0F19D103690B4225D1C06810429E
:1007300022D1142023E0681C0AD02DB100F0C6F9A4
:10074000A0EB0800A84203D920680068800725D5DF
:10075000206800688007EED52DE003690B4202D1C6
:10076000C168114206D0026923490A4206D1C06815
:10077000084203D1542002E0292000E0FC20464337
:10078000009816E0681C11D02DB100F09FF9A0EB85
:100790000800A8420AD90098B04207D2A06A40F0E7
:1007A0000400A06284F8247003209DE70098401C98
:1007B0000090B042E6D321686FF012000860A06A92
:1007C00040F40070A06220688068C0F342400728AF
:1007D0000CD1207B50B9A06A20F48070A062A06A7E
:1007E000C00403D4A06A40F00100A06200207BE7AF
:1007F00010000020244992244992240070B5044638
:1008000090F8240001280DD0012084F8240020460F
:10081000FFF76AFD02004FF0000005D084F82400C5
:10082000104670BD022070BDA16A40F201239943B9
:1008300041F48071A1621F4D23681F49AB4218D15A
:100840000E6816F4702F14D0A66A46F48016A662BD
:100850000E68760505D5A66A26F4005646F480563D
:10086000A662A66AF6040AD5E66A26F00606E662DD
:1008700006E0A66A26F48016A6625E68E9E7E062F2
:1008800084F824006FF00200186020688368C3F3C6
:100890004243072B05D1A84208D1096811F4702FF3
:1008A00004D0816841F480118160B9E7816841F426
:1008B000A001F9E7002801400424014070B5044676
:1008C00000F004F90546601C02D004480078044496
:1008D00000F0FCF8401BA042FAD370BD04000020D9
:1008E0002DE9F84FDFF8B8910024A9F1040B234655
:1008F0000F2709F1040AABF1040EC9E00125A54058
:100900002A40AA427DD1674ED1F804C0ACEB06085C
:10091000B44532D014DCBCF1030F3AD009DCBCF191
:10092000000F2AD0BCF1010F1CD0BCF1020F31D155
:100930001DE0BCF1110F17D0BCF1120F2AD119E044
:10094000B8F5881F19D006DCB8F5803F15D0B8F58A
:10095000801F1FD111E0B8F5001F0ED0B8F5041F9D
:1009600018D10AE0CB6815E0CB681B1D12E0CB68FC
:1009700008330FE0CB680C330CE08B682BB1012BF4
:100980004FF0080303D0456104E0042302E0056151
:1009900000E00023FF2A01D8064601E000F104062A
:1009A0004FEA840501D9A5F12005D6F8008007FAA1
:1009B00005FC28EA0C0803FA05F548EA0508C6F81C
:1009C00000804D68ED0062D5374DAE6946F00106F6
:1009D000AE61AD6924F0030605F001050095334DC5
:1009E00006EB050CDCF80850A607360F07FA06F8E8
:1009F00025EA0805DFF8B880404503D14FF000082C
:100A000017E044E0DFF8AC80404502D14FF0010828
:100A10000FE0DFF8A480404502D14FF0020808E063
:100A2000DFF89880404502D14FF0030801E04FF015
:100A3000040808FA06F848EA0508CCF808804D686A
:100A4000D9F80060ED024D4601D5164300E096430B
:100A50002E604D68DAF80060AD02554601D51643A8
:100A600000E096432E604D68DBF80060AD035D4604
:100A700001D5164300E096432E604D68DEF8006015
:100A8000ED03754601D5164300E096432E60641CC5
:100A90000D682A46E5407FF431AFBDE8F88F0000CD
:100AA0000804014000001110001002400000014045
:100AB00000080140000C01400010014000140140FA
:100AC0000AB1016170470904FBE700000148806832
:100AD0007047000004000020024881680278114439
:100AE0008160704704000020074810B5016841F09C
:100AF00010010160032000F067F80F2000F006F8F5
:100B000000F024F8002010BD0020024070B50D4D0B
:100B100004464FF47A712878B1FBF0F00A4909686D
:100B2000B1FBF0F000F086FB48B9102C07D2002290
:100B30002146501E00F028F800206C6070BD012096
:100B400070BD000004000020100000200C4808B513
:100B5000816941F001018161816901F00101009128
:100B6000C16941F08051C161C06900F080500090BE
:100B70000448416821F0E06141F00071416008BD26
:100B80000010024000000140F0B40E4B1B680C4600
:100B9000C3F30223C3F10705042D00D90425191D51
:100BA000072901D2002300E0DB1E012606FA05F129
:100BB000491E214099409E40761E16403143F0BCAC
:100BC00000F06ABD0CED00E0064900F0070208687D
:100BD0004FF6FF03184040EA0220034A1043086022
:100BE000704700000CED00E00000FA0510B501466A
:100BF0000020234C012922D0022939D010291DD1EF
:100C000061682268D20119D51E48C1F38342C90325
:100C1000805C0AD561681B4AC1F34041921E515C59
:100C2000194AB2FBF1F1484301E0184948436168B1
:100C3000490203D440000321B0FBF1F010BD226A49
:100C4000C2F30121012903D1920701D5C80310BDC8
:100C5000022905D1626A920702D549F6404010BDCB
:100C60000329FCD121688903F9D54FF2244010BD36
:100C700000F01AF96168C1F38131491C4900DBE7D2
:100C8000001002409820000800127A0000093D0080
:100C90002DE9F84305460078354CC00754D0E0698B
:100CA0000026C00008D4E06940F08050E061E069AF
:100CB000012600F0805000902E480168C90512D42A
:100CC0000168804641F480710160FFF7FFFE07462E
:100CD00005E000BFFFF7FAFEC01B642823D8D8F850
:100CE0000000C005F6D5206A10F4407021D0A98814
:100CF00001F4407181421CD0206A1F49012220F476
:100D000040700A6000220A602062C00711D0FFF71D
:100D1000DDFE074641F2883808E000BFFFF7D6FE47
:100D2000C11B414502D90320BDE8F883206A800732
:100D3000F4D5206A696820F44070084320621EB12F
:100D4000E06920F08050E0612878800705D5606870
:100D5000A96820F44040084360602878C00605D5A3
:100D60006068E96820F48000084360600020DBE7E9
:100D70000010024000700040400442422DE9F0475C
:100D80000F46050061D0434E306800F00700B842BE
:100D900009D2306820F0070038433060306800F036
:100DA0000700B84251D128683B4C810712D5400753
:100DB00003D5606840F4E06060602878000703D5E0
:100DC000606840F4605060606068A96820F0F000DE
:100DD000084360602878C00728D06868012810D0D0
:100DE0002168022810D0890700292EDA616821F0D5
:100DF000030101436160FFF769FE804641F28839D3
:100E00000DE021688903EFE78901EDE7FFF75EFE5A
:100E1000A0EB0801494502D90320BDE8F0876068CE
:100E2000696800F00C00B0EB810FEFD1306800F082
:100E30000700B8420BD9306820F007003843306013
:100E4000306800F00700B84201D00120E5E72878BB
:100E5000400705D56068E96820F4E06008436060F9
:100E60002878000706D56068296920F4605040EAB8
:100E7000C100606000F028F86168084AC1F30311FE
:100E8000515CC8400649086006480068FFF73EFE0E
:100E90000020C2E70020024000100240A820000805
:100EA0001000002008000020044805490068496837
:100EB000044AC1F3C221515CC840704710000020B1
:100EC00000100240B82000080E4A51680E4801F098
:100ED0000C03042B11D0082B0FD10C48C1F3834312
:100EE000C903C05C0AD55168084AC1F34041921E4B
:100EF000515C054A5043B0FBF1F070470449484348
:100F0000704700000010024000127A00862000089E
:100F100000093D002DE9F84F040070D02078C04D45
:100F2000C00749D06868C0F38100012807D068680D
:100F3000C0F38100022809D16868C00306D528687B
:100F4000800339D560680028E7D035E06068B0F5E7
:100F5000803F0BD010B1B0F5A02F11D0286820F43D
:100F600080302860286820F4802002E0286840F45F
:100F700080302860606890B1FFF7A8FD06460AE05F
:100F8000286840F480202860F0E700BFFFF79EFD4E
:100F9000801B642873D828688003F7D50CE0FFF71E
:100FA00095FD064605E000BFFFF790FD801B642815
:100FB000F0D828688003F7D420789A4E80074FF045
:100FC00001094FF0000839D5686810F00C0F07D000
:100FD0006868C0F38100022809D16868C00306D49C
:100FE0002868800714D52069012808D110E02069FD
:100FF000B0B1C6F80090FFF769FD074605E00AE1C9
:10100000FFF764FDC01B0228C4D828688007F7D505
:101010002868616920F0F80040EAC10028600DE00E
:10102000C6F80080FFF752FD074604E0FFF74EFDCB
:10103000C01B022823D828688007F7D4207800072F
:101040002CD57948A169D9B1C0F80090FFF73EFDD1
:10105000074604E0FFF73AFDC01B02280FD8686A74
:101060008007F7D571484FF4FA510068B0FBF1F0F2
:10107000009000BF0098411E0091FAD20EE080E07F
:10108000C0F80080FFF722FD074604E0FFF71EFDD1
:10109000C01B022875D8686A8007F7D420784007FB
:1010A00060D5E8690027C00008D4E86940F08050A6
:1010B000E861E869012700F0805000905C48016811
:1010C000C90513D40168834641F480710160FFF7BC
:1010D000FDFC824606E000BFFFF7F8FCA0EB0A002B
:1010E00064284ED8DBF80000C005F5D5E06801287B
:1010F0000AD008B1052813D0286A20F00100286220
:10110000286A20F0040002E0286A40F0010028620A
:10111000E06841F2883B98B1FFF7D8FC82460BE0CB
:10112000286A40F004002862EEE700BFFFF7CEFC1B
:10113000A0EB0A0159455AD8286A8007F6D50CE079
:10114000FFF7C4FC824605E0FFF7C0FCA0EB0A01F4
:1011500059454CD8286A8007F6D41FB1E86920F0B9
:101160008050E861E06988B36968C1F381010229B0
:1011700044D00228C6F8608004D0FFF7A7FC0446DC
:1011800038E034E0FFF7A2FC074604E0FFF79EFCDE
:10119000C01B02282BD828688001F7D4206AB0F53C
:1011A000803F05D16868A16820F40030084368607A
:1011B000D4E908010843696821F4741108436860A0
:1011C000C6F86090FFF782FC044606E025E000BF09
:1011D000FFF77CFC001B022809D828688001F7D59E
:1011E0001BE000BFFFF772FC001B022802D903209E
:1011F000BDE8F88F28688001F4D40EE00128F7D00C
:101200006868226A00F48031914204D1616A00F476
:101210007010884201D00120EAE70020E8E70000D2
:1012200000100240000042428004424210000020B0
:101230000070004010B5401EB0F1807F01D3012046
:1012400010BD4FF0E02460610F21601700F024FA18
:101250000020A06107202061002010BDFEE70000F3
:101260003EB5002410480094019402940D49846016
:10127000016001250573047505614FF46021446028
:10128000C161FFF763F908B1FFF76EF8CDE90045DA
:10129000694605480294FFF7D5F8002801D0FFF70A
:1012A00063F83EBD0024014014000020094808B541
:1012B000816941F020018161816901F02001009183
:1012C000816941F004018161806900F004000090AF
:1012D00008BD000000100240FEE7FEE770B50024E4
:1012E0000021204600F0FBF80025002000F081F9E5
:1012F0006D1CEDB2802DF8D3641CE4B2082CEFD342
:1013000070BD0000124810B5816986B041F0080137
:10131000816180690F4C00F0080004900020029069
:101320004FF4407000901120019003200390694613
:101330002046FFF7D5FA012211022046FFF7C0FB35
:10134000012251022046FFF7BBFB06B010BD000092
:1013500000100240000C01402DE9F047164E002419
:1013600007464FF080084FF40079B51528FA04F0CD
:10137000384201D0012200E0002249463046FFF702
:101380009FFB012229463046FFF79AFB002229469F
:101390003046FFF795FB641CE4B2082CE6D301222B
:1013A00029463046FFF78CFB29463046BDE8F0471A
:1013B0000022FFF785BB0000000C014070B5012240
:1013C0000B4D540221462846FFF77AFB01221602F4
:1013D00031462846FFF774FB002221462846FFF7D6
:1013E0006FFB31462846BDE870400022FFF768BB1E
:1013F000000C014070B50A4D4FF4007400222146E4
:101400002846FFF75DFB012211022846FFF758FB33
:1014100021462846BDE870400122FFF751BB00007D
:10142000000C014010B500204FF47A720021491CD5
:101430009142FCD3401C9042F8D3FFF763FFAE20EB
:1014400000F0C6F8D52000F0C3F8802000F0C0F806
:10145000A82000F0BDF83F2000F0BAF8D32000F03B
:10146000B7F8002000F0B4F8402000F0B1F8A12057
:1014700000F0AEF8C82000F0ABF8DA2000F0A8F8D1
:10148000122000F0A5F8812000F0A2F8CF2000F093
:101490009FF8D92000F09CF8F12000F099F8DB20AB
:1014A00000F096F8302000F093F8A42000F090F8B7
:1014B000A62000F08DF88D2000F08AF8142000F0AE
:1014C00087F8AF2000F084F8BDE81040FFF706BFB2
:1014D0000246012000E05043491EFCD2704710B57F
:1014E0000C4640F0B00000F073F8102040EA1410F1
:1014F00000F06EF804F00F00BDE8104000F068B88E
:101500002DE9F0410746CE004000083E801E1546FA
:101510004FF0FF38F1B2C0B2FFF7E1FF11480024ED
:1015200000EB05152819A0F5805090F8000E00F08A
:1015300060F8641CE4B2082CF4D308EB4700F1B265
:10154000C0B2FFF7CCFF00242819A0F5805090F816
:10155000080E00F04EF8641CE4B2082CF4D3BDE889
:10156000F0810000941A00082DE9F04700241D4680
:101570001646884681460A2713E0291B0A20491E81
:10158000FFF7A6FFB6FBF0F0B0FBF7F107FB110287
:1015900008EB0400C1B248463032FFF7B1FF641CCB
:1015A000E4B2AC42E9D3BDE8F0872DE9F04115463D
:1015B0000E460746002406E03019C1B23846FFF750
:1015C0009FFF641CE4B22A5D002AF5D1BDE8F081DA
:1015D00010B50446FFF7F2FE7820FFF7BDFE0020AD
:1015E000FFF7BAFE2046FFF7B7FEBDE81040FFF751
:1015F00001BF10B50446FFF7E1FE7820FFF7ACFE0F
:101600004020FFF7A9FE2046FFF7A6FEBDE81040E8
:10161000FFF7F0BE70477047FFF75EBA30B593B082
:1016200028216846FEF7D0FD14210AA8FEF7CCFD5C
:10163000002501200F9510951195010412958DE854
:10164000230004904FF4E010CDE908100224079421
:101650006846FFF75FFC08B172B6FEE70AA90F20E3
:1016600081E831004FF48060CDE90D0502210AA820
:10167000FFF784FB08B172B6FEE74FF4004011900B
:101680000F940FA8FFF704FB002801D072B6FEE705
:1016900013B030BD7047FEE70907090E002804DBD0
:1016A00000F1E02080F80014704700F00F0000F116
:1016B000E02080F8141D7047FFF716FAFFF7AEFF21
:1016C000FFF7F4FDFFF7CCFDFFF7ACFEFFF706FEDA
:1016D000FFF7C6FD2B48FEF749FE4FF47A772948FD
:1016E000FFF78CF832212748FEF7EAFF2548FEF77E
:1016F00027FF800541D52348FEF724FF224C012116
:1017000022A220800846FFF750FF22A201210220DA
:10171000FFF74BFF0423228805210120FFF724FF58
:10172000208800F067F81E4D294600F077F86FF02A
:101730000B06314600F070F900F03CF80246012338
:1017400005210220FFF710FF208800F053F82946FA
:1017500000F064F8314600F05FF9124900F05EF8DD
:1017600000F028F880B26421B0FBF1F201FB120214
:10177000022307211846FFF7F7FE3846FFF79EF8C9
:10178000ADE7000014000020000000204144433A6F
:1017900000000000566F6C3A302E30300000000020
:1017A000333353400000C842014800F003B900BF82
:1017B0000000C07FC10DD1F19E0206DB4FEA00237D
:1017C00043F0004323FA02F07047004207D54FEA86
:1017D0004001B1F1FE4F02D24FF00000704710B54A
:1017E00000F09DF849922480002070476FEA2000A5
:1017F00070470000B0FA80F310FA03F2C3F19D03C2
:101800000AD0D90501EB1220530638BF704700F10A
:10181000010008BF20F00100704700004FF47F0C6A
:101820001CEAD0121EBF1CEAD11392EA0C0F93EAF5
:101830000C0F00F0478090EA010F48BF42F480721D
:101840004FF0004C4CEA00204CEA012102EB03026D
:10185000A0FB0113A2F50002002918BF43F0010309
:101860005B0028BF4FEA330342EB22425FEA132CAE
:101870004CEBC2502EBFBCEB436FB2F57C0F7047F0
:101880004FEA036CBCF1004F08BF20F00100B2F535
:101890007C0F38BF70470BD582F0FF0212F5803FF6
:1018A000C8BF704700F1C040D8BF00F0004070478B
:1018B00000F5000C5FEA4C0C48BF7047B0F1C04027
:1018C00000F073B890EA010F0CEAD11348BF42F45C
:1018D0008072624538BF634504D280EA010000F09F
:1018E0000040704710B500F01AF800BF8900013EB3
:1018F00000F007B800F009B85FEA410C5FEA1C6C21
:1019000008D080EA010000F050B85FEA400C5FEABE
:101910001C6CF6D14FF00040A0F5800070470EF12E
:10192000020E2EF0030E5EF8044B244204D44FEA5C
:101930004102B2F17F4F11D84FEA4003B3F17F4F1C
:101940000CD80ED14FEAD07CB2F17F4F0CEB4C0C8F
:101950000CF1020C08BF4CEBD17C04E04FF0080CFA
:1019600001E04FEAD17C0CEB4C0324FA03F404F0C1
:101970000704B4F1040C06D20EEB840CBDE8104051
:101980004CF0010C6047DFE80CF0070802024FF052
:101990000040A0F5800010BD0846420018BFD2F1FB
:1019A000807288BF00F0004010BDFF2141EAD05096
:1019B000C00570470CF00F03092B08BF082000F08A
:1019C00051800A2B0BD0082B18BF704708BF1CF0A2
:1019D000400F0AD04FF000004FF0000170471CF09C
:1019E000400F18BF4FF0004070471CF0100F08D098
:1019F00020F0704300F07F4242EAD3014FEA437087
:101A0000704700F0604021F07F4242EA000201F09E
:101A10007F4040EA727070474FF0FF0212EAD052E6
:101A20001CBF92F0FF038B42C2BFD14200EBC150FA
:101A30007047002A0AD0002B0BD0002900F000408C
:101A4000A4BF40F0FE4040F40000704700F00040AA
:101A5000704743024FF00B0C18BF4CF0806C7FF4C2
:101A6000A3AE70471CF4801F11D01CF4E02F03D0EC
:101A70006FEACC31490070474FF04050EFF30082DD
:101A800022F0704242EA000282F3008870474FF071
:101A9000000070470000000000000000000000008F
:101AA00000000000000000F800000000000000330B
:101AB0003000000000100C06100C060000000000B2
:101AC0000000000040C07840C0784000043F04049B
:101AD0003F040400007088FC08300000001820FF5C
:101AE000211E0000F008F000E018000000211C0397
:101AF0001E211E0000F00888700000001E21232413
:101B00001927211010160E00000000000000000030
:101B100000000000000000E01804020000000007C0
:101B20001820400000020418E000000000402018C7
:101B300007000000404080F0804040000202010F9A
:101B400001020200000000F0000000000101011F7E
:101B500001010100000000000000000080B07000E2
:101B60000000000000000000000000000001010172
:101B70000101010100000000000000000030300001
:101B800000000000000000008060180400601806DB
:101B90000100000000E010080810E000000F102015
:101BA00020100F00001010F8000000000020203F5F
:101BB00020200000007008080888700000302824E9
:101BC000222130000030088888483000001820208A
:101BD00020110E000000C02010F8000000070424AF
:101BE000243F240000F808888808080000192120F4
:101BF00020110E0000E0108888180000000F11204E
:101C000020110E0000380808C83808000000003F06
:101C1000000000000070880808887000001C222165
:101C200021221C0000E010080810E0000000312212
:101C300022110F00000000C0C000000000000030B2
:101C40003000000000000080000000000000806004
:101C50000000000000008040201008000001020485
:101C6000081020004040404040404000040404046C
:101C70000404040000081020408000000020100828
:101C800004020100007048080808F000000000305D
:101C900036010000C030C828E810E00007182724EB
:101CA00023140B000000C038E0000000203C230299
:101CB0000227382008F8888888700000203F2020FC
:101CC00020110E00C030080808083800071820202E
:101CD0002010080008F808080810E000203F202025
:101CE00020100F0008F88888E8081000203F202006
:101CF0002320180008F88888E8081000203F2000FA
:101D000003000000C0300808083800000718202031
:101D1000221E020008F808000008F808203F2101F0
:101D200001213F20000808F8080800000020203F9B
:101D30002020000000000808F8080800C08080800B
:101D40007F00000008F888C028180800203F200104
:101D50002638200008F8080000000000203F20205E
:101D60002020300008F8F800F8F80800203F003F75
:101D7000003F200008F830C00008F808203F20008D
:101D800007183F00E01008080810E0000F1020209E
:101D900020100F0008F808080808F000203F210173
:101DA00001010000E01008080810E0000F182424CA
:101DB00038504F0008F8888888887000203F20003D
:101DC000030C3020007088080808380000382021F3
:101DD00021221C00180808F8080818000000203FFD
:101DE0002000000008F808000008F808001F202064
:101DF00020201F000878880000C838080000073835
:101E00000E010000F80800F80008F800033C070085
:101E1000073C0300081868808068180820302C03ED
:101E2000032C30200838C800C83808000000203FC4
:101E30002000000010080808C838080020382621B3
:101E400020201800000000FE020202000000007FB7
:101E500040404000000C30C00000000000000001C5
:101E60000638C00000020202FE00000000404040B0
:101E70007F000000000004020202040000000000D5
:101E80000000000000000000000000008080808052
:101E9000808080800002020400000000000000003A
:101EA00000000000000080808080000000192422D3
:101EB00022223F2008F8008080000000003F11200F
:101EC00020110E000000008080800000000E112014
:101ED00020201100000000808088F800000E1120F2
:101EE00020103F200000808080800000001F222200
:101EF00022221300008080F0888888180020203F6C
:101F0000202000000000808080808000006B94947E
:101F10009493600008F8008080800000203F21003A
:101F200000203F2000809898000000000020203F03
:101F300020200000000000809898000000C08080F1
:101F4000807F000008F8000080808000203F24028D
:101F50002D302000000808F8000000000020203F7D
:101F6000202000008080808080808000203F200032
:101F70003F20003F8080008080800000203F2100C3
:101F800000203F200000808080800000001F202073
:101F900020201F00808000808000000080FFA120A2
:101FA00020110E000000008080808000000E1120B3
:101FB00020A0FF80808080008080800020203F2142
:101FC00020000100000080808080800000332424F5
:101FD00024241900008080E0808000000000001FA1
:101FE000202000008080000000808000001F202052
:101FF00020103F20808080000080808000010E3013
:102000000806010080800080008080800F300C0373
:102010000C300F0000808000808080000020312E76
:102020000E312000808080000080808080818E7052
:102030001806010000808080808080000021302C04
:102040002221300000000000807C0202000000001D
:10205000003F404000000000FF00000000000000C2
:10206000FF0000000002027C800000000040403FB2
:10207000000000000006010102020404000000004C
:1020800000000000010202030405060708090A0B0C
:102090000C0D0E0F101001020203040506070809BB
:1020A0000A0B0C0D0E0F10100000000000000000C5
:1020B00001020304060708090000000001020304EE
:1020C000E0200008000000201400000028010008A3
:1020D000F4200008140000209406000044010008C9
:1020E00000000000010000001000000000000000DF
:0420F00000127A0060
:04000005080000ED02
:00000001FF
