:020000040800F2
:100000004822002029020008771B00087D180008FC
:10001000751B00081F040008311F000800000000C5
:100020000000000000000000000000007B1B000832
:100030002104000800000000791B00087D1B000857
:10004000430200084302000843020008430200087C
:10005000430200084302000843020008430200086C
:10006000430200084302000843020008430200085C
:10007000430200084302000843020008430200084C
:10008000430200084302000843020008430200083C
:10009000430200084302000843020008430200082C
:1000A000430200084302000843020008430200081C
:1000B000430200084302000843020008430200080C
:1000C00043020008430200084302000843020008FC
:1000D0004302000843020008251F000843020008ED
:1000E00043020008430200084302000843020008DC
:1000F00043020008430200084302000843020008CC
:1001000043020008430200084302000843020008BB
:100110004302000843020008251C000843020008AF
:10012000430200084302000843020008430200089B
:10013000430200084302000843020008430200088B
:10014000430200084302000843020008430200087B
:10015000430200084302000843020008430200086B
:10016000430200084302000843020008430200085B
:100170004302000843020008430200080000000098
:10018000430200084302000800F002F800F03CF8C7
:100190000AA090E8000C82448344AAF10107DA45E2
:1001A00001D100F031F8AFF2090EBAE80F0013F0F8
:1001B000010F18BFFB1A43F001031847E01D0000B0
:1001C000001E0000103A24BF78C878C1FAD8520740
:1001D00024BF30C830C144BF04680C6070470000C1
:1001E0000023002400250026103A28BF78C1FBD840
:1001F000520728BF30C148BF0B6070471FB501F0E0
:10020000BBFE1FBD10B510BD00F0CFF81146FFF7C3
:10021000F5FF01F09EFE00F0EDF803B4FFF7F2FFEA
:1002200003BC00F0F5F80000094880470948004782
:10023000FEE7FEE7FEE7FEE7FEE7FEE7FEE7FEE796
:10024000FEE7FEE704480549054A064B70470000F3
:10025000151C0008890100084802002048220020DF
:10026000481200204812002053EA020C00F0698076
:100270002DE9F04B4FF00006002B1FBFB3FA83F5BA
:1002800003FA05F424FA05F65E4012BF1643B2FAEB
:1002900082F502FA05F4C5F120051EBF22FA05FC1D
:1002A00044EA0C04203556EA044C4FEA144418BFC3
:1002B000641C4FF000084FF00009904271EB030CF2
:1002C00039D3002919BFB1FA81F701FA07F6B0FA5C
:1002D00080F700FA07F6C7F120071EBF20FA07FCD7
:1002E00046EA0C062037B6FBF4FCA7EB0507103FE7
:1002F00007F01F0BCBF120060CFA0BFB2CFA06F6CD
:1003000044BFB3460026202FA4BF5E464FF0000B2B
:100310005BEA060C08BF4FF0010B19EB0B09ABFBB6
:10032000027C48EB0608C01B06FB02CC0BFB03CC8F
:1003300071EB0C01C1E70B46024641464846BDE859
:10034000F08B13B54FF000004FF00001AFF30080C9
:10035000BDE81C4070474FF0000200B513469446BC
:100360009646203922BFA0E80C50A0E80C50B1F10D
:100370002001BFF4F7AF090728BFA0E80C5048BF21
:100380000CC05DF804EB890028BF40F8042B08BFBF
:10039000704748BF20F8022B11F0804F18BF00F8BB
:1003A000012B7047704770477047754600F02CF876
:1003B000AE4605006946534620F00700854618B052
:1003C00020B5FFF73FFFBDE820404FF000064FF09B
:1003D00000074FF000084FF0000B21F00701AC467A
:1003E000ACE8C009ACE8C009ACE8C009ACE8C00999
:1003F0008D46704710B50446AFF300802046BDE837
:100400001040FFF70ABF000000487047E4010020D9
:1004100001491820ABBEFEE7260002007047FEE748
:10042000704772B6FEE7000070B5B3F5804F05D097
:100430006FF0704140F82210002070BD50F822404B
:10044000084B8E891C40D1E9003543EA05138D68BD
:1004500089692D0245EA06452B430B43234340F8A7
:100460002230E9E70000F0CFF0B50C6850F82430F6
:10047000114A1340D1E90125D1E903672A433E43DC
:1004800032434E6932438E693243CE6932430E6A3B
:1004900032434E6A32438E6A3243CE6A3243CE6B67
:1004A000096B32430A431A43082D01D142F040023E
:1004B00040F824200020F0BD8000F0FF30B500EBB4
:1004C000820250688D8900F04043D1E9000440EA7F
:1004D00004108C68240244EA054420430C8A074D2A
:1004E00005EB045420430C7D6D0105EB0464896920
:1004F0002043084318435060002030BD0000F0FF47
:100500002DE9F0410446876D00F08EF9064694F817
:1005100035000025022806D08020606584F834501C
:100520000120BDE8F0812068016821F0160101601A
:100530002068416921F080014161206C08B9A06CFC
:1005400020B12068016821F008010160206801687D
:1005500021F0010101600CE000F066F9801B052824
:1005600007D920206065032084F8350084F83450D2
:10057000D7E720680068C007EED194F85C103F20F0
:100580008840B860012084F8350084F83450002099
:10059000C7E790F83510022903D08021416501207A
:1005A0007047052180F835100068016821F00101CD
:1005B0000160002070470000F0B587B01421684644
:1005C000FFF7C9FE15480168002924D10121016007
:1005D00013480024016841F0010101600068022510
:1005E00000F0010005904FF68070CDE9000502AAE9
:1005F00003260C2782E8D00069460A4800F016F866
:100600004EF2B370CDE9000502AA694682E8D00037
:10061000054800F00BF807B0F0BD00000000002016
:100620003838024000100240000C02402DE9F84F1B
:10063000DFF8BCA1002201250AF1040B03264FF0CC
:100640000F090BF1040E00BF0B6805FA02F42340FA
:10065000A34270D10F7907F00307012F01D0022FB9
:1006600016D187684FEA420806FA08FC27EA0C0709
:10067000D1F80CC00CFA08FC4CEA070CC0F808C012
:100680004768A7430C79C4F3001494403C4344608A
:100690000C79E443A4070AD0C4684FEA420C06FA76
:1006A0000CF7BC438F6807FA0CF72743C7600C7937
:1006B00004F00304022C12D1D40800EB840CDCF803
:1006C00020405707FF0E09FA07F824EA0804D1F87A
:1006D000108008FA07F848EA0408CCF8208004687B
:1006E0004FEA420C06FA0CF7BC430F7907F00307F8
:1006F00007FA0CF7274307604C6814F4403F70D0AA
:100700003C4C276847F480472760246822F00307A1
:1007100004F480440094384C07EB040CDCF80848DF
:1007200097074FEA177809FA08F7BC43334FB842E6
:1007300002D1002724E054E0314FB84201D1012713
:100740001EE0304FB84201D1022719E02E4FB842C7
:1007500001D1032714E02D4FB84201D104270FE047
:100760002B4FB84201D105270AE02A4FB84201D1E8
:10077000062705E0284FB84201D1072700E00827E7
:1007800007FA08F72743CCF80878DAF8004057460C
:10079000D1F804C09C435FEACC3C00D51C433C60CC
:1007A000DBF800405F46D1F804C09C435FEA8C3C14
:1007B00000D51C433C60DEF800407746D1F804C009
:1007C0009C435FEACC2C00D51C433C60084F0C379F
:1007D0003C68D1F804C09C435FEA8C2C00D51C43D4
:1007E0003C60521C102AFFF42FAFBDE8F88F0000C8
:1007F000003C01404438024000300140000002400B
:100800000004024000080240000C024000100240B8
:100810000014024000180240001C02400AB181612D
:1008200070470904FBE7000001488068704700003A
:100830000800002070B5040025D094F83D00002584
:1008400020B984F83C50204600F0B8F8242084F801
:100850003D002068016821F0010101602068016805
:1008600041F4004101602068016821F40041016009
:1008700000F00EFA4D4A6168914201D84C4900E0FF
:100880004C49884201D2012070BD4B492368B0FB1E
:10089000F1F15E6826F03F060E435E6063689342A6
:1008A00006D94FF4967359434FF47A73B1FBF3F1C1
:1008B0002368491C1E6A26F03F06314319626168AD
:1008C000914210D84900401EB0FBF1F2521CC2F315
:1008D0000B02042A01D2042022E0B0FBF1F0401CFC
:1008E000C0F30B001CE0A268F2B301EBC10303EB01
:1008F0000116431EB3FBF6F35B1C43F480431B0558
:1009000049D092B301EBC10202EB0111401EB0FBD2
:10091000F1F0401CC0F30B0040F4804040F4004074
:100920002168CA694CF6FF739A431043C861D4E941
:10093000071001432068026822F0C00211430160E1
:10094000D4E9030101432068826848F2FF339A43E7
:1009500011438160D4E9050108432168CA6822F087
:10096000FF021043C86001E00EE016E02068016855
:1009700041F0010101602564202084F83D002563D9
:1009800084F83E50002070BD01EB4106431EB3FBCE
:10099000F6F35B1CB3E70120C2E701EB4101401E07
:1009A000B0FBF1F0401CC0F30B00B7E7A0860100DC
:1009B00080841E0000093D0040420F0010B586B043
:1009C000044614216846FFF7C6FC14492068884293
:1009D00021D11348016841F00201016000686946B5
:1009E00000F0020005904FF440700090122001903A
:1009F0000120029003200390042004900948FFF78F
:100A000015FE07481030016841F4001101600068CC
:100A100000F40010059006B010BD00000054004026
:100A200030380240000402400248816802781144D4
:100A300081607047080000200B4810B5016841F440
:100A400000710160016841F480610160016841F456
:100A500080710160032000F06FF80F2000F006F8AD
:100A600000F024F8002010BD003C024070B50D4D90
:100A700004464FF47A712878B1FBF0F00A4909680E
:100A8000B1FBF0F000F0CDFB48B9102C07D20022EA
:100A90002146501E00F030F800206C6070BD01202F
:100AA00070BD000008000020140000200A4808B5AE
:100AB000016841F480410160006800F480400090CA
:100AC0000548001F016841F080510160006800F096
:100AD0008050009008BD000044380240002809DB27
:100AE00000F01F02012191404009800000F1E02048
:100AF000C0F8001170470000F0B40E4B1B680C46A4
:100B0000C3F30223C3F10705042D00D90425191DE1
:100B1000072901D2002300E0DB1E012606FA05F1B9
:100B2000491E214099409E40761E16403143F0BC3C
:100B300001F0FFB90CED00E0064900F0070208687B
:100B40004FF6FF03184040EA0220034A10430860B2
:100B5000704700000CED00E00000FA052DE9F047B9
:100B60000E46050065D0DFF81481D8F80000F7B212
:100B700000F00700B04207D288F80070D8F80000F3
:100B800000F00700B04254D128683D4C810712D5CF
:100B9000400703D5206840F4E05020602878000723
:100BA00003D5206840F4604020602068A96820F0E8
:100BB000F000084320602878C0072DD030496868CD
:100BC0000839012812D0022813D0032811D009684F
:100BD000890700292DDA216821F0030101432160F2
:100BE000FFF722FE814641F2883A0EE00968890348
:100BF000EFE709688901ECE7FFF716FEA0EB0901B2
:100C0000514502D90320BDE8F0872068696800F0EB
:100C10000C00B0EB810FEFD1D8F80010404601F086
:100C20000701B14207D90770006800F00700B04221
:100C300001D00120E7E72878400705D52068E9685A
:100C400020F4E050084320602878000706D520688B
:100C5000296920F4604040EAC100206000F038F8C3
:100C60002168084AC1F30311515CC8400649086075
:100C700006480068FFF7FAFE0020C4E7003C024087
:100C800008380240821F0008140000200C000020D9
:100C90000448054900680968044AC1F38221515C8F
:100CA000C84070471400002008380240921F000816
:100CB0000448054900680968044AC1F34231515C9F
:100CC000C84070471400002008380240921F0008F6
:100CD000154810B5006810F00C02144813D01449E0
:100CE000042A0FD0082A0ED10F4C241F2268236833
:100CF00002F03F025B0207D52068C0F38810A0FB1A
:100D0000010106E0084610BD2168C1F38811A1FB6E
:100D100000010023FFF7A8FA2168C1F30141491C33
:100D20004900B0FBF1F010BD083802400024F40087
:100D300040787D012DE9F84F04006ED02078DFF86F
:100D40004C93C007A9F104054AD009F104000168D9
:100D5000C1F38101012908D00068C0F38100022895
:100D60000AD1D9F80000400206D52868800337D59B
:100D700060680028E1D033E06068B0F5803F10D0B3
:100D8000B0F5A02F286810D020F4803028602868A3
:100D900020F4802028606068A8B1FFF745FD064672
:100DA0000DE0286840F48030F4E740F480202860AB
:100DB000F7E700BFFFF738FD801B642873D8286869
:100DC0008003F7D50CE0FFF72FFD064605E000BFD6
:100DD000FFF72AFD801B6428F0D828688003F7D429
:100DE0002078DFF8AC8280074FF0000A3ED5A74894
:100DF000001D016811F00C0F08D00068C0F38100DD
:100E000002280BD1D9F80000400207D428688007D7
:100E100016D5E068012800D112E033E1E068B8B1EE
:100E20000120C8F80000FFF7FFFC064605E000BF00
:100E3000FFF7FAFC801B0228C0D828688007F7D586
:100E40002868216920F0F80040EAC10028600DE020
:100E5000C8F800A0FFF7E8FC064604E0FFF7E4FC52
:100E6000801B02281FD828688007F7D42078000745
:100E700022D5864F87486169703771B101210160C1
:100E8000FFF7D2FC064604E0FFF7CEFC801B0228E9
:100E900009D838688007F7D50EE0C0F800A0FFF742
:100EA000C3FC064605E082E0FFF7BEFC801B02287B
:100EB0007DD838688007F7D42078400768D5DFF8F8
:100EC000CCB100270BF13C0BDBF80000C0000BD4C9
:100ED000DBF8001041F08051CBF80010DBF8000087
:100EE000012700F0805000906B4E3068C00510D490
:100EF000306840F480703060FFF796FC009005E0A9
:100F0000FFF792FC0099401A022850D83068C005BB
:100F1000F6D55E4EA0686C3601280FD005283068E3
:100F200010D020F001003060306820F00400306004
:100F3000A068B8B1FFF778FC00900FE0306840F08F
:100F40000100F4E740F004003060F7E7FFF76CFCC5
:100F50000099411A41F28830814266D83068800792
:100F6000F4D50EE0FFF760FC009007E0FFF75CFCB3
:100F70000099411A41F28830814256D83068800782
:100F8000F4D42FB1DBF8001021F08051CBF8001021
:100F9000A069C8B33D49091D0968C1F3810102294F
:100FA0004AD00228504607D0C8F8600000E03CE074
:100FB000FFF73AFC04463BE04746C8F86000FFF7FD
:100FC00033FC064605E000BFFFF72EFC801B02281D
:100FD0002BD828688001F7D4D4E907010843A16A17
:100FE0002E4A490802EB0141626A41EA8211084334
:100FF00094F82C1040EA0161C9F80010012038660D
:10100000FFF712FC044606E03EE000BFFFF70CFCD1
:10101000001B022809D828688001F7D534E000BFFA
:10102000FFF702FC001B022802D90320BDE8F88F5D
:1010300028688001F4D427E00128F7D0D9F800000F
:10104000E26900F4800191421CD1226A00F03F0164
:10105000914217D147F6C071626A0140B1EB821F1D
:1010600010D1A26A4FF0FF3300F4403103EB52027B
:10107000B1EB024F06D194F82C1000F07060B0EB89
:10108000016F01D00120D1E70020CFE704380240F2
:1010900000004742800E4742007000400000FFFF02
:1010A00070B5040009D0606A002540B12561656112
:1010B000A56294F8510040B10CE0012070BD606859
:1010C000B0F5827FF4D0E561F2E784F85050204615
:1010D00000F044F8022084F851002068016821F0F3
:1010E00040010160A088218900F4827001F404416C
:1010F0000843A18901F400610843217C01F0020149
:101100000843217D01F001010843218B01F40071A6
:101110000843217F01F03801084394F8201001F0C2
:1011200080010843218D01F40051084321680860C3
:10113000A069042101EA104094F8241001F0100184
:101140000843216848602068C16921F40061C161D9
:101150006565012084F85100002070BD10B586B08F
:10116000044614216846FFF7F6F8144920688842BF
:1011700021D11348016841F480410160006800F406
:10118000804005900E481038016841F0020101606E
:101190000068694600F0020005904FF4604000903E
:1011A000022001900120029003200390052004906A
:1011B0000448FFF73BFA06B010BD000000380040BD
:1011C000403802400004024070B515460E46040047
:1011D00003D094F8490010B107E0012070BD002051
:1011E00084F84800204600F01AF804F1080120684D
:1011F000FFF73AF93146A2682068FFF75FF9D4E9B2
:1012000001022946236BFFF70FF9A168206850F807
:10121000212042F0010240F82120002070BDFFF79C
:10122000CBB910B5401EB0F1807F01D3012010BDB5
:101230004FF0E02460610F21601700F07AFE00207B
:10124000A06107202061002010BD7047704700009A
:1012500070B590F83C20012A32D0012480F83C403F
:10126000022280F83D2003685A689D6822F07006CB
:101270000A6832435A60134B02689A4214D0B2F1A2
:10128000804F11D0104B9A420ED0104B9A420BD087
:101290000F4B9A4208D00F4B9A4205D00E4B9A4200
:1012A00002D00E4B9A4204D1496825F080031943BD
:1012B000916080F83D40002180F83C10084670BDE8
:1012C000022070BD00000140000400400008004002
:1012D000000C0040000401400040014000180040A4
:1012E00010B5040003D094F83D0010B107E00120D0
:1012F00010BD002084F83C00204600F01FF80220BA
:1013000084F83D00211D206800F092FC012084F843
:10131000460084F83E0084F83F0084F8400084F8DA
:10132000410084F8420084F8430084F8440084F8C3
:10133000450084F83D00002010BD000008B500689D
:101340000B49884212D10B48016841F0100101603D
:101350000068002200F01000009011463620FFF7D0
:10136000CBFBBDE808403620FFF7B8BB08BD000046
:101370000010004040380240704770B504460068D5
:1013800001694FF00005C943890715D4C168C943F5
:10139000890711D4E91E0161012020772068806946
:1013A0008007204602D0FFF7E7FF04E000F098F83E
:1013B000204600F096F8257720680169C94349075F
:1013C00017D4C168C943490713D46FF00401016100
:1013D000022020772068806910F4407F204602D0E8
:1013E000FFF7CAFF04E000F07BF8204600F079F830
:1013F000257720680169C943090716D4C168C94324
:10140000090712D46FF008010161042020772068D9
:10141000C0698007204602D0FFF7AEFF04E000F06D
:101420005FF8204600F05DF8257720680169C94320
:10143000C90617D4C168C943C90613D46FF0100197
:101440000161082020772068C06910F4407F2046A1
:1014500002D0FFF791FF04E000F042F8204600F0D0
:1014600040F8257720680169C943C90708D1C168D8
:10147000C943C90704D1891E0161204600F032F832
:1014800020680169C943090609D4C168C94309062E
:1014900005D46FF0800101612046FFF7D6FE206879
:1014A0000169C943490609D4C168C943490605D43D
:1014B0006FF040010161204600F015F820680169D5
:1014C000C94389060BD4C168C943890607D46FF0A4
:1014D000200101612046BDE87040FFF7B7BE70BD36
:1014E000704770477047704770477047F8B501689C
:1014F00004460868CA684B6910F00F0F4FF00005EA
:1015000059D003F0010602F49077374365D0C10744
:1015100005D0D10503D5216C41F0010121644107BB
:1015200005D5D90703D0216C41F002012164810760
:1015300005D5D90703D0216C41F0040121640107CE
:1015400007D502F02001314303D0216C41F008019E
:101550002164216C00293AD0800604D5900602D57A
:10156000204600F0F8FB20684069216CC0F3801031
:10157000090700D460B3204600F0C6FB206840692C
:10158000400621D52068143050E8001F21F04001AA
:1015900040E80012002AF5D1A06BA8B16C490165A2
:1015A000A06BFEF7F6FF002811D0A06B016D01B013
:1015B000BDE8F040084783060FD593060DD52046B9
:1015C000BDE8F84000F0C7BB2046FFF78EFFF8BD2E
:1015D0002046FFF78AFF2564F8BD266B2023012EE5
:1015E00079D1C60677D5D60675D5086848680090C3
:1015F0004869400640D5A16B086840680004000CAB
:10160000EAD0A28D8242E7D9E085C869B0F5807F33
:101610002DD020680C3050E8001F21F4807140E884
:101620000012002AF5D12068143050E8001F21F084
:10163000010140E80012002AF5D12068143050E87A
:10164000001F21F0400140E80012002AF5D184F883
:101650003E30256320680C3050E8001F21F0100157
:1016600040E80012002AF5D1A06BFEF749FFA08DDB
:10167000E18D401A81B229E0A08DE18D401A81B23E
:10168000E08D0028A8D00029A6D020680C3050E8B2
:10169000002F22F4907240E80026002EF5D1206839
:1016A000143050E8002F22F0010240E80026002EFE
:1016B000F5D184F83E30256320680C3050E8002FC7
:1016C00022F0100240E80023002BF5D12046FFF75E
:1016D0000BFFF8BDFFE705062BD5150629D594F8B5
:1016E0003D002128F5D1A068B0F5805F01D12069C7
:1016F000B0B1206A411C2162216800784860E08C0A
:10170000401E0004000CE084E3D12068C16821F091
:101710008001C1602068C16841F04001C160D8E724
:10172000206A0088C0F308004860206A801C20629C
:10173000E5E74006CDD55006CBD5CA68204622F055
:101740004002CA6084F83D3000F097F8C1E700001D
:10175000F91C000870B5040004D094F83D00002581
:1017600010B106E0012070BD84F83C50204600F026
:1017700023F8242084F83D002068C16821F400513A
:10178000C160204600F048FB2068016921F49041C7
:1017900001612068416921F02A0141612068C16826
:1017A00041F40051C1602564202084F83D0084F894
:1017B0003E00002070BD0000F0B587B00446142143
:1017C0006846FEF7C8FD2848264F266800222649AD
:1017D0001038022303240725BE4223D10E6846F4A5
:1017E00000360E60096801F400310591016841F08E
:1017F00001010160006802AE00F0010005900C20BC
:10180000CDE9000386E8340069461848FEF70EFF6C
:10181000002201212620FFF76FF92620FFF75EF94D
:1018200007B0F0BD124FBE42FAD10E6846F48026D2
:101830000E60096801F480210591016841F0020100
:101840000160006802AE00F0020005904FF44060B5
:10185000CDE9000386E8340069460648FEF7E6FE57
:10186000DEE7000000440040403802400000024033
:10187000004800400004024070477047FEE7000047
:1018800010B58EB01C216846FEF765FD1C2107A827
:10189000FEF761FD1A484FF02041102201601949FE
:1018A000416000218160C160C0E904128161C161B1
:1018B00013020162C0E909139302C0E90B134163EB
:1018C000816341640F203C230090CDE9010303AC08
:1018D000112384E80E0009240691CDE9074009ACE4
:1018E000082084E80F000D9107AA69460448FFF715
:1018F0006BFC002801D0FEF794FD0EB010BD000077
:1019000018000020040100A02DE9F04786B0142142
:101910006846FEF720FD41480025016841F01001AE
:101920000160016801F010010591016841F00401B6
:101930000160016801F004010591016841F0800136
:101940000160016801F080010591016841F0010129
:101950000160016801F001010591016841F0020197
:101960000160016801F002010591016841F0080180
:1019700001600068DFF8A88000F008004FF400560E
:101980000590002231464046FEF748FFDFF894906C
:10199000002202214846FEF741FF01221703394683
:1019A0004846FEF73BFFDFF880A00022394650464C
:1019B000FEF734FF1C20CDE900050124694602949E
:1019C0001A48FEF733FECDE9006469464046CDE98A
:1019D0000245FEF72BFE02268DE87000694614488A
:1019E000FEF724FE2020CDE900056946029440461A
:1019F000FEF71CFEB81CCDE90004CDE9024669469D
:101A00004846FEF713FE0097CDE90145694650466A
:101A10000395FEF70BFE06B0BDE8F08730380240B4
:101A20000008024000040240000C02400010024086
:101A3000000002400D4810B50B4901600C4941609F
:101A400000214FF480428160C0E90312416181614D
:101A5000C1610162FEF7EEFE002803D0BDE8104030
:101A6000FEF7DFBC10BD00000054004068000020FD
:101A7000A0860100104810B50E4901604FF4827134
:101A8000416000218160C1604FF400720161C0E9D2
:101A900005121822C0E90721416281620A21C16250
:101AA000FFF7FEFA002803D0BDE81040FEF7B9BCEE
:101AB00010BD000000380040BC0000201CB5002410
:101AC0000F4800940D49019401605421C0E90114AC
:101AD00040F2E731C16080218161FFF701FC08B16C
:101AE000FEF79FFC0094694605480194FFF7B0FBA0
:101AF000002801D0FEF795FC1CBD0000001000403E
:101B0000140100200C4810B50A4901604FF4E1317E
:101B10004160002181600C22C160C0E90412816132
:101B2000C161FFF717FE002803D0BDE81040FEF7A3
:101B300078BC10BD004400405C0100200C4810B58A
:101B40000A4901604FF4E1314160002181600C22BB
:101B5000C160C0E904128161C161FFF7FBFD00288B
:101B600003D0BDE81040FEF75CBC10BD004800404B
:101B7000A0010020FEE7FEE770477047FEF754BF64
:101B800030B593B030216846FEF7E5FB14210CA870
:101B9000FEF7E1FB1D480025016841F0805101601E
:101BA000006800F0805011901948016841F48041AC
:101BB00001600068022400F480401190012003902D
:101BC00010200490009406940820CDE90750A82026
:101BD000CDE9090404200B906846FFF7ABF808B183
:101BE00072B6FEE70CA90F2081E831004FF4A05037
:101BF0000F904FF48050109005210CA8FEF7AEFF17
:101C0000002801D072B6FEE713B030BD4038024064
:101C1000007000400248016841F4700101607047A3
:101C200088ED00E00148FFF7A8BB00001401002088
:101C3000F0B50268254C264D264E274F274B4FF016
:101C4000804CA04209D0604507D0A84205D0B042E0
:101C500003D0B84201D0984204D122F0700E4A68F5
:101C600042EA0E02A0421BD0604519D0A84217D00C
:101C7000B04215D0B84213D0984211D0184DA842A6
:101C80000ED0184DA8420BD0174DA84208D0174DC2
:101C9000A84205D0164DA84202D0164DA84203D145
:101CA00022F44075CA682A434D6922F080022A4313
:101CB00002608A68C2620A688262A04201D09842C9
:101CC00001D10969016301214161F0BD00000140BA
:101CD0000004004000080040000C004000040140E7
:101CE000004001400044014000480140001800400D
:101CF000001C00400020004010B5806B0021C18511
:101D0000C184FFF7F2FB10BD01680C3151E8002FD0
:101D100022F4907241E80023002BF5D101681431C0
:101D200051E8002F22F0010241E80023002BF5D1F9
:101D3000016B012909D101680C3151E8002F22F013
:101D4000100241E80023002BF5D1202180F83E103D
:101D500000210163704708B590F83E10222901D098
:101D6000022008BD82684FF480539A4201D1016974
:101D700021B1816A9A421BD04AB10AE00268816AA5
:101D80005268C2F308020A80816A891C08E002696D
:101D900072B10268526802F07F020A70816A491CBF
:101DA0008162C18D491E0904090CC18503D019E067
:101DB00002685268F1E70168CA6822F02002CA602E
:101DC0000168CA6822F48072CA6001684A6922F018
:101DD00001024A61202180F83E10016B012903D0E5
:101DE000FFF74AFD002008BD0021016301680C31A6
:101DF00051E8002F22F0100241E80023002BF5D11A
:101E000001680A68D20602D50A6849680091818D86
:101E1000FFF76AFBE6E7000070B504460068016959
:101E2000E26821F44051114301612169A068E2692F
:101E300008436169114308432168CA6849F20C6389
:101E40009A430243CA6020684169A26921F4407143
:101E50001143416131492068884202D030498842AB
:101E600002D1FEF725FF01E0FEF712FFE269002331
:101E7000192164253226B2F5004F626828D0A0FBF4
:101E80000101930F9200FEF7EFF90146B0FBF5F068
:101E90006FF01802504301EB800006EB0010B0FB1E
:101EA000F5F000F0F002B1FBF5F002EB0012B1FB2F
:101EB000F5F06FF01803584301EB800006EB0010BB
:101EC000B0FBF5F000F00F0021681044886070BD91
:101ED000A0FB010192185B41FEF7C6F90146B0FB79
:101EE000F5F00201B1FBF5F06FF01803584301EB78
:101EF000800006EBC000B0FBF5F000F0F80002EB4C
:101F00004002B1FBF5F0584301EB800006EBC00046
:101F1000B0FBF5F000F00700D6E70000001001402C
:101F2000001401400148FFF7E1BA00005C01002005
:101F3000FEE70907090E002804DB00F1E02080F825
:101F40000014704700F00F0000F1E02080F8141D2D
:101F50007047FEF771FDFFF713FEFFF7D5FCFFF7A3
:101F6000D1FDFFF78DFCFFF785FDFFF763FDFFF760
:101F7000A5FDFFF7E3FDFEE74FF04070E1EE100A2C
:101F80007047000000000000000001020304060783
:101F9000080900000000010203040000BC1F000843
:101FA0000000002018000000C4010008D41F000831
:101FB0001800002030220000E001000800000000AE
:101FC0000000000001000000100000000000000000
:041FD0000024F400F5
:040000050800018965
:00000001FF
