:020000040800F2
:10000000F80400200101000843240008FD1C00083A
:100010004124000835090008612A0008000000009A
:100020000000000000000000000000003127000870
:1000300037090008000000002F27000833270008B8
:100040001B0100081B0100081B0100081B01000820
:100050001B0100081B0100081B0100081B01000810
:100060001B0100081B0100081B0100081B01000800
:100070001B0100081B0100081B0100081B010008F0
:100080001B0100081B0100081B0100081B010008E0
:100090001B0100081B0100081B0100081B010008D0
:1000A0001B0100081B0100081B0100081B010008C0
:1000B0001B0100081B0100081B0100081B010008B0
:1000C0001B0100081B0100081B0100081B010008A0
:1000D0001B010008552A00081B0100081B0100082D
:1000E0001B0100081B0100081B010008DFF80CD0F1
:1000F00000F090FB0048004795330008F80400200A
:100100000648804706480047FEE7FEE7FEE7FEE7B1
:10011000FEE7FEE7FEE7FEE7FEE7FEE795270008BD
:10012000ED000008202A04DB203A21FA02F0002129
:10013000704721FA02F3D040C2F1200291400843F7
:1001400019467047D2B201E000F8012B491EFBD2DC
:1001500070470022F6E710B513460A4604461946D2
:10016000FFF7F0FF204610BDF0B480EA0102D40F83
:100170004200B2EB410F02D20246084611464A0045
:1001800042D0C30DDDB2C1F3C752AD1A202D35DA0E
:10019000C1F3160141F4000204B15242C5F1200638
:1001A00002FA06F12A411044B3EBD05F23D0C4B168
:1001B000012DA0EBC35009DCF0BC4FF0004202EA75
:1001C000C352DBB200F5000000F00EB9400000F1B0
:1001D000807000EBC350A0F1807040EAD1704900FC
:1001E00009E0490841EAC071A0EBC35000F50000E6
:1001F000400800EBC350F0BC00F0EDB861420122B2
:1002000002EB4101001BF6E7F0BC704781F00041B2
:10021000AAE780F00040A7E780EA010210B502F0EB
:100220000043400022D04A001FD0010E01EB1261B2
:10023000C0F35600C2F3560240F4000042F400023C
:10024000A0FB022000047F39140400D0401C50EAB7
:10025000124001D44000491EC2B20C0604EBD0107B
:10026000401C4008802A02D003E0002010BD20F08E
:100270000100002900DA0020184310BD30B480EAE4
:10028000010202F0004530F0004221F0004013D09E
:1002900090B1C30DD40DC2F31601C0F31600E41AD9
:1002A00041F4000140F400027D34914201D3641C0A
:1002B00000E04900002C02DA30BC002070474FF407
:1002C00000000023914201D3891A034340084FEAFA
:1002D0004101F7D151B1914202D14FF0004105E007
:1002E00002D24FF0010101E06FF0010103EBC450B5
:1002F000284430BC00F06FB8420005D0C0F3C752AC
:100300005242914201DC0020704700EBC15070471F
:10031000C10F80EAE0700844CA079623002100F06C
:1003200063B800F0004230F000400AD0C10D01F582
:100330006071C0F3160042EA0151C2084007114340
:10034000704700200146704730B50B46014600203B
:100350002022012409E021FA02F59D4205D303FA87
:1003600002F5491B04FA02F52844151EA2F1010208
:10037000F1DC30BD2DE9F05F0546002092469B463A
:1003800088460646814640241BE0284641464746AB
:100390002246FFF7C7FE53465A46C01A914110D372
:1003A00011461846224600F047FA2D1A67EB01085D
:1003B0004F4622460120002100F03EFA17EB0009CB
:1003C0004E41201EA4F10104DFDC484631462A4696
:1003D0004346BDE8F09F0029A8BF7047401C490074
:1003E00008BF20F00100704710B4B0FA80FC00FA9A
:1003F0000CF050EA010404BF10BC704749B1CCF1C5
:10040000200421FA04F411FA0CF118BF0121214350
:100410000843A3EB0C01CB1D4FEA00614FEA10200B
:1004200042BF002010BC704700EBC35010440029AD
:10043000A4BF10BC7047401C490008BF20F0010059
:1004400010BC7047F0B4002802DCF0BC00207047FC
:10045000C0F3C751C0F3160040F40000CA0701D131
:100460004000491E3F2202EB6105002211464FF475
:10047000000626FA01F31344D418844201D8001B65
:100480001A464000491C1729F3DD5100814202D26F
:100490004FF0FF3100E0002102EBC550F0BCFFF748
:1004A0009ABF2DE9FE4F804681EA0300C00F0C463B
:1004B000009021F0004123F00045B8EB0200A94173
:1004C00005D24046214690461C460B46024623F084
:1004D0000040104347D0270DC7F30A00C3F30A5169
:1004E0000290401A019040286BDAC3F3130040F4E5
:1004F000801B0098924620B10023D2EB030A63EBE5
:100500000B0B01985946C0F14002504600F094F997
:1005100006460D4650465946019A00F09CF910EBEC
:1005200008006141002487EA115284EAE7731A4304
:1005300040D0009A62B3019A012A4FEA075215DCB3
:10054000001B61EB02014FF0004202EA0752CDE9C5
:100550000042001C41F5801132462B4600F09CF908
:1005600003B0BDE8F08F40462146F9E7001B61EB80
:100570000201001C41F5801300185B412018A2F510
:10058000001747EB030140EAD570B6196D4111E041
:100590006D084FEA360645EAC0754FEA0752001B60
:1005A00061EB0201001C41F5801149084FEA30005F
:1005B0000019514132462B4603B0BDE8F04F00F020
:1005C0005CB90098012240000023D0EB020263EBEB
:1005D000E073009821464FEAE074B8EB000061EB4D
:1005E0000401E9E783F000435BE781F0004158E74D
:1005F0002DE9FE4F81EA030404F0004421F000419C
:1006000000944FF0000B23F0004350EA01045ED049
:1006100052EA03045BD0C3F30A54C1F30A552C44D5
:10062000A4F2F3340194A0FB0254C1F3130141F48A
:100630008011C3F3130343F4801301FB024400FB56
:10064000034E840A970A44EA815447EA8357A4FB7D
:10065000076802958D0A05FB07854FEA932C04FB7A
:100660000C542705029D4FEA065847EA1637B5EBAA
:1006700008056EEB070C870E920E47EA811742EAD7
:100680008312A7FB0201B6EB0B0164EB00042B0DF8
:1006900043EA0C335E1844EB1C50DA465146E7FB44
:1006A0000201C5F313044FEA0B3343EA14534FEA34
:1006B0000432019C43EA0603A4F10C040294009C5A
:1006C000CDE900B400F0E8F803B0BDE8F08F0020F9
:1006D0000146F9E72DE9F04D81EA030404F0004BEF
:1006E00021F0004514464FF0000A23F0004150EA83
:1006F000050220D054EA01021DD0C5F30A57024674
:10070000C5F31303C1F31300C1F30A5640F4801577
:1007100043F48013A7EB0608101BD64608F2FD38F9
:1007200073EB050002D308F1010801E092185B4168
:10073000B8F1000F03DA00200146BDE8F08D00207B
:100740004FF48011064684460EE0171B73EB050735
:1007500005D3121B63EB050306434CEA010C490861
:100760004FEA300092185B4150EA0107EDD152EA9E
:10077000030012D082EA040083EA0501084305D091
:10078000101BAB4106D20122002306E000224FF0ED
:10079000004302E06FF0010253101AEB06004CEB2D
:1007A000085110EB0A0041EB0B01BDE8F04D00F0E1
:1007B00064B8C1F30A52C1F3130140F2FF3341F4AC
:1007C00080119A4202DA00200146704740F233431A
:1007D0009A42A2F2334202DC5242FFF7A3BC00F07D
:1007E0002BB8000030B5041E71F1000404DB4FF09B
:1007F0000044404264EB0101141E73F1000405DB68
:100800001C464FF00043524263EB0403994208BF79
:10081000904230BD064C074D06E0E06840F0010311
:1008200094E8070098471034AC42F6D3FFF762FC17
:10083000143B0008343B0008202A04DB203A00FA6D
:1008400002F1002070479140C2F1200320FA03F327
:10085000194390407047202A06DBCB17203A41FA13
:1008600002F043EAE07306E041FA02F3D040C2F13D
:100870002002914008431946704710B5141E73F1C9
:10088000000408DA401C41F1000192185B411A4350
:1008900001D120F0010010BD2DE9F04D92469B469C
:1008A00011B1B1FA81F202E0B0FA80F22032904642
:1008B000FFF7C2FF04460F4640EA0A0041EA0B0177
:1008C00053465A46084313D0114653EA010019D043
:1008D000C8F140025046FFF725FC05460E4650463B
:1008E00059464246FFF7A8FF084305D0012004E01F
:1008F00020463946BDE8F08D0020054346EAE07603
:100900002C4337430A986305E40AA0EB0800002251
:10091000FD0A44EA47540A3002D500200146E9E7BF
:10092000010510196941DDE9084500196941BDE873
:10093000F04DA2E7FEE7704772B6FEE710B590F8FB
:1009400021100022022905D00421816380F8202093
:10095000012010BD01680B6823F00E030B600168D5
:100960000B6823F001030B6090F84030C46B012149
:1009700001FA03F3636080F8211080F8202010460C
:1009800010BD000010B590F821100024022903D0FA
:100990000421816301243DE001680A6822F00E020F
:1009A0000A6001680A6822F001020A601A4A0168B6
:1009B000914201D1012121E0174A1432914201D123
:1009C00010211BE0144A2832914201D1891515E00B
:1009D000114A3C32914201D189140FE00E4A503243
:1009E000914202D14FF4803108E00B4A64329142C7
:1009F00002D14FF4801101E04FF08071064A083AAD
:100A00005160012180F82110002180F82010416BF5
:100A100001B18847204610BD0800024070B5044669
:100A200000F004F90546601C02D004480078044434
:100A300000F0FCF8401BA042FAD370BD000000207B
:100A40002DE9F84FDFF8B8910024A9F1040B2346F3
:100A50000F2709F1040AABF1040EC9E00125A540F6
:100A60002A40AA427DD1674ED1F804C0ACEB0608FB
:100A7000B44532D014DCBCF1030F3AD009DCBCF130
:100A8000000F2AD0BCF1010F1CD0BCF1020F31D1F4
:100A90001DE0BCF1110F17D0BCF1120F2AD119E0E3
:100AA000B8F5881F19D006DCB8F5803F15D0B8F529
:100AB000801F1FD111E0B8F5001F0ED0B8F5041F3C
:100AC00018D10AE0CB6815E0CB681B1D12E0CB689B
:100AD00008330FE0CB680C330CE08B682BB1012B93
:100AE0004FF0080303D0456104E0042302E00561F0
:100AF00000E00023FF2A01D8064601E000F10406C9
:100B00004FEA840501D9A5F12005D6F8008007FA3F
:100B100005FC28EA0C0803FA05F548EA0508C6F8BA
:100B200000804D68ED0062D5374DAE6946F0010694
:100B3000AE61AD6924F0030605F001050095334D63
:100B400006EB050CDCF80850A607360F07FA06F886
:100B500025EA0805DFF8B880404503D14FF00008CA
:100B600017E044E0DFF8AC80404502D14FF00108C7
:100B70000FE0DFF8A480404502D14FF0020808E002
:100B8000DFF89880404502D14FF0030801E04FF0B4
:100B9000040808FA06F848EA0508CCF808804D6809
:100BA000D9F80060ED024D4601D5164300E09643AA
:100BB0002E604D68DAF80060AD02554601D5164347
:100BC00000E096432E604D68DBF80060AD035D46A3
:100BD00001D5164300E096432E604D68DEF80060B4
:100BE000ED03754601D5164300E096432E60641C64
:100BF0000D682A46E5407FF431AFBDE8F88F00006C
:100C000008040140000011100010024000000140E3
:100C100000080140000C0140001001400014014098
:100C20000AB1016170470904FBE7000001488068D0
:100C3000704700000000002070B5040025D094F833
:100C40003D00002520B984F83C50204600F07EFA93
:100C5000242084F83D002068016821F00101016032
:100C60002068016841F4004101602068016821F4B6
:100C70000041016000F0C8FB4D4A6168914201D813
:100C80004C4900E04C49884201D2012070BD4B49DB
:100C90002368B0FBF1F15E6826F03F060E435E600C
:100CA0006368934206D94FF4967359434FF47A73AD
:100CB000B1FBF3F12368491C1E6A26F03F0631435D
:100CC00019626168914210D84900401EB0FBF1F2F0
:100CD000521CC2F30B02042A01D2042022E0B0FB12
:100CE000F1F0401CC0F30B001CE0A268F2B301EB72
:100CF000C10303EB0116431EB3FBF6F35B1C43F485
:100D000080431B0549D092B301EBC10202EB0111F4
:100D1000401EB0FBF1F0401CC0F30B0040F48040DB
:100D200040F400402168CA694CF6FF739A431043AF
:100D3000C861D4E9071001432068026822F0C002AC
:100D400011430160D4E9030101432068826848F23D
:100D5000FF339A4311438160D4E9050108432168B8
:100D6000CA6822F0FF021043C86001E00EE016E0FE
:100D70002068016841F0010101602564202084F8A9
:100D80003D00256384F83E50002070BD01EB410614
:100D9000431EB3FBF6F35B1CB3E70120C2E701EB94
:100DA0004101401EB0FBF1F0401CC0F30B00B7E75F
:100DB000A086010080841E0000093D0040420F0013
:100DC0002DE9FF4F83B00025DDE910799A4693465F
:100DD0000446DDF848800095FFF728FF064694F8A2
:100DE0003D0020287CD11923012288492046009605
:100DF00001F09AF80028F5D194F83C0001286FD052
:100E0000012084F83C0020680168C90703D101680B
:100E100041F0010101602068016821F40061016076
:100E2000222084F83D00402084F83E00256467625B
:100E3000A4F82A90608D20857548E062CDE900868F
:100E400053465A462046049900F070FF00287CD192
:100E5000208DDFF8C091202768B1012814D0022826
:100E6000206801681ED041F48061016020684169FA
:100E700080690090BCE02068416981690091016847
:100E800041F400710160B3E02068016821F48061E1
:100E9000016072B62068416981690091016841F47E
:100EA00000710AE041F40061016072B62068416996
:100EB00081690091016821F48061016062B697E068
:100EC000032865D801280CD0022843464FF00002C1
:100ED0004946204600960BD001F026F8A8BB0CE04E
:100EE00091E032464146204601F0C4F868BB72E00A
:100EF00001F01AF848BB72B633E02068016821F4AB
:100F00008061016072B620680069616A0870606A79
:100F1000401C6062208D401E2085608D401E6085D3
:100F20003D4846F2A8110068B0FBF1F0C0EBC000EC
:100F300000EB80000090401E009007D020684069C0
:100F4000C04340070DD50098F5E727E044F8305F2F
:100F50006773A573206940F02000206162B6257395
:100F60001CE02068016841F400710160206800699C
:100F7000616A0870606A401C6062218D491E21858B
:100F8000618D491E618562B621680969017026E09C
:100F900032464146204601F06DF818B1012007B0F5
:100FA000BDE8F08F20680069616A0870606A401CC3
:100FB0006062208D401E81B22185608D401E60855B
:100FC00020684269D243520712D4032903D1016831
:100FD00021F48061016020680069616A0870606ABC
:100FE000401C6062208D401E2085608D401E608503
:100FF000208D00287FF464AF84F83D7084F83E5063
:1010000084F83C50CBE70220C9E700000200100042
:101010000000FFFF040001000C0000202DE9FF4F3D
:1010200083B09A46DDE9119793460446DDF8408087
:10103000FFF7FCFD054694F83D0020287FD11923D9
:10104000012240492046009500F06EFF002876D12D
:1010500094F83C00012872D0012084F83C002068FC
:101060000168C90703D1016841F0010101602068EE
:10107000016821F400610160212084F83D004020D6
:1010800084F83E0000262664C4F82480A4F82A9040
:10109000608D20852C48E062CDE9007553465A46A4
:1010A0002046049900F0C0FE70B930E02A46394667
:1010B000204601F017F858B1206C042804D12068AC
:1010C000016841F400710160012007B0BDE8F08FB4
:1010D000606A216800780861606A401C6062218D46
:1010E000491E89B22185628D521E6285226853692C
:1010F000DB435B070BD469B100781061606A401C68
:101100006062208D401E2085608D401E6085208D90
:101110000028CBD12A463946204600F0D9FE0028C7
:10112000CAD154F83D0B016841F4007101602020E0
:1011300004F81E09E67766770020C6E7FFE702207D
:10114000C3E70000020010000000FFFF10B586B0EA
:101150000021009101910291039100681049884299
:101160001BD1104CA06940F00800A061A06969463D
:1011700000F0080004904FF44060009012200190AD
:10118000032003900848FFF75BFCE06940F480000F
:10119000E061E06900F48000049006B010BD00003A
:1011A0000058004000100240000C014002488168D5
:1011B000027811448160704700000020074810B594
:1011C000016841F010010160032000F075F80F2064
:1011D00000F006F800F024F8002010BD00200240C6
:1011E00070B50D4D04464FF47A712878B1FBF0F0DC
:1011F0000A490968B1FBF0F000F0DCFA48B9102C9C
:1012000007D200222146501E00F036F800206C6004
:1012100070BD012070BD0000000000200C00002007
:101220000C4808B5816941F001018161816901F0D3
:1012300001010091C16941F08051C161C06900F0B4
:10124000805000900448416821F0E06141F0007155
:10125000416008BD0010024000000140002809DB89
:1012600000F01F02012191404009800000F1E020C0
:10127000C0F8001170470000F0B40E4B1B680C461C
:10128000C3F30223C3F10705042D00D90425191D5A
:10129000072901D2002300E0DB1E012606FA05F132
:1012A000491E214099409E40761E16403143F0BCB5
:1012B00001F0ECBB0CED00E0064900F00702086805
:1012C0004FF6FF03184040EA0220034A104308602B
:1012D000704700000CED00E00000FA052DE9F04732
:1012E0000F46050061D0434E306800F00700B84259
:1012F00009D2306820F0070038433060306800F0D1
:101300000700B84251D128683B4C810712D54007ED
:1013100003D5606840F4E06060602878000703D57A
:10132000606840F4605060606068A96820F0F00078
:10133000084360602878C00728D06868012810D06A
:101340002168022810D0890700292EDA616821F06F
:10135000030101436160FFF769FC804641F288396F
:101360000DE021688903EFE78901EDE7FFF75EFCF7
:10137000A0EB0801494502D90320BDE8F087606869
:10138000696800F00C00B0EB810FEFD1306800F01D
:101390000700B8420BD9306820F0070038433060AE
:1013A000306800F00700B84201D00120E5E7287856
:1013B000400705D56068E96820F4E0600843606094
:1013C0002878000706D56068296920F4605040EA53
:1013D000C100606000F038F86168084AC1F3031189
:1013E000515CC8400649086006480068FFF7F8FEEF
:1013F0000020C2E70020024000100240FA3A000834
:101400000C000020040000200448054900684968D9
:10141000044AC1F30221515CC84070470C0000200F
:10142000001002400A3B000804480549006849686A
:10143000044AC1F3C221515CC84070470C0000202F
:10144000001002400A3B00080E4A51680E4801F0A5
:101450000C03042B11D0082B0FD10C48C1F383438C
:10146000C903C05C0AD55168084AC1F34041921EC5
:10147000515C054A5043B0FBF1F0704704494843C2
:10148000704700000010024000127A00EA3A00089B
:1014900000093D002DE9F84F040070D02078C04DC0
:1014A000C00749D06868C0F38100012807D0686888
:1014B000C0F38100022809D16868C00306D52868F6
:1014C000800339D560680028E7D035E06068B0F562
:1014D000803F0BD010B1B0F5A02F11D0286820F4B8
:1014E00080302860286820F4802002E0286840F4DA
:1014F00080302860606890B1FFF798FB06460AE0EC
:10150000286840F480202860F0E700BFFFF78EFBDA
:10151000801B642873D828688003F7D50CE0FFF798
:1015200085FB064605E000BFFFF780FB801B6428B3
:10153000F0D828688003F7D420789A4E80074FF0BF
:1015400001094FF0000839D5686810F00C0F07D07A
:101550006868C0F38100022809D16868C00306D416
:101560002868800714D52069012808D110E0206977
:10157000B0B1C6F80090FFF759FB074605E00AE155
:10158000FFF754FBC01B0228C4D828688007F7D592
:101590002868616920F0F80040EAC10028600DE089
:1015A000C6F80080FFF742FB074604E0FFF73EFB6A
:1015B000C01B022823D828688007F7D420780007AA
:1015C0002CD57948A169D9B1C0F80090FFF72EFB5E
:1015D000074604E0FFF72AFBC01B02280FD8686A01
:1015E0008007F7D571484FF4FA510068B0FBF1F06D
:1015F000009000BF0098411E0091FAD20EE080E0FA
:10160000C0F80080FFF712FB074604E0FFF70EFB6F
:10161000C01B022875D8686A8007F7D42078400775
:1016200060D5E8690027C00008D4E86940F0805020
:10163000E861E869012700F0805000905C4801688B
:10164000C90513D40168834641F480710160FFF736
:10165000EDFA824606E000BFFFF7E8FAA0EB0A00C9
:1016600064284ED8DBF80000C005F5D5E0680128F5
:101670000AD008B1052813D0286A20F0010028629A
:10168000286A20F0040002E0286A40F00100286285
:10169000E06841F2883B98B1FFF7C8FA82460BE058
:1016A000286A40F004002862EEE700BFFFF7BEFAA8
:1016B000A0EB0A0159455AD8286A8007F6D50CE0F4
:1016C000FFF7B4FA824605E0FFF7B0FAA0EB0A0193
:1016D00059454CD8286A8007F6D41FB1E86920F034
:1016E0008050E861E06988B36968C1F3810102292B
:1016F00044D00228C6F8608004D0FFF797FA044669
:1017000038E034E0FFF792FA074604E0FFF78EFA7C
:10171000C01B02282BD828688001F7D4206AB0F5B6
:10172000803F05D16868A16820F4003008436860F4
:10173000D4E908010843696821F47411084368601A
:10174000C6F86090FFF772FA044606E025E000BF95
:10175000FFF76CFA001B022809D828688001F7D52A
:101760001BE000BFFFF762FA001B022802D903202A
:10177000BDE8F88F28688001F4D40EE00128F7D086
:101780006868226A00F48031914204D1616A00F4F1
:101790007010884201D00120EAE70020E8E700004D
:1017A0000010024000004242800442420C0000202F
:1017B0000070004010B5401EB0F1807F01D30120C1
:1017C00010BD4FF0E02460610F21601701F05EF959
:1017D0000020A06107202061002010BD70B590F8A6
:1017E0003C20012A26D0012480F83C40022280F8C7
:1017F0003D2003685A689D6822F070060A683243EB
:101800005A600D4B02689A4208D0B2F1804F05D061
:101810000A4B9A4202D00A4B9A4204D1496825F0F9
:1018200080031943916080F83D40002180F83C100E
:10183000084670BD022070BD002C0140000400402D
:101840000008004010B5040003D094F83D0010B12A
:1018500007E0012010BD002084F83C00204600F085
:101860001FF8022084F83D00211D206800F094FF3D
:10187000012084F8460084F83E0084F83F0084F894
:10188000400084F8410084F8420084F8430084F862
:10189000440084F8450084F83D00002010BD00009D
:1018A00008B500680649884208D10648816941F4B4
:1018B00000618161806900F40060009008BD000053
:1018C000002C01400010024070B5044690F83C0026
:1018D0000025012817D0012684F83C60022084F8F6
:1018E0003D002068826822F0770222F47F42826005
:1018F0000868502838D00DDC20284FD005DC90B384
:10190000102811D14AE0022070BD302846D040286E
:101910000AD13BE060282FD070280DD0B0F5805F51
:1019200003D0B0F5005F12D0012584F83D6000209F
:1019300084F83C00284670BDCB68D1E901212068BD
:1019400000F066FF2068816841F0770109E0CB680C
:10195000D1E90121206800F05BFF2068816841F433
:1019600080418160E1E719E0CA684968206800F0B9
:1019700061FF5021206806E0CA684968206800F0CD
:101980006AFF6021206800F04DFFCEE7CA68496811
:10199000206800F04FFF40212068F4E722680146EC
:1019A0001046F0E770477047F8B5016804460868CC
:1019B000CA684B6910F00F0F4FF0000559D003F0C3
:1019C000010602F49077374365D0C10705D0D105F1
:1019D00003D5616C41F001016164410705D5D90768
:1019E00003D0616C41F002016164810705D5D9071C
:1019F00003D0616C41F004016164010707D502F076
:101A00002001314303D0616C41F008016164616CD5
:101A100000293AD0800604D5900602D5204600F071
:101A20005BFF20684069616CC0F38010090700D437
:101A300060B3204600F029FF20684069400621D5A8
:101A40002068143050E8001F21F0400140E80012E7
:101A5000002AF5D1E06BA8B16D494163E06BFEF758
:101A600091FF002811D0E06B416B01B0BDE8F04060
:101A7000084783060FD593060DD52046BDE8F840EC
:101A800000F02ABF2046FFF78EFFF8BD2046FFF783
:101A90008AFF6564F8BD266B2023012E7CD1C60623
:101AA0007AD5D60678D508684868009048694FF01E
:101AB0000206400640D5E16B086840680004000C4F
:101AC000E8D0A28D8242E5D9E085886920282DD012
:101AD00020680C3050E8001F21F4807140E80012AB
:101AE000002AF5D12068143050E8001F21F00101D0
:101AF00040E80012002AF5D12068143050E8001F99
:101B000021F0400140E80012002AF5D184F842306B
:101B1000256320680C3050E8001F21F0100140E8D8
:101B20000012002AF5D1E06BFEF708FF6663A08D76
:101B3000E18D401A81B22AE0A08DE18D401A81B278
:101B4000E08D0028A6D00029A4D022680C3252E8EB
:101B5000000F20F4907042E80007002FF5D12068B4
:101B6000143050E8002F22F0010240E80027002F37
:101B7000F5D184F84230256320680C3050E8002FFE
:101B800022F0100240E80023002BF5D166632046C6
:101B9000FFF708FFF8BDFFE705062BD5150629D589
:101BA00094F841002128F5D1A068B0F5805F01D1FB
:101BB0002069B0B1206A411C216221680078486028
:101BC000E08C401E0004000CE084E3D12068C16872
:101BD00021F08001C1602068C16841F04001C1600E
:101BE000D8E7206A0088C0F308004860206A801C9B
:101BF0002062E5E74006CDD55006CBD5CA68204621
:101C000022F04002CA6084F8413000F076F8C1E763
:101C10007B28000870B5040004D094F8410000252A
:101C200010B106E0012070BD84F84050204600F05D
:101C300023F8242084F841002068C16821F4005171
:101C4000C160204600F0AAFE2068016921F490419D
:101C500001612068416921F02A0141612068C16861
:101C600041F40051C1606564202084F8410084F88B
:101C700042006563002070BD30B585B0002400943B
:101C80000194029403940068184988422CD11848A2
:101C9000816941F480418161816901F4804104914D
:101CA000816941F0040181618069124D00F00400F6
:101CB00004904FF4007000900220019003200390E4
:101CC00069462846FEF7BCFE2815CDE900046946A2
:101CD00028460294FEF7B4FE002211462520FFF7A5
:101CE000CBFA2520FFF7BAFA05B030BD0038014025
:101CF000001002400008014070477047FEE701688D
:101D00004A69D24352050FD46FF480624A610021C0
:101D100040F8301F202242738173026942F00402AE
:101D20000261017301207047002070472DE9F84FD0
:101D30000446006889460B9D01689846174641F4A1
:101D4000806101602068016841F480710160009544
:101D50004FF0011B0022594620460A9B00F0E4F890
:101D60004FF4007A40B120680068C00501D5C4F87E
:101D700040A00320BDE8F88F216809F0FE0008614B
:101D80002B46284920460A9A00F016F9F0BB206835
:101D90004169806900902A4620460A9900F0A2F91C
:101DA00040B1206C04283AD12068016841F40071E8
:101DB000016034E0FEB2B8F1010F09D02168380AA1
:101DC00008612A4620460A9900F08CF90028E8D1DB
:101DD000206806612A4620460A9900F083F9002807
:101DE000DFD12068016841F4807101600095002214
:101DF000594620460A9B00F097F80028B3D1216885
:101E000009F0FF0040F00100086100E007E02B4608
:101E1000044920460A9A00F0CFF80028AAD00120F1
:101E2000A8E70000020001002DE9F843044600681D
:101E30000D46DDE9089701689846164641F4807121
:101E400001604B4600224FF001112046009700F040
:101E50006BF848B120680068C00502D54FF40070E7
:101E600020640320BDE8F883216805F0FE000861C6
:101E70003B464A461549204600F09EF888B920683E
:101E80004169806900903A464946204600F02AF9A7
:101E900048B1206C042804D12068016841F4007125
:101EA00001600120DEE7F5B2B8F1010F09D0216829
:101EB000300A08613A464946204600F013F90028E6
:101EC000E7D1206805610020CCE700000200010096
:101ED00070B516460D4604461EE02046FFF70FFF7C
:101EE00008B1012070BD681C16D0FEF79FFE801B54
:101EF000A84200D885B920684069C04340070BD587
:101F0000002044F8300F20216173A073216941F053
:101F1000200121612073E4E720684069C043400745
:101F2000DBD4002070BD00002DE9F047984617462D
:101F30000D460446C1F30746DDF820902AE000BFB5
:101F4000B8F1FF3F26D0FEF771FEA0EB0901414535
:101F500002D8B8F1000F1DD12068012E16D080697B
:101F600025EA00000004000C12D00020B84211D174
:101F7000002044F8300F20216173A073216941F0E3
:101F80002001216120730120BDE8F0874069E7E767
:101F90000120EBE72068012E0AD0806925EA0000C5
:101FA0000004000C06D00020B842C9D00020EBE7A6
:101FB0004069F3E70120F7E72DE9F0479846164618
:101FC0000D4604464FF000094FF0200AC1F30747C1
:101FD00023E020684069C043400515D420680168AB
:101FE00041F40071016021686FF480604861C4F8B9
:101FF000309084F83DA084F83E90216C41F00401BB
:10200000216484F83C9021E0701C06D0FEF70EFE9F
:10201000A0EB0800B04203D816B1012F1FD021E079
:102020002068012F15D0806925EA00000004000C0B
:1020300018D000BF44F8309F84F80DA084F80E90AB
:10204000216941F02001216184F80C900120BDE854
:10205000F087406925EA00000004000CEAD12068FE
:10206000406901E02068806925EA00000004000C56
:10207000AFD1ECE72DE9F041002590460E4604462D
:10208000202728E04069C043C0060CD454F8301B18
:102090006FF01000486144F810596777A577206AFF
:1020A0002062257714E0FEF7C1FDA0EB0800B042E6
:1020B00000D886B920684069C04340060BD544F873
:1020C000305F6773A573206940F02000206125739D
:1020D0000120BDE8F08120684169C9434906D1D497
:1020E0000020F6E770B516460D4604461EE0204671
:1020F000FFF705FE08B1012070BD681C16D0FEF781
:1021000095FD801BA84200D885B920684069C0436E
:1021100000060BD5002044F8300F20216173A07316
:10212000216941F0200121612073E4E720684069C2
:10213000C0430006DBD4002070BD00002DE9F0474D
:10214000054616460C46B0F90000FEF7E1F86FF0C0
:102150000D073946FEF7D0F82060B5F90200FEF70A
:10216000D7F83946FEF7C8F86060B5F90400FEF705
:10217000CFF83946FEF7C0F8A060B5F90600FEF7C3
:10218000C7F8DFF8B0904946FEF778F8804630602F
:10219000B5F90800FEF7BCF84946FEF76FF80746A8
:1021A0007060B5F90A00FEF7B3F84946FEF766F825
:1021B000DFF88490054649464046FEF75FF83060F8
:1021C00049463846FEF75AF8706049462846FEF7F9
:1021D00055F8B060A0680146FEF71EF80646606834
:1021E0000146FEF719F8054620680146FEF714F887
:1021F0002946FDF7B9FF3146FDF7B6FF01F066F954
:1022000001460E48814213DD4FF07E50FEF736F84E
:10221000054629462068FDF7FFFF206029466068D3
:10222000FDF7FAFF60602946A068FDF7F5FFA060A2
:10223000BDE8F08700000343E12E6542BD378635D7
:102240002DE9F04186B08046012504A8CDE90005BE
:1022500064242B467522D02102944046FEF7B0FD3F
:102260009DF81000682803D0012006B0BDE8F08179
:10227000002703AE8DF80C700096CDE901540123C0
:102280006B22D0214046FEF7C9FE8DF80C700096F7
:10229000CDE9015401231B22D0214046FEF7BEFEAA
:1022A0008DF80C700096CDE9015401231C22D02139
:1022B0004046FEF7B3FE03208DF80C000096CDE9F2
:1022C000015401231A22D0214046FEF7A7FE002028
:1022D000CBE710B588B00C4664230E2203A98DE825
:1022E0000E0001233B22D021FEF76AFDBDF80C0051
:1022F00040BA2080BDF80E0040BA6080BDF81000E2
:1023000040BAA080BDF8140040BAE080BDF81600C5
:1023100040BA2081BDF8180040BA608108B010BDF5
:102320000D4808B5816941F020018161816901F0A2
:1023300020010091816941F008018161816901F00A
:1023400008010091816941F004018161806900F018
:102350000400009008BD0000001002400D4810B5B8
:102360000B4901600C49416000214FF480428160BB
:10237000C0E9031241618161C1610162FEF75CFC49
:10238000002803D0BDE81040FEF7D6BA10BD00000B
:102390000058004014000020A086010010B586B04F
:1023A000002418480094019402940394049414495E
:1023B0000594016040F2CF21C0E9011440F22B11D5
:1023C000C0E9031444618461FFF73CFA08B1FEF7E9
:1023D000B3FA4FF48050009069460A48FFF774FA48
:1023E00008B1FEF7A9FA049404A906480594FFF77A
:1023F000F5F9002801D0FEF79FFA06B010BD0000E5
:10240000002C0140680000200C4810B50A4901600A
:102410004FF4E1314160002181600C22C160C0E9CC
:1024200004128161C161FFF7F5FB002803D0BDE80C
:102430001040FEF781BA10BD00380140B000002006
:10244000FEE7FEE770B500240021204600F0F4F816
:102450000025002000F05AF96D1CEDB2802DF8D354
:10246000641CE4B2082CEFD370BD0000124810B514
:10247000816986B041F00801816180690F4C00F0EC
:1024800008000490002002904FF44070009011204A
:1024900001900320039069462046FEF7D1FA0122FD
:1024A00011022046FEF7BCFB012251022046FEF736
:1024B000B7FB06B010BD000000100240000C014048
:1024C0002DE9F047164E002407464FF080084FF4E0
:1024D0000079B51528FA04F0384201D0012200E055
:1024E000002249463046FEF79BFB01222946304632
:1024F000FEF796FB002229463046FEF791FB641C4E
:10250000E4B2082CE6D3012229463046FEF788FBC8
:1025100029463046BDE8F0470022FEF781BB0000A7
:10252000000C014070B501220B4D54022146284693
:10253000FEF776FB0122160231462846FEF770FBB5
:10254000002221462846FEF76BFB31462846BDE8AF
:1025500070400022FEF764BB000C014070B50A4DCC
:102560004FF40074002221462846FEF759FB012251
:1025700011022846FEF754FB21462846BDE870406C
:102580000122FEF74DBB0000000C014010B50020F9
:102590004FF47A720021491C9142FCD3401C9042B6
:1025A000F8D3FFF763FFAE2000F09FF8D52000F0CE
:1025B0009CF8802000F099F8A82000F096F83F20C1
:1025C00000F093F8D32000F090F8002000F08DF890
:1025D000402000F08AF8A12000F087F8C82000F021
:1025E00084F8DA2000F081F8122000F07EF88120D3
:1025F00000F07BF8CF2000F078F8D92000F075F8D3
:10260000F12000F072F8DB2000F06FF8302000F0CD
:102610006CF8A42000F069F8A62000F066F88D2080
:1026200000F063F8142000F060F8AF2000F05DF8CF
:10263000BDE81040FFF706BF10B50C4640F0B000F3
:1026400000F053F8102040EA141000F04EF804F0A7
:102650000F00BDE8104000F048B800002DE9F0413F
:102660000746CE004000083E801E15464FF0FF385A
:10267000F1B2C0B2FFF7E0FF1148002400EB0515EE
:102680002819A0F5805090F8000E00F03FF8641C67
:10269000E4B2082CF4D308EB4700F1B2C0B2FFF764
:1026A000CBFF00242819A0F5805090F8080E00F008
:1026B0002DF8641CE4B2082CF4D3BDE8F0810000CE
:1026C000F83400082DE9F04115460E46074600246F
:1026D00006E03019C1B23846FFF7C0FF641CE4B20F
:1026E0002A5D002AF5D1BDE8F08110B50446FFF758
:1026F00019FF7820FFF7E4FE0020FFF7E1FE2046F7
:10270000FFF7DEFEBDE81040FFF728BF10B5044616
:10271000FFF708FF7820FFF7D3FE4020FFF7D0FE39
:102720002046FFF7CDFEBDE81040FFF717BF70470A
:102730007047FEF73BBD30B58FB028216846FDF7E6
:1027400008FD14210AA8FDF704FD01210804CDE9C4
:1027500000100024029402250491CDE907504FF4A3
:10276000E01009906846FEF795FE08B172B6FEE7E4
:102770000F20CDE90A054FF48060CDE90C4002211D
:102780000AA80E94FEF7AAFD002801D072B6FEE753
:102790000FB030BD70470000F0B50268194B1A4CFD
:1027A0001A4D4FF08047984205D0B84203D0A0425E
:1027B00001D0A84203D122F070064A683243984201
:1027C00005D0B84203D0A04201D0A84203D122F4E0
:1027D0004074CA6822434C6922F08002224302609E
:1027E0008A68C2620A688262984201D109690163FB
:1027F000012141610169C90703D0016921F001018B
:102800000161F0BD002C01400004004000080040C0
:1028100010B5846842EA032224F47F440A43224329
:10282000826010BD826822F070020A4342F0070104
:102830008160704710B5036A046A24F001040462E1
:10284000846924F0F00444EA021423F00A020A43E3
:102850008461026210BD10B5036A046A24F010049A
:102860000462846923F0A00324F4704444EA023231
:1028700043EA01118261016210BD10B5406A002176
:10288000C185C184FFF78FF810BD01680C3151E894
:10289000002F22F4907241E80023002BF5D101684B
:1028A000143151E8002F22F0010241E80023002BEF
:1028B000F5D1016B012909D101680C3151E8002FD4
:1028C00022F0100241E80023002BF5D1202180F8EE
:1028D000421000210163704708B590F84210222988
:1028E00001D0022008BD82684FF480539A4201D182
:1028F000016921B1816A9A421BD04AB10AE002689B
:10290000816A5268C2F308020A80816A891C08E061
:10291000026972B10268526802F07F020A70816A2D
:10292000491C8162C18D491E0904090CC18503D06F
:102930001BE002685268F1E70168CA6822F02002D1
:10294000CA600168CA6822F48072CA6001684A6974
:1029500022F001024A61202180F8421000214163E7
:10296000026B012A03D0FFF7C7F9002008BD0163FD
:1029700001680C3151E8002F22F0100241E80023D9
:10298000002BF5D101680A68D20602D50A684968A9
:102990000091818DFFF706F8E7E7000070B5044667
:1029A00000680169E26821F4405111430161216925
:1029B000A0680843616908432168CA6841F20C6352
:1029C0009A430243CA6020684169A26921F44071B8
:1029D000114341611E492068884202D1FEF724FD5F
:1029E00001E0FEF711FD00EBC00101EB0012606891
:1029F00064218000B2FBF0F3B3FBF1F36FF0180633
:102A00007343B2FBF0F5B2FBF0F605EB830532231E
:102A100003EB0515B5FBF1F5B6FBF1F605F0F00596
:102A200005EB0615B2FBF0F6B2FBF0F0B0FBF1F0EF
:102A30006FF01802504306EB800003EB0010B0FB70
:102A4000F1F0216800F00F002844886070BD00009C
:102A5000003801400148FEF7A7BF0000B000002089
:102A6000FEE700000FB4084B10B504A902AA0398B2
:102A700000F0F4F8044602A9002000F086FC20468D
:102A800010BC5DF814FB00008B3300080907090E29
:102A9000002804DB00F1E02080F80014704700F00B
:102AA0000F0000F1E02080F8141D704702E008C814
:102AB000121F08C1002AFAD170477047002001E0B8
:102AC00001C1121F002AFBD17047000001490860B4
:102AD00070470000100000202DE9FF5F82B0002148
:102AE000DDE90430020DDDF840B0034318D044F6B0
:102AF0001050A2F2FF3242431514119801281FD042
:102B0000A5EB0B00401C5FEA000A4FF000064E4F99
:102B1000DFF83891B046504615D5CAF1000413E0ED
:102B2000119801244AA3012801D16FEA0B010298F0
:102B3000119AC0E90031C0E9024206B0BDE8F09F39
:102B4000CBF10000DFE704460021404A491842EB80
:102B50000450CDE9001012E0E00707D032463B46B2
:102B600040464946FDF744FD8046894632463B468D
:102B700010461946FDF73CFD06460F466410002C32
:102B8000EAD1DDE90401DDE90023BAF1000F06DA3C
:102B9000FDF72EFD42464B46FDF72AFD05E0FDF709
:102BA00099FD42464B46FDF795FD04460E46002230
:102BB000284BFDF717FE03D84FF0FF30014607E022
:102BC0000022254B20463146FDF76BFCFDF7F1FD59
:102BD000102409E0002C0ADB0A220023FDF7CAFBBF
:102BE000039B30321A55641E50EA0102F2D1641C74
:102BF000039AC4F111031444119A012A03D001224B
:102C000008430DD10AE0084304D000204FF0110B17
:102C1000119072E7A3EB0B056D1E0DE05B4504DD23
:102C20004FF0000205F1010504E003DA4FF0000265
:102C3000A5F10105002AECD002981199C0E90231F2
:102C4000C0E9004579E70000000014400000F03FB3
:102C5000300000000000F0430000E03F2DE9FF4F8E
:102C600095B09B468946064600250FE2252877D178
:102C700000242746F84A0121059400E0044316F891
:102C8000013F203B01FA03F01042F7D130782A28A7
:102C900011D06FF02F033078A0F13002092A16D836
:102CA000059A44F0020402EB820203EB4202104454
:102CB000761C0590EFE759F8042B0592002A03DAF9
:102CC000504244F40054059044F00204761C3078DD
:102CD0002E2816D116F8010F44F004042A280DD02E
:102CE0006FF02F023078A0F13003092B09D807EBE1
:102CF000870302EB4303C718761CF3E759F8047BFC
:102D0000761C30786C280FD006DC4C2817D0682849
:102D10000DD06A2814D104E0742810D07A280FD17D
:102D20000DE044F400140AE044F4801401E044F49B
:102D300040147278824202D104F58014761C761C0D
:102D4000307866280BD013DC582877D009DC0028AF
:102D500075D04528F6D04628F4D047281AD19DE1F1
:102D600018E0632835D0642879D0652812D195E120
:102D7000702873D008DC6728F1D069286FD06E28DE
:102D80000DD06F2806D1B5E073282CD0752875D0EA
:102D9000782874D05A46179990476D1C75E1C4F392
:102DA0000250022809D003280DD0D9F800100428B9
:102DB0000DD00D6009F1040967E1D9F80010EA1798
:102DC000C1E90052F6E7D9F800100D80F2E70D7066
:102DD000F0E719F8041B8DF8001000208DF80100B1
:102DE000EA46012003E059F804AB4FF0FF306107D9
:102DF0004FF0000102D40DE008F101018846B9420C
:102E00000FDA8045F8DB1AF808100029F4D108E041
:102E100008F1010188468142FADB1AF808100029FE
:102E2000F6D105985B46A0EB080721463846179A6D
:102E300000F094FA284400EB080507E04DE029E192
:102E40000DE01AF8010B5A4617999047B8F101089E
:102E5000F7D25B4621463846179A13E142E00A2230
:102E60000092C4F302524FF0000A022A08D059F827
:102E700004CB032A4FEAEC710AD00DE029E02AE0E6
:102E800009F1070121F00702F2E802C1914609E0C9
:102E90000FFA8CFC4FEAEC71042A03D14FFA8CFC38
:102EA0004FEAEC71002907DA0A460021DCF1000C38
:102EB00061EB02012D2202E0220504D52B228DF8C0
:102EC0000420012203E0E20701D02022F7E7904628
:102ED00059E00A2102E010220DE010214FF0000A13
:102EE00000910BE010224FF0000A44F00404082780
:102EF000009203E008224FF0000A0092C4F302524D
:102F0000022A05D059F804CB0021032A08D009E091
:102F100009F1070121F00702F2E802C1914605E03C
:102F20001FFA8CFC042A01D10CF0FF0C4FF00008B2
:102F3000220728D5702806D0009B83F0100353EA9F
:102F40000A0305D00EE040228DF80420012208E09B
:102F50005CEA010206D030228DF804208DF80500CD
:102F600002229046009B83F0080353EA0A030AD129
:102F70005CEA010201D1620705D530228DF80420F8
:102F80004FF001087F1E582804D034A003900EA8EB
:102F900002900DE036A0F9E753466046009AFDF72F
:102FA000E9F984460398825C0298401E0290027000
:102FB0005CEA0100F0D1029806A9081A00F1200A83
:102FC000600702D524F4803400E00127574502DD74
:102FD000A7EB0A0000E0002000EB0A010090059832
:102FE0004144401A0590E00306D45B462146179AF7
:102FF000059800F0B3F90544002706E001A85A46F9
:10300000C05D179990476D1C7F1C4745F6DBE003B8
:103010000CD55B462146179A059800F09FF90544A8
:1030200004E030205A46179990476D1C0099481EBD
:1030300000900029F5DC08E0029802995A460078D1
:10304000491C0291179990476D1CBAF10001AAF131
:10305000010AF1DC65E1000009280100303132335A
:1030600034353637383961626364656600000000C4
:1030700030313233343536373839414243444546AE
:103080000000000000F058F90544761C3078002854
:103090007FF4ECAD19B02846BDE8F08F620700D48C
:1030A000062709F1070222F0070CFCE80223E1469B
:1030B00003F000485FEA080C02D00FF2702C0DE01C
:1030C0005FEA045C02D50FF2682C07E05FEAC47C7B
:1030D00002D00FF2602C01E0AFF2700C4FF0FF381D
:1030E00023F00043CDF850C065280CD006DC4528FD
:1030F00009D046281DD047283DD13DE0662818D08C
:1031000067287ED138E00021112F01DB112000E07B
:10311000781CCDE9000106A90EA8FFF7DDFCDDE96A
:103120000F010E9A03910021009207F1010A049108
:103130004DE04FF000400097CDE9011006A90EA820
:10314000FFF7CAFCDDE90F0203920E9B11990022E2
:10315000DDF80CA00093049211B9791C00EB010A70
:10316000B7EB0A0004D4C0F1FF3007F1010A049064
:10317000AAEB0700019044E0012F00DA01270021AB
:10318000112F01DD112000E03846CDE9000106A92C
:103190000EA8FFF7A1FCDDE90F010E9A03910021B3
:1031A00004910092BA4621070CD40399514500DAE4
:1031B0008A46BAF1010F05DD009AAAF10101515CBE
:1031C000302908D0B84202DA10F1040F06DA0121E2
:1031D000CDE9011015E0AAF10101E9E7002805DCBD
:1031E000049901440491AAEB000102E0411C5145FD
:1031F00000DD8A460499401A401C01904FF00040BF
:103200000290200704D40198504501DBCDF80480DA
:1032100000208DF84F0002980DF14F07B0F1004FDC
:1032200025D02B200E9002984FF0020800280CDACF
:10323000404202902D200E9007E00A210298FDF7EF
:1032400083F83031029007F8011DB8F10001A8F1B0
:103250000108F2DC02980028EFD1791E0E98087060
:10326000307800F0200040F0450007F8020D12A869
:10327000C01B00F107081498007800B1012000EB92
:103280000A01019801EBE07105984144401A401E83
:103290000590E00306D45B462146179A059800F096
:1032A0005DF805441498007818B15A46179990476C
:1032B0006D1CE00324D55B462146179A059800F063
:1032C0004DF805441CE00498002807DBDDE9030104
:1032D000884203DD0098405C179901E0179930207F
:1032E0005A469047049805F10105401C0490019846
:1032F000401E019004D12E205A46179990476D1C0C
:10330000BAF10001AAF1010ADDDC05E017F8010BB2
:103310005A46179990476D1CB8F10001A8F10108B1
:10332000F4DC5B462146179A0598ABE62D000000B9
:103330002B000000200000002DE9F041044600258C
:103340001E461746880404D405E039462020B047BD
:103350006D1C641EF9D52846BDE8F0812DE9F041C9
:10336000044600251E469046C80301D5302700E0DC
:103370002027880404D505E041463846B0476D1C37
:10338000641EF9D52846BDE8F0810A68531C0B601D
:10339000107070478EB0FDF711FFFFF7CCF9FEF704
:1033A000BFFFFEF7FBFFFEF7D9FFFFF72DF8FFF792
:1033B000EDF8FFF747F8012139A20846FFF782F937
:1033C00038A209210120FFF77DF93748FEF738FFC1
:1033D00028B136A201210320FFF774F9FEE70AA9FC
:1033E0003148FEF776FF07AA04A90AA8FEF7A6FE51
:1033F0000498FCF796FF02460B4630A16846FFF79B
:1034000031FB6A4601210220FFF75CF90598FCF7C1
:1034100088FF02460B4629A16846FFF723FB6A4650
:1034200001210320FFF74EF90698FCF77AFF0246C8
:103430000B4622A16846FFF715FB6A4601210420CE
:10344000FFF740F90798FCF76CFF02460B461DA1F9
:103450006846FFF707FB6A4609210220FFF732F9A9
:103460000898FCF75EFF02460B4616A16846FFF778
:10347000F9FA6A4609210320FFF724F90998FCF7B5
:1034800050FF02460B460FA16846FFF7EBFA6A466B
:1034900009210420FFF716F96420FDF7BFFA9EE723
:1034A0006700000064707300140000204D50553612
:1034B000303530204572726F72210000673A252E38
:1034C00032660000643A252E3266000070B505466B
:1034D000FCF7B8FF044620F00040C0F1FF40C00FE9
:1034E00008D025F00040C0F1FF40C00F04BF01200C
:1034F000FFF7ECFA204670BD00000000000000005D
:103500000000000000000000000000F800000000C3
:10351000000000333000000000100C06100C060004
:10352000000000000000000040C07840C07840006B
:10353000043F04043F040400007088FC08300000CD
:10354000001820FF211E0000F008F000E018000025
:1035500000211C031E211E0000F0088870000000DE
:103560001E2123241927211010160E000000000030
:103570000000000000000000000000E0180402004D
:10358000000000071820400000020418E0000000BE
:103590000040201807000000404080F080404000BC
:1035A0000202010F01020200000000F00000000012
:1035B0000101011F010101000000000000000000E6
:1035C00080B070000000000000000000000000005B
:1035D00000010101010101010000000000000000E4
:1035E000003030000000000000000000806018047F
:1035F000006018060100000000E010080810E0005C
:10360000000F102020100F00001010F80000000024
:103610000020203F2020000000700808088870006B
:1036200000302824222130000030088888483000EB
:103630000018202020110E000000C02010F800000B
:1036400000070424243F240000F8088888080800A4
:103650000019212020110E0000E0108888180000B9
:10366000000F112020110E0000380808C83808008B
:103670000000003F0000000000708808088870000B
:10368000001C222121221C0000E010080810E0008C
:103690000000312222110F00000000C0C000000015
:1036A000000000303000000000000080000000003A
:1036B0000000806000000000000080402010080032
:1036C00000010204081020004040404040404000FB
:1036D00004040404040404000008102040800000D6
:1036E0000020100804020100007048080808F000DB
:1036F0000000003036010000C030C828E810E000AB
:103700000718272423140B000000C038E000000035
:10371000203C23020227382008F88888887000009F
:10372000203F202020110E00C03008080808380073
:10373000071820202010080008F808080810E000EA
:10374000203F202020100F0008F88888E80810008B
:10375000203F20202320180008F88888E80810005F
:10376000203F200003000000C03008080838000097
:1037700007182020221E020008F808000008F80898
:10378000203F210101213F20000808F8080800001F
:103790000020203F2020000000000808F808080052
:1037A000C08080807F00000008F888C028180800CA
:1037B000203F20012638200008F808000000000003
:1037C000203F20202020300008F8F800F8F80800FA
:1037D000203F003F003F200008F830C00008F808F4
:1037E000203F200007183F00E01008080810E00004
:1037F0000F10202020100F0008F808080808F0001B
:10380000203F210101010000E01008080810E0003D
:103810000F18242438504F0008F8888888887000D2
:10382000203F2000030C3020007088080808380072
:103830000038202121221C00180808F80808180068
:103840000000203F2000000008F808000008F808E9
:10385000001F202020201F000878880000C838089A
:10386000000007380E010000F80800F80008F80012
:10387000033C0700073C03000818688080681808AC
:1038800020302C03032C30200838C800C83808002A
:103890000000203F2000000010080808C838080079
:1038A0002038262120201800000000FE020202001D
:1038B0000000007F40404000000C30C000000000CD
:1038C000000000010638C00000020202FE000000F5
:1038D000004040407F00000000000402020204009B
:1038E00000000000000000000000000000000000D8
:1038F00080808080808080800002020400000000C0
:1039000000000000000000000000808080800000B7
:103910000019242222223F2008F8008080000000A5
:10392000003F112020110E00000000808080000068
:10393000000E112020201100000000808088F80077
:10394000000E112020103F200000808080800000A9
:10395000001F222222221300008080F0888888180D
:103960000020203F20200000000080808080800018
:10397000006B94949493600008F8008080800000AD
:10398000203F210000203F20008098980000000088
:103990000020203F202000000000008098980000B8
:1039A00000C08080807F000008F8000080808000D8
:1039B000203F24022D302000000808F800000000FD
:1039C0000020203F202000008080808080808000B8
:1039D000203F20003F20003F80800080808000004A
:1039E000203F210000203F200000808080800000D8
:1039F000001F202020201F00808000808000000009
:103A000080FFA12020110E00000000808080800037
:103A1000000E112020A0FF80808080008080800028
:103A200020203F2120000100000080808080800055
:103A30000033242424241900008080E080800000CA
:103A40000000001F20200000808000000080800017
:103A5000001F202020103F20808080000080808078
:103A600000010E3008060100808000800080808008
:103A70000F300C030C300F0000808000808080002D
:103A80000020312E0E312000808080000080808058
:103A900080818E7018060100008080808080800008
:103AA0000021302C2221300000000000807C020226
:103AB00000000000003F404000000000FF00000048
:103AC00000000000FF0000000002027C80000000F7
:103AD0000040403F00000000000601010202040413
:103AE00000000000000000000102020304050607B8
:103AF00008090A0B0C0D0E0F10100000000000004A
:103B0000000001020304060708090000000001028A
:103B100003040000343B00080000002014000000F3
:103B2000AC2A0008483B000814000020E404000010
:103B3000BC2A000801000000100000000000000086
:083B400000127A0000000000F1
:04000005080000ED02
:00000001FF
